{
	"compilerInput": "{\"language\":\"Solidity\",\"sources\":{\"CCC..sol\":{\"content\":\"// SPDX-License-Identifier: MIT\\npragma solidity ^0.8.20;\\n\\n/*\\nCarbon Credit Coins (CCC)\\nInstitutional ERC20 Token with Transparency Layer\\n*/\\n\\nimport \\\"@openzeppelin/contracts/token/ERC20/ERC20.sol\\\";\\nimport \\\"@openzeppelin/contracts/access/Ownable.sol\\\";\\n\\ncontract CarbonCreditCoins is ERC20, Ownable {\\n\\n    // =========================\\n    // TOKEN CONFIG\\n    // =========================\\n\\n    uint256 public constant MAX_SUPPLY = 20000000000 * 10**18;\\n\\n    // =========================\\n    // METADATA\\n    // =========================\\n\\n    string public imageURI;\\n\\n    string public projectInfo =\\n        \\\"Carbon Credit Coins (CCC) is a digital asset designed to represent environmental value through tokenization of carbon-related assets, supported by documentation, audits, and transparency mechanisms.\\\";\\n\\n    // =========================\\n    // RESERVE\\n    // =========================\\n\\n    address public reserveWallet;\\n\\n    // =========================\\n    // CERTIFICATES (IPFS / LINKS)\\n    // =========================\\n\\n    struct Certificate {\\n        string name;\\n        string link;\\n        uint256 timestamp;\\n        string description;\\n    }\\n\\n    Certificate[] public certificates;\\n\\n    // =========================\\n    // EVENTS\\n    // =========================\\n\\n    event CertificateAdded(\\n        uint256 indexed id,\\n        string name,\\n        string link,\\n        string description\\n    );\\n\\n    event ReserveWalletUpdated(address newReserveWallet);\\n\\n    // =========================\\n    // CONSTRUCTOR\\n    // =========================\\n\\n    constructor(\\n        address masterWallet,\\n        string memory _imageURI,\\n        address _reserveWallet\\n    )\\n        ERC20(\\\"Carbon Credit Coins\\\", \\\"CCC\\\")\\n        Ownable(masterWallet)\\n    {\\n        require(masterWallet != address(0), \\\"Invalid owner\\\");\\n        require(_reserveWallet != address(0), \\\"Invalid reserve\\\");\\n\\n        imageURI = _imageURI;\\n        reserveWallet = _reserveWallet;\\n\\n        _mint(masterWallet, MAX_SUPPLY);\\n\\n        // =========================\\n        // INITIAL DOCUMENTS\\n        // =========================\\n\\n        certificates.push(Certificate(\\n            \\\"Project Documentation\\\",\\n            \\\"https://documentccc.digital/\\\",\\n            block.timestamp,\\n            \\\"Environmental and asset documentation\\\"\\n        ));\\n\\n        certificates.push(Certificate(\\n            \\\"Audits and Certifications\\\",\\n            \\\"https://documentccc.online/\\\",\\n            block.timestamp,\\n            \\\"Audit reports and certifications\\\"\\n        ));\\n\\n        certificates.push(Certificate(\\n            \\\"Whitepaper CCC\\\",\\n            \\\"https://whitepaperccc.online/\\\",\\n            block.timestamp,\\n            \\\"Official project whitepaper\\\"\\n        ));\\n    }\\n\\n    // =========================\\n    // ADMIN FUNCTIONS\\n    // =========================\\n\\n    function setReserveWallet(address _wallet) external onlyOwner {\\n        require(_wallet != address(0), \\\"Invalid address\\\");\\n        reserveWallet = _wallet;\\n        emit ReserveWalletUpdated(_wallet);\\n    }\\n\\n    function setImageURI(string memory _uri) external onlyOwner {\\n        imageURI = _uri;\\n    }\\n\\n    function addCertificate(\\n        string memory _name,\\n        string memory _link,\\n        string memory _desc\\n    ) external onlyOwner {\\n        certificates.push(\\n            Certificate(_name, _link, block.timestamp, _desc)\\n        );\\n\\n        emit CertificateAdded(\\n            certificates.length - 1,\\n            _name,\\n            _link,\\n            _desc\\n        );\\n    }\\n\\n    // =========================\\n    // VIEW FUNCTIONS\\n    // =========================\\n\\n    function getCertificatesCount() external view returns (uint256) {\\n        return certificates.length;\\n    }\\n\\n    function getCertificate(uint256 index)\\n        external\\n        view\\n        returns (\\n            string memory name,\\n            string memory link,\\n            uint256 timestamp,\\n            string memory description\\n        )\\n    {\\n        Certificate memory c = certificates[index];\\n        return (c.name, c.link, c.timestamp, c.description);\\n    }\\n}\\n\"},\"@openzeppelin/contracts/token/ERC20/ERC20.sol\":{\"content\":\"// SPDX-License-Identifier: MIT\\n// OpenZeppelin Contracts (last updated v5.5.0) (token/ERC20/ERC20.sol)\\n\\npragma solidity ^0.8.20;\\n\\nimport {IERC20} from \\\"./IERC20.sol\\\";\\nimport {IERC20Metadata} from \\\"./extensions/IERC20Metadata.sol\\\";\\nimport {Context} from \\\"../../utils/Context.sol\\\";\\nimport {IERC20Errors} from \\\"../../interfaces/draft-IERC6093.sol\\\";\\n\\n/**\\n * @dev Implementation of the {IERC20} interface.\\n *\\n * This implementation is agnostic to the way tokens are created. This means\\n * that a supply mechanism has to be added in a derived contract using {_mint}.\\n *\\n * TIP: For a detailed writeup see our guide\\n * https://forum.openzeppelin.com/t/how-to-implement-erc20-supply-mechanisms/226[How\\n * to implement supply mechanisms].\\n *\\n * The default value of {decimals} is 18. To change this, you should override\\n * this function so it returns a different value.\\n *\\n * We have followed general OpenZeppelin Contracts guidelines: functions revert\\n * instead returning `false` on failure. This behavior is nonetheless\\n * conventional and does not conflict with the expectations of ERC-20\\n * applications.\\n */\\nabstract contract ERC20 is Context, IERC20, IERC20Metadata, IERC20Errors {\\n    mapping(address account => uint256) private _balances;\\n\\n    mapping(address account => mapping(address spender => uint256)) private _allowances;\\n\\n    uint256 private _totalSupply;\\n\\n    string private _name;\\n    string private _symbol;\\n\\n    /**\\n     * @dev Sets the values for {name} and {symbol}.\\n     *\\n     * Both values are immutable: they can only be set once during construction.\\n     */\\n    constructor(string memory name_, string memory symbol_) {\\n        _name = name_;\\n        _symbol = symbol_;\\n    }\\n\\n    /**\\n     * @dev Returns the name of the token.\\n     */\\n    function name() public view virtual returns (string memory) {\\n        return _name;\\n    }\\n\\n    /**\\n     * @dev Returns the symbol of the token, usually a shorter version of the\\n     * name.\\n     */\\n    function symbol() public view virtual returns (string memory) {\\n        return _symbol;\\n    }\\n\\n    /**\\n     * @dev Returns the number of decimals used to get its user representation.\\n     * For example, if `decimals` equals `2`, a balance of `505` tokens should\\n     * be displayed to a user as `5.05` (`505 / 10 ** 2`).\\n     *\\n     * Tokens usually opt for a value of 18, imitating the relationship between\\n     * Ether and Wei. This is the default value returned by this function, unless\\n     * it's overridden.\\n     *\\n     * NOTE: This information is only used for _display_ purposes: it in\\n     * no way affects any of the arithmetic of the contract, including\\n     * {IERC20-balanceOf} and {IERC20-transfer}.\\n     */\\n    function decimals() public view virtual returns (uint8) {\\n        return 18;\\n    }\\n\\n    /// @inheritdoc IERC20\\n    function totalSupply() public view virtual returns (uint256) {\\n        return _totalSupply;\\n    }\\n\\n    /// @inheritdoc IERC20\\n    function balanceOf(address account) public view virtual returns (uint256) {\\n        return _balances[account];\\n    }\\n\\n    /**\\n     * @dev See {IERC20-transfer}.\\n     *\\n     * Requirements:\\n     *\\n     * - `to` cannot be the zero address.\\n     * - the caller must have a balance of at least `value`.\\n     */\\n    function transfer(address to, uint256 value) public virtual returns (bool) {\\n        address owner = _msgSender();\\n        _transfer(owner, to, value);\\n        return true;\\n    }\\n\\n    /// @inheritdoc IERC20\\n    function allowance(address owner, address spender) public view virtual returns (uint256) {\\n        return _allowances[owner][spender];\\n    }\\n\\n    /**\\n     * @dev See {IERC20-approve}.\\n     *\\n     * NOTE: If `value` is the maximum `uint256`, the allowance is not updated on\\n     * `transferFrom`. This is semantically equivalent to an infinite approval.\\n     *\\n     * Requirements:\\n     *\\n     * - `spender` cannot be the zero address.\\n     */\\n    function approve(address spender, uint256 value) public virtual returns (bool) {\\n        address owner = _msgSender();\\n        _approve(owner, spender, value);\\n        return true;\\n    }\\n\\n    /**\\n     * @dev See {IERC20-transferFrom}.\\n     *\\n     * Skips emitting an {Approval} event indicating an allowance update. This is not\\n     * required by the ERC. See {xref-ERC20-_approve-address-address-uint256-bool-}[_approve].\\n     *\\n     * NOTE: Does not update the allowance if the current allowance\\n     * is the maximum `uint256`.\\n     *\\n     * Requirements:\\n     *\\n     * - `from` and `to` cannot be the zero address.\\n     * - `from` must have a balance of at least `value`.\\n     * - the caller must have allowance for ``from``'s tokens of at least\\n     * `value`.\\n     */\\n    function transferFrom(address from, address to, uint256 value) public virtual returns (bool) {\\n        address spender = _msgSender();\\n        _spendAllowance(from, spender, value);\\n        _transfer(from, to, value);\\n        return true;\\n    }\\n\\n    /**\\n     * @dev Moves a `value` amount of tokens from `from` to `to`.\\n     *\\n     * This internal function is equivalent to {transfer}, and can be used to\\n     * e.g. implement automatic token fees, slashing mechanisms, etc.\\n     *\\n     * Emits a {Transfer} event.\\n     *\\n     * NOTE: This function is not virtual, {_update} should be overridden instead.\\n     */\\n    function _transfer(address from, address to, uint256 value) internal {\\n        if (from == address(0)) {\\n            revert ERC20InvalidSender(address(0));\\n        }\\n        if (to == address(0)) {\\n            revert ERC20InvalidReceiver(address(0));\\n        }\\n        _update(from, to, value);\\n    }\\n\\n    /**\\n     * @dev Transfers a `value` amount of tokens from `from` to `to`, or alternatively mints (or burns) if `from`\\n     * (or `to`) is the zero address. All customizations to transfers, mints, and burns should be done by overriding\\n     * this function.\\n     *\\n     * Emits a {Transfer} event.\\n     */\\n    function _update(address from, address to, uint256 value) internal virtual {\\n        if (from == address(0)) {\\n            // Overflow check required: The rest of the code assumes that totalSupply never overflows\\n            _totalSupply += value;\\n        } else {\\n            uint256 fromBalance = _balances[from];\\n            if (fromBalance < value) {\\n                revert ERC20InsufficientBalance(from, fromBalance, value);\\n            }\\n            unchecked {\\n                // Overflow not possible: value <= fromBalance <= totalSupply.\\n                _balances[from] = fromBalance - value;\\n            }\\n        }\\n\\n        if (to == address(0)) {\\n            unchecked {\\n                // Overflow not possible: value <= totalSupply or value <= fromBalance <= totalSupply.\\n                _totalSupply -= value;\\n            }\\n        } else {\\n            unchecked {\\n                // Overflow not possible: balance + value is at most totalSupply, which we know fits into a uint256.\\n                _balances[to] += value;\\n            }\\n        }\\n\\n        emit Transfer(from, to, value);\\n    }\\n\\n    /**\\n     * @dev Creates a `value` amount of tokens and assigns them to `account`, by transferring it from address(0).\\n     * Relies on the `_update` mechanism\\n     *\\n     * Emits a {Transfer} event with `from` set to the zero address.\\n     *\\n     * NOTE: This function is not virtual, {_update} should be overridden instead.\\n     */\\n    function _mint(address account, uint256 value) internal {\\n        if (account == address(0)) {\\n            revert ERC20InvalidReceiver(address(0));\\n        }\\n        _update(address(0), account, value);\\n    }\\n\\n    /**\\n     * @dev Destroys a `value` amount of tokens from `account`, lowering the total supply.\\n     * Relies on the `_update` mechanism.\\n     *\\n     * Emits a {Transfer} event with `to` set to the zero address.\\n     *\\n     * NOTE: This function is not virtual, {_update} should be overridden instead\\n     */\\n    function _burn(address account, uint256 value) internal {\\n        if (account == address(0)) {\\n            revert ERC20InvalidSender(address(0));\\n        }\\n        _update(account, address(0), value);\\n    }\\n\\n    /**\\n     * @dev Sets `value` as the allowance of `spender` over the `owner`'s tokens.\\n     *\\n     * This internal function is equivalent to `approve`, and can be used to\\n     * e.g. set automatic allowances for certain subsystems, etc.\\n     *\\n     * Emits an {Approval} event.\\n     *\\n     * Requirements:\\n     *\\n     * - `owner` cannot be the zero address.\\n     * - `spender` cannot be the zero address.\\n     *\\n     * Overrides to this logic should be done to the variant with an additional `bool emitEvent` argument.\\n     */\\n    function _approve(address owner, address spender, uint256 value) internal {\\n        _approve(owner, spender, value, true);\\n    }\\n\\n    /**\\n     * @dev Variant of {_approve} with an optional flag to enable or disable the {Approval} event.\\n     *\\n     * By default (when calling {_approve}) the flag is set to true. On the other hand, approval changes made by\\n     * `_spendAllowance` during the `transferFrom` operation sets the flag to false. This saves gas by not emitting any\\n     * `Approval` event during `transferFrom` operations.\\n     *\\n     * Anyone who wishes to continue emitting `Approval` events on the `transferFrom` operation can force the flag to\\n     * true using the following override:\\n     *\\n     * ```solidity\\n     * function _approve(address owner, address spender, uint256 value, bool) internal virtual override {\\n     *     super._approve(owner, spender, value, true);\\n     * }\\n     * ```\\n     *\\n     * Requirements are the same as {_approve}.\\n     */\\n    function _approve(address owner, address spender, uint256 value, bool emitEvent) internal virtual {\\n        if (owner == address(0)) {\\n            revert ERC20InvalidApprover(address(0));\\n        }\\n        if (spender == address(0)) {\\n            revert ERC20InvalidSpender(address(0));\\n        }\\n        _allowances[owner][spender] = value;\\n        if (emitEvent) {\\n            emit Approval(owner, spender, value);\\n        }\\n    }\\n\\n    /**\\n     * @dev Updates `owner`'s allowance for `spender` based on spent `value`.\\n     *\\n     * Does not update the allowance value in case of infinite allowance.\\n     * Revert if not enough allowance is available.\\n     *\\n     * Does not emit an {Approval} event.\\n     */\\n    function _spendAllowance(address owner, address spender, uint256 value) internal virtual {\\n        uint256 currentAllowance = allowance(owner, spender);\\n        if (currentAllowance < type(uint256).max) {\\n            if (currentAllowance < value) {\\n                revert ERC20InsufficientAllowance(spender, currentAllowance, value);\\n            }\\n            unchecked {\\n                _approve(owner, spender, currentAllowance - value, false);\\n            }\\n        }\\n    }\\n}\\n\"},\"@openzeppelin/contracts/token/ERC20/IERC20.sol\":{\"content\":\"// SPDX-License-Identifier: MIT\\n// OpenZeppelin Contracts (last updated v5.4.0) (token/ERC20/IERC20.sol)\\n\\npragma solidity >=0.4.16;\\n\\n/**\\n * @dev Interface of the ERC-20 standard as defined in the ERC.\\n */\\ninterface IERC20 {\\n    /**\\n     * @dev Emitted when `value` tokens are moved from one account (`from`) to\\n     * another (`to`).\\n     *\\n     * Note that `value` may be zero.\\n     */\\n    event Transfer(address indexed from, address indexed to, uint256 value);\\n\\n    /**\\n     * @dev Emitted when the allowance of a `spender` for an `owner` is set by\\n     * a call to {approve}. `value` is the new allowance.\\n     */\\n    event Approval(address indexed owner, address indexed spender, uint256 value);\\n\\n    /**\\n     * @dev Returns the value of tokens in existence.\\n     */\\n    function totalSupply() external view returns (uint256);\\n\\n    /**\\n     * @dev Returns the value of tokens owned by `account`.\\n     */\\n    function balanceOf(address account) external view returns (uint256);\\n\\n    /**\\n     * @dev Moves a `value` amount of tokens from the caller's account to `to`.\\n     *\\n     * Returns a boolean value indicating whether the operation succeeded.\\n     *\\n     * Emits a {Transfer} event.\\n     */\\n    function transfer(address to, uint256 value) external returns (bool);\\n\\n    /**\\n     * @dev Returns the remaining number of tokens that `spender` will be\\n     * allowed to spend on behalf of `owner` through {transferFrom}. This is\\n     * zero by default.\\n     *\\n     * This value changes when {approve} or {transferFrom} are called.\\n     */\\n    function allowance(address owner, address spender) external view returns (uint256);\\n\\n    /**\\n     * @dev Sets a `value` amount of tokens as the allowance of `spender` over the\\n     * caller's tokens.\\n     *\\n     * Returns a boolean value indicating whether the operation succeeded.\\n     *\\n     * IMPORTANT: Beware that changing an allowance with this method brings the risk\\n     * that someone may use both the old and the new allowance by unfortunate\\n     * transaction ordering. One possible solution to mitigate this race\\n     * condition is to first reduce the spender's allowance to 0 and set the\\n     * desired value afterwards:\\n     * https://github.com/ethereum/EIPs/issues/20#issuecomment-263524729\\n     *\\n     * Emits an {Approval} event.\\n     */\\n    function approve(address spender, uint256 value) external returns (bool);\\n\\n    /**\\n     * @dev Moves a `value` amount of tokens from `from` to `to` using the\\n     * allowance mechanism. `value` is then deducted from the caller's\\n     * allowance.\\n     *\\n     * Returns a boolean value indicating whether the operation succeeded.\\n     *\\n     * Emits a {Transfer} event.\\n     */\\n    function transferFrom(address from, address to, uint256 value) external returns (bool);\\n}\\n\"},\"@openzeppelin/contracts/token/ERC20/extensions/IERC20Metadata.sol\":{\"content\":\"// SPDX-License-Identifier: MIT\\n// OpenZeppelin Contracts (last updated v5.4.0) (token/ERC20/extensions/IERC20Metadata.sol)\\n\\npragma solidity >=0.6.2;\\n\\nimport {IERC20} from \\\"../IERC20.sol\\\";\\n\\n/**\\n * @dev Interface for the optional metadata functions from the ERC-20 standard.\\n */\\ninterface IERC20Metadata is IERC20 {\\n    /**\\n     * @dev Returns the name of the token.\\n     */\\n    function name() external view returns (string memory);\\n\\n    /**\\n     * @dev Returns the symbol of the token.\\n     */\\n    function symbol() external view returns (string memory);\\n\\n    /**\\n     * @dev Returns the decimals places of the token.\\n     */\\n    function decimals() external view returns (uint8);\\n}\\n\"},\"@openzeppelin/contracts/utils/Context.sol\":{\"content\":\"// SPDX-License-Identifier: MIT\\n// OpenZeppelin Contracts (last updated v5.0.1) (utils/Context.sol)\\n\\npragma solidity ^0.8.20;\\n\\n/**\\n * @dev Provides information about the current execution context, including the\\n * sender of the transaction and its data. While these are generally available\\n * via msg.sender and msg.data, they should not be accessed in such a direct\\n * manner, since when dealing with meta-transactions the account sending and\\n * paying for execution may not be the actual sender (as far as an application\\n * is concerned).\\n *\\n * This contract is only required for intermediate, library-like contracts.\\n */\\nabstract contract Context {\\n    function _msgSender() internal view virtual returns (address) {\\n        return msg.sender;\\n    }\\n\\n    function _msgData() internal view virtual returns (bytes calldata) {\\n        return msg.data;\\n    }\\n\\n    function _contextSuffixLength() internal view virtual returns (uint256) {\\n        return 0;\\n    }\\n}\\n\"},\"@openzeppelin/contracts/interfaces/draft-IERC6093.sol\":{\"content\":\"// SPDX-License-Identifier: MIT\\n// OpenZeppelin Contracts (last updated v5.5.0) (interfaces/draft-IERC6093.sol)\\n\\npragma solidity >=0.8.4;\\n\\n/**\\n * @dev Standard ERC-20 Errors\\n * Interface of the https://eips.ethereum.org/EIPS/eip-6093[ERC-6093] custom errors for ERC-20 tokens.\\n */\\ninterface IERC20Errors {\\n    /**\\n     * @dev Indicates an error related to the current `balance` of a `sender`. Used in transfers.\\n     * @param sender Address whose tokens are being transferred.\\n     * @param balance Current balance for the interacting account.\\n     * @param needed Minimum amount required to perform a transfer.\\n     */\\n    error ERC20InsufficientBalance(address sender, uint256 balance, uint256 needed);\\n\\n    /**\\n     * @dev Indicates a failure with the token `sender`. Used in transfers.\\n     * @param sender Address whose tokens are being transferred.\\n     */\\n    error ERC20InvalidSender(address sender);\\n\\n    /**\\n     * @dev Indicates a failure with the token `receiver`. Used in transfers.\\n     * @param receiver Address to which tokens are being transferred.\\n     */\\n    error ERC20InvalidReceiver(address receiver);\\n\\n    /**\\n     * @dev Indicates a failure with the `spender`’s `allowance`. Used in transfers.\\n     * @param spender Address that may be allowed to operate on tokens without being their owner.\\n     * @param allowance Amount of tokens a `spender` is allowed to operate with.\\n     * @param needed Minimum amount required to perform a transfer.\\n     */\\n    error ERC20InsufficientAllowance(address spender, uint256 allowance, uint256 needed);\\n\\n    /**\\n     * @dev Indicates a failure with the `approver` of a token to be approved. Used in approvals.\\n     * @param approver Address initiating an approval operation.\\n     */\\n    error ERC20InvalidApprover(address approver);\\n\\n    /**\\n     * @dev Indicates a failure with the `spender` to be approved. Used in approvals.\\n     * @param spender Address that may be allowed to operate on tokens without being their owner.\\n     */\\n    error ERC20InvalidSpender(address spender);\\n}\\n\\n/**\\n * @dev Standard ERC-721 Errors\\n * Interface of the https://eips.ethereum.org/EIPS/eip-6093[ERC-6093] custom errors for ERC-721 tokens.\\n */\\ninterface IERC721Errors {\\n    /**\\n     * @dev Indicates that an address can't be an owner. For example, `address(0)` is a forbidden owner in ERC-721.\\n     * Used in balance queries.\\n     * @param owner Address of the current owner of a token.\\n     */\\n    error ERC721InvalidOwner(address owner);\\n\\n    /**\\n     * @dev Indicates a `tokenId` whose `owner` is the zero address.\\n     * @param tokenId Identifier number of a token.\\n     */\\n    error ERC721NonexistentToken(uint256 tokenId);\\n\\n    /**\\n     * @dev Indicates an error related to the ownership over a particular token. Used in transfers.\\n     * @param sender Address whose tokens are being transferred.\\n     * @param tokenId Identifier number of a token.\\n     * @param owner Address of the current owner of a token.\\n     */\\n    error ERC721IncorrectOwner(address sender, uint256 tokenId, address owner);\\n\\n    /**\\n     * @dev Indicates a failure with the token `sender`. Used in transfers.\\n     * @param sender Address whose tokens are being transferred.\\n     */\\n    error ERC721InvalidSender(address sender);\\n\\n    /**\\n     * @dev Indicates a failure with the token `receiver`. Used in transfers.\\n     * @param receiver Address to which tokens are being transferred.\\n     */\\n    error ERC721InvalidReceiver(address receiver);\\n\\n    /**\\n     * @dev Indicates a failure with the `operator`’s approval. Used in transfers.\\n     * @param operator Address that may be allowed to operate on tokens without being their owner.\\n     * @param tokenId Identifier number of a token.\\n     */\\n    error ERC721InsufficientApproval(address operator, uint256 tokenId);\\n\\n    /**\\n     * @dev Indicates a failure with the `approver` of a token to be approved. Used in approvals.\\n     * @param approver Address initiating an approval operation.\\n     */\\n    error ERC721InvalidApprover(address approver);\\n\\n    /**\\n     * @dev Indicates a failure with the `operator` to be approved. Used in approvals.\\n     * @param operator Address that may be allowed to operate on tokens without being their owner.\\n     */\\n    error ERC721InvalidOperator(address operator);\\n}\\n\\n/**\\n * @dev Standard ERC-1155 Errors\\n * Interface of the https://eips.ethereum.org/EIPS/eip-6093[ERC-6093] custom errors for ERC-1155 tokens.\\n */\\ninterface IERC1155Errors {\\n    /**\\n     * @dev Indicates an error related to the current `balance` of a `sender`. Used in transfers.\\n     * @param sender Address whose tokens are being transferred.\\n     * @param balance Current balance for the interacting account.\\n     * @param needed Minimum amount required to perform a transfer.\\n     * @param tokenId Identifier number of a token.\\n     */\\n    error ERC1155InsufficientBalance(address sender, uint256 balance, uint256 needed, uint256 tokenId);\\n\\n    /**\\n     * @dev Indicates a failure with the token `sender`. Used in transfers.\\n     * @param sender Address whose tokens are being transferred.\\n     */\\n    error ERC1155InvalidSender(address sender);\\n\\n    /**\\n     * @dev Indicates a failure with the token `receiver`. Used in transfers.\\n     * @param receiver Address to which tokens are being transferred.\\n     */\\n    error ERC1155InvalidReceiver(address receiver);\\n\\n    /**\\n     * @dev Indicates a failure with the `operator`’s approval. Used in transfers.\\n     * @param operator Address that may be allowed to operate on tokens without being their owner.\\n     * @param owner Address of the current owner of a token.\\n     */\\n    error ERC1155MissingApprovalForAll(address operator, address owner);\\n\\n    /**\\n     * @dev Indicates a failure with the `approver` of a token to be approved. Used in approvals.\\n     * @param approver Address initiating an approval operation.\\n     */\\n    error ERC1155InvalidApprover(address approver);\\n\\n    /**\\n     * @dev Indicates a failure with the `operator` to be approved. Used in approvals.\\n     * @param operator Address that may be allowed to operate on tokens without being their owner.\\n     */\\n    error ERC1155InvalidOperator(address operator);\\n\\n    /**\\n     * @dev Indicates an array length mismatch between ids and values in a safeBatchTransferFrom operation.\\n     * Used in batch transfers.\\n     * @param idsLength Length of the array of token identifiers\\n     * @param valuesLength Length of the array of token amounts\\n     */\\n    error ERC1155InvalidArrayLength(uint256 idsLength, uint256 valuesLength);\\n}\\n\"},\"@openzeppelin/contracts/access/Ownable.sol\":{\"content\":\"// SPDX-License-Identifier: MIT\\n// OpenZeppelin Contracts (last updated v5.0.0) (access/Ownable.sol)\\n\\npragma solidity ^0.8.20;\\n\\nimport {Context} from \\\"../utils/Context.sol\\\";\\n\\n/**\\n * @dev Contract module which provides a basic access control mechanism, where\\n * there is an account (an owner) that can be granted exclusive access to\\n * specific functions.\\n *\\n * The initial owner is set to the address provided by the deployer. This can\\n * later be changed with {transferOwnership}.\\n *\\n * This module is used through inheritance. It will make available the modifier\\n * `onlyOwner`, which can be applied to your functions to restrict their use to\\n * the owner.\\n */\\nabstract contract Ownable is Context {\\n    address private _owner;\\n\\n    /**\\n     * @dev The caller account is not authorized to perform an operation.\\n     */\\n    error OwnableUnauthorizedAccount(address account);\\n\\n    /**\\n     * @dev The owner is not a valid owner account. (eg. `address(0)`)\\n     */\\n    error OwnableInvalidOwner(address owner);\\n\\n    event OwnershipTransferred(address indexed previousOwner, address indexed newOwner);\\n\\n    /**\\n     * @dev Initializes the contract setting the address provided by the deployer as the initial owner.\\n     */\\n    constructor(address initialOwner) {\\n        if (initialOwner == address(0)) {\\n            revert OwnableInvalidOwner(address(0));\\n        }\\n        _transferOwnership(initialOwner);\\n    }\\n\\n    /**\\n     * @dev Throws if called by any account other than the owner.\\n     */\\n    modifier onlyOwner() {\\n        _checkOwner();\\n        _;\\n    }\\n\\n    /**\\n     * @dev Returns the address of the current owner.\\n     */\\n    function owner() public view virtual returns (address) {\\n        return _owner;\\n    }\\n\\n    /**\\n     * @dev Throws if the sender is not the owner.\\n     */\\n    function _checkOwner() internal view virtual {\\n        if (owner() != _msgSender()) {\\n            revert OwnableUnauthorizedAccount(_msgSender());\\n        }\\n    }\\n\\n    /**\\n     * @dev Leaves the contract without owner. It will not be possible to call\\n     * `onlyOwner` functions. Can only be called by the current owner.\\n     *\\n     * NOTE: Renouncing ownership will leave the contract without an owner,\\n     * thereby disabling any functionality that is only available to the owner.\\n     */\\n    function renounceOwnership() public virtual onlyOwner {\\n        _transferOwnership(address(0));\\n    }\\n\\n    /**\\n     * @dev Transfers ownership of the contract to a new account (`newOwner`).\\n     * Can only be called by the current owner.\\n     */\\n    function transferOwnership(address newOwner) public virtual onlyOwner {\\n        if (newOwner == address(0)) {\\n            revert OwnableInvalidOwner(address(0));\\n        }\\n        _transferOwnership(newOwner);\\n    }\\n\\n    /**\\n     * @dev Transfers ownership of the contract to a new account (`newOwner`).\\n     * Internal function without access restriction.\\n     */\\n    function _transferOwnership(address newOwner) internal virtual {\\n        address oldOwner = _owner;\\n        _owner = newOwner;\\n        emit OwnershipTransferred(oldOwner, newOwner);\\n    }\\n}\\n\"}},\"settings\":{\"optimizer\":{\"enabled\":false,\"runs\":200},\"outputSelection\":{\"*\":{\"\":[\"ast\"],\"*\":[\"abi\",\"metadata\",\"devdoc\",\"userdoc\",\"storageLayout\",\"evm.legacyAssembly\",\"evm.bytecode\",\"evm.deployedBytecode\",\"evm.methodIdentifiers\",\"evm.gasEstimates\",\"evm.assembly\"]}},\"remappings\":[],\"evmVersion\":\"shanghai\"}}",
	"name": "CarbonCreditCoins",
	"bytecode": {
		"linkReferences": {},
		"object": "608060405260405180610100016040528060c681526020016200310760c69139600790816200002f919062000c3c565b503480156200003c575f80fd5b50604051620031cd380380620031cd833981810160405281019062000062919062000ed9565b826040518060400160405280601381526020017f436172626f6e2043726564697420436f696e73000000000000000000000000008152506040518060400160405280600381526020017f43434300000000000000000000000000000000000000000000000000000000008152508160039081620000e0919062000c3c565b508060049081620000f2919062000c3c565b5050505f73ffffffffffffffffffffffffffffffffffffffff168173ffffffffffffffffffffffffffffffffffffffff160362000168575f6040517f1e4fbdf70000000000000000000000000000000000000000000000000000000081526004016200015f919062000f62565b60405180910390fd5b62000179816200066760201b60201c565b505f73ffffffffffffffffffffffffffffffffffffffff168373ffffffffffffffffffffffffffffffffffffffff1603620001eb576040517f08c379a0000000000000000000000000000000000000000000000000000000008152600401620001e29062000fdb565b60405180910390fd5b5f73ffffffffffffffffffffffffffffffffffffffff168173ffffffffffffffffffffffffffffffffffffffff16036200025c576040517f08c379a0000000000000000000000000000000000000000000000000000000008152600401620002539062001049565b60405180910390fd5b81600690816200026d919062000c3c565b508060085f6101000a81548173ffffffffffffffffffffffffffffffffffffffff021916908373ffffffffffffffffffffffffffffffffffffffff160217905550620002cc836b409f9cbc7c4a04c2200000006200072a60201b60201c565b600960405180608001604052806040518060400160405280601581526020017f50726f6a65637420446f63756d656e746174696f6e000000000000000000000081525081526020016040518060400160405280601c81526020017f68747470733a2f2f646f63756d656e746363632e6469676974616c2f000000008152508152602001428152602001604051806060016040528060258152602001620030e260259139815250908060018154018082558091505060019003905f5260205f2090600402015f909190919091505f820151815f019081620003ad919062000c3c565b506020820151816001019081620003c5919062000c3c565b50604082015181600201556060820151816003019081620003e7919062000c3c565b505050600960405180608001604052806040518060400160405280601981526020017f41756469747320616e642043657274696669636174696f6e730000000000000081525081526020016040518060400160405280601b81526020017f68747470733a2f2f646f63756d656e746363632e6f6e6c696e652f000000000081525081526020014281526020016040518060400160405280602081526020017f4175646974207265706f72747320616e642063657274696669636174696f6e73815250815250908060018154018082558091505060019003905f5260205f2090600402015f909190919091505f820151815f019081620004e7919062000c3c565b506020820151816001019081620004ff919062000c3c565b5060408201518160020155606082015181600301908162000521919062000c3c565b505050600960405180608001604052806040518060400160405280600e81526020017f576869746570617065722043434300000000000000000000000000000000000081525081526020016040518060400160405280601d81526020017f68747470733a2f2f776869746570617065726363632e6f6e6c696e652f00000081525081526020014281526020016040518060400160405280601b81526020017f4f6666696369616c2070726f6a65637420776869746570617065720000000000815250815250908060018154018082558091505060019003905f5260205f2090600402015f909190919091505f820151815f01908162000621919062000c3c565b50602082015181600101908162000639919062000c3c565b506040820151816002015560608201518160030190816200065b919062000c3c565b50505050505062001137565b5f60055f9054906101000a900473ffffffffffffffffffffffffffffffffffffffff1690508160055f6101000a81548173ffffffffffffffffffffffffffffffffffffffff021916908373ffffffffffffffffffffffffffffffffffffffff1602179055508173ffffffffffffffffffffffffffffffffffffffff168173ffffffffffffffffffffffffffffffffffffffff167f8be0079c531659141344cd1fd0a4f28419497f9722a3daafe3b4186f6b6457e060405160405180910390a35050565b5f73ffffffffffffffffffffffffffffffffffffffff168273ffffffffffffffffffffffffffffffffffffffff16036200079d575f6040517fec442f0500000000000000000000000000000000000000000000000000000000815260040162000794919062000f62565b60405180910390fd5b620007b05f8383620007b460201b60201c565b5050565b5f73ffffffffffffffffffffffffffffffffffffffff168373ffffffffffffffffffffffffffffffffffffffff160362000808578060025f828254620007fb919062001096565b92505081905550620008d9565b5f805f8573ffffffffffffffffffffffffffffffffffffffff1673ffffffffffffffffffffffffffffffffffffffff1681526020019081526020015f205490508181101562000894578381836040517fe450d38c0000000000000000000000000000000000000000000000000000000081526004016200088b93929190620010e1565b60405180910390fd5b8181035f808673ffffffffffffffffffffffffffffffffffffffff1673ffffffffffffffffffffffffffffffffffffffff1681526020019081526020015f2081905550505b5f73ffffffffffffffffffffffffffffffffffffffff168273ffffffffffffffffffffffffffffffffffffffff160362000922578060025f82825403925050819055506200096c565b805f808473ffffffffffffffffffffffffffffffffffffffff1673ffffffffffffffffffffffffffffffffffffffff1681526020019081526020015f205f82825401925050819055505b8173ffffffffffffffffffffffffffffffffffffffff168373ffffffffffffffffffffffffffffffffffffffff167fddf252ad1be2c89b69c2b068fc378daa952ba7f163c4a11628f55a4df523b3ef83604051620009cb91906200111c565b60405180910390a3505050565b5f81519050919050565b7f4e487b71000000000000000000000000000000000000000000000000000000005f52604160045260245ffd5b7f4e487b71000000000000000000000000000000000000000000000000000000005f52602260045260245ffd5b5f600282049050600182168062000a5457607f821691505b60208210810362000a6a5762000a6962000a0f565b5b50919050565b5f819050815f5260205f209050919050565b5f6020601f8301049050919050565b5f82821b905092915050565b5f6008830262000ace7fffffffffffffffffffffffffffffffffffffffffffffffffffffffffffffffff8262000a91565b62000ada868362000a91565b95508019841693508086168417925050509392505050565b5f819050919050565b5f819050919050565b5f62000b2462000b1e62000b188462000af2565b62000afb565b62000af2565b9050919050565b5f819050919050565b62000b3f8362000b04565b62000b5762000b4e8262000b2b565b84845462000a9d565b825550505050565b5f90565b62000b6d62000b5f565b62000b7a81848462000b34565b505050565b5b8181101562000ba15762000b955f8262000b63565b60018101905062000b80565b5050565b601f82111562000bf05762000bba8162000a70565b62000bc58462000a82565b8101602085101562000bd5578190505b62000bed62000be48562000a82565b83018262000b7f565b50505b505050565b5f82821c905092915050565b5f62000c125f198460080262000bf5565b1980831691505092915050565b5f62000c2c838362000c01565b9150826002028217905092915050565b62000c4782620009d8565b67ffffffffffffffff81111562000c635762000c62620009e2565b5b62000c6f825462000a3c565b62000c7c82828562000ba5565b5f60209050601f83116001811462000cb2575f841562000c9d578287015190505b62000ca9858262000c1f565b86555062000d18565b601f19841662000cc28662000a70565b5f5b8281101562000ceb5784890151825560018201915060208501945060208101905062000cc4565b8683101562000d0b578489015162000d07601f89168262000c01565b8355505b6001600288020188555050505b505050505050565b5f604051905090565b5f80fd5b5f80fd5b5f73ffffffffffffffffffffffffffffffffffffffff82169050919050565b5f62000d5c8262000d31565b9050919050565b62000d6e8162000d50565b811462000d79575f80fd5b50565b5f8151905062000d8c8162000d63565b92915050565b5f80fd5b5f80fd5b5f601f19601f8301169050919050565b62000db58262000d9a565b810181811067ffffffffffffffff8211171562000dd75762000dd6620009e2565b5b80604052505050565b5f62000deb62000d20565b905062000df9828262000daa565b919050565b5f67ffffffffffffffff82111562000e1b5762000e1a620009e2565b5b62000e268262000d9a565b9050602081019050919050565b5f5b8381101562000e5257808201518184015260208101905062000e35565b5f8484015250505050565b5f62000e7362000e6d8462000dfe565b62000de0565b90508281526020810184848401111562000e925762000e9162000d96565b5b62000e9f84828562000e33565b509392505050565b5f82601f83011262000ebe5762000ebd62000d92565b5b815162000ed084826020860162000e5d565b91505092915050565b5f805f6060848603121562000ef35762000ef262000d29565b5b5f62000f028682870162000d7c565b935050602084015167ffffffffffffffff81111562000f265762000f2562000d2d565b5b62000f348682870162000ea7565b925050604062000f478682870162000d7c565b9150509250925092565b62000f5c8162000d50565b82525050565b5f60208201905062000f775f83018462000f51565b92915050565b5f82825260208201905092915050565b7f496e76616c6964206f776e6572000000000000000000000000000000000000005f82015250565b5f62000fc3600d8362000f7d565b915062000fd08262000f8d565b602082019050919050565b5f6020820190508181035f83015262000ff48162000fb5565b9050919050565b7f496e76616c6964207265736572766500000000000000000000000000000000005f82015250565b5f62001031600f8362000f7d565b91506200103e8262000ffb565b602082019050919050565b5f6020820190508181035f830152620010628162001023565b9050919050565b7f4e487b71000000000000000000000000000000000000000000000000000000005f52601160045260245ffd5b5f620010a28262000af2565b9150620010af8362000af2565b9250828201905080821115620010ca57620010c962001069565b5b92915050565b620010db8162000af2565b82525050565b5f606082019050620010f65f83018662000f51565b620011056020830185620010d0565b620011146040830184620010d0565b949350505050565b5f602082019050620011315f830184620010d0565b92915050565b611f9d80620011455f395ff3fe608060405234801561000f575f80fd5b5060043610610140575f3560e01c806370a08231116100b6578063a9059cbb1161007a578063a9059cbb1461036e578063ac9e57601461039e578063d72b11bd146103ba578063dd62ed3e146103d8578063dda4fa8f14610408578063f2fde38b1461042457610140565b806370a08231146102da578063715018a61461030a5780638da5cb5b146103145780638fb03a021461033257806395d89b411461035057610140565b8063185b691011610108578063185b6910146101ea57806323b872dd14610208578063313ce5671461023857806332cb6b0c1461025657806351640fee14610274578063663b3e22146102a757610140565b806304787ca21461014457806306fdde0314610160578063095ea7b31461017e578063135d088d146101ae57806318160ddd146101cc575b5f80fd5b61015e600480360381019061015991906116b4565b610440565b005b61016861045b565b6040516101759190611775565b60405180910390f35b61019860048036038101906101939190611822565b6104eb565b6040516101a5919061187a565b60405180910390f35b6101b661050d565b6040516101c39190611775565b60405180910390f35b6101d4610599565b6040516101e191906118a2565b60405180910390f35b6101f26105a2565b6040516101ff9190611775565b60405180910390f35b610222600480360381019061021d91906118bb565b61062e565b60405161022f919061187a565b60405180910390f35b61024061065c565b60405161024d9190611926565b60405180910390f35b61025e610664565b60405161026b91906118a2565b60405180910390f35b61028e6004803603810190610289919061193f565b610674565b60405161029e949392919061196a565b60405180910390f35b6102c160048036038101906102bc919061193f565b610884565b6040516102d1949392919061196a565b60405180910390f35b6102f460048036038101906102ef91906119c2565b610a51565b60405161030191906118a2565b60405180910390f35b610312610a96565b005b61031c610aa9565b60405161032991906119fc565b60405180910390f35b61033a610ad1565b60405161034791906118a2565b60405180910390f35b610358610add565b6040516103659190611775565b60405180910390f35b61038860048036038101906103839190611822565b610b6d565b604051610395919061187a565b60405180910390f35b6103b860048036038101906103b39190611a15565b610b8f565b005b6103c2610c7e565b6040516103cf91906119fc565b60405180910390f35b6103f260048036038101906103ed9190611ab9565b610ca3565b6040516103ff91906118a2565b60405180910390f35b610422600480360381019061041d91906119c2565b610d25565b005b61043e600480360381019061043991906119c2565b610e15565b005b610448610e99565b80600690816104579190611cf1565b5050565b60606003805461046a90611b24565b80601f016020809104026020016040519081016040528092919081815260200182805461049690611b24565b80156104e15780601f106104b8576101008083540402835291602001916104e1565b820191905f5260205f20905b8154815290600101906020018083116104c457829003601f168201915b5050505050905090565b5f806104f5610f20565b9050610502818585610f27565b600191505092915050565b6006805461051a90611b24565b80601f016020809104026020016040519081016040528092919081815260200182805461054690611b24565b80156105915780601f1061056857610100808354040283529160200191610591565b820191905f5260205f20905b81548152906001019060200180831161057457829003601f168201915b505050505081565b5f600254905090565b600780546105af90611b24565b80601f01602080910402602001604051908101604052809291908181526020018280546105db90611b24565b80156106265780601f106105fd57610100808354040283529160200191610626565b820191905f5260205f20905b81548152906001019060200180831161060957829003601f168201915b505050505081565b5f80610638610f20565b9050610645858285610f39565b610650858585610fcc565b60019150509392505050565b5f6012905090565b6b409f9cbc7c4a04c22000000081565b6060805f60605f6009868154811061068f5761068e611dc0565b5b905f5260205f2090600402016040518060800160405290815f820180546106b590611b24565b80601f01602080910402602001604051908101604052809291908181526020018280546106e190611b24565b801561072c5780601f106107035761010080835404028352916020019161072c565b820191905f5260205f20905b81548152906001019060200180831161070f57829003601f168201915b5050505050815260200160018201805461074590611b24565b80601f016020809104026020016040519081016040528092919081815260200182805461077190611b24565b80156107bc5780601f10610793576101008083540402835291602001916107bc565b820191905f5260205f20905b81548152906001019060200180831161079f57829003601f168201915b50505050508152602001600282015481526020016003820180546107df90611b24565b80601f016020809104026020016040519081016040528092919081815260200182805461080b90611b24565b80156108565780601f1061082d57610100808354040283529160200191610856565b820191905f5260205f20905b81548152906001019060200180831161083957829003601f168201915b5050505050815250509050805f01518160200151826040015183606001519450945094509450509193509193565b60098181548110610893575f80fd5b905f5260205f2090600402015f91509050805f0180546108b290611b24565b80601f01602080910402602001604051908101604052809291908181526020018280546108de90611b24565b80156109295780601f1061090057610100808354040283529160200191610929565b820191905f5260205f20905b81548152906001019060200180831161090c57829003601f168201915b50505050509080600101805461093e90611b24565b80601f016020809104026020016040519081016040528092919081815260200182805461096a90611b24565b80156109b55780601f1061098c576101008083540402835291602001916109b5565b820191905f5260205f20905b81548152906001019060200180831161099857829003601f168201915b5050505050908060020154908060030180546109d090611b24565b80601f01602080910402602001604051908101604052809291908181526020018280546109fc90611b24565b8015610a475780601f10610a1e57610100808354040283529160200191610a47565b820191905f5260205f20905b815481529060010190602001808311610a2a57829003601f168201915b5050505050905084565b5f805f8373ffffffffffffffffffffffffffffffffffffffff1673ffffffffffffffffffffffffffffffffffffffff1681526020019081526020015f20549050919050565b610a9e610e99565b610aa75f6110bc565b565b5f60055f9054906101000a900473ffffffffffffffffffffffffffffffffffffffff16905090565b5f600980549050905090565b606060048054610aec90611b24565b80601f0160208091040260200160405190810160405280929190818152602001828054610b1890611b24565b8015610b635780601f10610b3a57610100808354040283529160200191610b63565b820191905f5260205f20905b815481529060010190602001808311610b4657829003601f168201915b5050505050905090565b5f80610b77610f20565b9050610b84818585610fcc565b600191505092915050565b610b97610e99565b6009604051806080016040528085815260200184815260200142815260200183815250908060018154018082558091505060019003905f5260205f2090600402015f909190919091505f820151815f019081610bf39190611cf1565b506020820151816001019081610c099190611cf1565b50604082015181600201556060820151816003019081610c299190611cf1565b5050506001600980549050610c3e9190611e1a565b7f2774e9ef4afef65425b7a7fbfd20ad10ae87a2be53c24fd3c78cc311981bc848848484604051610c7193929190611e4d565b60405180910390a2505050565b60085f9054906101000a900473ffffffffffffffffffffffffffffffffffffffff1681565b5f60015f8473ffffffffffffffffffffffffffffffffffffffff1673ffffffffffffffffffffffffffffffffffffffff1681526020019081526020015f205f8373ffffffffffffffffffffffffffffffffffffffff1673ffffffffffffffffffffffffffffffffffffffff1681526020019081526020015f2054905092915050565b610d2d610e99565b5f73ffffffffffffffffffffffffffffffffffffffff168173ffffffffffffffffffffffffffffffffffffffff1603610d9b576040517f08c379a0000000000000000000000000000000000000000000000000000000008152600401610d9290611ee1565b60405180910390fd5b8060085f6101000a81548173ffffffffffffffffffffffffffffffffffffffff021916908373ffffffffffffffffffffffffffffffffffffffff1602179055507fb6682970c3624ff1f1130c7910f4f5a7619c2356dc365283eb44e7806dc1a86f81604051610e0a91906119fc565b60405180910390a150565b610e1d610e99565b5f73ffffffffffffffffffffffffffffffffffffffff168173ffffffffffffffffffffffffffffffffffffffff1603610e8d575f6040517f1e4fbdf7000000000000000000000000000000000000000000000000000000008152600401610e8491906119fc565b60405180910390fd5b610e96816110bc565b50565b610ea1610f20565b73ffffffffffffffffffffffffffffffffffffffff16610ebf610aa9565b73ffffffffffffffffffffffffffffffffffffffff1614610f1e57610ee2610f20565b6040517f118cdaa7000000000000000000000000000000000000000000000000000000008152600401610f1591906119fc565b60405180910390fd5b565b5f33905090565b610f34838383600161117f565b505050565b5f610f448484610ca3565b90507fffffffffffffffffffffffffffffffffffffffffffffffffffffffffffffffff811015610fc65781811015610fb7578281836040517ffb8f41b2000000000000000000000000000000000000000000000000000000008152600401610fae93929190611eff565b60405180910390fd5b610fc584848484035f61117f565b5b50505050565b5f73ffffffffffffffffffffffffffffffffffffffff168373ffffffffffffffffffffffffffffffffffffffff160361103c575f6040517f96c6fd1e00000000000000000000000000000000000000000000000000000000815260040161103391906119fc565b60405180910390fd5b5f73ffffffffffffffffffffffffffffffffffffffff168273ffffffffffffffffffffffffffffffffffffffff16036110ac575f6040517fec442f050000000000000000000000000000000000000000000000000000000081526004016110a391906119fc565b60405180910390fd5b6110b783838361134e565b505050565b5f60055f9054906101000a900473ffffffffffffffffffffffffffffffffffffffff1690508160055f6101000a81548173ffffffffffffffffffffffffffffffffffffffff021916908373ffffffffffffffffffffffffffffffffffffffff1602179055508173ffffffffffffffffffffffffffffffffffffffff168173ffffffffffffffffffffffffffffffffffffffff167f8be0079c531659141344cd1fd0a4f28419497f9722a3daafe3b4186f6b6457e060405160405180910390a35050565b5f73ffffffffffffffffffffffffffffffffffffffff168473ffffffffffffffffffffffffffffffffffffffff16036111ef575f6040517fe602df050000000000000000000000000000000000000000000000000000000081526004016111e691906119fc565b60405180910390fd5b5f73ffffffffffffffffffffffffffffffffffffffff168373ffffffffffffffffffffffffffffffffffffffff160361125f575f6040517f94280d6200000000000000000000000000000000000000000000000000000000815260040161125691906119fc565b60405180910390fd5b8160015f8673ffffffffffffffffffffffffffffffffffffffff1673ffffffffffffffffffffffffffffffffffffffff1681526020019081526020015f205f8573ffffffffffffffffffffffffffffffffffffffff1673ffffffffffffffffffffffffffffffffffffffff1681526020019081526020015f20819055508015611348578273ffffffffffffffffffffffffffffffffffffffff168473ffffffffffffffffffffffffffffffffffffffff167f8c5be1e5ebec7d5bd14f71427d1e84f3dd0314c0f7b2291e5b200ac8c7c3b9258460405161133f91906118a2565b60405180910390a35b50505050565b5f73ffffffffffffffffffffffffffffffffffffffff168373ffffffffffffffffffffffffffffffffffffffff160361139e578060025f8282546113929190611f34565b9250508190555061146c565b5f805f8573ffffffffffffffffffffffffffffffffffffffff1673ffffffffffffffffffffffffffffffffffffffff1681526020019081526020015f2054905081811015611427578381836040517fe450d38c00000000000000000000000000000000000000000000000000000000815260040161141e93929190611eff565b60405180910390fd5b8181035f808673ffffffffffffffffffffffffffffffffffffffff1673ffffffffffffffffffffffffffffffffffffffff1681526020019081526020015f2081905550505b5f73ffffffffffffffffffffffffffffffffffffffff168273ffffffffffffffffffffffffffffffffffffffff16036114b3578060025f82825403925050819055506114fd565b805f808473ffffffffffffffffffffffffffffffffffffffff1673ffffffffffffffffffffffffffffffffffffffff1681526020019081526020015f205f82825401925050819055505b8173ffffffffffffffffffffffffffffffffffffffff168373ffffffffffffffffffffffffffffffffffffffff167fddf252ad1be2c89b69c2b068fc378daa952ba7f163c4a11628f55a4df523b3ef8360405161155a91906118a2565b60405180910390a3505050565b5f604051905090565b5f80fd5b5f80fd5b5f80fd5b5f80fd5b5f601f19601f8301169050919050565b7f4e487b71000000000000000000000000000000000000000000000000000000005f52604160045260245ffd5b6115c682611580565b810181811067ffffffffffffffff821117156115e5576115e4611590565b5b80604052505050565b5f6115f7611567565b905061160382826115bd565b919050565b5f67ffffffffffffffff82111561162257611621611590565b5b61162b82611580565b9050602081019050919050565b828183375f83830152505050565b5f61165861165384611608565b6115ee565b9050828152602081018484840111156116745761167361157c565b5b61167f848285611638565b509392505050565b5f82601f83011261169b5761169a611578565b5b81356116ab848260208601611646565b91505092915050565b5f602082840312156116c9576116c8611570565b5b5f82013567ffffffffffffffff8111156116e6576116e5611574565b5b6116f284828501611687565b91505092915050565b5f81519050919050565b5f82825260208201905092915050565b5f5b83811015611732578082015181840152602081019050611717565b5f8484015250505050565b5f611747826116fb565b6117518185611705565b9350611761818560208601611715565b61176a81611580565b840191505092915050565b5f6020820190508181035f83015261178d818461173d565b905092915050565b5f73ffffffffffffffffffffffffffffffffffffffff82169050919050565b5f6117be82611795565b9050919050565b6117ce816117b4565b81146117d8575f80fd5b50565b5f813590506117e9816117c5565b92915050565b5f819050919050565b611801816117ef565b811461180b575f80fd5b50565b5f8135905061181c816117f8565b92915050565b5f806040838503121561183857611837611570565b5b5f611845858286016117db565b92505060206118568582860161180e565b9150509250929050565b5f8115159050919050565b61187481611860565b82525050565b5f60208201905061188d5f83018461186b565b92915050565b61189c816117ef565b82525050565b5f6020820190506118b55f830184611893565b92915050565b5f805f606084860312156118d2576118d1611570565b5b5f6118df868287016117db565b93505060206118f0868287016117db565b92505060406119018682870161180e565b9150509250925092565b5f60ff82169050919050565b6119208161190b565b82525050565b5f6020820190506119395f830184611917565b92915050565b5f6020828403121561195457611953611570565b5b5f6119618482850161180e565b91505092915050565b5f6080820190508181035f830152611982818761173d565b90508181036020830152611996818661173d565b90506119a56040830185611893565b81810360608301526119b7818461173d565b905095945050505050565b5f602082840312156119d7576119d6611570565b5b5f6119e4848285016117db565b91505092915050565b6119f6816117b4565b82525050565b5f602082019050611a0f5f8301846119ed565b92915050565b5f805f60608486031215611a2c57611a2b611570565b5b5f84013567ffffffffffffffff811115611a4957611a48611574565b5b611a5586828701611687565b935050602084013567ffffffffffffffff811115611a7657611a75611574565b5b611a8286828701611687565b925050604084013567ffffffffffffffff811115611aa357611aa2611574565b5b611aaf86828701611687565b9150509250925092565b5f8060408385031215611acf57611ace611570565b5b5f611adc858286016117db565b9250506020611aed858286016117db565b9150509250929050565b7f4e487b71000000000000000000000000000000000000000000000000000000005f52602260045260245ffd5b5f6002820490506001821680611b3b57607f821691505b602082108103611b4e57611b4d611af7565b5b50919050565b5f819050815f5260205f209050919050565b5f6020601f8301049050919050565b5f82821b905092915050565b5f60088302611bb07fffffffffffffffffffffffffffffffffffffffffffffffffffffffffffffffff82611b75565b611bba8683611b75565b95508019841693508086168417925050509392505050565b5f819050919050565b5f611bf5611bf0611beb846117ef565b611bd2565b6117ef565b9050919050565b5f819050919050565b611c0e83611bdb565b611c22611c1a82611bfc565b848454611b81565b825550505050565b5f90565b611c36611c2a565b611c41818484611c05565b505050565b5b81811015611c6457611c595f82611c2e565b600181019050611c47565b5050565b601f821115611ca957611c7a81611b54565b611c8384611b66565b81016020851015611c92578190505b611ca6611c9e85611b66565b830182611c46565b50505b505050565b5f82821c905092915050565b5f611cc95f1984600802611cae565b1980831691505092915050565b5f611ce18383611cba565b9150826002028217905092915050565b611cfa826116fb565b67ffffffffffffffff811115611d1357611d12611590565b5b611d1d8254611b24565b611d28828285611c68565b5f60209050601f831160018114611d59575f8415611d47578287015190505b611d518582611cd6565b865550611db8565b601f198416611d6786611b54565b5f5b82811015611d8e57848901518255600182019150602085019450602081019050611d69565b86831015611dab5784890151611da7601f891682611cba565b8355505b6001600288020188555050505b505050505050565b7f4e487b71000000000000000000000000000000000000000000000000000000005f52603260045260245ffd5b7f4e487b71000000000000000000000000000000000000000000000000000000005f52601160045260245ffd5b5f611e24826117ef565b9150611e2f836117ef565b9250828203905081811115611e4757611e46611ded565b5b92915050565b5f6060820190508181035f830152611e65818661173d565b90508181036020830152611e79818561173d565b90508181036040830152611e8d818461173d565b9050949350505050565b7f496e76616c6964206164647265737300000000000000000000000000000000005f82015250565b5f611ecb600f83611705565b9150611ed682611e97565b602082019050919050565b5f6020820190508181035f830152611ef881611ebf565b9050919050565b5f606082019050611f125f8301866119ed565b611f1f6020830185611893565b611f2c6040830184611893565b949350505050565b5f611f3e826117ef565b9150611f49836117ef565b9250828201905080821115611f6157611f60611ded565b5b9291505056fea2646970667358221220236940a7fbe339ea3ee78097b138b7333d74d4f697019954ed4f545a1b4cdd4364736f6c63430008140033456e7669726f6e6d656e74616c20616e6420617373657420646f63756d656e746174696f6e436172626f6e2043726564697420436f696e732028434343292069732061206469676974616c2061737365742064657369676e656420746f20726570726573656e7420656e7669726f6e6d656e74616c2076616c7565207468726f75676820746f6b656e697a6174696f6e206f6620636172626f6e2d72656c61746564206173736574732c20737570706f7274656420627920646f63756d656e746174696f6e2c206175646974732c20616e64207472616e73706172656e6379206d656368616e69736d732e",
		"opcodes": "PUSH1 0x80 PUSH1 0x40 MSTORE PUSH1 0x40 MLOAD DUP1 PUSH2 0x100 ADD PUSH1 0x40 MSTORE DUP1 PUSH1 0xC6 DUP2 MSTORE PUSH1 0x20 ADD PUSH3 0x3107 PUSH1 0xC6 SWAP2 CODECOPY PUSH1 0x7 SWAP1 DUP2 PUSH3 0x2F SWAP2 SWAP1 PUSH3 0xC3C JUMP JUMPDEST POP CALLVALUE DUP1 ISZERO PUSH3 0x3C JUMPI PUSH0 DUP1 REVERT JUMPDEST POP PUSH1 0x40 MLOAD PUSH3 0x31CD CODESIZE SUB DUP1 PUSH3 0x31CD DUP4 CODECOPY DUP2 DUP2 ADD PUSH1 0x40 MSTORE DUP2 ADD SWAP1 PUSH3 0x62 SWAP2 SWAP1 PUSH3 0xED9 JUMP JUMPDEST DUP3 PUSH1 0x40 MLOAD DUP1 PUSH1 0x40 ADD PUSH1 0x40 MSTORE DUP1 PUSH1 0x13 DUP2 MSTORE PUSH1 0x20 ADD PUSH32 0x436172626F6E2043726564697420436F696E7300000000000000000000000000 DUP2 MSTORE POP PUSH1 0x40 MLOAD DUP1 PUSH1 0x40 ADD PUSH1 0x40 MSTORE DUP1 PUSH1 0x3 DUP2 MSTORE PUSH1 0x20 ADD PUSH32 0x4343430000000000000000000000000000000000000000000000000000000000 DUP2 MSTORE POP DUP2 PUSH1 0x3 SWAP1 DUP2 PUSH3 0xE0 SWAP2 SWAP1 PUSH3 0xC3C JUMP JUMPDEST POP DUP1 PUSH1 0x4 SWAP1 DUP2 PUSH3 0xF2 SWAP2 SWAP1 PUSH3 0xC3C JUMP JUMPDEST POP POP POP PUSH0 PUSH20 0xFFFFFFFFFFFFFFFFFFFFFFFFFFFFFFFFFFFFFFFF AND DUP2 PUSH20 0xFFFFFFFFFFFFFFFFFFFFFFFFFFFFFFFFFFFFFFFF AND SUB PUSH3 0x168 JUMPI PUSH0 PUSH1 0x40 MLOAD PUSH32 0x1E4FBDF700000000000000000000000000000000000000000000000000000000 DUP2 MSTORE PUSH1 0x4 ADD PUSH3 0x15F SWAP2 SWAP1 PUSH3 0xF62 JUMP JUMPDEST PUSH1 0x40 MLOAD DUP1 SWAP2 SUB SWAP1 REVERT JUMPDEST PUSH3 0x179 DUP2 PUSH3 0x667 PUSH1 0x20 SHL PUSH1 0x20 SHR JUMP JUMPDEST POP PUSH0 PUSH20 0xFFFFFFFFFFFFFFFFFFFFFFFFFFFFFFFFFFFFFFFF AND DUP4 PUSH20 0xFFFFFFFFFFFFFFFFFFFFFFFFFFFFFFFFFFFFFFFF AND SUB PUSH3 0x1EB JUMPI PUSH1 0x40 MLOAD PUSH32 0x8C379A000000000000000000000000000000000000000000000000000000000 DUP2 MSTORE PUSH1 0x4 ADD PUSH3 0x1E2 SWAP1 PUSH3 0xFDB JUMP JUMPDEST PUSH1 0x40 MLOAD DUP1 SWAP2 SUB SWAP1 REVERT JUMPDEST PUSH0 PUSH20 0xFFFFFFFFFFFFFFFFFFFFFFFFFFFFFFFFFFFFFFFF AND DUP2 PUSH20 0xFFFFFFFFFFFFFFFFFFFFFFFFFFFFFFFFFFFFFFFF AND SUB PUSH3 0x25C JUMPI PUSH1 0x40 MLOAD PUSH32 0x8C379A000000000000000000000000000000000000000000000000000000000 DUP2 MSTORE PUSH1 0x4 ADD PUSH3 0x253 SWAP1 PUSH3 0x1049 JUMP JUMPDEST PUSH1 0x40 MLOAD DUP1 SWAP2 SUB SWAP1 REVERT JUMPDEST DUP2 PUSH1 0x6 SWAP1 DUP2 PUSH3 0x26D SWAP2 SWAP1 PUSH3 0xC3C JUMP JUMPDEST POP DUP1 PUSH1 0x8 PUSH0 PUSH2 0x100 EXP DUP2 SLOAD DUP2 PUSH20 0xFFFFFFFFFFFFFFFFFFFFFFFFFFFFFFFFFFFFFFFF MUL NOT AND SWAP1 DUP4 PUSH20 0xFFFFFFFFFFFFFFFFFFFFFFFFFFFFFFFFFFFFFFFF AND MUL OR SWAP1 SSTORE POP PUSH3 0x2CC DUP4 PUSH12 0x409F9CBC7C4A04C220000000 PUSH3 0x72A PUSH1 0x20 SHL PUSH1 0x20 SHR JUMP JUMPDEST PUSH1 0x9 PUSH1 0x40 MLOAD DUP1 PUSH1 0x80 ADD PUSH1 0x40 MSTORE DUP1 PUSH1 0x40 MLOAD DUP1 PUSH1 0x40 ADD PUSH1 0x40 MSTORE DUP1 PUSH1 0x15 DUP2 MSTORE PUSH1 0x20 ADD PUSH32 0x50726F6A65637420446F63756D656E746174696F6E0000000000000000000000 DUP2 MSTORE POP DUP2 MSTORE PUSH1 0x20 ADD PUSH1 0x40 MLOAD DUP1 PUSH1 0x40 ADD PUSH1 0x40 MSTORE DUP1 PUSH1 0x1C DUP2 MSTORE PUSH1 0x20 ADD PUSH32 0x68747470733A2F2F646F63756D656E746363632E6469676974616C2F00000000 DUP2 MSTORE POP DUP2 MSTORE PUSH1 0x20 ADD TIMESTAMP DUP2 MSTORE PUSH1 0x20 ADD PUSH1 0x40 MLOAD DUP1 PUSH1 0x60 ADD PUSH1 0x40 MSTORE DUP1 PUSH1 0x25 DUP2 MSTORE PUSH1 0x20 ADD PUSH3 0x30E2 PUSH1 0x25 SWAP2 CODECOPY DUP2 MSTORE POP SWAP1 DUP1 PUSH1 0x1 DUP2 SLOAD ADD DUP1 DUP3 SSTORE DUP1 SWAP2 POP POP PUSH1 0x1 SWAP1 SUB SWAP1 PUSH0 MSTORE PUSH1 0x20 PUSH0 KECCAK256 SWAP1 PUSH1 0x4 MUL ADD PUSH0 SWAP1 SWAP2 SWAP1 SWAP2 SWAP1 SWAP2 POP PUSH0 DUP3 ADD MLOAD DUP2 PUSH0 ADD SWAP1 DUP2 PUSH3 0x3AD SWAP2 SWAP1 PUSH3 0xC3C JUMP JUMPDEST POP PUSH1 0x20 DUP3 ADD MLOAD DUP2 PUSH1 0x1 ADD SWAP1 DUP2 PUSH3 0x3C5 SWAP2 SWAP1 PUSH3 0xC3C JUMP JUMPDEST POP PUSH1 0x40 DUP3 ADD MLOAD DUP2 PUSH1 0x2 ADD SSTORE PUSH1 0x60 DUP3 ADD MLOAD DUP2 PUSH1 0x3 ADD SWAP1 DUP2 PUSH3 0x3E7 SWAP2 SWAP1 PUSH3 0xC3C JUMP JUMPDEST POP POP POP PUSH1 0x9 PUSH1 0x40 MLOAD DUP1 PUSH1 0x80 ADD PUSH1 0x40 MSTORE DUP1 PUSH1 0x40 MLOAD DUP1 PUSH1 0x40 ADD PUSH1 0x40 MSTORE DUP1 PUSH1 0x19 DUP2 MSTORE PUSH1 0x20 ADD PUSH32 0x41756469747320616E642043657274696669636174696F6E7300000000000000 DUP2 MSTORE POP DUP2 MSTORE PUSH1 0x20 ADD PUSH1 0x40 MLOAD DUP1 PUSH1 0x40 ADD PUSH1 0x40 MSTORE DUP1 PUSH1 0x1B DUP2 MSTORE PUSH1 0x20 ADD PUSH32 0x68747470733A2F2F646F63756D656E746363632E6F6E6C696E652F0000000000 DUP2 MSTORE POP DUP2 MSTORE PUSH1 0x20 ADD TIMESTAMP DUP2 MSTORE PUSH1 0x20 ADD PUSH1 0x40 MLOAD DUP1 PUSH1 0x40 ADD PUSH1 0x40 MSTORE DUP1 PUSH1 0x20 DUP2 MSTORE PUSH1 0x20 ADD PUSH32 0x4175646974207265706F72747320616E642063657274696669636174696F6E73 DUP2 MSTORE POP DUP2 MSTORE POP SWAP1 DUP1 PUSH1 0x1 DUP2 SLOAD ADD DUP1 DUP3 SSTORE DUP1 SWAP2 POP POP PUSH1 0x1 SWAP1 SUB SWAP1 PUSH0 MSTORE PUSH1 0x20 PUSH0 KECCAK256 SWAP1 PUSH1 0x4 MUL ADD PUSH0 SWAP1 SWAP2 SWAP1 SWAP2 SWAP1 SWAP2 POP PUSH0 DUP3 ADD MLOAD DUP2 PUSH0 ADD SWAP1 DUP2 PUSH3 0x4E7 SWAP2 SWAP1 PUSH3 0xC3C JUMP JUMPDEST POP PUSH1 0x20 DUP3 ADD MLOAD DUP2 PUSH1 0x1 ADD SWAP1 DUP2 PUSH3 0x4FF SWAP2 SWAP1 PUSH3 0xC3C JUMP JUMPDEST POP PUSH1 0x40 DUP3 ADD MLOAD DUP2 PUSH1 0x2 ADD SSTORE PUSH1 0x60 DUP3 ADD MLOAD DUP2 PUSH1 0x3 ADD SWAP1 DUP2 PUSH3 0x521 SWAP2 SWAP1 PUSH3 0xC3C JUMP JUMPDEST POP POP POP PUSH1 0x9 PUSH1 0x40 MLOAD DUP1 PUSH1 0x80 ADD PUSH1 0x40 MSTORE DUP1 PUSH1 0x40 MLOAD DUP1 PUSH1 0x40 ADD PUSH1 0x40 MSTORE DUP1 PUSH1 0xE DUP2 MSTORE PUSH1 0x20 ADD PUSH32 0x5768697465706170657220434343000000000000000000000000000000000000 DUP2 MSTORE POP DUP2 MSTORE PUSH1 0x20 ADD PUSH1 0x40 MLOAD DUP1 PUSH1 0x40 ADD PUSH1 0x40 MSTORE DUP1 PUSH1 0x1D DUP2 MSTORE PUSH1 0x20 ADD PUSH32 0x68747470733A2F2F776869746570617065726363632E6F6E6C696E652F000000 DUP2 MSTORE POP DUP2 MSTORE PUSH1 0x20 ADD TIMESTAMP DUP2 MSTORE PUSH1 0x20 ADD PUSH1 0x40 MLOAD DUP1 PUSH1 0x40 ADD PUSH1 0x40 MSTORE DUP1 PUSH1 0x1B DUP2 MSTORE PUSH1 0x20 ADD PUSH32 0x4F6666696369616C2070726F6A65637420776869746570617065720000000000 DUP2 MSTORE POP DUP2 MSTORE POP SWAP1 DUP1 PUSH1 0x1 DUP2 SLOAD ADD DUP1 DUP3 SSTORE DUP1 SWAP2 POP POP PUSH1 0x1 SWAP1 SUB SWAP1 PUSH0 MSTORE PUSH1 0x20 PUSH0 KECCAK256 SWAP1 PUSH1 0x4 MUL ADD PUSH0 SWAP1 SWAP2 SWAP1 SWAP2 SWAP1 SWAP2 POP PUSH0 DUP3 ADD MLOAD DUP2 PUSH0 ADD SWAP1 DUP2 PUSH3 0x621 SWAP2 SWAP1 PUSH3 0xC3C JUMP JUMPDEST POP PUSH1 0x20 DUP3 ADD MLOAD DUP2 PUSH1 0x1 ADD SWAP1 DUP2 PUSH3 0x639 SWAP2 SWAP1 PUSH3 0xC3C JUMP JUMPDEST POP PUSH1 0x40 DUP3 ADD MLOAD DUP2 PUSH1 0x2 ADD SSTORE PUSH1 0x60 DUP3 ADD MLOAD DUP2 PUSH1 0x3 ADD SWAP1 DUP2 PUSH3 0x65B SWAP2 SWAP1 PUSH3 0xC3C JUMP JUMPDEST POP POP POP POP POP POP PUSH3 0x1137 JUMP JUMPDEST PUSH0 PUSH1 0x5 PUSH0 SWAP1 SLOAD SWAP1 PUSH2 0x100 EXP SWAP1 DIV PUSH20 0xFFFFFFFFFFFFFFFFFFFFFFFFFFFFFFFFFFFFFFFF AND SWAP1 POP DUP2 PUSH1 0x5 PUSH0 PUSH2 0x100 EXP DUP2 SLOAD DUP2 PUSH20 0xFFFFFFFFFFFFFFFFFFFFFFFFFFFFFFFFFFFFFFFF MUL NOT AND SWAP1 DUP4 PUSH20 0xFFFFFFFFFFFFFFFFFFFFFFFFFFFFFFFFFFFFFFFF AND MUL OR SWAP1 SSTORE POP DUP2 PUSH20 0xFFFFFFFFFFFFFFFFFFFFFFFFFFFFFFFFFFFFFFFF AND DUP2 PUSH20 0xFFFFFFFFFFFFFFFFFFFFFFFFFFFFFFFFFFFFFFFF AND PUSH32 0x8BE0079C531659141344CD1FD0A4F28419497F9722A3DAAFE3B4186F6B6457E0 PUSH1 0x40 MLOAD PUSH1 0x40 MLOAD DUP1 SWAP2 SUB SWAP1 LOG3 POP POP JUMP JUMPDEST PUSH0 PUSH20 0xFFFFFFFFFFFFFFFFFFFFFFFFFFFFFFFFFFFFFFFF AND DUP3 PUSH20 0xFFFFFFFFFFFFFFFFFFFFFFFFFFFFFFFFFFFFFFFF AND SUB PUSH3 0x79D JUMPI PUSH0 PUSH1 0x40 MLOAD PUSH32 0xEC442F0500000000000000000000000000000000000000000000000000000000 DUP2 MSTORE PUSH1 0x4 ADD PUSH3 0x794 SWAP2 SWAP1 PUSH3 0xF62 JUMP JUMPDEST PUSH1 0x40 MLOAD DUP1 SWAP2 SUB SWAP1 REVERT JUMPDEST PUSH3 0x7B0 PUSH0 DUP4 DUP4 PUSH3 0x7B4 PUSH1 0x20 SHL PUSH1 0x20 SHR JUMP JUMPDEST POP POP JUMP JUMPDEST PUSH0 PUSH20 0xFFFFFFFFFFFFFFFFFFFFFFFFFFFFFFFFFFFFFFFF AND DUP4 PUSH20 0xFFFFFFFFFFFFFFFFFFFFFFFFFFFFFFFFFFFFFFFF AND SUB PUSH3 0x808 JUMPI DUP1 PUSH1 0x2 PUSH0 DUP3 DUP3 SLOAD PUSH3 0x7FB SWAP2 SWAP1 PUSH3 0x1096 JUMP JUMPDEST SWAP3 POP POP DUP2 SWAP1 SSTORE POP PUSH3 0x8D9 JUMP JUMPDEST PUSH0 DUP1 PUSH0 DUP6 PUSH20 0xFFFFFFFFFFFFFFFFFFFFFFFFFFFFFFFFFFFFFFFF AND PUSH20 0xFFFFFFFFFFFFFFFFFFFFFFFFFFFFFFFFFFFFFFFF AND DUP2 MSTORE PUSH1 0x20 ADD SWAP1 DUP2 MSTORE PUSH1 0x20 ADD PUSH0 KECCAK256 SLOAD SWAP1 POP DUP2 DUP2 LT ISZERO PUSH3 0x894 JUMPI DUP4 DUP2 DUP4 PUSH1 0x40 MLOAD PUSH32 0xE450D38C00000000000000000000000000000000000000000000000000000000 DUP2 MSTORE PUSH1 0x4 ADD PUSH3 0x88B SWAP4 SWAP3 SWAP2 SWAP1 PUSH3 0x10E1 JUMP JUMPDEST PUSH1 0x40 MLOAD DUP1 SWAP2 SUB SWAP1 REVERT JUMPDEST DUP2 DUP2 SUB PUSH0 DUP1 DUP7 PUSH20 0xFFFFFFFFFFFFFFFFFFFFFFFFFFFFFFFFFFFFFFFF AND PUSH20 0xFFFFFFFFFFFFFFFFFFFFFFFFFFFFFFFFFFFFFFFF AND DUP2 MSTORE PUSH1 0x20 ADD SWAP1 DUP2 MSTORE PUSH1 0x20 ADD PUSH0 KECCAK256 DUP2 SWAP1 SSTORE POP POP JUMPDEST PUSH0 PUSH20 0xFFFFFFFFFFFFFFFFFFFFFFFFFFFFFFFFFFFFFFFF AND DUP3 PUSH20 0xFFFFFFFFFFFFFFFFFFFFFFFFFFFFFFFFFFFFFFFF AND SUB PUSH3 0x922 JUMPI DUP1 PUSH1 0x2 PUSH0 DUP3 DUP3 SLOAD SUB SWAP3 POP POP DUP2 SWAP1 SSTORE POP PUSH3 0x96C JUMP JUMPDEST DUP1 PUSH0 DUP1 DUP5 PUSH20 0xFFFFFFFFFFFFFFFFFFFFFFFFFFFFFFFFFFFFFFFF AND PUSH20 0xFFFFFFFFFFFFFFFFFFFFFFFFFFFFFFFFFFFFFFFF AND DUP2 MSTORE PUSH1 0x20 ADD SWAP1 DUP2 MSTORE PUSH1 0x20 ADD PUSH0 KECCAK256 PUSH0 DUP3 DUP3 SLOAD ADD SWAP3 POP POP DUP2 SWAP1 SSTORE POP JUMPDEST DUP2 PUSH20 0xFFFFFFFFFFFFFFFFFFFFFFFFFFFFFFFFFFFFFFFF AND DUP4 PUSH20 0xFFFFFFFFFFFFFFFFFFFFFFFFFFFFFFFFFFFFFFFF AND PUSH32 0xDDF252AD1BE2C89B69C2B068FC378DAA952BA7F163C4A11628F55A4DF523B3EF DUP4 PUSH1 0x40 MLOAD PUSH3 0x9CB SWAP2 SWAP1 PUSH3 0x111C JUMP JUMPDEST PUSH1 0x40 MLOAD DUP1 SWAP2 SUB SWAP1 LOG3 POP POP POP JUMP JUMPDEST PUSH0 DUP2 MLOAD SWAP1 POP SWAP2 SWAP1 POP JUMP JUMPDEST PUSH32 0x4E487B7100000000000000000000000000000000000000000000000000000000 PUSH0 MSTORE PUSH1 0x41 PUSH1 0x4 MSTORE PUSH1 0x24 PUSH0 REVERT JUMPDEST PUSH32 0x4E487B7100000000000000000000000000000000000000000000000000000000 PUSH0 MSTORE PUSH1 0x22 PUSH1 0x4 MSTORE PUSH1 0x24 PUSH0 REVERT JUMPDEST PUSH0 PUSH1 0x2 DUP3 DIV SWAP1 POP PUSH1 0x1 DUP3 AND DUP1 PUSH3 0xA54 JUMPI PUSH1 0x7F DUP3 AND SWAP2 POP JUMPDEST PUSH1 0x20 DUP3 LT DUP2 SUB PUSH3 0xA6A JUMPI PUSH3 0xA69 PUSH3 0xA0F JUMP JUMPDEST JUMPDEST POP SWAP2 SWAP1 POP JUMP JUMPDEST PUSH0 DUP2 SWAP1 POP DUP2 PUSH0 MSTORE PUSH1 0x20 PUSH0 KECCAK256 SWAP1 POP SWAP2 SWAP1 POP JUMP JUMPDEST PUSH0 PUSH1 0x20 PUSH1 0x1F DUP4 ADD DIV SWAP1 POP SWAP2 SWAP1 POP JUMP JUMPDEST PUSH0 DUP3 DUP3 SHL SWAP1 POP SWAP3 SWAP2 POP POP JUMP JUMPDEST PUSH0 PUSH1 0x8 DUP4 MUL PUSH3 0xACE PUSH32 0xFFFFFFFFFFFFFFFFFFFFFFFFFFFFFFFFFFFFFFFFFFFFFFFFFFFFFFFFFFFFFFFF DUP3 PUSH3 0xA91 JUMP JUMPDEST PUSH3 0xADA DUP7 DUP4 PUSH3 0xA91 JUMP JUMPDEST SWAP6 POP DUP1 NOT DUP5 AND SWAP4 POP DUP1 DUP7 AND DUP5 OR SWAP3 POP POP POP SWAP4 SWAP3 POP POP POP JUMP JUMPDEST PUSH0 DUP2 SWAP1 POP SWAP2 SWAP1 POP JUMP JUMPDEST PUSH0 DUP2 SWAP1 POP SWAP2 SWAP1 POP JUMP JUMPDEST PUSH0 PUSH3 0xB24 PUSH3 0xB1E PUSH3 0xB18 DUP5 PUSH3 0xAF2 JUMP JUMPDEST PUSH3 0xAFB JUMP JUMPDEST PUSH3 0xAF2 JUMP JUMPDEST SWAP1 POP SWAP2 SWAP1 POP JUMP JUMPDEST PUSH0 DUP2 SWAP1 POP SWAP2 SWAP1 POP JUMP JUMPDEST PUSH3 0xB3F DUP4 PUSH3 0xB04 JUMP JUMPDEST PUSH3 0xB57 PUSH3 0xB4E DUP3 PUSH3 0xB2B JUMP JUMPDEST DUP5 DUP5 SLOAD PUSH3 0xA9D JUMP JUMPDEST DUP3 SSTORE POP POP POP POP JUMP JUMPDEST PUSH0 SWAP1 JUMP JUMPDEST PUSH3 0xB6D PUSH3 0xB5F JUMP JUMPDEST PUSH3 0xB7A DUP2 DUP5 DUP5 PUSH3 0xB34 JUMP JUMPDEST POP POP POP JUMP JUMPDEST JUMPDEST DUP2 DUP2 LT ISZERO PUSH3 0xBA1 JUMPI PUSH3 0xB95 PUSH0 DUP3 PUSH3 0xB63 JUMP JUMPDEST PUSH1 0x1 DUP2 ADD SWAP1 POP PUSH3 0xB80 JUMP JUMPDEST POP POP JUMP JUMPDEST PUSH1 0x1F DUP3 GT ISZERO PUSH3 0xBF0 JUMPI PUSH3 0xBBA DUP2 PUSH3 0xA70 JUMP JUMPDEST PUSH3 0xBC5 DUP5 PUSH3 0xA82 JUMP JUMPDEST DUP2 ADD PUSH1 0x20 DUP6 LT ISZERO PUSH3 0xBD5 JUMPI DUP2 SWAP1 POP JUMPDEST PUSH3 0xBED PUSH3 0xBE4 DUP6 PUSH3 0xA82 JUMP JUMPDEST DUP4 ADD DUP3 PUSH3 0xB7F JUMP JUMPDEST POP POP JUMPDEST POP POP POP JUMP JUMPDEST PUSH0 DUP3 DUP3 SHR SWAP1 POP SWAP3 SWAP2 POP POP JUMP JUMPDEST PUSH0 PUSH3 0xC12 PUSH0 NOT DUP5 PUSH1 0x8 MUL PUSH3 0xBF5 JUMP JUMPDEST NOT DUP1 DUP4 AND SWAP2 POP POP SWAP3 SWAP2 POP POP JUMP JUMPDEST PUSH0 PUSH3 0xC2C DUP4 DUP4 PUSH3 0xC01 JUMP JUMPDEST SWAP2 POP DUP3 PUSH1 0x2 MUL DUP3 OR SWAP1 POP SWAP3 SWAP2 POP POP JUMP JUMPDEST PUSH3 0xC47 DUP3 PUSH3 0x9D8 JUMP JUMPDEST PUSH8 0xFFFFFFFFFFFFFFFF DUP2 GT ISZERO PUSH3 0xC63 JUMPI PUSH3 0xC62 PUSH3 0x9E2 JUMP JUMPDEST JUMPDEST PUSH3 0xC6F DUP3 SLOAD PUSH3 0xA3C JUMP JUMPDEST PUSH3 0xC7C DUP3 DUP3 DUP6 PUSH3 0xBA5 JUMP JUMPDEST PUSH0 PUSH1 0x20 SWAP1 POP PUSH1 0x1F DUP4 GT PUSH1 0x1 DUP2 EQ PUSH3 0xCB2 JUMPI PUSH0 DUP5 ISZERO PUSH3 0xC9D JUMPI DUP3 DUP8 ADD MLOAD SWAP1 POP JUMPDEST PUSH3 0xCA9 DUP6 DUP3 PUSH3 0xC1F JUMP JUMPDEST DUP7 SSTORE POP PUSH3 0xD18 JUMP JUMPDEST PUSH1 0x1F NOT DUP5 AND PUSH3 0xCC2 DUP7 PUSH3 0xA70 JUMP JUMPDEST PUSH0 JUMPDEST DUP3 DUP2 LT ISZERO PUSH3 0xCEB JUMPI DUP5 DUP10 ADD MLOAD DUP3 SSTORE PUSH1 0x1 DUP3 ADD SWAP2 POP PUSH1 0x20 DUP6 ADD SWAP5 POP PUSH1 0x20 DUP2 ADD SWAP1 POP PUSH3 0xCC4 JUMP JUMPDEST DUP7 DUP4 LT ISZERO PUSH3 0xD0B JUMPI DUP5 DUP10 ADD MLOAD PUSH3 0xD07 PUSH1 0x1F DUP10 AND DUP3 PUSH3 0xC01 JUMP JUMPDEST DUP4 SSTORE POP JUMPDEST PUSH1 0x1 PUSH1 0x2 DUP9 MUL ADD DUP9 SSTORE POP POP POP JUMPDEST POP POP POP POP POP POP JUMP JUMPDEST PUSH0 PUSH1 0x40 MLOAD SWAP1 POP SWAP1 JUMP JUMPDEST PUSH0 DUP1 REVERT JUMPDEST PUSH0 DUP1 REVERT JUMPDEST PUSH0 PUSH20 0xFFFFFFFFFFFFFFFFFFFFFFFFFFFFFFFFFFFFFFFF DUP3 AND SWAP1 POP SWAP2 SWAP1 POP JUMP JUMPDEST PUSH0 PUSH3 0xD5C DUP3 PUSH3 0xD31 JUMP JUMPDEST SWAP1 POP SWAP2 SWAP1 POP JUMP JUMPDEST PUSH3 0xD6E DUP2 PUSH3 0xD50 JUMP JUMPDEST DUP2 EQ PUSH3 0xD79 JUMPI PUSH0 DUP1 REVERT JUMPDEST POP JUMP JUMPDEST PUSH0 DUP2 MLOAD SWAP1 POP PUSH3 0xD8C DUP2 PUSH3 0xD63 JUMP JUMPDEST SWAP3 SWAP2 POP POP JUMP JUMPDEST PUSH0 DUP1 REVERT JUMPDEST PUSH0 DUP1 REVERT JUMPDEST PUSH0 PUSH1 0x1F NOT PUSH1 0x1F DUP4 ADD AND SWAP1 POP SWAP2 SWAP1 POP JUMP JUMPDEST PUSH3 0xDB5 DUP3 PUSH3 0xD9A JUMP JUMPDEST DUP2 ADD DUP2 DUP2 LT PUSH8 0xFFFFFFFFFFFFFFFF DUP3 GT OR ISZERO PUSH3 0xDD7 JUMPI PUSH3 0xDD6 PUSH3 0x9E2 JUMP JUMPDEST JUMPDEST DUP1 PUSH1 0x40 MSTORE POP POP POP JUMP JUMPDEST PUSH0 PUSH3 0xDEB PUSH3 0xD20 JUMP JUMPDEST SWAP1 POP PUSH3 0xDF9 DUP3 DUP3 PUSH3 0xDAA JUMP JUMPDEST SWAP2 SWAP1 POP JUMP JUMPDEST PUSH0 PUSH8 0xFFFFFFFFFFFFFFFF DUP3 GT ISZERO PUSH3 0xE1B JUMPI PUSH3 0xE1A PUSH3 0x9E2 JUMP JUMPDEST JUMPDEST PUSH3 0xE26 DUP3 PUSH3 0xD9A JUMP JUMPDEST SWAP1 POP PUSH1 0x20 DUP2 ADD SWAP1 POP SWAP2 SWAP1 POP JUMP JUMPDEST PUSH0 JUMPDEST DUP4 DUP2 LT ISZERO PUSH3 0xE52 JUMPI DUP1 DUP3 ADD MLOAD DUP2 DUP5 ADD MSTORE PUSH1 0x20 DUP2 ADD SWAP1 POP PUSH3 0xE35 JUMP JUMPDEST PUSH0 DUP5 DUP5 ADD MSTORE POP POP POP POP JUMP JUMPDEST PUSH0 PUSH3 0xE73 PUSH3 0xE6D DUP5 PUSH3 0xDFE JUMP JUMPDEST PUSH3 0xDE0 JUMP JUMPDEST SWAP1 POP DUP3 DUP2 MSTORE PUSH1 0x20 DUP2 ADD DUP5 DUP5 DUP5 ADD GT ISZERO PUSH3 0xE92 JUMPI PUSH3 0xE91 PUSH3 0xD96 JUMP JUMPDEST JUMPDEST PUSH3 0xE9F DUP5 DUP3 DUP6 PUSH3 0xE33 JUMP JUMPDEST POP SWAP4 SWAP3 POP POP POP JUMP JUMPDEST PUSH0 DUP3 PUSH1 0x1F DUP4 ADD SLT PUSH3 0xEBE JUMPI PUSH3 0xEBD PUSH3 0xD92 JUMP JUMPDEST JUMPDEST DUP2 MLOAD PUSH3 0xED0 DUP5 DUP3 PUSH1 0x20 DUP7 ADD PUSH3 0xE5D JUMP JUMPDEST SWAP2 POP POP SWAP3 SWAP2 POP POP JUMP JUMPDEST PUSH0 DUP1 PUSH0 PUSH1 0x60 DUP5 DUP7 SUB SLT ISZERO PUSH3 0xEF3 JUMPI PUSH3 0xEF2 PUSH3 0xD29 JUMP JUMPDEST JUMPDEST PUSH0 PUSH3 0xF02 DUP7 DUP3 DUP8 ADD PUSH3 0xD7C JUMP JUMPDEST SWAP4 POP POP PUSH1 0x20 DUP5 ADD MLOAD PUSH8 0xFFFFFFFFFFFFFFFF DUP2 GT ISZERO PUSH3 0xF26 JUMPI PUSH3 0xF25 PUSH3 0xD2D JUMP JUMPDEST JUMPDEST PUSH3 0xF34 DUP7 DUP3 DUP8 ADD PUSH3 0xEA7 JUMP JUMPDEST SWAP3 POP POP PUSH1 0x40 PUSH3 0xF47 DUP7 DUP3 DUP8 ADD PUSH3 0xD7C JUMP JUMPDEST SWAP2 POP POP SWAP3 POP SWAP3 POP SWAP3 JUMP JUMPDEST PUSH3 0xF5C DUP2 PUSH3 0xD50 JUMP JUMPDEST DUP3 MSTORE POP POP JUMP JUMPDEST PUSH0 PUSH1 0x20 DUP3 ADD SWAP1 POP PUSH3 0xF77 PUSH0 DUP4 ADD DUP5 PUSH3 0xF51 JUMP JUMPDEST SWAP3 SWAP2 POP POP JUMP JUMPDEST PUSH0 DUP3 DUP3 MSTORE PUSH1 0x20 DUP3 ADD SWAP1 POP SWAP3 SWAP2 POP POP JUMP JUMPDEST PUSH32 0x496E76616C6964206F776E657200000000000000000000000000000000000000 PUSH0 DUP3 ADD MSTORE POP JUMP JUMPDEST PUSH0 PUSH3 0xFC3 PUSH1 0xD DUP4 PUSH3 0xF7D JUMP JUMPDEST SWAP2 POP PUSH3 0xFD0 DUP3 PUSH3 0xF8D JUMP JUMPDEST PUSH1 0x20 DUP3 ADD SWAP1 POP SWAP2 SWAP1 POP JUMP JUMPDEST PUSH0 PUSH1 0x20 DUP3 ADD SWAP1 POP DUP2 DUP2 SUB PUSH0 DUP4 ADD MSTORE PUSH3 0xFF4 DUP2 PUSH3 0xFB5 JUMP JUMPDEST SWAP1 POP SWAP2 SWAP1 POP JUMP JUMPDEST PUSH32 0x496E76616C696420726573657276650000000000000000000000000000000000 PUSH0 DUP3 ADD MSTORE POP JUMP JUMPDEST PUSH0 PUSH3 0x1031 PUSH1 0xF DUP4 PUSH3 0xF7D JUMP JUMPDEST SWAP2 POP PUSH3 0x103E DUP3 PUSH3 0xFFB JUMP JUMPDEST PUSH1 0x20 DUP3 ADD SWAP1 POP SWAP2 SWAP1 POP JUMP JUMPDEST PUSH0 PUSH1 0x20 DUP3 ADD SWAP1 POP DUP2 DUP2 SUB PUSH0 DUP4 ADD MSTORE PUSH3 0x1062 DUP2 PUSH3 0x1023 JUMP JUMPDEST SWAP1 POP SWAP2 SWAP1 POP JUMP JUMPDEST PUSH32 0x4E487B7100000000000000000000000000000000000000000000000000000000 PUSH0 MSTORE PUSH1 0x11 PUSH1 0x4 MSTORE PUSH1 0x24 PUSH0 REVERT JUMPDEST PUSH0 PUSH3 0x10A2 DUP3 PUSH3 0xAF2 JUMP JUMPDEST SWAP2 POP PUSH3 0x10AF DUP4 PUSH3 0xAF2 JUMP JUMPDEST SWAP3 POP DUP3 DUP3 ADD SWAP1 POP DUP1 DUP3 GT ISZERO PUSH3 0x10CA JUMPI PUSH3 0x10C9 PUSH3 0x1069 JUMP JUMPDEST JUMPDEST SWAP3 SWAP2 POP POP JUMP JUMPDEST PUSH3 0x10DB DUP2 PUSH3 0xAF2 JUMP JUMPDEST DUP3 MSTORE POP POP JUMP JUMPDEST PUSH0 PUSH1 0x60 DUP3 ADD SWAP1 POP PUSH3 0x10F6 PUSH0 DUP4 ADD DUP7 PUSH3 0xF51 JUMP JUMPDEST PUSH3 0x1105 PUSH1 0x20 DUP4 ADD DUP6 PUSH3 0x10D0 JUMP JUMPDEST PUSH3 0x1114 PUSH1 0x40 DUP4 ADD DUP5 PUSH3 0x10D0 JUMP JUMPDEST SWAP5 SWAP4 POP POP POP POP JUMP JUMPDEST PUSH0 PUSH1 0x20 DUP3 ADD SWAP1 POP PUSH3 0x1131 PUSH0 DUP4 ADD DUP5 PUSH3 0x10D0 JUMP JUMPDEST SWAP3 SWAP2 POP POP JUMP JUMPDEST PUSH2 0x1F9D DUP1 PUSH3 0x1145 PUSH0 CODECOPY PUSH0 RETURN INVALID PUSH1 0x80 PUSH1 0x40 MSTORE CALLVALUE DUP1 ISZERO PUSH2 0xF JUMPI PUSH0 DUP1 REVERT JUMPDEST POP PUSH1 0x4 CALLDATASIZE LT PUSH2 0x140 JUMPI PUSH0 CALLDATALOAD PUSH1 0xE0 SHR DUP1 PUSH4 0x70A08231 GT PUSH2 0xB6 JUMPI DUP1 PUSH4 0xA9059CBB GT PUSH2 0x7A JUMPI DUP1 PUSH4 0xA9059CBB EQ PUSH2 0x36E JUMPI DUP1 PUSH4 0xAC9E5760 EQ PUSH2 0x39E JUMPI DUP1 PUSH4 0xD72B11BD EQ PUSH2 0x3BA JUMPI DUP1 PUSH4 0xDD62ED3E EQ PUSH2 0x3D8 JUMPI DUP1 PUSH4 0xDDA4FA8F EQ PUSH2 0x408 JUMPI DUP1 PUSH4 0xF2FDE38B EQ PUSH2 0x424 JUMPI PUSH2 0x140 JUMP JUMPDEST DUP1 PUSH4 0x70A08231 EQ PUSH2 0x2DA JUMPI DUP1 PUSH4 0x715018A6 EQ PUSH2 0x30A JUMPI DUP1 PUSH4 0x8DA5CB5B EQ PUSH2 0x314 JUMPI DUP1 PUSH4 0x8FB03A02 EQ PUSH2 0x332 JUMPI DUP1 PUSH4 0x95D89B41 EQ PUSH2 0x350 JUMPI PUSH2 0x140 JUMP JUMPDEST DUP1 PUSH4 0x185B6910 GT PUSH2 0x108 JUMPI DUP1 PUSH4 0x185B6910 EQ PUSH2 0x1EA JUMPI DUP1 PUSH4 0x23B872DD EQ PUSH2 0x208 JUMPI DUP1 PUSH4 0x313CE567 EQ PUSH2 0x238 JUMPI DUP1 PUSH4 0x32CB6B0C EQ PUSH2 0x256 JUMPI DUP1 PUSH4 0x51640FEE EQ PUSH2 0x274 JUMPI DUP1 PUSH4 0x663B3E22 EQ PUSH2 0x2A7 JUMPI PUSH2 0x140 JUMP JUMPDEST DUP1 PUSH4 0x4787CA2 EQ PUSH2 0x144 JUMPI DUP1 PUSH4 0x6FDDE03 EQ PUSH2 0x160 JUMPI DUP1 PUSH4 0x95EA7B3 EQ PUSH2 0x17E JUMPI DUP1 PUSH4 0x135D088D EQ PUSH2 0x1AE JUMPI DUP1 PUSH4 0x18160DDD EQ PUSH2 0x1CC JUMPI JUMPDEST PUSH0 DUP1 REVERT JUMPDEST PUSH2 0x15E PUSH1 0x4 DUP1 CALLDATASIZE SUB DUP2 ADD SWAP1 PUSH2 0x159 SWAP2 SWAP1 PUSH2 0x16B4 JUMP JUMPDEST PUSH2 0x440 JUMP JUMPDEST STOP JUMPDEST PUSH2 0x168 PUSH2 0x45B JUMP JUMPDEST PUSH1 0x40 MLOAD PUSH2 0x175 SWAP2 SWAP1 PUSH2 0x1775 JUMP JUMPDEST PUSH1 0x40 MLOAD DUP1 SWAP2 SUB SWAP1 RETURN JUMPDEST PUSH2 0x198 PUSH1 0x4 DUP1 CALLDATASIZE SUB DUP2 ADD SWAP1 PUSH2 0x193 SWAP2 SWAP1 PUSH2 0x1822 JUMP JUMPDEST PUSH2 0x4EB JUMP JUMPDEST PUSH1 0x40 MLOAD PUSH2 0x1A5 SWAP2 SWAP1 PUSH2 0x187A JUMP JUMPDEST PUSH1 0x40 MLOAD DUP1 SWAP2 SUB SWAP1 RETURN JUMPDEST PUSH2 0x1B6 PUSH2 0x50D JUMP JUMPDEST PUSH1 0x40 MLOAD PUSH2 0x1C3 SWAP2 SWAP1 PUSH2 0x1775 JUMP JUMPDEST PUSH1 0x40 MLOAD DUP1 SWAP2 SUB SWAP1 RETURN JUMPDEST PUSH2 0x1D4 PUSH2 0x599 JUMP JUMPDEST PUSH1 0x40 MLOAD PUSH2 0x1E1 SWAP2 SWAP1 PUSH2 0x18A2 JUMP JUMPDEST PUSH1 0x40 MLOAD DUP1 SWAP2 SUB SWAP1 RETURN JUMPDEST PUSH2 0x1F2 PUSH2 0x5A2 JUMP JUMPDEST PUSH1 0x40 MLOAD PUSH2 0x1FF SWAP2 SWAP1 PUSH2 0x1775 JUMP JUMPDEST PUSH1 0x40 MLOAD DUP1 SWAP2 SUB SWAP1 RETURN JUMPDEST PUSH2 0x222 PUSH1 0x4 DUP1 CALLDATASIZE SUB DUP2 ADD SWAP1 PUSH2 0x21D SWAP2 SWAP1 PUSH2 0x18BB JUMP JUMPDEST PUSH2 0x62E JUMP JUMPDEST PUSH1 0x40 MLOAD PUSH2 0x22F SWAP2 SWAP1 PUSH2 0x187A JUMP JUMPDEST PUSH1 0x40 MLOAD DUP1 SWAP2 SUB SWAP1 RETURN JUMPDEST PUSH2 0x240 PUSH2 0x65C JUMP JUMPDEST PUSH1 0x40 MLOAD PUSH2 0x24D SWAP2 SWAP1 PUSH2 0x1926 JUMP JUMPDEST PUSH1 0x40 MLOAD DUP1 SWAP2 SUB SWAP1 RETURN JUMPDEST PUSH2 0x25E PUSH2 0x664 JUMP JUMPDEST PUSH1 0x40 MLOAD PUSH2 0x26B SWAP2 SWAP1 PUSH2 0x18A2 JUMP JUMPDEST PUSH1 0x40 MLOAD DUP1 SWAP2 SUB SWAP1 RETURN JUMPDEST PUSH2 0x28E PUSH1 0x4 DUP1 CALLDATASIZE SUB DUP2 ADD SWAP1 PUSH2 0x289 SWAP2 SWAP1 PUSH2 0x193F JUMP JUMPDEST PUSH2 0x674 JUMP JUMPDEST PUSH1 0x40 MLOAD PUSH2 0x29E SWAP5 SWAP4 SWAP3 SWAP2 SWAP1 PUSH2 0x196A JUMP JUMPDEST PUSH1 0x40 MLOAD DUP1 SWAP2 SUB SWAP1 RETURN JUMPDEST PUSH2 0x2C1 PUSH1 0x4 DUP1 CALLDATASIZE SUB DUP2 ADD SWAP1 PUSH2 0x2BC SWAP2 SWAP1 PUSH2 0x193F JUMP JUMPDEST PUSH2 0x884 JUMP JUMPDEST PUSH1 0x40 MLOAD PUSH2 0x2D1 SWAP5 SWAP4 SWAP3 SWAP2 SWAP1 PUSH2 0x196A JUMP JUMPDEST PUSH1 0x40 MLOAD DUP1 SWAP2 SUB SWAP1 RETURN JUMPDEST PUSH2 0x2F4 PUSH1 0x4 DUP1 CALLDATASIZE SUB DUP2 ADD SWAP1 PUSH2 0x2EF SWAP2 SWAP1 PUSH2 0x19C2 JUMP JUMPDEST PUSH2 0xA51 JUMP JUMPDEST PUSH1 0x40 MLOAD PUSH2 0x301 SWAP2 SWAP1 PUSH2 0x18A2 JUMP JUMPDEST PUSH1 0x40 MLOAD DUP1 SWAP2 SUB SWAP1 RETURN JUMPDEST PUSH2 0x312 PUSH2 0xA96 JUMP JUMPDEST STOP JUMPDEST PUSH2 0x31C PUSH2 0xAA9 JUMP JUMPDEST PUSH1 0x40 MLOAD PUSH2 0x329 SWAP2 SWAP1 PUSH2 0x19FC JUMP JUMPDEST PUSH1 0x40 MLOAD DUP1 SWAP2 SUB SWAP1 RETURN JUMPDEST PUSH2 0x33A PUSH2 0xAD1 JUMP JUMPDEST PUSH1 0x40 MLOAD PUSH2 0x347 SWAP2 SWAP1 PUSH2 0x18A2 JUMP JUMPDEST PUSH1 0x40 MLOAD DUP1 SWAP2 SUB SWAP1 RETURN JUMPDEST PUSH2 0x358 PUSH2 0xADD JUMP JUMPDEST PUSH1 0x40 MLOAD PUSH2 0x365 SWAP2 SWAP1 PUSH2 0x1775 JUMP JUMPDEST PUSH1 0x40 MLOAD DUP1 SWAP2 SUB SWAP1 RETURN JUMPDEST PUSH2 0x388 PUSH1 0x4 DUP1 CALLDATASIZE SUB DUP2 ADD SWAP1 PUSH2 0x383 SWAP2 SWAP1 PUSH2 0x1822 JUMP JUMPDEST PUSH2 0xB6D JUMP JUMPDEST PUSH1 0x40 MLOAD PUSH2 0x395 SWAP2 SWAP1 PUSH2 0x187A JUMP JUMPDEST PUSH1 0x40 MLOAD DUP1 SWAP2 SUB SWAP1 RETURN JUMPDEST PUSH2 0x3B8 PUSH1 0x4 DUP1 CALLDATASIZE SUB DUP2 ADD SWAP1 PUSH2 0x3B3 SWAP2 SWAP1 PUSH2 0x1A15 JUMP JUMPDEST PUSH2 0xB8F JUMP JUMPDEST STOP JUMPDEST PUSH2 0x3C2 PUSH2 0xC7E JUMP JUMPDEST PUSH1 0x40 MLOAD PUSH2 0x3CF SWAP2 SWAP1 PUSH2 0x19FC JUMP JUMPDEST PUSH1 0x40 MLOAD DUP1 SWAP2 SUB SWAP1 RETURN JUMPDEST PUSH2 0x3F2 PUSH1 0x4 DUP1 CALLDATASIZE SUB DUP2 ADD SWAP1 PUSH2 0x3ED SWAP2 SWAP1 PUSH2 0x1AB9 JUMP JUMPDEST PUSH2 0xCA3 JUMP JUMPDEST PUSH1 0x40 MLOAD PUSH2 0x3FF SWAP2 SWAP1 PUSH2 0x18A2 JUMP JUMPDEST PUSH1 0x40 MLOAD DUP1 SWAP2 SUB SWAP1 RETURN JUMPDEST PUSH2 0x422 PUSH1 0x4 DUP1 CALLDATASIZE SUB DUP2 ADD SWAP1 PUSH2 0x41D SWAP2 SWAP1 PUSH2 0x19C2 JUMP JUMPDEST PUSH2 0xD25 JUMP JUMPDEST STOP JUMPDEST PUSH2 0x43E PUSH1 0x4 DUP1 CALLDATASIZE SUB DUP2 ADD SWAP1 PUSH2 0x439 SWAP2 SWAP1 PUSH2 0x19C2 JUMP JUMPDEST PUSH2 0xE15 JUMP JUMPDEST STOP JUMPDEST PUSH2 0x448 PUSH2 0xE99 JUMP JUMPDEST DUP1 PUSH1 0x6 SWAP1 DUP2 PUSH2 0x457 SWAP2 SWAP1 PUSH2 0x1CF1 JUMP JUMPDEST POP POP JUMP JUMPDEST PUSH1 0x60 PUSH1 0x3 DUP1 SLOAD PUSH2 0x46A SWAP1 PUSH2 0x1B24 JUMP JUMPDEST DUP1 PUSH1 0x1F ADD PUSH1 0x20 DUP1 SWAP2 DIV MUL PUSH1 0x20 ADD PUSH1 0x40 MLOAD SWAP1 DUP2 ADD PUSH1 0x40 MSTORE DUP1 SWAP3 SWAP2 SWAP1 DUP2 DUP2 MSTORE PUSH1 0x20 ADD DUP3 DUP1 SLOAD PUSH2 0x496 SWAP1 PUSH2 0x1B24 JUMP JUMPDEST DUP1 ISZERO PUSH2 0x4E1 JUMPI DUP1 PUSH1 0x1F LT PUSH2 0x4B8 JUMPI PUSH2 0x100 DUP1 DUP4 SLOAD DIV MUL DUP4 MSTORE SWAP2 PUSH1 0x20 ADD SWAP2 PUSH2 0x4E1 JUMP JUMPDEST DUP3 ADD SWAP2 SWAP1 PUSH0 MSTORE PUSH1 0x20 PUSH0 KECCAK256 SWAP1 JUMPDEST DUP2 SLOAD DUP2 MSTORE SWAP1 PUSH1 0x1 ADD SWAP1 PUSH1 0x20 ADD DUP1 DUP4 GT PUSH2 0x4C4 JUMPI DUP3 SWAP1 SUB PUSH1 0x1F AND DUP3 ADD SWAP2 JUMPDEST POP POP POP POP POP SWAP1 POP SWAP1 JUMP JUMPDEST PUSH0 DUP1 PUSH2 0x4F5 PUSH2 0xF20 JUMP JUMPDEST SWAP1 POP PUSH2 0x502 DUP2 DUP6 DUP6 PUSH2 0xF27 JUMP JUMPDEST PUSH1 0x1 SWAP2 POP POP SWAP3 SWAP2 POP POP JUMP JUMPDEST PUSH1 0x6 DUP1 SLOAD PUSH2 0x51A SWAP1 PUSH2 0x1B24 JUMP JUMPDEST DUP1 PUSH1 0x1F ADD PUSH1 0x20 DUP1 SWAP2 DIV MUL PUSH1 0x20 ADD PUSH1 0x40 MLOAD SWAP1 DUP2 ADD PUSH1 0x40 MSTORE DUP1 SWAP3 SWAP2 SWAP1 DUP2 DUP2 MSTORE PUSH1 0x20 ADD DUP3 DUP1 SLOAD PUSH2 0x546 SWAP1 PUSH2 0x1B24 JUMP JUMPDEST DUP1 ISZERO PUSH2 0x591 JUMPI DUP1 PUSH1 0x1F LT PUSH2 0x568 JUMPI PUSH2 0x100 DUP1 DUP4 SLOAD DIV MUL DUP4 MSTORE SWAP2 PUSH1 0x20 ADD SWAP2 PUSH2 0x591 JUMP JUMPDEST DUP3 ADD SWAP2 SWAP1 PUSH0 MSTORE PUSH1 0x20 PUSH0 KECCAK256 SWAP1 JUMPDEST DUP2 SLOAD DUP2 MSTORE SWAP1 PUSH1 0x1 ADD SWAP1 PUSH1 0x20 ADD DUP1 DUP4 GT PUSH2 0x574 JUMPI DUP3 SWAP1 SUB PUSH1 0x1F AND DUP3 ADD SWAP2 JUMPDEST POP POP POP POP POP DUP2 JUMP JUMPDEST PUSH0 PUSH1 0x2 SLOAD SWAP1 POP SWAP1 JUMP JUMPDEST PUSH1 0x7 DUP1 SLOAD PUSH2 0x5AF SWAP1 PUSH2 0x1B24 JUMP JUMPDEST DUP1 PUSH1 0x1F ADD PUSH1 0x20 DUP1 SWAP2 DIV MUL PUSH1 0x20 ADD PUSH1 0x40 MLOAD SWAP1 DUP2 ADD PUSH1 0x40 MSTORE DUP1 SWAP3 SWAP2 SWAP1 DUP2 DUP2 MSTORE PUSH1 0x20 ADD DUP3 DUP1 SLOAD PUSH2 0x5DB SWAP1 PUSH2 0x1B24 JUMP JUMPDEST DUP1 ISZERO PUSH2 0x626 JUMPI DUP1 PUSH1 0x1F LT PUSH2 0x5FD JUMPI PUSH2 0x100 DUP1 DUP4 SLOAD DIV MUL DUP4 MSTORE SWAP2 PUSH1 0x20 ADD SWAP2 PUSH2 0x626 JUMP JUMPDEST DUP3 ADD SWAP2 SWAP1 PUSH0 MSTORE PUSH1 0x20 PUSH0 KECCAK256 SWAP1 JUMPDEST DUP2 SLOAD DUP2 MSTORE SWAP1 PUSH1 0x1 ADD SWAP1 PUSH1 0x20 ADD DUP1 DUP4 GT PUSH2 0x609 JUMPI DUP3 SWAP1 SUB PUSH1 0x1F AND DUP3 ADD SWAP2 JUMPDEST POP POP POP POP POP DUP2 JUMP JUMPDEST PUSH0 DUP1 PUSH2 0x638 PUSH2 0xF20 JUMP JUMPDEST SWAP1 POP PUSH2 0x645 DUP6 DUP3 DUP6 PUSH2 0xF39 JUMP JUMPDEST PUSH2 0x650 DUP6 DUP6 DUP6 PUSH2 0xFCC JUMP JUMPDEST PUSH1 0x1 SWAP2 POP POP SWAP4 SWAP3 POP POP POP JUMP JUMPDEST PUSH0 PUSH1 0x12 SWAP1 POP SWAP1 JUMP JUMPDEST PUSH12 0x409F9CBC7C4A04C220000000 DUP2 JUMP JUMPDEST PUSH1 0x60 DUP1 PUSH0 PUSH1 0x60 PUSH0 PUSH1 0x9 DUP7 DUP2 SLOAD DUP2 LT PUSH2 0x68F JUMPI PUSH2 0x68E PUSH2 0x1DC0 JUMP JUMPDEST JUMPDEST SWAP1 PUSH0 MSTORE PUSH1 0x20 PUSH0 KECCAK256 SWAP1 PUSH1 0x4 MUL ADD PUSH1 0x40 MLOAD DUP1 PUSH1 0x80 ADD PUSH1 0x40 MSTORE SWAP1 DUP2 PUSH0 DUP3 ADD DUP1 SLOAD PUSH2 0x6B5 SWAP1 PUSH2 0x1B24 JUMP JUMPDEST DUP1 PUSH1 0x1F ADD PUSH1 0x20 DUP1 SWAP2 DIV MUL PUSH1 0x20 ADD PUSH1 0x40 MLOAD SWAP1 DUP2 ADD PUSH1 0x40 MSTORE DUP1 SWAP3 SWAP2 SWAP1 DUP2 DUP2 MSTORE PUSH1 0x20 ADD DUP3 DUP1 SLOAD PUSH2 0x6E1 SWAP1 PUSH2 0x1B24 JUMP JUMPDEST DUP1 ISZERO PUSH2 0x72C JUMPI DUP1 PUSH1 0x1F LT PUSH2 0x703 JUMPI PUSH2 0x100 DUP1 DUP4 SLOAD DIV MUL DUP4 MSTORE SWAP2 PUSH1 0x20 ADD SWAP2 PUSH2 0x72C JUMP JUMPDEST DUP3 ADD SWAP2 SWAP1 PUSH0 MSTORE PUSH1 0x20 PUSH0 KECCAK256 SWAP1 JUMPDEST DUP2 SLOAD DUP2 MSTORE SWAP1 PUSH1 0x1 ADD SWAP1 PUSH1 0x20 ADD DUP1 DUP4 GT PUSH2 0x70F JUMPI DUP3 SWAP1 SUB PUSH1 0x1F AND DUP3 ADD SWAP2 JUMPDEST POP POP POP POP POP DUP2 MSTORE PUSH1 0x20 ADD PUSH1 0x1 DUP3 ADD DUP1 SLOAD PUSH2 0x745 SWAP1 PUSH2 0x1B24 JUMP JUMPDEST DUP1 PUSH1 0x1F ADD PUSH1 0x20 DUP1 SWAP2 DIV MUL PUSH1 0x20 ADD PUSH1 0x40 MLOAD SWAP1 DUP2 ADD PUSH1 0x40 MSTORE DUP1 SWAP3 SWAP2 SWAP1 DUP2 DUP2 MSTORE PUSH1 0x20 ADD DUP3 DUP1 SLOAD PUSH2 0x771 SWAP1 PUSH2 0x1B24 JUMP JUMPDEST DUP1 ISZERO PUSH2 0x7BC JUMPI DUP1 PUSH1 0x1F LT PUSH2 0x793 JUMPI PUSH2 0x100 DUP1 DUP4 SLOAD DIV MUL DUP4 MSTORE SWAP2 PUSH1 0x20 ADD SWAP2 PUSH2 0x7BC JUMP JUMPDEST DUP3 ADD SWAP2 SWAP1 PUSH0 MSTORE PUSH1 0x20 PUSH0 KECCAK256 SWAP1 JUMPDEST DUP2 SLOAD DUP2 MSTORE SWAP1 PUSH1 0x1 ADD SWAP1 PUSH1 0x20 ADD DUP1 DUP4 GT PUSH2 0x79F JUMPI DUP3 SWAP1 SUB PUSH1 0x1F AND DUP3 ADD SWAP2 JUMPDEST POP POP POP POP POP DUP2 MSTORE PUSH1 0x20 ADD PUSH1 0x2 DUP3 ADD SLOAD DUP2 MSTORE PUSH1 0x20 ADD PUSH1 0x3 DUP3 ADD DUP1 SLOAD PUSH2 0x7DF SWAP1 PUSH2 0x1B24 JUMP JUMPDEST DUP1 PUSH1 0x1F ADD PUSH1 0x20 DUP1 SWAP2 DIV MUL PUSH1 0x20 ADD PUSH1 0x40 MLOAD SWAP1 DUP2 ADD PUSH1 0x40 MSTORE DUP1 SWAP3 SWAP2 SWAP1 DUP2 DUP2 MSTORE PUSH1 0x20 ADD DUP3 DUP1 SLOAD PUSH2 0x80B SWAP1 PUSH2 0x1B24 JUMP JUMPDEST DUP1 ISZERO PUSH2 0x856 JUMPI DUP1 PUSH1 0x1F LT PUSH2 0x82D JUMPI PUSH2 0x100 DUP1 DUP4 SLOAD DIV MUL DUP4 MSTORE SWAP2 PUSH1 0x20 ADD SWAP2 PUSH2 0x856 JUMP JUMPDEST DUP3 ADD SWAP2 SWAP1 PUSH0 MSTORE PUSH1 0x20 PUSH0 KECCAK256 SWAP1 JUMPDEST DUP2 SLOAD DUP2 MSTORE SWAP1 PUSH1 0x1 ADD SWAP1 PUSH1 0x20 ADD DUP1 DUP4 GT PUSH2 0x839 JUMPI DUP3 SWAP1 SUB PUSH1 0x1F AND DUP3 ADD SWAP2 JUMPDEST POP POP POP POP POP DUP2 MSTORE POP POP SWAP1 POP DUP1 PUSH0 ADD MLOAD DUP2 PUSH1 0x20 ADD MLOAD DUP3 PUSH1 0x40 ADD MLOAD DUP4 PUSH1 0x60 ADD MLOAD SWAP5 POP SWAP5 POP SWAP5 POP SWAP5 POP POP SWAP2 SWAP4 POP SWAP2 SWAP4 JUMP JUMPDEST PUSH1 0x9 DUP2 DUP2 SLOAD DUP2 LT PUSH2 0x893 JUMPI PUSH0 DUP1 REVERT JUMPDEST SWAP1 PUSH0 MSTORE PUSH1 0x20 PUSH0 KECCAK256 SWAP1 PUSH1 0x4 MUL ADD PUSH0 SWAP2 POP SWAP1 POP DUP1 PUSH0 ADD DUP1 SLOAD PUSH2 0x8B2 SWAP1 PUSH2 0x1B24 JUMP JUMPDEST DUP1 PUSH1 0x1F ADD PUSH1 0x20 DUP1 SWAP2 DIV MUL PUSH1 0x20 ADD PUSH1 0x40 MLOAD SWAP1 DUP2 ADD PUSH1 0x40 MSTORE DUP1 SWAP3 SWAP2 SWAP1 DUP2 DUP2 MSTORE PUSH1 0x20 ADD DUP3 DUP1 SLOAD PUSH2 0x8DE SWAP1 PUSH2 0x1B24 JUMP JUMPDEST DUP1 ISZERO PUSH2 0x929 JUMPI DUP1 PUSH1 0x1F LT PUSH2 0x900 JUMPI PUSH2 0x100 DUP1 DUP4 SLOAD DIV MUL DUP4 MSTORE SWAP2 PUSH1 0x20 ADD SWAP2 PUSH2 0x929 JUMP JUMPDEST DUP3 ADD SWAP2 SWAP1 PUSH0 MSTORE PUSH1 0x20 PUSH0 KECCAK256 SWAP1 JUMPDEST DUP2 SLOAD DUP2 MSTORE SWAP1 PUSH1 0x1 ADD SWAP1 PUSH1 0x20 ADD DUP1 DUP4 GT PUSH2 0x90C JUMPI DUP3 SWAP1 SUB PUSH1 0x1F AND DUP3 ADD SWAP2 JUMPDEST POP POP POP POP POP SWAP1 DUP1 PUSH1 0x1 ADD DUP1 SLOAD PUSH2 0x93E SWAP1 PUSH2 0x1B24 JUMP JUMPDEST DUP1 PUSH1 0x1F ADD PUSH1 0x20 DUP1 SWAP2 DIV MUL PUSH1 0x20 ADD PUSH1 0x40 MLOAD SWAP1 DUP2 ADD PUSH1 0x40 MSTORE DUP1 SWAP3 SWAP2 SWAP1 DUP2 DUP2 MSTORE PUSH1 0x20 ADD DUP3 DUP1 SLOAD PUSH2 0x96A SWAP1 PUSH2 0x1B24 JUMP JUMPDEST DUP1 ISZERO PUSH2 0x9B5 JUMPI DUP1 PUSH1 0x1F LT PUSH2 0x98C JUMPI PUSH2 0x100 DUP1 DUP4 SLOAD DIV MUL DUP4 MSTORE SWAP2 PUSH1 0x20 ADD SWAP2 PUSH2 0x9B5 JUMP JUMPDEST DUP3 ADD SWAP2 SWAP1 PUSH0 MSTORE PUSH1 0x20 PUSH0 KECCAK256 SWAP1 JUMPDEST DUP2 SLOAD DUP2 MSTORE SWAP1 PUSH1 0x1 ADD SWAP1 PUSH1 0x20 ADD DUP1 DUP4 GT PUSH2 0x998 JUMPI DUP3 SWAP1 SUB PUSH1 0x1F AND DUP3 ADD SWAP2 JUMPDEST POP POP POP POP POP SWAP1 DUP1 PUSH1 0x2 ADD SLOAD SWAP1 DUP1 PUSH1 0x3 ADD DUP1 SLOAD PUSH2 0x9D0 SWAP1 PUSH2 0x1B24 JUMP JUMPDEST DUP1 PUSH1 0x1F ADD PUSH1 0x20 DUP1 SWAP2 DIV MUL PUSH1 0x20 ADD PUSH1 0x40 MLOAD SWAP1 DUP2 ADD PUSH1 0x40 MSTORE DUP1 SWAP3 SWAP2 SWAP1 DUP2 DUP2 MSTORE PUSH1 0x20 ADD DUP3 DUP1 SLOAD PUSH2 0x9FC SWAP1 PUSH2 0x1B24 JUMP JUMPDEST DUP1 ISZERO PUSH2 0xA47 JUMPI DUP1 PUSH1 0x1F LT PUSH2 0xA1E JUMPI PUSH2 0x100 DUP1 DUP4 SLOAD DIV MUL DUP4 MSTORE SWAP2 PUSH1 0x20 ADD SWAP2 PUSH2 0xA47 JUMP JUMPDEST DUP3 ADD SWAP2 SWAP1 PUSH0 MSTORE PUSH1 0x20 PUSH0 KECCAK256 SWAP1 JUMPDEST DUP2 SLOAD DUP2 MSTORE SWAP1 PUSH1 0x1 ADD SWAP1 PUSH1 0x20 ADD DUP1 DUP4 GT PUSH2 0xA2A JUMPI DUP3 SWAP1 SUB PUSH1 0x1F AND DUP3 ADD SWAP2 JUMPDEST POP POP POP POP POP SWAP1 POP DUP5 JUMP JUMPDEST PUSH0 DUP1 PUSH0 DUP4 PUSH20 0xFFFFFFFFFFFFFFFFFFFFFFFFFFFFFFFFFFFFFFFF AND PUSH20 0xFFFFFFFFFFFFFFFFFFFFFFFFFFFFFFFFFFFFFFFF AND DUP2 MSTORE PUSH1 0x20 ADD SWAP1 DUP2 MSTORE PUSH1 0x20 ADD PUSH0 KECCAK256 SLOAD SWAP1 POP SWAP2 SWAP1 POP JUMP JUMPDEST PUSH2 0xA9E PUSH2 0xE99 JUMP JUMPDEST PUSH2 0xAA7 PUSH0 PUSH2 0x10BC JUMP JUMPDEST JUMP JUMPDEST PUSH0 PUSH1 0x5 PUSH0 SWAP1 SLOAD SWAP1 PUSH2 0x100 EXP SWAP1 DIV PUSH20 0xFFFFFFFFFFFFFFFFFFFFFFFFFFFFFFFFFFFFFFFF AND SWAP1 POP SWAP1 JUMP JUMPDEST PUSH0 PUSH1 0x9 DUP1 SLOAD SWAP1 POP SWAP1 POP SWAP1 JUMP JUMPDEST PUSH1 0x60 PUSH1 0x4 DUP1 SLOAD PUSH2 0xAEC SWAP1 PUSH2 0x1B24 JUMP JUMPDEST DUP1 PUSH1 0x1F ADD PUSH1 0x20 DUP1 SWAP2 DIV MUL PUSH1 0x20 ADD PUSH1 0x40 MLOAD SWAP1 DUP2 ADD PUSH1 0x40 MSTORE DUP1 SWAP3 SWAP2 SWAP1 DUP2 DUP2 MSTORE PUSH1 0x20 ADD DUP3 DUP1 SLOAD PUSH2 0xB18 SWAP1 PUSH2 0x1B24 JUMP JUMPDEST DUP1 ISZERO PUSH2 0xB63 JUMPI DUP1 PUSH1 0x1F LT PUSH2 0xB3A JUMPI PUSH2 0x100 DUP1 DUP4 SLOAD DIV MUL DUP4 MSTORE SWAP2 PUSH1 0x20 ADD SWAP2 PUSH2 0xB63 JUMP JUMPDEST DUP3 ADD SWAP2 SWAP1 PUSH0 MSTORE PUSH1 0x20 PUSH0 KECCAK256 SWAP1 JUMPDEST DUP2 SLOAD DUP2 MSTORE SWAP1 PUSH1 0x1 ADD SWAP1 PUSH1 0x20 ADD DUP1 DUP4 GT PUSH2 0xB46 JUMPI DUP3 SWAP1 SUB PUSH1 0x1F AND DUP3 ADD SWAP2 JUMPDEST POP POP POP POP POP SWAP1 POP SWAP1 JUMP JUMPDEST PUSH0 DUP1 PUSH2 0xB77 PUSH2 0xF20 JUMP JUMPDEST SWAP1 POP PUSH2 0xB84 DUP2 DUP6 DUP6 PUSH2 0xFCC JUMP JUMPDEST PUSH1 0x1 SWAP2 POP POP SWAP3 SWAP2 POP POP JUMP JUMPDEST PUSH2 0xB97 PUSH2 0xE99 JUMP JUMPDEST PUSH1 0x9 PUSH1 0x40 MLOAD DUP1 PUSH1 0x80 ADD PUSH1 0x40 MSTORE DUP1 DUP6 DUP2 MSTORE PUSH1 0x20 ADD DUP5 DUP2 MSTORE PUSH1 0x20 ADD TIMESTAMP DUP2 MSTORE PUSH1 0x20 ADD DUP4 DUP2 MSTORE POP SWAP1 DUP1 PUSH1 0x1 DUP2 SLOAD ADD DUP1 DUP3 SSTORE DUP1 SWAP2 POP POP PUSH1 0x1 SWAP1 SUB SWAP1 PUSH0 MSTORE PUSH1 0x20 PUSH0 KECCAK256 SWAP1 PUSH1 0x4 MUL ADD PUSH0 SWAP1 SWAP2 SWAP1 SWAP2 SWAP1 SWAP2 POP PUSH0 DUP3 ADD MLOAD DUP2 PUSH0 ADD SWAP1 DUP2 PUSH2 0xBF3 SWAP2 SWAP1 PUSH2 0x1CF1 JUMP JUMPDEST POP PUSH1 0x20 DUP3 ADD MLOAD DUP2 PUSH1 0x1 ADD SWAP1 DUP2 PUSH2 0xC09 SWAP2 SWAP1 PUSH2 0x1CF1 JUMP JUMPDEST POP PUSH1 0x40 DUP3 ADD MLOAD DUP2 PUSH1 0x2 ADD SSTORE PUSH1 0x60 DUP3 ADD MLOAD DUP2 PUSH1 0x3 ADD SWAP1 DUP2 PUSH2 0xC29 SWAP2 SWAP1 PUSH2 0x1CF1 JUMP JUMPDEST POP POP POP PUSH1 0x1 PUSH1 0x9 DUP1 SLOAD SWAP1 POP PUSH2 0xC3E SWAP2 SWAP1 PUSH2 0x1E1A JUMP JUMPDEST PUSH32 0x2774E9EF4AFEF65425B7A7FBFD20AD10AE87A2BE53C24FD3C78CC311981BC848 DUP5 DUP5 DUP5 PUSH1 0x40 MLOAD PUSH2 0xC71 SWAP4 SWAP3 SWAP2 SWAP1 PUSH2 0x1E4D JUMP JUMPDEST PUSH1 0x40 MLOAD DUP1 SWAP2 SUB SWAP1 LOG2 POP POP POP JUMP JUMPDEST PUSH1 0x8 PUSH0 SWAP1 SLOAD SWAP1 PUSH2 0x100 EXP SWAP1 DIV PUSH20 0xFFFFFFFFFFFFFFFFFFFFFFFFFFFFFFFFFFFFFFFF AND DUP2 JUMP JUMPDEST PUSH0 PUSH1 0x1 PUSH0 DUP5 PUSH20 0xFFFFFFFFFFFFFFFFFFFFFFFFFFFFFFFFFFFFFFFF AND PUSH20 0xFFFFFFFFFFFFFFFFFFFFFFFFFFFFFFFFFFFFFFFF AND DUP2 MSTORE PUSH1 0x20 ADD SWAP1 DUP2 MSTORE PUSH1 0x20 ADD PUSH0 KECCAK256 PUSH0 DUP4 PUSH20 0xFFFFFFFFFFFFFFFFFFFFFFFFFFFFFFFFFFFFFFFF AND PUSH20 0xFFFFFFFFFFFFFFFFFFFFFFFFFFFFFFFFFFFFFFFF AND DUP2 MSTORE PUSH1 0x20 ADD SWAP1 DUP2 MSTORE PUSH1 0x20 ADD PUSH0 KECCAK256 SLOAD SWAP1 POP SWAP3 SWAP2 POP POP JUMP JUMPDEST PUSH2 0xD2D PUSH2 0xE99 JUMP JUMPDEST PUSH0 PUSH20 0xFFFFFFFFFFFFFFFFFFFFFFFFFFFFFFFFFFFFFFFF AND DUP2 PUSH20 0xFFFFFFFFFFFFFFFFFFFFFFFFFFFFFFFFFFFFFFFF AND SUB PUSH2 0xD9B JUMPI PUSH1 0x40 MLOAD PUSH32 0x8C379A000000000000000000000000000000000000000000000000000000000 DUP2 MSTORE PUSH1 0x4 ADD PUSH2 0xD92 SWAP1 PUSH2 0x1EE1 JUMP JUMPDEST PUSH1 0x40 MLOAD DUP1 SWAP2 SUB SWAP1 REVERT JUMPDEST DUP1 PUSH1 0x8 PUSH0 PUSH2 0x100 EXP DUP2 SLOAD DUP2 PUSH20 0xFFFFFFFFFFFFFFFFFFFFFFFFFFFFFFFFFFFFFFFF MUL NOT AND SWAP1 DUP4 PUSH20 0xFFFFFFFFFFFFFFFFFFFFFFFFFFFFFFFFFFFFFFFF AND MUL OR SWAP1 SSTORE POP PUSH32 0xB6682970C3624FF1F1130C7910F4F5A7619C2356DC365283EB44E7806DC1A86F DUP2 PUSH1 0x40 MLOAD PUSH2 0xE0A SWAP2 SWAP1 PUSH2 0x19FC JUMP JUMPDEST PUSH1 0x40 MLOAD DUP1 SWAP2 SUB SWAP1 LOG1 POP JUMP JUMPDEST PUSH2 0xE1D PUSH2 0xE99 JUMP JUMPDEST PUSH0 PUSH20 0xFFFFFFFFFFFFFFFFFFFFFFFFFFFFFFFFFFFFFFFF AND DUP2 PUSH20 0xFFFFFFFFFFFFFFFFFFFFFFFFFFFFFFFFFFFFFFFF AND SUB PUSH2 0xE8D JUMPI PUSH0 PUSH1 0x40 MLOAD PUSH32 0x1E4FBDF700000000000000000000000000000000000000000000000000000000 DUP2 MSTORE PUSH1 0x4 ADD PUSH2 0xE84 SWAP2 SWAP1 PUSH2 0x19FC JUMP JUMPDEST PUSH1 0x40 MLOAD DUP1 SWAP2 SUB SWAP1 REVERT JUMPDEST PUSH2 0xE96 DUP2 PUSH2 0x10BC JUMP JUMPDEST POP JUMP JUMPDEST PUSH2 0xEA1 PUSH2 0xF20 JUMP JUMPDEST PUSH20 0xFFFFFFFFFFFFFFFFFFFFFFFFFFFFFFFFFFFFFFFF AND PUSH2 0xEBF PUSH2 0xAA9 JUMP JUMPDEST PUSH20 0xFFFFFFFFFFFFFFFFFFFFFFFFFFFFFFFFFFFFFFFF AND EQ PUSH2 0xF1E JUMPI PUSH2 0xEE2 PUSH2 0xF20 JUMP JUMPDEST PUSH1 0x40 MLOAD PUSH32 0x118CDAA700000000000000000000000000000000000000000000000000000000 DUP2 MSTORE PUSH1 0x4 ADD PUSH2 0xF15 SWAP2 SWAP1 PUSH2 0x19FC JUMP JUMPDEST PUSH1 0x40 MLOAD DUP1 SWAP2 SUB SWAP1 REVERT JUMPDEST JUMP JUMPDEST PUSH0 CALLER SWAP1 POP SWAP1 JUMP JUMPDEST PUSH2 0xF34 DUP4 DUP4 DUP4 PUSH1 0x1 PUSH2 0x117F JUMP JUMPDEST POP POP POP JUMP JUMPDEST PUSH0 PUSH2 0xF44 DUP5 DUP5 PUSH2 0xCA3 JUMP JUMPDEST SWAP1 POP PUSH32 0xFFFFFFFFFFFFFFFFFFFFFFFFFFFFFFFFFFFFFFFFFFFFFFFFFFFFFFFFFFFFFFFF DUP2 LT ISZERO PUSH2 0xFC6 JUMPI DUP2 DUP2 LT ISZERO PUSH2 0xFB7 JUMPI DUP3 DUP2 DUP4 PUSH1 0x40 MLOAD PUSH32 0xFB8F41B200000000000000000000000000000000000000000000000000000000 DUP2 MSTORE PUSH1 0x4 ADD PUSH2 0xFAE SWAP4 SWAP3 SWAP2 SWAP1 PUSH2 0x1EFF JUMP JUMPDEST PUSH1 0x40 MLOAD DUP1 SWAP2 SUB SWAP1 REVERT JUMPDEST PUSH2 0xFC5 DUP5 DUP5 DUP5 DUP5 SUB PUSH0 PUSH2 0x117F JUMP JUMPDEST JUMPDEST POP POP POP POP JUMP JUMPDEST PUSH0 PUSH20 0xFFFFFFFFFFFFFFFFFFFFFFFFFFFFFFFFFFFFFFFF AND DUP4 PUSH20 0xFFFFFFFFFFFFFFFFFFFFFFFFFFFFFFFFFFFFFFFF AND SUB PUSH2 0x103C JUMPI PUSH0 PUSH1 0x40 MLOAD PUSH32 0x96C6FD1E00000000000000000000000000000000000000000000000000000000 DUP2 MSTORE PUSH1 0x4 ADD PUSH2 0x1033 SWAP2 SWAP1 PUSH2 0x19FC JUMP JUMPDEST PUSH1 0x40 MLOAD DUP1 SWAP2 SUB SWAP1 REVERT JUMPDEST PUSH0 PUSH20 0xFFFFFFFFFFFFFFFFFFFFFFFFFFFFFFFFFFFFFFFF AND DUP3 PUSH20 0xFFFFFFFFFFFFFFFFFFFFFFFFFFFFFFFFFFFFFFFF AND SUB PUSH2 0x10AC JUMPI PUSH0 PUSH1 0x40 MLOAD PUSH32 0xEC442F0500000000000000000000000000000000000000000000000000000000 DUP2 MSTORE PUSH1 0x4 ADD PUSH2 0x10A3 SWAP2 SWAP1 PUSH2 0x19FC JUMP JUMPDEST PUSH1 0x40 MLOAD DUP1 SWAP2 SUB SWAP1 REVERT JUMPDEST PUSH2 0x10B7 DUP4 DUP4 DUP4 PUSH2 0x134E JUMP JUMPDEST POP POP POP JUMP JUMPDEST PUSH0 PUSH1 0x5 PUSH0 SWAP1 SLOAD SWAP1 PUSH2 0x100 EXP SWAP1 DIV PUSH20 0xFFFFFFFFFFFFFFFFFFFFFFFFFFFFFFFFFFFFFFFF AND SWAP1 POP DUP2 PUSH1 0x5 PUSH0 PUSH2 0x100 EXP DUP2 SLOAD DUP2 PUSH20 0xFFFFFFFFFFFFFFFFFFFFFFFFFFFFFFFFFFFFFFFF MUL NOT AND SWAP1 DUP4 PUSH20 0xFFFFFFFFFFFFFFFFFFFFFFFFFFFFFFFFFFFFFFFF AND MUL OR SWAP1 SSTORE POP DUP2 PUSH20 0xFFFFFFFFFFFFFFFFFFFFFFFFFFFFFFFFFFFFFFFF AND DUP2 PUSH20 0xFFFFFFFFFFFFFFFFFFFFFFFFFFFFFFFFFFFFFFFF AND PUSH32 0x8BE0079C531659141344CD1FD0A4F28419497F9722A3DAAFE3B4186F6B6457E0 PUSH1 0x40 MLOAD PUSH1 0x40 MLOAD DUP1 SWAP2 SUB SWAP1 LOG3 POP POP JUMP JUMPDEST PUSH0 PUSH20 0xFFFFFFFFFFFFFFFFFFFFFFFFFFFFFFFFFFFFFFFF AND DUP5 PUSH20 0xFFFFFFFFFFFFFFFFFFFFFFFFFFFFFFFFFFFFFFFF AND SUB PUSH2 0x11EF JUMPI PUSH0 PUSH1 0x40 MLOAD PUSH32 0xE602DF0500000000000000000000000000000000000000000000000000000000 DUP2 MSTORE PUSH1 0x4 ADD PUSH2 0x11E6 SWAP2 SWAP1 PUSH2 0x19FC JUMP JUMPDEST PUSH1 0x40 MLOAD DUP1 SWAP2 SUB SWAP1 REVERT JUMPDEST PUSH0 PUSH20 0xFFFFFFFFFFFFFFFFFFFFFFFFFFFFFFFFFFFFFFFF AND DUP4 PUSH20 0xFFFFFFFFFFFFFFFFFFFFFFFFFFFFFFFFFFFFFFFF AND SUB PUSH2 0x125F JUMPI PUSH0 PUSH1 0x40 MLOAD PUSH32 0x94280D6200000000000000000000000000000000000000000000000000000000 DUP2 MSTORE PUSH1 0x4 ADD PUSH2 0x1256 SWAP2 SWAP1 PUSH2 0x19FC JUMP JUMPDEST PUSH1 0x40 MLOAD DUP1 SWAP2 SUB SWAP1 REVERT JUMPDEST DUP2 PUSH1 0x1 PUSH0 DUP7 PUSH20 0xFFFFFFFFFFFFFFFFFFFFFFFFFFFFFFFFFFFFFFFF AND PUSH20 0xFFFFFFFFFFFFFFFFFFFFFFFFFFFFFFFFFFFFFFFF AND DUP2 MSTORE PUSH1 0x20 ADD SWAP1 DUP2 MSTORE PUSH1 0x20 ADD PUSH0 KECCAK256 PUSH0 DUP6 PUSH20 0xFFFFFFFFFFFFFFFFFFFFFFFFFFFFFFFFFFFFFFFF AND PUSH20 0xFFFFFFFFFFFFFFFFFFFFFFFFFFFFFFFFFFFFFFFF AND DUP2 MSTORE PUSH1 0x20 ADD SWAP1 DUP2 MSTORE PUSH1 0x20 ADD PUSH0 KECCAK256 DUP2 SWAP1 SSTORE POP DUP1 ISZERO PUSH2 0x1348 JUMPI DUP3 PUSH20 0xFFFFFFFFFFFFFFFFFFFFFFFFFFFFFFFFFFFFFFFF AND DUP5 PUSH20 0xFFFFFFFFFFFFFFFFFFFFFFFFFFFFFFFFFFFFFFFF AND PUSH32 0x8C5BE1E5EBEC7D5BD14F71427D1E84F3DD0314C0F7B2291E5B200AC8C7C3B925 DUP5 PUSH1 0x40 MLOAD PUSH2 0x133F SWAP2 SWAP1 PUSH2 0x18A2 JUMP JUMPDEST PUSH1 0x40 MLOAD DUP1 SWAP2 SUB SWAP1 LOG3 JUMPDEST POP POP POP POP JUMP JUMPDEST PUSH0 PUSH20 0xFFFFFFFFFFFFFFFFFFFFFFFFFFFFFFFFFFFFFFFF AND DUP4 PUSH20 0xFFFFFFFFFFFFFFFFFFFFFFFFFFFFFFFFFFFFFFFF AND SUB PUSH2 0x139E JUMPI DUP1 PUSH1 0x2 PUSH0 DUP3 DUP3 SLOAD PUSH2 0x1392 SWAP2 SWAP1 PUSH2 0x1F34 JUMP JUMPDEST SWAP3 POP POP DUP2 SWAP1 SSTORE POP PUSH2 0x146C JUMP JUMPDEST PUSH0 DUP1 PUSH0 DUP6 PUSH20 0xFFFFFFFFFFFFFFFFFFFFFFFFFFFFFFFFFFFFFFFF AND PUSH20 0xFFFFFFFFFFFFFFFFFFFFFFFFFFFFFFFFFFFFFFFF AND DUP2 MSTORE PUSH1 0x20 ADD SWAP1 DUP2 MSTORE PUSH1 0x20 ADD PUSH0 KECCAK256 SLOAD SWAP1 POP DUP2 DUP2 LT ISZERO PUSH2 0x1427 JUMPI DUP4 DUP2 DUP4 PUSH1 0x40 MLOAD PUSH32 0xE450D38C00000000000000000000000000000000000000000000000000000000 DUP2 MSTORE PUSH1 0x4 ADD PUSH2 0x141E SWAP4 SWAP3 SWAP2 SWAP1 PUSH2 0x1EFF JUMP JUMPDEST PUSH1 0x40 MLOAD DUP1 SWAP2 SUB SWAP1 REVERT JUMPDEST DUP2 DUP2 SUB PUSH0 DUP1 DUP7 PUSH20 0xFFFFFFFFFFFFFFFFFFFFFFFFFFFFFFFFFFFFFFFF AND PUSH20 0xFFFFFFFFFFFFFFFFFFFFFFFFFFFFFFFFFFFFFFFF AND DUP2 MSTORE PUSH1 0x20 ADD SWAP1 DUP2 MSTORE PUSH1 0x20 ADD PUSH0 KECCAK256 DUP2 SWAP1 SSTORE POP POP JUMPDEST PUSH0 PUSH20 0xFFFFFFFFFFFFFFFFFFFFFFFFFFFFFFFFFFFFFFFF AND DUP3 PUSH20 0xFFFFFFFFFFFFFFFFFFFFFFFFFFFFFFFFFFFFFFFF AND SUB PUSH2 0x14B3 JUMPI DUP1 PUSH1 0x2 PUSH0 DUP3 DUP3 SLOAD SUB SWAP3 POP POP DUP2 SWAP1 SSTORE POP PUSH2 0x14FD JUMP JUMPDEST DUP1 PUSH0 DUP1 DUP5 PUSH20 0xFFFFFFFFFFFFFFFFFFFFFFFFFFFFFFFFFFFFFFFF AND PUSH20 0xFFFFFFFFFFFFFFFFFFFFFFFFFFFFFFFFFFFFFFFF AND DUP2 MSTORE PUSH1 0x20 ADD SWAP1 DUP2 MSTORE PUSH1 0x20 ADD PUSH0 KECCAK256 PUSH0 DUP3 DUP3 SLOAD ADD SWAP3 POP POP DUP2 SWAP1 SSTORE POP JUMPDEST DUP2 PUSH20 0xFFFFFFFFFFFFFFFFFFFFFFFFFFFFFFFFFFFFFFFF AND DUP4 PUSH20 0xFFFFFFFFFFFFFFFFFFFFFFFFFFFFFFFFFFFFFFFF AND PUSH32 0xDDF252AD1BE2C89B69C2B068FC378DAA952BA7F163C4A11628F55A4DF523B3EF DUP4 PUSH1 0x40 MLOAD PUSH2 0x155A SWAP2 SWAP1 PUSH2 0x18A2 JUMP JUMPDEST PUSH1 0x40 MLOAD DUP1 SWAP2 SUB SWAP1 LOG3 POP POP POP JUMP JUMPDEST PUSH0 PUSH1 0x40 MLOAD SWAP1 POP SWAP1 JUMP JUMPDEST PUSH0 DUP1 REVERT JUMPDEST PUSH0 DUP1 REVERT JUMPDEST PUSH0 DUP1 REVERT JUMPDEST PUSH0 DUP1 REVERT JUMPDEST PUSH0 PUSH1 0x1F NOT PUSH1 0x1F DUP4 ADD AND SWAP1 POP SWAP2 SWAP1 POP JUMP JUMPDEST PUSH32 0x4E487B7100000000000000000000000000000000000000000000000000000000 PUSH0 MSTORE PUSH1 0x41 PUSH1 0x4 MSTORE PUSH1 0x24 PUSH0 REVERT JUMPDEST PUSH2 0x15C6 DUP3 PUSH2 0x1580 JUMP JUMPDEST DUP2 ADD DUP2 DUP2 LT PUSH8 0xFFFFFFFFFFFFFFFF DUP3 GT OR ISZERO PUSH2 0x15E5 JUMPI PUSH2 0x15E4 PUSH2 0x1590 JUMP JUMPDEST JUMPDEST DUP1 PUSH1 0x40 MSTORE POP POP POP JUMP JUMPDEST PUSH0 PUSH2 0x15F7 PUSH2 0x1567 JUMP JUMPDEST SWAP1 POP PUSH2 0x1603 DUP3 DUP3 PUSH2 0x15BD JUMP JUMPDEST SWAP2 SWAP1 POP JUMP JUMPDEST PUSH0 PUSH8 0xFFFFFFFFFFFFFFFF DUP3 GT ISZERO PUSH2 0x1622 JUMPI PUSH2 0x1621 PUSH2 0x1590 JUMP JUMPDEST JUMPDEST PUSH2 0x162B DUP3 PUSH2 0x1580 JUMP JUMPDEST SWAP1 POP PUSH1 0x20 DUP2 ADD SWAP1 POP SWAP2 SWAP1 POP JUMP JUMPDEST DUP3 DUP2 DUP4 CALLDATACOPY PUSH0 DUP4 DUP4 ADD MSTORE POP POP POP JUMP JUMPDEST PUSH0 PUSH2 0x1658 PUSH2 0x1653 DUP5 PUSH2 0x1608 JUMP JUMPDEST PUSH2 0x15EE JUMP JUMPDEST SWAP1 POP DUP3 DUP2 MSTORE PUSH1 0x20 DUP2 ADD DUP5 DUP5 DUP5 ADD GT ISZERO PUSH2 0x1674 JUMPI PUSH2 0x1673 PUSH2 0x157C JUMP JUMPDEST JUMPDEST PUSH2 0x167F DUP5 DUP3 DUP6 PUSH2 0x1638 JUMP JUMPDEST POP SWAP4 SWAP3 POP POP POP JUMP JUMPDEST PUSH0 DUP3 PUSH1 0x1F DUP4 ADD SLT PUSH2 0x169B JUMPI PUSH2 0x169A PUSH2 0x1578 JUMP JUMPDEST JUMPDEST DUP2 CALLDATALOAD PUSH2 0x16AB DUP5 DUP3 PUSH1 0x20 DUP7 ADD PUSH2 0x1646 JUMP JUMPDEST SWAP2 POP POP SWAP3 SWAP2 POP POP JUMP JUMPDEST PUSH0 PUSH1 0x20 DUP3 DUP5 SUB SLT ISZERO PUSH2 0x16C9 JUMPI PUSH2 0x16C8 PUSH2 0x1570 JUMP JUMPDEST JUMPDEST PUSH0 DUP3 ADD CALLDATALOAD PUSH8 0xFFFFFFFFFFFFFFFF DUP2 GT ISZERO PUSH2 0x16E6 JUMPI PUSH2 0x16E5 PUSH2 0x1574 JUMP JUMPDEST JUMPDEST PUSH2 0x16F2 DUP5 DUP3 DUP6 ADD PUSH2 0x1687 JUMP JUMPDEST SWAP2 POP POP SWAP3 SWAP2 POP POP JUMP JUMPDEST PUSH0 DUP2 MLOAD SWAP1 POP SWAP2 SWAP1 POP JUMP JUMPDEST PUSH0 DUP3 DUP3 MSTORE PUSH1 0x20 DUP3 ADD SWAP1 POP SWAP3 SWAP2 POP POP JUMP JUMPDEST PUSH0 JUMPDEST DUP4 DUP2 LT ISZERO PUSH2 0x1732 JUMPI DUP1 DUP3 ADD MLOAD DUP2 DUP5 ADD MSTORE PUSH1 0x20 DUP2 ADD SWAP1 POP PUSH2 0x1717 JUMP JUMPDEST PUSH0 DUP5 DUP5 ADD MSTORE POP POP POP POP JUMP JUMPDEST PUSH0 PUSH2 0x1747 DUP3 PUSH2 0x16FB JUMP JUMPDEST PUSH2 0x1751 DUP2 DUP6 PUSH2 0x1705 JUMP JUMPDEST SWAP4 POP PUSH2 0x1761 DUP2 DUP6 PUSH1 0x20 DUP7 ADD PUSH2 0x1715 JUMP JUMPDEST PUSH2 0x176A DUP2 PUSH2 0x1580 JUMP JUMPDEST DUP5 ADD SWAP2 POP POP SWAP3 SWAP2 POP POP JUMP JUMPDEST PUSH0 PUSH1 0x20 DUP3 ADD SWAP1 POP DUP2 DUP2 SUB PUSH0 DUP4 ADD MSTORE PUSH2 0x178D DUP2 DUP5 PUSH2 0x173D JUMP JUMPDEST SWAP1 POP SWAP3 SWAP2 POP POP JUMP JUMPDEST PUSH0 PUSH20 0xFFFFFFFFFFFFFFFFFFFFFFFFFFFFFFFFFFFFFFFF DUP3 AND SWAP1 POP SWAP2 SWAP1 POP JUMP JUMPDEST PUSH0 PUSH2 0x17BE DUP3 PUSH2 0x1795 JUMP JUMPDEST SWAP1 POP SWAP2 SWAP1 POP JUMP JUMPDEST PUSH2 0x17CE DUP2 PUSH2 0x17B4 JUMP JUMPDEST DUP2 EQ PUSH2 0x17D8 JUMPI PUSH0 DUP1 REVERT JUMPDEST POP JUMP JUMPDEST PUSH0 DUP2 CALLDATALOAD SWAP1 POP PUSH2 0x17E9 DUP2 PUSH2 0x17C5 JUMP JUMPDEST SWAP3 SWAP2 POP POP JUMP JUMPDEST PUSH0 DUP2 SWAP1 POP SWAP2 SWAP1 POP JUMP JUMPDEST PUSH2 0x1801 DUP2 PUSH2 0x17EF JUMP JUMPDEST DUP2 EQ PUSH2 0x180B JUMPI PUSH0 DUP1 REVERT JUMPDEST POP JUMP JUMPDEST PUSH0 DUP2 CALLDATALOAD SWAP1 POP PUSH2 0x181C DUP2 PUSH2 0x17F8 JUMP JUMPDEST SWAP3 SWAP2 POP POP JUMP JUMPDEST PUSH0 DUP1 PUSH1 0x40 DUP4 DUP6 SUB SLT ISZERO PUSH2 0x1838 JUMPI PUSH2 0x1837 PUSH2 0x1570 JUMP JUMPDEST JUMPDEST PUSH0 PUSH2 0x1845 DUP6 DUP3 DUP7 ADD PUSH2 0x17DB JUMP JUMPDEST SWAP3 POP POP PUSH1 0x20 PUSH2 0x1856 DUP6 DUP3 DUP7 ADD PUSH2 0x180E JUMP JUMPDEST SWAP2 POP POP SWAP3 POP SWAP3 SWAP1 POP JUMP JUMPDEST PUSH0 DUP2 ISZERO ISZERO SWAP1 POP SWAP2 SWAP1 POP JUMP JUMPDEST PUSH2 0x1874 DUP2 PUSH2 0x1860 JUMP JUMPDEST DUP3 MSTORE POP POP JUMP JUMPDEST PUSH0 PUSH1 0x20 DUP3 ADD SWAP1 POP PUSH2 0x188D PUSH0 DUP4 ADD DUP5 PUSH2 0x186B JUMP JUMPDEST SWAP3 SWAP2 POP POP JUMP JUMPDEST PUSH2 0x189C DUP2 PUSH2 0x17EF JUMP JUMPDEST DUP3 MSTORE POP POP JUMP JUMPDEST PUSH0 PUSH1 0x20 DUP3 ADD SWAP1 POP PUSH2 0x18B5 PUSH0 DUP4 ADD DUP5 PUSH2 0x1893 JUMP JUMPDEST SWAP3 SWAP2 POP POP JUMP JUMPDEST PUSH0 DUP1 PUSH0 PUSH1 0x60 DUP5 DUP7 SUB SLT ISZERO PUSH2 0x18D2 JUMPI PUSH2 0x18D1 PUSH2 0x1570 JUMP JUMPDEST JUMPDEST PUSH0 PUSH2 0x18DF DUP7 DUP3 DUP8 ADD PUSH2 0x17DB JUMP JUMPDEST SWAP4 POP POP PUSH1 0x20 PUSH2 0x18F0 DUP7 DUP3 DUP8 ADD PUSH2 0x17DB JUMP JUMPDEST SWAP3 POP POP PUSH1 0x40 PUSH2 0x1901 DUP7 DUP3 DUP8 ADD PUSH2 0x180E JUMP JUMPDEST SWAP2 POP POP SWAP3 POP SWAP3 POP SWAP3 JUMP JUMPDEST PUSH0 PUSH1 0xFF DUP3 AND SWAP1 POP SWAP2 SWAP1 POP JUMP JUMPDEST PUSH2 0x1920 DUP2 PUSH2 0x190B JUMP JUMPDEST DUP3 MSTORE POP POP JUMP JUMPDEST PUSH0 PUSH1 0x20 DUP3 ADD SWAP1 POP PUSH2 0x1939 PUSH0 DUP4 ADD DUP5 PUSH2 0x1917 JUMP JUMPDEST SWAP3 SWAP2 POP POP JUMP JUMPDEST PUSH0 PUSH1 0x20 DUP3 DUP5 SUB SLT ISZERO PUSH2 0x1954 JUMPI PUSH2 0x1953 PUSH2 0x1570 JUMP JUMPDEST JUMPDEST PUSH0 PUSH2 0x1961 DUP5 DUP3 DUP6 ADD PUSH2 0x180E JUMP JUMPDEST SWAP2 POP POP SWAP3 SWAP2 POP POP JUMP JUMPDEST PUSH0 PUSH1 0x80 DUP3 ADD SWAP1 POP DUP2 DUP2 SUB PUSH0 DUP4 ADD MSTORE PUSH2 0x1982 DUP2 DUP8 PUSH2 0x173D JUMP JUMPDEST SWAP1 POP DUP2 DUP2 SUB PUSH1 0x20 DUP4 ADD MSTORE PUSH2 0x1996 DUP2 DUP7 PUSH2 0x173D JUMP JUMPDEST SWAP1 POP PUSH2 0x19A5 PUSH1 0x40 DUP4 ADD DUP6 PUSH2 0x1893 JUMP JUMPDEST DUP2 DUP2 SUB PUSH1 0x60 DUP4 ADD MSTORE PUSH2 0x19B7 DUP2 DUP5 PUSH2 0x173D JUMP JUMPDEST SWAP1 POP SWAP6 SWAP5 POP POP POP POP POP JUMP JUMPDEST PUSH0 PUSH1 0x20 DUP3 DUP5 SUB SLT ISZERO PUSH2 0x19D7 JUMPI PUSH2 0x19D6 PUSH2 0x1570 JUMP JUMPDEST JUMPDEST PUSH0 PUSH2 0x19E4 DUP5 DUP3 DUP6 ADD PUSH2 0x17DB JUMP JUMPDEST SWAP2 POP POP SWAP3 SWAP2 POP POP JUMP JUMPDEST PUSH2 0x19F6 DUP2 PUSH2 0x17B4 JUMP JUMPDEST DUP3 MSTORE POP POP JUMP JUMPDEST PUSH0 PUSH1 0x20 DUP3 ADD SWAP1 POP PUSH2 0x1A0F PUSH0 DUP4 ADD DUP5 PUSH2 0x19ED JUMP JUMPDEST SWAP3 SWAP2 POP POP JUMP JUMPDEST PUSH0 DUP1 PUSH0 PUSH1 0x60 DUP5 DUP7 SUB SLT ISZERO PUSH2 0x1A2C JUMPI PUSH2 0x1A2B PUSH2 0x1570 JUMP JUMPDEST JUMPDEST PUSH0 DUP5 ADD CALLDATALOAD PUSH8 0xFFFFFFFFFFFFFFFF DUP2 GT ISZERO PUSH2 0x1A49 JUMPI PUSH2 0x1A48 PUSH2 0x1574 JUMP JUMPDEST JUMPDEST PUSH2 0x1A55 DUP7 DUP3 DUP8 ADD PUSH2 0x1687 JUMP JUMPDEST SWAP4 POP POP PUSH1 0x20 DUP5 ADD CALLDATALOAD PUSH8 0xFFFFFFFFFFFFFFFF DUP2 GT ISZERO PUSH2 0x1A76 JUMPI PUSH2 0x1A75 PUSH2 0x1574 JUMP JUMPDEST JUMPDEST PUSH2 0x1A82 DUP7 DUP3 DUP8 ADD PUSH2 0x1687 JUMP JUMPDEST SWAP3 POP POP PUSH1 0x40 DUP5 ADD CALLDATALOAD PUSH8 0xFFFFFFFFFFFFFFFF DUP2 GT ISZERO PUSH2 0x1AA3 JUMPI PUSH2 0x1AA2 PUSH2 0x1574 JUMP JUMPDEST JUMPDEST PUSH2 0x1AAF DUP7 DUP3 DUP8 ADD PUSH2 0x1687 JUMP JUMPDEST SWAP2 POP POP SWAP3 POP SWAP3 POP SWAP3 JUMP JUMPDEST PUSH0 DUP1 PUSH1 0x40 DUP4 DUP6 SUB SLT ISZERO PUSH2 0x1ACF JUMPI PUSH2 0x1ACE PUSH2 0x1570 JUMP JUMPDEST JUMPDEST PUSH0 PUSH2 0x1ADC DUP6 DUP3 DUP7 ADD PUSH2 0x17DB JUMP JUMPDEST SWAP3 POP POP PUSH1 0x20 PUSH2 0x1AED DUP6 DUP3 DUP7 ADD PUSH2 0x17DB JUMP JUMPDEST SWAP2 POP POP SWAP3 POP SWAP3 SWAP1 POP JUMP JUMPDEST PUSH32 0x4E487B7100000000000000000000000000000000000000000000000000000000 PUSH0 MSTORE PUSH1 0x22 PUSH1 0x4 MSTORE PUSH1 0x24 PUSH0 REVERT JUMPDEST PUSH0 PUSH1 0x2 DUP3 DIV SWAP1 POP PUSH1 0x1 DUP3 AND DUP1 PUSH2 0x1B3B JUMPI PUSH1 0x7F DUP3 AND SWAP2 POP JUMPDEST PUSH1 0x20 DUP3 LT DUP2 SUB PUSH2 0x1B4E JUMPI PUSH2 0x1B4D PUSH2 0x1AF7 JUMP JUMPDEST JUMPDEST POP SWAP2 SWAP1 POP JUMP JUMPDEST PUSH0 DUP2 SWAP1 POP DUP2 PUSH0 MSTORE PUSH1 0x20 PUSH0 KECCAK256 SWAP1 POP SWAP2 SWAP1 POP JUMP JUMPDEST PUSH0 PUSH1 0x20 PUSH1 0x1F DUP4 ADD DIV SWAP1 POP SWAP2 SWAP1 POP JUMP JUMPDEST PUSH0 DUP3 DUP3 SHL SWAP1 POP SWAP3 SWAP2 POP POP JUMP JUMPDEST PUSH0 PUSH1 0x8 DUP4 MUL PUSH2 0x1BB0 PUSH32 0xFFFFFFFFFFFFFFFFFFFFFFFFFFFFFFFFFFFFFFFFFFFFFFFFFFFFFFFFFFFFFFFF DUP3 PUSH2 0x1B75 JUMP JUMPDEST PUSH2 0x1BBA DUP7 DUP4 PUSH2 0x1B75 JUMP JUMPDEST SWAP6 POP DUP1 NOT DUP5 AND SWAP4 POP DUP1 DUP7 AND DUP5 OR SWAP3 POP POP POP SWAP4 SWAP3 POP POP POP JUMP JUMPDEST PUSH0 DUP2 SWAP1 POP SWAP2 SWAP1 POP JUMP JUMPDEST PUSH0 PUSH2 0x1BF5 PUSH2 0x1BF0 PUSH2 0x1BEB DUP5 PUSH2 0x17EF JUMP JUMPDEST PUSH2 0x1BD2 JUMP JUMPDEST PUSH2 0x17EF JUMP JUMPDEST SWAP1 POP SWAP2 SWAP1 POP JUMP JUMPDEST PUSH0 DUP2 SWAP1 POP SWAP2 SWAP1 POP JUMP JUMPDEST PUSH2 0x1C0E DUP4 PUSH2 0x1BDB JUMP JUMPDEST PUSH2 0x1C22 PUSH2 0x1C1A DUP3 PUSH2 0x1BFC JUMP JUMPDEST DUP5 DUP5 SLOAD PUSH2 0x1B81 JUMP JUMPDEST DUP3 SSTORE POP POP POP POP JUMP JUMPDEST PUSH0 SWAP1 JUMP JUMPDEST PUSH2 0x1C36 PUSH2 0x1C2A JUMP JUMPDEST PUSH2 0x1C41 DUP2 DUP5 DUP5 PUSH2 0x1C05 JUMP JUMPDEST POP POP POP JUMP JUMPDEST JUMPDEST DUP2 DUP2 LT ISZERO PUSH2 0x1C64 JUMPI PUSH2 0x1C59 PUSH0 DUP3 PUSH2 0x1C2E JUMP JUMPDEST PUSH1 0x1 DUP2 ADD SWAP1 POP PUSH2 0x1C47 JUMP JUMPDEST POP POP JUMP JUMPDEST PUSH1 0x1F DUP3 GT ISZERO PUSH2 0x1CA9 JUMPI PUSH2 0x1C7A DUP2 PUSH2 0x1B54 JUMP JUMPDEST PUSH2 0x1C83 DUP5 PUSH2 0x1B66 JUMP JUMPDEST DUP2 ADD PUSH1 0x20 DUP6 LT ISZERO PUSH2 0x1C92 JUMPI DUP2 SWAP1 POP JUMPDEST PUSH2 0x1CA6 PUSH2 0x1C9E DUP6 PUSH2 0x1B66 JUMP JUMPDEST DUP4 ADD DUP3 PUSH2 0x1C46 JUMP JUMPDEST POP POP JUMPDEST POP POP POP JUMP JUMPDEST PUSH0 DUP3 DUP3 SHR SWAP1 POP SWAP3 SWAP2 POP POP JUMP JUMPDEST PUSH0 PUSH2 0x1CC9 PUSH0 NOT DUP5 PUSH1 0x8 MUL PUSH2 0x1CAE JUMP JUMPDEST NOT DUP1 DUP4 AND SWAP2 POP POP SWAP3 SWAP2 POP POP JUMP JUMPDEST PUSH0 PUSH2 0x1CE1 DUP4 DUP4 PUSH2 0x1CBA JUMP JUMPDEST SWAP2 POP DUP3 PUSH1 0x2 MUL DUP3 OR SWAP1 POP SWAP3 SWAP2 POP POP JUMP JUMPDEST PUSH2 0x1CFA DUP3 PUSH2 0x16FB JUMP JUMPDEST PUSH8 0xFFFFFFFFFFFFFFFF DUP2 GT ISZERO PUSH2 0x1D13 JUMPI PUSH2 0x1D12 PUSH2 0x1590 JUMP JUMPDEST JUMPDEST PUSH2 0x1D1D DUP3 SLOAD PUSH2 0x1B24 JUMP JUMPDEST PUSH2 0x1D28 DUP3 DUP3 DUP6 PUSH2 0x1C68 JUMP JUMPDEST PUSH0 PUSH1 0x20 SWAP1 POP PUSH1 0x1F DUP4 GT PUSH1 0x1 DUP2 EQ PUSH2 0x1D59 JUMPI PUSH0 DUP5 ISZERO PUSH2 0x1D47 JUMPI DUP3 DUP8 ADD MLOAD SWAP1 POP JUMPDEST PUSH2 0x1D51 DUP6 DUP3 PUSH2 0x1CD6 JUMP JUMPDEST DUP7 SSTORE POP PUSH2 0x1DB8 JUMP JUMPDEST PUSH1 0x1F NOT DUP5 AND PUSH2 0x1D67 DUP7 PUSH2 0x1B54 JUMP JUMPDEST PUSH0 JUMPDEST DUP3 DUP2 LT ISZERO PUSH2 0x1D8E JUMPI DUP5 DUP10 ADD MLOAD DUP3 SSTORE PUSH1 0x1 DUP3 ADD SWAP2 POP PUSH1 0x20 DUP6 ADD SWAP5 POP PUSH1 0x20 DUP2 ADD SWAP1 POP PUSH2 0x1D69 JUMP JUMPDEST DUP7 DUP4 LT ISZERO PUSH2 0x1DAB JUMPI DUP5 DUP10 ADD MLOAD PUSH2 0x1DA7 PUSH1 0x1F DUP10 AND DUP3 PUSH2 0x1CBA JUMP JUMPDEST DUP4 SSTORE POP JUMPDEST PUSH1 0x1 PUSH1 0x2 DUP9 MUL ADD DUP9 SSTORE POP POP POP JUMPDEST POP POP POP POP POP POP JUMP JUMPDEST PUSH32 0x4E487B7100000000000000000000000000000000000000000000000000000000 PUSH0 MSTORE PUSH1 0x32 PUSH1 0x4 MSTORE PUSH1 0x24 PUSH0 REVERT JUMPDEST PUSH32 0x4E487B7100000000000000000000000000000000000000000000000000000000 PUSH0 MSTORE PUSH1 0x11 PUSH1 0x4 MSTORE PUSH1 0x24 PUSH0 REVERT JUMPDEST PUSH0 PUSH2 0x1E24 DUP3 PUSH2 0x17EF JUMP JUMPDEST SWAP2 POP PUSH2 0x1E2F DUP4 PUSH2 0x17EF JUMP JUMPDEST SWAP3 POP DUP3 DUP3 SUB SWAP1 POP DUP2 DUP2 GT ISZERO PUSH2 0x1E47 JUMPI PUSH2 0x1E46 PUSH2 0x1DED JUMP JUMPDEST JUMPDEST SWAP3 SWAP2 POP POP JUMP JUMPDEST PUSH0 PUSH1 0x60 DUP3 ADD SWAP1 POP DUP2 DUP2 SUB PUSH0 DUP4 ADD MSTORE PUSH2 0x1E65 DUP2 DUP7 PUSH2 0x173D JUMP JUMPDEST SWAP1 POP DUP2 DUP2 SUB PUSH1 0x20 DUP4 ADD MSTORE PUSH2 0x1E79 DUP2 DUP6 PUSH2 0x173D JUMP JUMPDEST SWAP1 POP DUP2 DUP2 SUB PUSH1 0x40 DUP4 ADD MSTORE PUSH2 0x1E8D DUP2 DUP5 PUSH2 0x173D JUMP JUMPDEST SWAP1 POP SWAP5 SWAP4 POP POP POP POP JUMP JUMPDEST PUSH32 0x496E76616C696420616464726573730000000000000000000000000000000000 PUSH0 DUP3 ADD MSTORE POP JUMP JUMPDEST PUSH0 PUSH2 0x1ECB PUSH1 0xF DUP4 PUSH2 0x1705 JUMP JUMPDEST SWAP2 POP PUSH2 0x1ED6 DUP3 PUSH2 0x1E97 JUMP JUMPDEST PUSH1 0x20 DUP3 ADD SWAP1 POP SWAP2 SWAP1 POP JUMP JUMPDEST PUSH0 PUSH1 0x20 DUP3 ADD SWAP1 POP DUP2 DUP2 SUB PUSH0 DUP4 ADD MSTORE PUSH2 0x1EF8 DUP2 PUSH2 0x1EBF JUMP JUMPDEST SWAP1 POP SWAP2 SWAP1 POP JUMP JUMPDEST PUSH0 PUSH1 0x60 DUP3 ADD SWAP1 POP PUSH2 0x1F12 PUSH0 DUP4 ADD DUP7 PUSH2 0x19ED JUMP JUMPDEST PUSH2 0x1F1F PUSH1 0x20 DUP4 ADD DUP6 PUSH2 0x1893 JUMP JUMPDEST PUSH2 0x1F2C PUSH1 0x40 DUP4 ADD DUP5 PUSH2 0x1893 JUMP JUMPDEST SWAP5 SWAP4 POP POP POP POP JUMP JUMPDEST PUSH0 PUSH2 0x1F3E DUP3 PUSH2 0x17EF JUMP JUMPDEST SWAP2 POP PUSH2 0x1F49 DUP4 PUSH2 0x17EF JUMP JUMPDEST SWAP3 POP DUP3 DUP3 ADD SWAP1 POP DUP1 DUP3 GT ISZERO PUSH2 0x1F61 JUMPI PUSH2 0x1F60 PUSH2 0x1DED JUMP JUMPDEST JUMPDEST SWAP3 SWAP2 POP POP JUMP INVALID LOG2 PUSH5 0x6970667358 0x22 SLT KECCAK256 0x23 PUSH10 0x40A7FBE339EA3EE78097 0xB1 CODESIZE 0xB7 CALLER RETURNDATASIZE PUSH21 0xD4F697019954ED4F545A1B4CDD4364736F6C634300 ADDMOD EQ STOP CALLER GASLIMIT PUSH15 0x7669726F6E6D656E74616C20616E64 KECCAK256 PUSH2 0x7373 PUSH6 0x7420646F6375 PUSH14 0x656E746174696F6E436172626F6E KECCAK256 NUMBER PUSH19 0x6564697420436F696E73202843434329206973 KECCAK256 PUSH2 0x2064 PUSH10 0x676974616C2061737365 PUSH21 0x2064657369676E656420746F20726570726573656E PUSH21 0x20656E7669726F6E6D656E74616C2076616C756520 PUSH21 0x68726F75676820746F6B656E697A6174696F6E206F PUSH7 0x20636172626F6E 0x2D PUSH19 0x656C61746564206173736574732C2073757070 PUSH16 0x7274656420627920646F63756D656E74 PUSH2 0x7469 PUSH16 0x6E2C206175646974732C20616E642074 PUSH19 0x616E73706172656E6379206D656368616E6973 PUSH14 0x732E000000000000000000000000 "
	},
	"abi": [
		{
			"inputs": [
				{
					"internalType": "address",
					"name": "masterWallet",
					"type": "address"
				},
				{
					"internalType": "string",
					"name": "_imageURI",
					"type": "string"
				},
				{
					"internalType": "address",
					"name": "_reserveWallet",
					"type": "address"
				}
			],
			"stateMutability": "nonpayable",
			"type": "constructor"
		},
		{
			"inputs": [
				{
					"internalType": "address",
					"name": "spender",
					"type": "address"
				},
				{
					"internalType": "uint256",
					"name": "allowance",
					"type": "uint256"
				},
				{
					"internalType": "uint256",
					"name": "needed",
					"type": "uint256"
				}
			],
			"name": "ERC20InsufficientAllowance",
			"type": "error"
		},
		{
			"inputs": [
				{
					"internalType": "address",
					"name": "sender",
					"type": "address"
				},
				{
					"internalType": "uint256",
					"name": "balance",
					"type": "uint256"
				},
				{
					"internalType": "uint256",
					"name": "needed",
					"type": "uint256"
				}
			],
			"name": "ERC20InsufficientBalance",
			"type": "error"
		},
		{
			"inputs": [
				{
					"internalType": "address",
					"name": "approver",
					"type": "address"
				}
			],
			"name": "ERC20InvalidApprover",
			"type": "error"
		},
		{
			"inputs": [
				{
					"internalType": "address",
					"name": "receiver",
					"type": "address"
				}
			],
			"name": "ERC20InvalidReceiver",
			"type": "error"
		},
		{
			"inputs": [
				{
					"internalType": "address",
					"name": "sender",
					"type": "address"
				}
			],
			"name": "ERC20InvalidSender",
			"type": "error"
		},
		{
			"inputs": [
				{
					"internalType": "address",
					"name": "spender",
					"type": "address"
				}
			],
			"name": "ERC20InvalidSpender",
			"type": "error"
		},
		{
			"inputs": [
				{
					"internalType": "address",
					"name": "owner",
					"type": "address"
				}
			],
			"name": "OwnableInvalidOwner",
			"type": "error"
		},
		{
			"inputs": [
				{
					"internalType": "address",
					"name": "account",
					"type": "address"
				}
			],
			"name": "OwnableUnauthorizedAccount",
			"type": "error"
		},
		{
			"anonymous": false,
			"inputs": [
				{
					"indexed": true,
					"internalType": "address",
					"name": "owner",
					"type": "address"
				},
				{
					"indexed": true,
					"internalType": "address",
					"name": "spender",
					"type": "address"
				},
				{
					"indexed": false,
					"internalType": "uint256",
					"name": "value",
					"type": "uint256"
				}
			],
			"name": "Approval",
			"type": "event"
		},
		{
			"anonymous": false,
			"inputs": [
				{
					"indexed": true,
					"internalType": "uint256",
					"name": "id",
					"type": "uint256"
				},
				{
					"indexed": false,
					"internalType": "string",
					"name": "name",
					"type": "string"
				},
				{
					"indexed": false,
					"internalType": "string",
					"name": "link",
					"type": "string"
				},
				{
					"indexed": false,
					"internalType": "string",
					"name": "description",
					"type": "string"
				}
			],
			"name": "CertificateAdded",
			"type": "event"
		},
		{
			"anonymous": false,
			"inputs": [
				{
					"indexed": true,
					"internalType": "address",
					"name": "previousOwner",
					"type": "address"
				},
				{
					"indexed": true,
					"internalType": "address",
					"name": "newOwner",
					"type": "address"
				}
			],
			"name": "OwnershipTransferred",
			"type": "event"
		},
		{
			"anonymous": false,
			"inputs": [
				{
					"indexed": false,
					"internalType": "address",
					"name": "newReserveWallet",
					"type": "address"
				}
			],
			"name": "ReserveWalletUpdated",
			"type": "event"
		},
		{
			"anonymous": false,
			"inputs": [
				{
					"indexed": true,
					"internalType": "address",
					"name": "from",
					"type": "address"
				},
				{
					"indexed": true,
					"internalType": "address",
					"name": "to",
					"type": "address"
				},
				{
					"indexed": false,
					"internalType": "uint256",
					"name": "value",
					"type": "uint256"
				}
			],
			"name": "Transfer",
			"type": "event"
		},
		{
			"inputs": [],
			"name": "MAX_SUPPLY",
			"outputs": [
				{
					"internalType": "uint256",
					"name": "",
					"type": "uint256"
				}
			],
			"stateMutability": "view",
			"type": "function"
		},
		{
			"inputs": [
				{
					"internalType": "string",
					"name": "_name",
					"type": "string"
				},
				{
					"internalType": "string",
					"name": "_link",
					"type": "string"
				},
				{
					"internalType": "string",
					"name": "_desc",
					"type": "string"
				}
			],
			"name": "addCertificate",
			"outputs": [],
			"stateMutability": "nonpayable",
			"type": "function"
		},
		{
			"inputs": [
				{
					"internalType": "address",
					"name": "owner",
					"type": "address"
				},
				{
					"internalType": "address",
					"name": "spender",
					"type": "address"
				}
			],
			"name": "allowance",
			"outputs": [
				{
					"internalType": "uint256",
					"name": "",
					"type": "uint256"
				}
			],
			"stateMutability": "view",
			"type": "function"
		},
		{
			"inputs": [
				{
					"internalType": "address",
					"name": "spender",
					"type": "address"
				},
				{
					"internalType": "uint256",
					"name": "value",
					"type": "uint256"
				}
			],
			"name": "approve",
			"outputs": [
				{
					"internalType": "bool",
					"name": "",
					"type": "bool"
				}
			],
			"stateMutability": "nonpayable",
			"type": "function"
		},
		{
			"inputs": [
				{
					"internalType": "address",
					"name": "account",
					"type": "address"
				}
			],
			"name": "balanceOf",
			"outputs": [
				{
					"internalType": "uint256",
					"name": "",
					"type": "uint256"
				}
			],
			"stateMutability": "view",
			"type": "function"
		},
		{
			"inputs": [
				{
					"internalType": "uint256",
					"name": "",
					"type": "uint256"
				}
			],
			"name": "certificates",
			"outputs": [
				{
					"internalType": "string",
					"name": "name",
					"type": "string"
				},
				{
					"internalType": "string",
					"name": "link",
					"type": "string"
				},
				{
					"internalType": "uint256",
					"name": "timestamp",
					"type": "uint256"
				},
				{
					"internalType": "string",
					"name": "description",
					"type": "string"
				}
			],
			"stateMutability": "view",
			"type": "function"
		},
		{
			"inputs": [],
			"name": "decimals",
			"outputs": [
				{
					"internalType": "uint8",
					"name": "",
					"type": "uint8"
				}
			],
			"stateMutability": "view",
			"type": "function"
		},
		{
			"inputs": [
				{
					"internalType": "uint256",
					"name": "index",
					"type": "uint256"
				}
			],
			"name": "getCertificate",
			"outputs": [
				{
					"internalType": "string",
					"name": "name",
					"type": "string"
				},
				{
					"internalType": "string",
					"name": "link",
					"type": "string"
				},
				{
					"internalType": "uint256",
					"name": "timestamp",
					"type": "uint256"
				},
				{
					"internalType": "string",
					"name": "description",
					"type": "string"
				}
			],
			"stateMutability": "view",
			"type": "function"
		},
		{
			"inputs": [],
			"name": "getCertificatesCount",
			"outputs": [
				{
					"internalType": "uint256",
					"name": "",
					"type": "uint256"
				}
			],
			"stateMutability": "view",
			"type": "function"
		},
		{
			"inputs": [],
			"name": "imageURI",
			"outputs": [
				{
					"internalType": "string",
					"name": "",
					"type": "string"
				}
			],
			"stateMutability": "view",
			"type": "function"
		},
		{
			"inputs": [],
			"name": "name",
			"outputs": [
				{
					"internalType": "string",
					"name": "",
					"type": "string"
				}
			],
			"stateMutability": "view",
			"type": "function"
		},
		{
			"inputs": [],
			"name": "owner",
			"outputs": [
				{
					"internalType": "address",
					"name": "",
					"type": "address"
				}
			],
			"stateMutability": "view",
			"type": "function"
		},
		{
			"inputs": [],
			"name": "projectInfo",
			"outputs": [
				{
					"internalType": "string",
					"name": "",
					"type": "string"
				}
			],
			"stateMutability": "view",
			"type": "function"
		},
		{
			"inputs": [],
			"name": "renounceOwnership",
			"outputs": [],
			"stateMutability": "nonpayable",
			"type": "function"
		},
		{
			"inputs": [],
			"name": "reserveWallet",
			"outputs": [
				{
					"internalType": "address",
					"name": "",
					"type": "address"
				}
			],
			"stateMutability": "view",
			"type": "function"
		},
		{
			"inputs": [
				{
					"internalType": "string",
					"name": "_uri",
					"type": "string"
				}
			],
			"name": "setImageURI",
			"outputs": [],
			"stateMutability": "nonpayable",
			"type": "function"
		},
		{
			"inputs": [
				{
					"internalType": "address",
					"name": "_wallet",
					"type": "address"
				}
			],
			"name": "setReserveWallet",
			"outputs": [],
			"stateMutability": "nonpayable",
			"type": "function"
		},
		{
			"inputs": [],
			"name": "symbol",
			"outputs": [
				{
					"internalType": "string",
					"name": "",
					"type": "string"
				}
			],
			"stateMutability": "view",
			"type": "function"
		},
		{
			"inputs": [],
			"name": "totalSupply",
			"outputs": [
				{
					"internalType": "uint256",
					"name": "",
					"type": "uint256"
				}
			],
			"stateMutability": "view",
			"type": "function"
		},
		{
			"inputs": [
				{
					"internalType": "address",
					"name": "to",
					"type": "address"
				},
				{
					"internalType": "uint256",
					"name": "value",
					"type": "uint256"
				}
			],
			"name": "transfer",
			"outputs": [
				{
					"internalType": "bool",
					"name": "",
					"type": "bool"
				}
			],
			"stateMutability": "nonpayable",
			"type": "function"
		},
		{
			"inputs": [
				{
					"internalType": "address",
					"name": "from",
					"type": "address"
				},
				{
					"internalType": "address",
					"name": "to",
					"type": "address"
				},
				{
					"internalType": "uint256",
					"name": "value",
					"type": "uint256"
				}
			],
			"name": "transferFrom",
			"outputs": [
				{
					"internalType": "bool",
					"name": "",
					"type": "bool"
				}
			],
			"stateMutability": "nonpayable",
			"type": "function"
		},
		{
			"inputs": [
				{
					"internalType": "address",
					"name": "newOwner",
					"type": "address"
				}
			],
			"name": "transferOwnership",
			"outputs": [],
			"stateMutability": "nonpayable",
			"type": "function"
		}
	],
	"storageLayout": {
		"storage": [
			{
				"astId": 307,
				"contract": "CCC..sol:CarbonCreditCoins",
				"label": "_balances",
				"offset": 0,
				"slot": "0",
				"type": "t_mapping(t_address,t_uint256)"
			},
			{
				"astId": 313,
				"contract": "CCC..sol:CarbonCreditCoins",
				"label": "_allowances",
				"offset": 0,
				"slot": "1",
				"type": "t_mapping(t_address,t_mapping(t_address,t_uint256))"
			},
			{
				"astId": 315,
				"contract": "CCC..sol:CarbonCreditCoins",
				"label": "_totalSupply",
				"offset": 0,
				"slot": "2",
				"type": "t_uint256"
			},
			{
				"astId": 317,
				"contract": "CCC..sol:CarbonCreditCoins",
				"label": "_name",
				"offset": 0,
				"slot": "3",
				"type": "t_string_storage"
			},
			{
				"astId": 319,
				"contract": "CCC..sol:CarbonCreditCoins",
				"label": "_symbol",
				"offset": 0,
				"slot": "4",
				"type": "t_string_storage"
			},
			{
				"astId": 8,
				"contract": "CCC..sol:CarbonCreditCoins",
				"label": "_owner",
				"offset": 0,
				"slot": "5",
				"type": "t_address"
			},
			{
				"astId": 950,
				"contract": "CCC..sol:CarbonCreditCoins",
				"label": "imageURI",
				"offset": 0,
				"slot": "6",
				"type": "t_string_storage"
			},
			{
				"astId": 953,
				"contract": "CCC..sol:CarbonCreditCoins",
				"label": "projectInfo",
				"offset": 0,
				"slot": "7",
				"type": "t_string_storage"
			},
			{
				"astId": 955,
				"contract": "CCC..sol:CarbonCreditCoins",
				"label": "reserveWallet",
				"offset": 0,
				"slot": "8",
				"type": "t_address"
			},
			{
				"astId": 968,
				"contract": "CCC..sol:CarbonCreditCoins",
				"label": "certificates",
				"offset": 0,
				"slot": "9",
				"type": "t_array(t_struct(Certificate)964_storage)dyn_storage"
			}
		],
		"types": {
			"t_address": {
				"encoding": "inplace",
				"label": "address",
				"numberOfBytes": "20"
			},
			"t_array(t_struct(Certificate)964_storage)dyn_storage": {
				"base": "t_struct(Certificate)964_storage",
				"encoding": "dynamic_array",
				"label": "struct CarbonCreditCoins.Certificate[]",
				"numberOfBytes": "32"
			},
			"t_mapping(t_address,t_mapping(t_address,t_uint256))": {
				"encoding": "mapping",
				"key": "t_address",
				"label": "mapping(address => mapping(address => uint256))",
				"numberOfBytes": "32",
				"value": "t_mapping(t_address,t_uint256)"
			},
			"t_mapping(t_address,t_uint256)": {
				"encoding": "mapping",
				"key": "t_address",
				"label": "mapping(address => uint256)",
				"numberOfBytes": "32",
				"value": "t_uint256"
			},
			"t_string_storage": {
				"encoding": "bytes",
				"label": "string",
				"numberOfBytes": "32"
			},
			"t_struct(Certificate)964_storage": {
				"encoding": "inplace",
				"label": "struct CarbonCreditCoins.Certificate",
				"members": [
					{
						"astId": 957,
						"contract": "CCC..sol:CarbonCreditCoins",
						"label": "name",
						"offset": 0,
						"slot": "0",
						"type": "t_string_storage"
					},
					{
						"astId": 959,
						"contract": "CCC..sol:CarbonCreditCoins",
						"label": "link",
						"offset": 0,
						"slot": "1",
						"type": "t_string_storage"
					},
					{
						"astId": 961,
						"contract": "CCC..sol:CarbonCreditCoins",
						"label": "timestamp",
						"offset": 0,
						"slot": "2",
						"type": "t_uint256"
					},
					{
						"astId": 963,
						"contract": "CCC..sol:CarbonCreditCoins",
						"label": "description",
						"offset": 0,
						"slot": "3",
						"type": "t_string_storage"
					}
				],
				"numberOfBytes": "128"
			},
			"t_uint256": {
				"encoding": "inplace",
				"label": "uint256",
				"numberOfBytes": "32"
			}
		}
	},
	"web3Deploy": "var masterWallet = /* var of type address here */ ;\nvar _imageURI = /* var of type string here */ ;\nvar _reserveWallet = /* var of type address here */ ;\nvar carboncreditcoinsContract = new web3.eth.Contract([{\"inputs\":[{\"internalType\":\"address\",\"name\":\"masterWallet\",\"type\":\"address\"},{\"internalType\":\"string\",\"name\":\"_imageURI\",\"type\":\"string\"},{\"internalType\":\"address\",\"name\":\"_reserveWallet\",\"type\":\"address\"}],\"stateMutability\":\"nonpayable\",\"type\":\"constructor\"},{\"inputs\":[{\"internalType\":\"address\",\"name\":\"spender\",\"type\":\"address\"},{\"internalType\":\"uint256\",\"name\":\"allowance\",\"type\":\"uint256\"},{\"internalType\":\"uint256\",\"name\":\"needed\",\"type\":\"uint256\"}],\"name\":\"ERC20InsufficientAllowance\",\"type\":\"error\"},{\"inputs\":[{\"internalType\":\"address\",\"name\":\"sender\",\"type\":\"address\"},{\"internalType\":\"uint256\",\"name\":\"balance\",\"type\":\"uint256\"},{\"internalType\":\"uint256\",\"name\":\"needed\",\"type\":\"uint256\"}],\"name\":\"ERC20InsufficientBalance\",\"type\":\"error\"},{\"inputs\":[{\"internalType\":\"address\",\"name\":\"approver\",\"type\":\"address\"}],\"name\":\"ERC20InvalidApprover\",\"type\":\"error\"},{\"inputs\":[{\"internalType\":\"address\",\"name\":\"receiver\",\"type\":\"address\"}],\"name\":\"ERC20InvalidReceiver\",\"type\":\"error\"},{\"inputs\":[{\"internalType\":\"address\",\"name\":\"sender\",\"type\":\"address\"}],\"name\":\"ERC20InvalidSender\",\"type\":\"error\"},{\"inputs\":[{\"internalType\":\"address\",\"name\":\"spender\",\"type\":\"address\"}],\"name\":\"ERC20InvalidSpender\",\"type\":\"error\"},{\"inputs\":[{\"internalType\":\"address\",\"name\":\"owner\",\"type\":\"address\"}],\"name\":\"OwnableInvalidOwner\",\"type\":\"error\"},{\"inputs\":[{\"internalType\":\"address\",\"name\":\"account\",\"type\":\"address\"}],\"name\":\"OwnableUnauthorizedAccount\",\"type\":\"error\"},{\"anonymous\":false,\"inputs\":[{\"indexed\":true,\"internalType\":\"address\",\"name\":\"owner\",\"type\":\"address\"},{\"indexed\":true,\"internalType\":\"address\",\"name\":\"spender\",\"type\":\"address\"},{\"indexed\":false,\"internalType\":\"uint256\",\"name\":\"value\",\"type\":\"uint256\"}],\"name\":\"Approval\",\"type\":\"event\"},{\"anonymous\":false,\"inputs\":[{\"indexed\":true,\"internalType\":\"uint256\",\"name\":\"id\",\"type\":\"uint256\"},{\"indexed\":false,\"internalType\":\"string\",\"name\":\"name\",\"type\":\"string\"},{\"indexed\":false,\"internalType\":\"string\",\"name\":\"link\",\"type\":\"string\"},{\"indexed\":false,\"internalType\":\"string\",\"name\":\"description\",\"type\":\"string\"}],\"name\":\"CertificateAdded\",\"type\":\"event\"},{\"anonymous\":false,\"inputs\":[{\"indexed\":true,\"internalType\":\"address\",\"name\":\"previousOwner\",\"type\":\"address\"},{\"indexed\":true,\"internalType\":\"address\",\"name\":\"newOwner\",\"type\":\"address\"}],\"name\":\"OwnershipTransferred\",\"type\":\"event\"},{\"anonymous\":false,\"inputs\":[{\"indexed\":false,\"internalType\":\"address\",\"name\":\"newReserveWallet\",\"type\":\"address\"}],\"name\":\"ReserveWalletUpdated\",\"type\":\"event\"},{\"anonymous\":false,\"inputs\":[{\"indexed\":true,\"internalType\":\"address\",\"name\":\"from\",\"type\":\"address\"},{\"indexed\":true,\"internalType\":\"address\",\"name\":\"to\",\"type\":\"address\"},{\"indexed\":false,\"internalType\":\"uint256\",\"name\":\"value\",\"type\":\"uint256\"}],\"name\":\"Transfer\",\"type\":\"event\"},{\"inputs\":[],\"name\":\"MAX_SUPPLY\",\"outputs\":[{\"internalType\":\"uint256\",\"name\":\"\",\"type\":\"uint256\"}],\"stateMutability\":\"view\",\"type\":\"function\"},{\"inputs\":[{\"internalType\":\"string\",\"name\":\"_name\",\"type\":\"string\"},{\"internalType\":\"string\",\"name\":\"_link\",\"type\":\"string\"},{\"internalType\":\"string\",\"name\":\"_desc\",\"type\":\"string\"}],\"name\":\"addCertificate\",\"outputs\":[],\"stateMutability\":\"nonpayable\",\"type\":\"function\"},{\"inputs\":[{\"internalType\":\"address\",\"name\":\"owner\",\"type\":\"address\"},{\"internalType\":\"address\",\"name\":\"spender\",\"type\":\"address\"}],\"name\":\"allowance\",\"outputs\":[{\"internalType\":\"uint256\",\"name\":\"\",\"type\":\"uint256\"}],\"stateMutability\":\"view\",\"type\":\"function\"},{\"inputs\":[{\"internalType\":\"address\",\"name\":\"spender\",\"type\":\"address\"},{\"internalType\":\"uint256\",\"name\":\"value\",\"type\":\"uint256\"}],\"name\":\"approve\",\"outputs\":[{\"internalType\":\"bool\",\"name\":\"\",\"type\":\"bool\"}],\"stateMutability\":\"nonpayable\",\"type\":\"function\"},{\"inputs\":[{\"internalType\":\"address\",\"name\":\"account\",\"type\":\"address\"}],\"name\":\"balanceOf\",\"outputs\":[{\"internalType\":\"uint256\",\"name\":\"\",\"type\":\"uint256\"}],\"stateMutability\":\"view\",\"type\":\"function\"},{\"inputs\":[{\"internalType\":\"uint256\",\"name\":\"\",\"type\":\"uint256\"}],\"name\":\"certificates\",\"outputs\":[{\"internalType\":\"string\",\"name\":\"name\",\"type\":\"string\"},{\"internalType\":\"string\",\"name\":\"link\",\"type\":\"string\"},{\"internalType\":\"uint256\",\"name\":\"timestamp\",\"type\":\"uint256\"},{\"internalType\":\"string\",\"name\":\"description\",\"type\":\"string\"}],\"stateMutability\":\"view\",\"type\":\"function\"},{\"inputs\":[],\"name\":\"decimals\",\"outputs\":[{\"internalType\":\"uint8\",\"name\":\"\",\"type\":\"uint8\"}],\"stateMutability\":\"view\",\"type\":\"function\"},{\"inputs\":[{\"internalType\":\"uint256\",\"name\":\"index\",\"type\":\"uint256\"}],\"name\":\"getCertificate\",\"outputs\":[{\"internalType\":\"string\",\"name\":\"name\",\"type\":\"string\"},{\"internalType\":\"string\",\"name\":\"link\",\"type\":\"string\"},{\"internalType\":\"uint256\",\"name\":\"timestamp\",\"type\":\"uint256\"},{\"internalType\":\"string\",\"name\":\"description\",\"type\":\"string\"}],\"stateMutability\":\"view\",\"type\":\"function\"},{\"inputs\":[],\"name\":\"getCertificatesCount\",\"outputs\":[{\"internalType\":\"uint256\",\"name\":\"\",\"type\":\"uint256\"}],\"stateMutability\":\"view\",\"type\":\"function\"},{\"inputs\":[],\"name\":\"imageURI\",\"outputs\":[{\"internalType\":\"string\",\"name\":\"\",\"type\":\"string\"}],\"stateMutability\":\"view\",\"type\":\"function\"},{\"inputs\":[],\"name\":\"name\",\"outputs\":[{\"internalType\":\"string\",\"name\":\"\",\"type\":\"string\"}],\"stateMutability\":\"view\",\"type\":\"function\"},{\"inputs\":[],\"name\":\"owner\",\"outputs\":[{\"internalType\":\"address\",\"name\":\"\",\"type\":\"address\"}],\"stateMutability\":\"view\",\"type\":\"function\"},{\"inputs\":[],\"name\":\"projectInfo\",\"outputs\":[{\"internalType\":\"string\",\"name\":\"\",\"type\":\"string\"}],\"stateMutability\":\"view\",\"type\":\"function\"},{\"inputs\":[],\"name\":\"renounceOwnership\",\"outputs\":[],\"stateMutability\":\"nonpayable\",\"type\":\"function\"},{\"inputs\":[],\"name\":\"reserveWallet\",\"outputs\":[{\"internalType\":\"address\",\"name\":\"\",\"type\":\"address\"}],\"stateMutability\":\"view\",\"type\":\"function\"},{\"inputs\":[{\"internalType\":\"string\",\"name\":\"_uri\",\"type\":\"string\"}],\"name\":\"setImageURI\",\"outputs\":[],\"stateMutability\":\"nonpayable\",\"type\":\"function\"},{\"inputs\":[{\"internalType\":\"address\",\"name\":\"_wallet\",\"type\":\"address\"}],\"name\":\"setReserveWallet\",\"outputs\":[],\"stateMutability\":\"nonpayable\",\"type\":\"function\"},{\"inputs\":[],\"name\":\"symbol\",\"outputs\":[{\"internalType\":\"string\",\"name\":\"\",\"type\":\"string\"}],\"stateMutability\":\"view\",\"type\":\"function\"},{\"inputs\":[],\"name\":\"totalSupply\",\"outputs\":[{\"internalType\":\"uint256\",\"name\":\"\",\"type\":\"uint256\"}],\"stateMutability\":\"view\",\"type\":\"function\"},{\"inputs\":[{\"internalType\":\"address\",\"name\":\"to\",\"type\":\"address\"},{\"internalType\":\"uint256\",\"name\":\"value\",\"type\":\"uint256\"}],\"name\":\"transfer\",\"outputs\":[{\"internalType\":\"bool\",\"name\":\"\",\"type\":\"bool\"}],\"stateMutability\":\"nonpayable\",\"type\":\"function\"},{\"inputs\":[{\"internalType\":\"address\",\"name\":\"from\",\"type\":\"address\"},{\"internalType\":\"address\",\"name\":\"to\",\"type\":\"address\"},{\"internalType\":\"uint256\",\"name\":\"value\",\"type\":\"uint256\"}],\"name\":\"transferFrom\",\"outputs\":[{\"internalType\":\"bool\",\"name\":\"\",\"type\":\"bool\"}],\"stateMutability\":\"nonpayable\",\"type\":\"function\"},{\"inputs\":[{\"internalType\":\"address\",\"name\":\"newOwner\",\"type\":\"address\"}],\"name\":\"transferOwnership\",\"outputs\":[],\"stateMutability\":\"nonpayable\",\"type\":\"function\"}]);\nvar carboncreditcoins = carboncreditcoinsContract.deploy({\n     data: '0x608060405260405180610100016040528060c681526020016200310760c69139600790816200002f919062000c3c565b503480156200003c575f80fd5b50604051620031cd380380620031cd833981810160405281019062000062919062000ed9565b826040518060400160405280601381526020017f436172626f6e2043726564697420436f696e73000000000000000000000000008152506040518060400160405280600381526020017f43434300000000000000000000000000000000000000000000000000000000008152508160039081620000e0919062000c3c565b508060049081620000f2919062000c3c565b5050505f73ffffffffffffffffffffffffffffffffffffffff168173ffffffffffffffffffffffffffffffffffffffff160362000168575f6040517f1e4fbdf70000000000000000000000000000000000000000000000000000000081526004016200015f919062000f62565b60405180910390fd5b62000179816200066760201b60201c565b505f73ffffffffffffffffffffffffffffffffffffffff168373ffffffffffffffffffffffffffffffffffffffff1603620001eb576040517f08c379a0000000000000000000000000000000000000000000000000000000008152600401620001e29062000fdb565b60405180910390fd5b5f73ffffffffffffffffffffffffffffffffffffffff168173ffffffffffffffffffffffffffffffffffffffff16036200025c576040517f08c379a0000000000000000000000000000000000000000000000000000000008152600401620002539062001049565b60405180910390fd5b81600690816200026d919062000c3c565b508060085f6101000a81548173ffffffffffffffffffffffffffffffffffffffff021916908373ffffffffffffffffffffffffffffffffffffffff160217905550620002cc836b409f9cbc7c4a04c2200000006200072a60201b60201c565b600960405180608001604052806040518060400160405280601581526020017f50726f6a65637420446f63756d656e746174696f6e000000000000000000000081525081526020016040518060400160405280601c81526020017f68747470733a2f2f646f63756d656e746363632e6469676974616c2f000000008152508152602001428152602001604051806060016040528060258152602001620030e260259139815250908060018154018082558091505060019003905f5260205f2090600402015f909190919091505f820151815f019081620003ad919062000c3c565b506020820151816001019081620003c5919062000c3c565b50604082015181600201556060820151816003019081620003e7919062000c3c565b505050600960405180608001604052806040518060400160405280601981526020017f41756469747320616e642043657274696669636174696f6e730000000000000081525081526020016040518060400160405280601b81526020017f68747470733a2f2f646f63756d656e746363632e6f6e6c696e652f000000000081525081526020014281526020016040518060400160405280602081526020017f4175646974207265706f72747320616e642063657274696669636174696f6e73815250815250908060018154018082558091505060019003905f5260205f2090600402015f909190919091505f820151815f019081620004e7919062000c3c565b506020820151816001019081620004ff919062000c3c565b5060408201518160020155606082015181600301908162000521919062000c3c565b505050600960405180608001604052806040518060400160405280600e81526020017f576869746570617065722043434300000000000000000000000000000000000081525081526020016040518060400160405280601d81526020017f68747470733a2f2f776869746570617065726363632e6f6e6c696e652f00000081525081526020014281526020016040518060400160405280601b81526020017f4f6666696369616c2070726f6a65637420776869746570617065720000000000815250815250908060018154018082558091505060019003905f5260205f2090600402015f909190919091505f820151815f01908162000621919062000c3c565b50602082015181600101908162000639919062000c3c565b506040820151816002015560608201518160030190816200065b919062000c3c565b50505050505062001137565b5f60055f9054906101000a900473ffffffffffffffffffffffffffffffffffffffff1690508160055f6101000a81548173ffffffffffffffffffffffffffffffffffffffff021916908373ffffffffffffffffffffffffffffffffffffffff1602179055508173ffffffffffffffffffffffffffffffffffffffff168173ffffffffffffffffffffffffffffffffffffffff167f8be0079c531659141344cd1fd0a4f28419497f9722a3daafe3b4186f6b6457e060405160405180910390a35050565b5f73ffffffffffffffffffffffffffffffffffffffff168273ffffffffffffffffffffffffffffffffffffffff16036200079d575f6040517fec442f0500000000000000000000000000000000000000000000000000000000815260040162000794919062000f62565b60405180910390fd5b620007b05f8383620007b460201b60201c565b5050565b5f73ffffffffffffffffffffffffffffffffffffffff168373ffffffffffffffffffffffffffffffffffffffff160362000808578060025f828254620007fb919062001096565b92505081905550620008d9565b5f805f8573ffffffffffffffffffffffffffffffffffffffff1673ffffffffffffffffffffffffffffffffffffffff1681526020019081526020015f205490508181101562000894578381836040517fe450d38c0000000000000000000000000000000000000000000000000000000081526004016200088b93929190620010e1565b60405180910390fd5b8181035f808673ffffffffffffffffffffffffffffffffffffffff1673ffffffffffffffffffffffffffffffffffffffff1681526020019081526020015f2081905550505b5f73ffffffffffffffffffffffffffffffffffffffff168273ffffffffffffffffffffffffffffffffffffffff160362000922578060025f82825403925050819055506200096c565b805f808473ffffffffffffffffffffffffffffffffffffffff1673ffffffffffffffffffffffffffffffffffffffff1681526020019081526020015f205f82825401925050819055505b8173ffffffffffffffffffffffffffffffffffffffff168373ffffffffffffffffffffffffffffffffffffffff167fddf252ad1be2c89b69c2b068fc378daa952ba7f163c4a11628f55a4df523b3ef83604051620009cb91906200111c565b60405180910390a3505050565b5f81519050919050565b7f4e487b71000000000000000000000000000000000000000000000000000000005f52604160045260245ffd5b7f4e487b71000000000000000000000000000000000000000000000000000000005f52602260045260245ffd5b5f600282049050600182168062000a5457607f821691505b60208210810362000a6a5762000a6962000a0f565b5b50919050565b5f819050815f5260205f209050919050565b5f6020601f8301049050919050565b5f82821b905092915050565b5f6008830262000ace7fffffffffffffffffffffffffffffffffffffffffffffffffffffffffffffffff8262000a91565b62000ada868362000a91565b95508019841693508086168417925050509392505050565b5f819050919050565b5f819050919050565b5f62000b2462000b1e62000b188462000af2565b62000afb565b62000af2565b9050919050565b5f819050919050565b62000b3f8362000b04565b62000b5762000b4e8262000b2b565b84845462000a9d565b825550505050565b5f90565b62000b6d62000b5f565b62000b7a81848462000b34565b505050565b5b8181101562000ba15762000b955f8262000b63565b60018101905062000b80565b5050565b601f82111562000bf05762000bba8162000a70565b62000bc58462000a82565b8101602085101562000bd5578190505b62000bed62000be48562000a82565b83018262000b7f565b50505b505050565b5f82821c905092915050565b5f62000c125f198460080262000bf5565b1980831691505092915050565b5f62000c2c838362000c01565b9150826002028217905092915050565b62000c4782620009d8565b67ffffffffffffffff81111562000c635762000c62620009e2565b5b62000c6f825462000a3c565b62000c7c82828562000ba5565b5f60209050601f83116001811462000cb2575f841562000c9d578287015190505b62000ca9858262000c1f565b86555062000d18565b601f19841662000cc28662000a70565b5f5b8281101562000ceb5784890151825560018201915060208501945060208101905062000cc4565b8683101562000d0b578489015162000d07601f89168262000c01565b8355505b6001600288020188555050505b505050505050565b5f604051905090565b5f80fd5b5f80fd5b5f73ffffffffffffffffffffffffffffffffffffffff82169050919050565b5f62000d5c8262000d31565b9050919050565b62000d6e8162000d50565b811462000d79575f80fd5b50565b5f8151905062000d8c8162000d63565b92915050565b5f80fd5b5f80fd5b5f601f19601f8301169050919050565b62000db58262000d9a565b810181811067ffffffffffffffff8211171562000dd75762000dd6620009e2565b5b80604052505050565b5f62000deb62000d20565b905062000df9828262000daa565b919050565b5f67ffffffffffffffff82111562000e1b5762000e1a620009e2565b5b62000e268262000d9a565b9050602081019050919050565b5f5b8381101562000e5257808201518184015260208101905062000e35565b5f8484015250505050565b5f62000e7362000e6d8462000dfe565b62000de0565b90508281526020810184848401111562000e925762000e9162000d96565b5b62000e9f84828562000e33565b509392505050565b5f82601f83011262000ebe5762000ebd62000d92565b5b815162000ed084826020860162000e5d565b91505092915050565b5f805f6060848603121562000ef35762000ef262000d29565b5b5f62000f028682870162000d7c565b935050602084015167ffffffffffffffff81111562000f265762000f2562000d2d565b5b62000f348682870162000ea7565b925050604062000f478682870162000d7c565b9150509250925092565b62000f5c8162000d50565b82525050565b5f60208201905062000f775f83018462000f51565b92915050565b5f82825260208201905092915050565b7f496e76616c6964206f776e6572000000000000000000000000000000000000005f82015250565b5f62000fc3600d8362000f7d565b915062000fd08262000f8d565b602082019050919050565b5f6020820190508181035f83015262000ff48162000fb5565b9050919050565b7f496e76616c6964207265736572766500000000000000000000000000000000005f82015250565b5f62001031600f8362000f7d565b91506200103e8262000ffb565b602082019050919050565b5f6020820190508181035f830152620010628162001023565b9050919050565b7f4e487b71000000000000000000000000000000000000000000000000000000005f52601160045260245ffd5b5f620010a28262000af2565b9150620010af8362000af2565b9250828201905080821115620010ca57620010c962001069565b5b92915050565b620010db8162000af2565b82525050565b5f606082019050620010f65f83018662000f51565b620011056020830185620010d0565b620011146040830184620010d0565b949350505050565b5f602082019050620011315f830184620010d0565b92915050565b611f9d80620011455f395ff3fe608060405234801561000f575f80fd5b5060043610610140575f3560e01c806370a08231116100b6578063a9059cbb1161007a578063a9059cbb1461036e578063ac9e57601461039e578063d72b11bd146103ba578063dd62ed3e146103d8578063dda4fa8f14610408578063f2fde38b1461042457610140565b806370a08231146102da578063715018a61461030a5780638da5cb5b146103145780638fb03a021461033257806395d89b411461035057610140565b8063185b691011610108578063185b6910146101ea57806323b872dd14610208578063313ce5671461023857806332cb6b0c1461025657806351640fee14610274578063663b3e22146102a757610140565b806304787ca21461014457806306fdde0314610160578063095ea7b31461017e578063135d088d146101ae57806318160ddd146101cc575b5f80fd5b61015e600480360381019061015991906116b4565b610440565b005b61016861045b565b6040516101759190611775565b60405180910390f35b61019860048036038101906101939190611822565b6104eb565b6040516101a5919061187a565b60405180910390f35b6101b661050d565b6040516101c39190611775565b60405180910390f35b6101d4610599565b6040516101e191906118a2565b60405180910390f35b6101f26105a2565b6040516101ff9190611775565b60405180910390f35b610222600480360381019061021d91906118bb565b61062e565b60405161022f919061187a565b60405180910390f35b61024061065c565b60405161024d9190611926565b60405180910390f35b61025e610664565b60405161026b91906118a2565b60405180910390f35b61028e6004803603810190610289919061193f565b610674565b60405161029e949392919061196a565b60405180910390f35b6102c160048036038101906102bc919061193f565b610884565b6040516102d1949392919061196a565b60405180910390f35b6102f460048036038101906102ef91906119c2565b610a51565b60405161030191906118a2565b60405180910390f35b610312610a96565b005b61031c610aa9565b60405161032991906119fc565b60405180910390f35b61033a610ad1565b60405161034791906118a2565b60405180910390f35b610358610add565b6040516103659190611775565b60405180910390f35b61038860048036038101906103839190611822565b610b6d565b604051610395919061187a565b60405180910390f35b6103b860048036038101906103b39190611a15565b610b8f565b005b6103c2610c7e565b6040516103cf91906119fc565b60405180910390f35b6103f260048036038101906103ed9190611ab9565b610ca3565b6040516103ff91906118a2565b60405180910390f35b610422600480360381019061041d91906119c2565b610d25565b005b61043e600480360381019061043991906119c2565b610e15565b005b610448610e99565b80600690816104579190611cf1565b5050565b60606003805461046a90611b24565b80601f016020809104026020016040519081016040528092919081815260200182805461049690611b24565b80156104e15780601f106104b8576101008083540402835291602001916104e1565b820191905f5260205f20905b8154815290600101906020018083116104c457829003601f168201915b5050505050905090565b5f806104f5610f20565b9050610502818585610f27565b600191505092915050565b6006805461051a90611b24565b80601f016020809104026020016040519081016040528092919081815260200182805461054690611b24565b80156105915780601f1061056857610100808354040283529160200191610591565b820191905f5260205f20905b81548152906001019060200180831161057457829003601f168201915b505050505081565b5f600254905090565b600780546105af90611b24565b80601f01602080910402602001604051908101604052809291908181526020018280546105db90611b24565b80156106265780601f106105fd57610100808354040283529160200191610626565b820191905f5260205f20905b81548152906001019060200180831161060957829003601f168201915b505050505081565b5f80610638610f20565b9050610645858285610f39565b610650858585610fcc565b60019150509392505050565b5f6012905090565b6b409f9cbc7c4a04c22000000081565b6060805f60605f6009868154811061068f5761068e611dc0565b5b905f5260205f2090600402016040518060800160405290815f820180546106b590611b24565b80601f01602080910402602001604051908101604052809291908181526020018280546106e190611b24565b801561072c5780601f106107035761010080835404028352916020019161072c565b820191905f5260205f20905b81548152906001019060200180831161070f57829003601f168201915b5050505050815260200160018201805461074590611b24565b80601f016020809104026020016040519081016040528092919081815260200182805461077190611b24565b80156107bc5780601f10610793576101008083540402835291602001916107bc565b820191905f5260205f20905b81548152906001019060200180831161079f57829003601f168201915b50505050508152602001600282015481526020016003820180546107df90611b24565b80601f016020809104026020016040519081016040528092919081815260200182805461080b90611b24565b80156108565780601f1061082d57610100808354040283529160200191610856565b820191905f5260205f20905b81548152906001019060200180831161083957829003601f168201915b5050505050815250509050805f01518160200151826040015183606001519450945094509450509193509193565b60098181548110610893575f80fd5b905f5260205f2090600402015f91509050805f0180546108b290611b24565b80601f01602080910402602001604051908101604052809291908181526020018280546108de90611b24565b80156109295780601f1061090057610100808354040283529160200191610929565b820191905f5260205f20905b81548152906001019060200180831161090c57829003601f168201915b50505050509080600101805461093e90611b24565b80601f016020809104026020016040519081016040528092919081815260200182805461096a90611b24565b80156109b55780601f1061098c576101008083540402835291602001916109b5565b820191905f5260205f20905b81548152906001019060200180831161099857829003601f168201915b5050505050908060020154908060030180546109d090611b24565b80601f01602080910402602001604051908101604052809291908181526020018280546109fc90611b24565b8015610a475780601f10610a1e57610100808354040283529160200191610a47565b820191905f5260205f20905b815481529060010190602001808311610a2a57829003601f168201915b5050505050905084565b5f805f8373ffffffffffffffffffffffffffffffffffffffff1673ffffffffffffffffffffffffffffffffffffffff1681526020019081526020015f20549050919050565b610a9e610e99565b610aa75f6110bc565b565b5f60055f9054906101000a900473ffffffffffffffffffffffffffffffffffffffff16905090565b5f600980549050905090565b606060048054610aec90611b24565b80601f0160208091040260200160405190810160405280929190818152602001828054610b1890611b24565b8015610b635780601f10610b3a57610100808354040283529160200191610b63565b820191905f5260205f20905b815481529060010190602001808311610b4657829003601f168201915b5050505050905090565b5f80610b77610f20565b9050610b84818585610fcc565b600191505092915050565b610b97610e99565b6009604051806080016040528085815260200184815260200142815260200183815250908060018154018082558091505060019003905f5260205f2090600402015f909190919091505f820151815f019081610bf39190611cf1565b506020820151816001019081610c099190611cf1565b50604082015181600201556060820151816003019081610c299190611cf1565b5050506001600980549050610c3e9190611e1a565b7f2774e9ef4afef65425b7a7fbfd20ad10ae87a2be53c24fd3c78cc311981bc848848484604051610c7193929190611e4d565b60405180910390a2505050565b60085f9054906101000a900473ffffffffffffffffffffffffffffffffffffffff1681565b5f60015f8473ffffffffffffffffffffffffffffffffffffffff1673ffffffffffffffffffffffffffffffffffffffff1681526020019081526020015f205f8373ffffffffffffffffffffffffffffffffffffffff1673ffffffffffffffffffffffffffffffffffffffff1681526020019081526020015f2054905092915050565b610d2d610e99565b5f73ffffffffffffffffffffffffffffffffffffffff168173ffffffffffffffffffffffffffffffffffffffff1603610d9b576040517f08c379a0000000000000000000000000000000000000000000000000000000008152600401610d9290611ee1565b60405180910390fd5b8060085f6101000a81548173ffffffffffffffffffffffffffffffffffffffff021916908373ffffffffffffffffffffffffffffffffffffffff1602179055507fb6682970c3624ff1f1130c7910f4f5a7619c2356dc365283eb44e7806dc1a86f81604051610e0a91906119fc565b60405180910390a150565b610e1d610e99565b5f73ffffffffffffffffffffffffffffffffffffffff168173ffffffffffffffffffffffffffffffffffffffff1603610e8d575f6040517f1e4fbdf7000000000000000000000000000000000000000000000000000000008152600401610e8491906119fc565b60405180910390fd5b610e96816110bc565b50565b610ea1610f20565b73ffffffffffffffffffffffffffffffffffffffff16610ebf610aa9565b73ffffffffffffffffffffffffffffffffffffffff1614610f1e57610ee2610f20565b6040517f118cdaa7000000000000000000000000000000000000000000000000000000008152600401610f1591906119fc565b60405180910390fd5b565b5f33905090565b610f34838383600161117f565b505050565b5f610f448484610ca3565b90507fffffffffffffffffffffffffffffffffffffffffffffffffffffffffffffffff811015610fc65781811015610fb7578281836040517ffb8f41b2000000000000000000000000000000000000000000000000000000008152600401610fae93929190611eff565b60405180910390fd5b610fc584848484035f61117f565b5b50505050565b5f73ffffffffffffffffffffffffffffffffffffffff168373ffffffffffffffffffffffffffffffffffffffff160361103c575f6040517f96c6fd1e00000000000000000000000000000000000000000000000000000000815260040161103391906119fc565b60405180910390fd5b5f73ffffffffffffffffffffffffffffffffffffffff168273ffffffffffffffffffffffffffffffffffffffff16036110ac575f6040517fec442f050000000000000000000000000000000000000000000000000000000081526004016110a391906119fc565b60405180910390fd5b6110b783838361134e565b505050565b5f60055f9054906101000a900473ffffffffffffffffffffffffffffffffffffffff1690508160055f6101000a81548173ffffffffffffffffffffffffffffffffffffffff021916908373ffffffffffffffffffffffffffffffffffffffff1602179055508173ffffffffffffffffffffffffffffffffffffffff168173ffffffffffffffffffffffffffffffffffffffff167f8be0079c531659141344cd1fd0a4f28419497f9722a3daafe3b4186f6b6457e060405160405180910390a35050565b5f73ffffffffffffffffffffffffffffffffffffffff168473ffffffffffffffffffffffffffffffffffffffff16036111ef575f6040517fe602df050000000000000000000000000000000000000000000000000000000081526004016111e691906119fc565b60405180910390fd5b5f73ffffffffffffffffffffffffffffffffffffffff168373ffffffffffffffffffffffffffffffffffffffff160361125f575f6040517f94280d6200000000000000000000000000000000000000000000000000000000815260040161125691906119fc565b60405180910390fd5b8160015f8673ffffffffffffffffffffffffffffffffffffffff1673ffffffffffffffffffffffffffffffffffffffff1681526020019081526020015f205f8573ffffffffffffffffffffffffffffffffffffffff1673ffffffffffffffffffffffffffffffffffffffff1681526020019081526020015f20819055508015611348578273ffffffffffffffffffffffffffffffffffffffff168473ffffffffffffffffffffffffffffffffffffffff167f8c5be1e5ebec7d5bd14f71427d1e84f3dd0314c0f7b2291e5b200ac8c7c3b9258460405161133f91906118a2565b60405180910390a35b50505050565b5f73ffffffffffffffffffffffffffffffffffffffff168373ffffffffffffffffffffffffffffffffffffffff160361139e578060025f8282546113929190611f34565b9250508190555061146c565b5f805f8573ffffffffffffffffffffffffffffffffffffffff1673ffffffffffffffffffffffffffffffffffffffff1681526020019081526020015f2054905081811015611427578381836040517fe450d38c00000000000000000000000000000000000000000000000000000000815260040161141e93929190611eff565b60405180910390fd5b8181035f808673ffffffffffffffffffffffffffffffffffffffff1673ffffffffffffffffffffffffffffffffffffffff1681526020019081526020015f2081905550505b5f73ffffffffffffffffffffffffffffffffffffffff168273ffffffffffffffffffffffffffffffffffffffff16036114b3578060025f82825403925050819055506114fd565b805f808473ffffffffffffffffffffffffffffffffffffffff1673ffffffffffffffffffffffffffffffffffffffff1681526020019081526020015f205f82825401925050819055505b8173ffffffffffffffffffffffffffffffffffffffff168373ffffffffffffffffffffffffffffffffffffffff167fddf252ad1be2c89b69c2b068fc378daa952ba7f163c4a11628f55a4df523b3ef8360405161155a91906118a2565b60405180910390a3505050565b5f604051905090565b5f80fd5b5f80fd5b5f80fd5b5f80fd5b5f601f19601f8301169050919050565b7f4e487b71000000000000000000000000000000000000000000000000000000005f52604160045260245ffd5b6115c682611580565b810181811067ffffffffffffffff821117156115e5576115e4611590565b5b80604052505050565b5f6115f7611567565b905061160382826115bd565b919050565b5f67ffffffffffffffff82111561162257611621611590565b5b61162b82611580565b9050602081019050919050565b828183375f83830152505050565b5f61165861165384611608565b6115ee565b9050828152602081018484840111156116745761167361157c565b5b61167f848285611638565b509392505050565b5f82601f83011261169b5761169a611578565b5b81356116ab848260208601611646565b91505092915050565b5f602082840312156116c9576116c8611570565b5b5f82013567ffffffffffffffff8111156116e6576116e5611574565b5b6116f284828501611687565b91505092915050565b5f81519050919050565b5f82825260208201905092915050565b5f5b83811015611732578082015181840152602081019050611717565b5f8484015250505050565b5f611747826116fb565b6117518185611705565b9350611761818560208601611715565b61176a81611580565b840191505092915050565b5f6020820190508181035f83015261178d818461173d565b905092915050565b5f73ffffffffffffffffffffffffffffffffffffffff82169050919050565b5f6117be82611795565b9050919050565b6117ce816117b4565b81146117d8575f80fd5b50565b5f813590506117e9816117c5565b92915050565b5f819050919050565b611801816117ef565b811461180b575f80fd5b50565b5f8135905061181c816117f8565b92915050565b5f806040838503121561183857611837611570565b5b5f611845858286016117db565b92505060206118568582860161180e565b9150509250929050565b5f8115159050919050565b61187481611860565b82525050565b5f60208201905061188d5f83018461186b565b92915050565b61189c816117ef565b82525050565b5f6020820190506118b55f830184611893565b92915050565b5f805f606084860312156118d2576118d1611570565b5b5f6118df868287016117db565b93505060206118f0868287016117db565b92505060406119018682870161180e565b9150509250925092565b5f60ff82169050919050565b6119208161190b565b82525050565b5f6020820190506119395f830184611917565b92915050565b5f6020828403121561195457611953611570565b5b5f6119618482850161180e565b91505092915050565b5f6080820190508181035f830152611982818761173d565b90508181036020830152611996818661173d565b90506119a56040830185611893565b81810360608301526119b7818461173d565b905095945050505050565b5f602082840312156119d7576119d6611570565b5b5f6119e4848285016117db565b91505092915050565b6119f6816117b4565b82525050565b5f602082019050611a0f5f8301846119ed565b92915050565b5f805f60608486031215611a2c57611a2b611570565b5b5f84013567ffffffffffffffff811115611a4957611a48611574565b5b611a5586828701611687565b935050602084013567ffffffffffffffff811115611a7657611a75611574565b5b611a8286828701611687565b925050604084013567ffffffffffffffff811115611aa357611aa2611574565b5b611aaf86828701611687565b9150509250925092565b5f8060408385031215611acf57611ace611570565b5b5f611adc858286016117db565b9250506020611aed858286016117db565b9150509250929050565b7f4e487b71000000000000000000000000000000000000000000000000000000005f52602260045260245ffd5b5f6002820490506001821680611b3b57607f821691505b602082108103611b4e57611b4d611af7565b5b50919050565b5f819050815f5260205f209050919050565b5f6020601f8301049050919050565b5f82821b905092915050565b5f60088302611bb07fffffffffffffffffffffffffffffffffffffffffffffffffffffffffffffffff82611b75565b611bba8683611b75565b95508019841693508086168417925050509392505050565b5f819050919050565b5f611bf5611bf0611beb846117ef565b611bd2565b6117ef565b9050919050565b5f819050919050565b611c0e83611bdb565b611c22611c1a82611bfc565b848454611b81565b825550505050565b5f90565b611c36611c2a565b611c41818484611c05565b505050565b5b81811015611c6457611c595f82611c2e565b600181019050611c47565b5050565b601f821115611ca957611c7a81611b54565b611c8384611b66565b81016020851015611c92578190505b611ca6611c9e85611b66565b830182611c46565b50505b505050565b5f82821c905092915050565b5f611cc95f1984600802611cae565b1980831691505092915050565b5f611ce18383611cba565b9150826002028217905092915050565b611cfa826116fb565b67ffffffffffffffff811115611d1357611d12611590565b5b611d1d8254611b24565b611d28828285611c68565b5f60209050601f831160018114611d59575f8415611d47578287015190505b611d518582611cd6565b865550611db8565b601f198416611d6786611b54565b5f5b82811015611d8e57848901518255600182019150602085019450602081019050611d69565b86831015611dab5784890151611da7601f891682611cba565b8355505b6001600288020188555050505b505050505050565b7f4e487b71000000000000000000000000000000000000000000000000000000005f52603260045260245ffd5b7f4e487b71000000000000000000000000000000000000000000000000000000005f52601160045260245ffd5b5f611e24826117ef565b9150611e2f836117ef565b9250828203905081811115611e4757611e46611ded565b5b92915050565b5f6060820190508181035f830152611e65818661173d565b90508181036020830152611e79818561173d565b90508181036040830152611e8d818461173d565b9050949350505050565b7f496e76616c6964206164647265737300000000000000000000000000000000005f82015250565b5f611ecb600f83611705565b9150611ed682611e97565b602082019050919050565b5f6020820190508181035f830152611ef881611ebf565b9050919050565b5f606082019050611f125f8301866119ed565b611f1f6020830185611893565b611f2c6040830184611893565b949350505050565b5f611f3e826117ef565b9150611f49836117ef565b9250828201905080821115611f6157611f60611ded565b5b9291505056fea2646970667358221220236940a7fbe339ea3ee78097b138b7333d74d4f697019954ed4f545a1b4cdd4364736f6c63430008140033456e7669726f6e6d656e74616c20616e6420617373657420646f63756d656e746174696f6e436172626f6e2043726564697420436f696e732028434343292069732061206469676974616c2061737365742064657369676e656420746f20726570726573656e7420656e7669726f6e6d656e74616c2076616c7565207468726f75676820746f6b656e697a6174696f6e206f6620636172626f6e2d72656c61746564206173736574732c20737570706f7274656420627920646f63756d656e746174696f6e2c206175646974732c20616e64207472616e73706172656e6379206d656368616e69736d732e', \n     arguments: [\n          masterWallet,\n          _imageURI,\n          _reserveWallet,\n     ]\n}).send({\n     from: web3.eth.accounts[0], \n     gas: '4700000'\n   }, function (e, contract){\n    console.log(e, contract);\n    if (typeof contract.address !== 'undefined') {\n         console.log('Contract mined! address: ' + contract.address + ' transactionHash: ' + contract.transactionHash);\n    }\n })",
	"functionHashes": {
		"32cb6b0c": "MAX_SUPPLY()",
		"ac9e5760": "addCertificate(string,string,string)",
		"dd62ed3e": "allowance(address,address)",
		"095ea7b3": "approve(address,uint256)",
		"70a08231": "balanceOf(address)",
		"663b3e22": "certificates(uint256)",
		"313ce567": "decimals()",
		"51640fee": "getCertificate(uint256)",
		"8fb03a02": "getCertificatesCount()",
		"135d088d": "imageURI()",
		"06fdde03": "name()",
		"8da5cb5b": "owner()",
		"185b6910": "projectInfo()",
		"715018a6": "renounceOwnership()",
		"d72b11bd": "reserveWallet()",
		"04787ca2": "setImageURI(string)",
		"dda4fa8f": "setReserveWallet(address)",
		"95d89b41": "symbol()",
		"18160ddd": "totalSupply()",
		"a9059cbb": "transfer(address,uint256)",
		"23b872dd": "transferFrom(address,address,uint256)",
		"f2fde38b": "transferOwnership(address)"
	},
	"gasEstimates": {
		"Creation": {
			"codeDepositCost": "1618600",
			"executionCost": "infinite",
			"totalCost": "infinite"
		},
		"External": {
			"MAX_SUPPLY()": "414",
			"addCertificate(string,string,string)": "infinite",
			"allowance(address,address)": "infinite",
			"approve(address,uint256)": "infinite",
			"balanceOf(address)": "2852",
			"certificates(uint256)": "infinite",
			"decimals()": "405",
			"getCertificate(uint256)": "infinite",
			"getCertificatesCount()": "2529",
			"imageURI()": "infinite",
			"name()": "infinite",
			"owner()": "2582",
			"projectInfo()": "infinite",
			"renounceOwnership()": "infinite",
			"reserveWallet()": "2574",
			"setImageURI(string)": "infinite",
			"setReserveWallet(address)": "infinite",
			"symbol()": "infinite",
			"totalSupply()": "2544",
			"transfer(address,uint256)": "infinite",
			"transferFrom(address,address,uint256)": "infinite",
			"transferOwnership(address)": "infinite"
		}
	},
	"devdoc": {
		"errors": {
			"ERC20InsufficientAllowance(address,uint256,uint256)": [
				{
					"details": "Indicates a failure with the `spender`’s `allowance`. Used in transfers.",
					"params": {
						"allowance": "Amount of tokens a `spender` is allowed to operate with.",
						"needed": "Minimum amount required to perform a transfer.",
						"spender": "Address that may be allowed to operate on tokens without being their owner."
					}
				}
			],
			"ERC20InsufficientBalance(address,uint256,uint256)": [
				{
					"details": "Indicates an error related to the current `balance` of a `sender`. Used in transfers.",
					"params": {
						"balance": "Current balance for the interacting account.",
						"needed": "Minimum amount required to perform a transfer.",
						"sender": "Address whose tokens are being transferred."
					}
				}
			],
			"ERC20InvalidApprover(address)": [
				{
					"details": "Indicates a failure with the `approver` of a token to be approved. Used in approvals.",
					"params": {
						"approver": "Address initiating an approval operation."
					}
				}
			],
			"ERC20InvalidReceiver(address)": [
				{
					"details": "Indicates a failure with the token `receiver`. Used in transfers.",
					"params": {
						"receiver": "Address to which tokens are being transferred."
					}
				}
			],
			"ERC20InvalidSender(address)": [
				{
					"details": "Indicates a failure with the token `sender`. Used in transfers.",
					"params": {
						"sender": "Address whose tokens are being transferred."
					}
				}
			],
			"ERC20InvalidSpender(address)": [
				{
					"details": "Indicates a failure with the `spender` to be approved. Used in approvals.",
					"params": {
						"spender": "Address that may be allowed to operate on tokens without being their owner."
					}
				}
			],
			"OwnableInvalidOwner(address)": [
				{
					"details": "The owner is not a valid owner account. (eg. `address(0)`)"
				}
			],
			"OwnableUnauthorizedAccount(address)": [
				{
					"details": "The caller account is not authorized to perform an operation."
				}
			]
		},
		"events": {
			"Approval(address,address,uint256)": {
				"details": "Emitted when the allowance of a `spender` for an `owner` is set by a call to {approve}. `value` is the new allowance."
			},
			"Transfer(address,address,uint256)": {
				"details": "Emitted when `value` tokens are moved from one account (`from`) to another (`to`). Note that `value` may be zero."
			}
		},
		"kind": "dev",
		"methods": {
			"allowance(address,address)": {
				"details": "Returns the remaining number of tokens that `spender` will be allowed to spend on behalf of `owner` through {transferFrom}. This is zero by default. This value changes when {approve} or {transferFrom} are called."
			},
			"approve(address,uint256)": {
				"details": "See {IERC20-approve}. NOTE: If `value` is the maximum `uint256`, the allowance is not updated on `transferFrom`. This is semantically equivalent to an infinite approval. Requirements: - `spender` cannot be the zero address."
			},
			"balanceOf(address)": {
				"details": "Returns the value of tokens owned by `account`."
			},
			"decimals()": {
				"details": "Returns the number of decimals used to get its user representation. For example, if `decimals` equals `2`, a balance of `505` tokens should be displayed to a user as `5.05` (`505 / 10 ** 2`). Tokens usually opt for a value of 18, imitating the relationship between Ether and Wei. This is the default value returned by this function, unless it's overridden. NOTE: This information is only used for _display_ purposes: it in no way affects any of the arithmetic of the contract, including {IERC20-balanceOf} and {IERC20-transfer}."
			},
			"name()": {
				"details": "Returns the name of the token."
			},
			"owner()": {
				"details": "Returns the address of the current owner."
			},
			"renounceOwnership()": {
				"details": "Leaves the contract without owner. It will not be possible to call `onlyOwner` functions. Can only be called by the current owner. NOTE: Renouncing ownership will leave the contract without an owner, thereby disabling any functionality that is only available to the owner."
			},
			"symbol()": {
				"details": "Returns the symbol of the token, usually a shorter version of the name."
			},
			"totalSupply()": {
				"details": "Returns the value of tokens in existence."
			},
			"transfer(address,uint256)": {
				"details": "See {IERC20-transfer}. Requirements: - `to` cannot be the zero address. - the caller must have a balance of at least `value`."
			},
			"transferFrom(address,address,uint256)": {
				"details": "See {IERC20-transferFrom}. Skips emitting an {Approval} event indicating an allowance update. This is not required by the ERC. See {xref-ERC20-_approve-address-address-uint256-bool-}[_approve]. NOTE: Does not update the allowance if the current allowance is the maximum `uint256`. Requirements: - `from` and `to` cannot be the zero address. - `from` must have a balance of at least `value`. - the caller must have allowance for ``from``'s tokens of at least `value`."
			},
			"transferOwnership(address)": {
				"details": "Transfers ownership of the contract to a new account (`newOwner`). Can only be called by the current owner."
			}
		},
		"version": 1
	},
	"userdoc": {
		"kind": "user",
		"methods": {},
		"version": 1
	},
	"Runtime Bytecode": {
		"immutableReferences": {},
		"linkReferences": {},
		"object": "608060405234801561000f575f80fd5b5060043610610140575f3560e01c806370a08231116100b6578063a9059cbb1161007a578063a9059cbb1461036e578063ac9e57601461039e578063d72b11bd146103ba578063dd62ed3e146103d8578063dda4fa8f14610408578063f2fde38b1461042457610140565b806370a08231146102da578063715018a61461030a5780638da5cb5b146103145780638fb03a021461033257806395d89b411461035057610140565b8063185b691011610108578063185b6910146101ea57806323b872dd14610208578063313ce5671461023857806332cb6b0c1461025657806351640fee14610274578063663b3e22146102a757610140565b806304787ca21461014457806306fdde0314610160578063095ea7b31461017e578063135d088d146101ae57806318160ddd146101cc575b5f80fd5b61015e600480360381019061015991906116b4565b610440565b005b61016861045b565b6040516101759190611775565b60405180910390f35b61019860048036038101906101939190611822565b6104eb565b6040516101a5919061187a565b60405180910390f35b6101b661050d565b6040516101c39190611775565b60405180910390f35b6101d4610599565b6040516101e191906118a2565b60405180910390f35b6101f26105a2565b6040516101ff9190611775565b60405180910390f35b610222600480360381019061021d91906118bb565b61062e565b60405161022f919061187a565b60405180910390f35b61024061065c565b60405161024d9190611926565b60405180910390f35b61025e610664565b60405161026b91906118a2565b60405180910390f35b61028e6004803603810190610289919061193f565b610674565b60405161029e949392919061196a565b60405180910390f35b6102c160048036038101906102bc919061193f565b610884565b6040516102d1949392919061196a565b60405180910390f35b6102f460048036038101906102ef91906119c2565b610a51565b60405161030191906118a2565b60405180910390f35b610312610a96565b005b61031c610aa9565b60405161032991906119fc565b60405180910390f35b61033a610ad1565b60405161034791906118a2565b60405180910390f35b610358610add565b6040516103659190611775565b60405180910390f35b61038860048036038101906103839190611822565b610b6d565b604051610395919061187a565b60405180910390f35b6103b860048036038101906103b39190611a15565b610b8f565b005b6103c2610c7e565b6040516103cf91906119fc565b60405180910390f35b6103f260048036038101906103ed9190611ab9565b610ca3565b6040516103ff91906118a2565b60405180910390f35b610422600480360381019061041d91906119c2565b610d25565b005b61043e600480360381019061043991906119c2565b610e15565b005b610448610e99565b80600690816104579190611cf1565b5050565b60606003805461046a90611b24565b80601f016020809104026020016040519081016040528092919081815260200182805461049690611b24565b80156104e15780601f106104b8576101008083540402835291602001916104e1565b820191905f5260205f20905b8154815290600101906020018083116104c457829003601f168201915b5050505050905090565b5f806104f5610f20565b9050610502818585610f27565b600191505092915050565b6006805461051a90611b24565b80601f016020809104026020016040519081016040528092919081815260200182805461054690611b24565b80156105915780601f1061056857610100808354040283529160200191610591565b820191905f5260205f20905b81548152906001019060200180831161057457829003601f168201915b505050505081565b5f600254905090565b600780546105af90611b24565b80601f01602080910402602001604051908101604052809291908181526020018280546105db90611b24565b80156106265780601f106105fd57610100808354040283529160200191610626565b820191905f5260205f20905b81548152906001019060200180831161060957829003601f168201915b505050505081565b5f80610638610f20565b9050610645858285610f39565b610650858585610fcc565b60019150509392505050565b5f6012905090565b6b409f9cbc7c4a04c22000000081565b6060805f60605f6009868154811061068f5761068e611dc0565b5b905f5260205f2090600402016040518060800160405290815f820180546106b590611b24565b80601f01602080910402602001604051908101604052809291908181526020018280546106e190611b24565b801561072c5780601f106107035761010080835404028352916020019161072c565b820191905f5260205f20905b81548152906001019060200180831161070f57829003601f168201915b5050505050815260200160018201805461074590611b24565b80601f016020809104026020016040519081016040528092919081815260200182805461077190611b24565b80156107bc5780601f10610793576101008083540402835291602001916107bc565b820191905f5260205f20905b81548152906001019060200180831161079f57829003601f168201915b50505050508152602001600282015481526020016003820180546107df90611b24565b80601f016020809104026020016040519081016040528092919081815260200182805461080b90611b24565b80156108565780601f1061082d57610100808354040283529160200191610856565b820191905f5260205f20905b81548152906001019060200180831161083957829003601f168201915b5050505050815250509050805f01518160200151826040015183606001519450945094509450509193509193565b60098181548110610893575f80fd5b905f5260205f2090600402015f91509050805f0180546108b290611b24565b80601f01602080910402602001604051908101604052809291908181526020018280546108de90611b24565b80156109295780601f1061090057610100808354040283529160200191610929565b820191905f5260205f20905b81548152906001019060200180831161090c57829003601f168201915b50505050509080600101805461093e90611b24565b80601f016020809104026020016040519081016040528092919081815260200182805461096a90611b24565b80156109b55780601f1061098c576101008083540402835291602001916109b5565b820191905f5260205f20905b81548152906001019060200180831161099857829003601f168201915b5050505050908060020154908060030180546109d090611b24565b80601f01602080910402602001604051908101604052809291908181526020018280546109fc90611b24565b8015610a475780601f10610a1e57610100808354040283529160200191610a47565b820191905f5260205f20905b815481529060010190602001808311610a2a57829003601f168201915b5050505050905084565b5f805f8373ffffffffffffffffffffffffffffffffffffffff1673ffffffffffffffffffffffffffffffffffffffff1681526020019081526020015f20549050919050565b610a9e610e99565b610aa75f6110bc565b565b5f60055f9054906101000a900473ffffffffffffffffffffffffffffffffffffffff16905090565b5f600980549050905090565b606060048054610aec90611b24565b80601f0160208091040260200160405190810160405280929190818152602001828054610b1890611b24565b8015610b635780601f10610b3a57610100808354040283529160200191610b63565b820191905f5260205f20905b815481529060010190602001808311610b4657829003601f168201915b5050505050905090565b5f80610b77610f20565b9050610b84818585610fcc565b600191505092915050565b610b97610e99565b6009604051806080016040528085815260200184815260200142815260200183815250908060018154018082558091505060019003905f5260205f2090600402015f909190919091505f820151815f019081610bf39190611cf1565b506020820151816001019081610c099190611cf1565b50604082015181600201556060820151816003019081610c299190611cf1565b5050506001600980549050610c3e9190611e1a565b7f2774e9ef4afef65425b7a7fbfd20ad10ae87a2be53c24fd3c78cc311981bc848848484604051610c7193929190611e4d565b60405180910390a2505050565b60085f9054906101000a900473ffffffffffffffffffffffffffffffffffffffff1681565b5f60015f8473ffffffffffffffffffffffffffffffffffffffff1673ffffffffffffffffffffffffffffffffffffffff1681526020019081526020015f205f8373ffffffffffffffffffffffffffffffffffffffff1673ffffffffffffffffffffffffffffffffffffffff1681526020019081526020015f2054905092915050565b610d2d610e99565b5f73ffffffffffffffffffffffffffffffffffffffff168173ffffffffffffffffffffffffffffffffffffffff1603610d9b576040517f08c379a0000000000000000000000000000000000000000000000000000000008152600401610d9290611ee1565b60405180910390fd5b8060085f6101000a81548173ffffffffffffffffffffffffffffffffffffffff021916908373ffffffffffffffffffffffffffffffffffffffff1602179055507fb6682970c3624ff1f1130c7910f4f5a7619c2356dc365283eb44e7806dc1a86f81604051610e0a91906119fc565b60405180910390a150565b610e1d610e99565b5f73ffffffffffffffffffffffffffffffffffffffff168173ffffffffffffffffffffffffffffffffffffffff1603610e8d575f6040517f1e4fbdf7000000000000000000000000000000000000000000000000000000008152600401610e8491906119fc565b60405180910390fd5b610e96816110bc565b50565b610ea1610f20565b73ffffffffffffffffffffffffffffffffffffffff16610ebf610aa9565b73ffffffffffffffffffffffffffffffffffffffff1614610f1e57610ee2610f20565b6040517f118cdaa7000000000000000000000000000000000000000000000000000000008152600401610f1591906119fc565b60405180910390fd5b565b5f33905090565b610f34838383600161117f565b505050565b5f610f448484610ca3565b90507fffffffffffffffffffffffffffffffffffffffffffffffffffffffffffffffff811015610fc65781811015610fb7578281836040517ffb8f41b2000000000000000000000000000000000000000000000000000000008152600401610fae93929190611eff565b60405180910390fd5b610fc584848484035f61117f565b5b50505050565b5f73ffffffffffffffffffffffffffffffffffffffff168373ffffffffffffffffffffffffffffffffffffffff160361103c575f6040517f96c6fd1e00000000000000000000000000000000000000000000000000000000815260040161103391906119fc565b60405180910390fd5b5f73ffffffffffffffffffffffffffffffffffffffff168273ffffffffffffffffffffffffffffffffffffffff16036110ac575f6040517fec442f050000000000000000000000000000000000000000000000000000000081526004016110a391906119fc565b60405180910390fd5b6110b783838361134e565b505050565b5f60055f9054906101000a900473ffffffffffffffffffffffffffffffffffffffff1690508160055f6101000a81548173ffffffffffffffffffffffffffffffffffffffff021916908373ffffffffffffffffffffffffffffffffffffffff1602179055508173ffffffffffffffffffffffffffffffffffffffff168173ffffffffffffffffffffffffffffffffffffffff167f8be0079c531659141344cd1fd0a4f28419497f9722a3daafe3b4186f6b6457e060405160405180910390a35050565b5f73ffffffffffffffffffffffffffffffffffffffff168473ffffffffffffffffffffffffffffffffffffffff16036111ef575f6040517fe602df050000000000000000000000000000000000000000000000000000000081526004016111e691906119fc565b60405180910390fd5b5f73ffffffffffffffffffffffffffffffffffffffff168373ffffffffffffffffffffffffffffffffffffffff160361125f575f6040517f94280d6200000000000000000000000000000000000000000000000000000000815260040161125691906119fc565b60405180910390fd5b8160015f8673ffffffffffffffffffffffffffffffffffffffff1673ffffffffffffffffffffffffffffffffffffffff1681526020019081526020015f205f8573ffffffffffffffffffffffffffffffffffffffff1673ffffffffffffffffffffffffffffffffffffffff1681526020019081526020015f20819055508015611348578273ffffffffffffffffffffffffffffffffffffffff168473ffffffffffffffffffffffffffffffffffffffff167f8c5be1e5ebec7d5bd14f71427d1e84f3dd0314c0f7b2291e5b200ac8c7c3b9258460405161133f91906118a2565b60405180910390a35b50505050565b5f73ffffffffffffffffffffffffffffffffffffffff168373ffffffffffffffffffffffffffffffffffffffff160361139e578060025f8282546113929190611f34565b9250508190555061146c565b5f805f8573ffffffffffffffffffffffffffffffffffffffff1673ffffffffffffffffffffffffffffffffffffffff1681526020019081526020015f2054905081811015611427578381836040517fe450d38c00000000000000000000000000000000000000000000000000000000815260040161141e93929190611eff565b60405180910390fd5b8181035f808673ffffffffffffffffffffffffffffffffffffffff1673ffffffffffffffffffffffffffffffffffffffff1681526020019081526020015f2081905550505b5f73ffffffffffffffffffffffffffffffffffffffff168273ffffffffffffffffffffffffffffffffffffffff16036114b3578060025f82825403925050819055506114fd565b805f808473ffffffffffffffffffffffffffffffffffffffff1673ffffffffffffffffffffffffffffffffffffffff1681526020019081526020015f205f82825401925050819055505b8173ffffffffffffffffffffffffffffffffffffffff168373ffffffffffffffffffffffffffffffffffffffff167fddf252ad1be2c89b69c2b068fc378daa952ba7f163c4a11628f55a4df523b3ef8360405161155a91906118a2565b60405180910390a3505050565b5f604051905090565b5f80fd5b5f80fd5b5f80fd5b5f80fd5b5f601f19601f8301169050919050565b7f4e487b71000000000000000000000000000000000000000000000000000000005f52604160045260245ffd5b6115c682611580565b810181811067ffffffffffffffff821117156115e5576115e4611590565b5b80604052505050565b5f6115f7611567565b905061160382826115bd565b919050565b5f67ffffffffffffffff82111561162257611621611590565b5b61162b82611580565b9050602081019050919050565b828183375f83830152505050565b5f61165861165384611608565b6115ee565b9050828152602081018484840111156116745761167361157c565b5b61167f848285611638565b509392505050565b5f82601f83011261169b5761169a611578565b5b81356116ab848260208601611646565b91505092915050565b5f602082840312156116c9576116c8611570565b5b5f82013567ffffffffffffffff8111156116e6576116e5611574565b5b6116f284828501611687565b91505092915050565b5f81519050919050565b5f82825260208201905092915050565b5f5b83811015611732578082015181840152602081019050611717565b5f8484015250505050565b5f611747826116fb565b6117518185611705565b9350611761818560208601611715565b61176a81611580565b840191505092915050565b5f6020820190508181035f83015261178d818461173d565b905092915050565b5f73ffffffffffffffffffffffffffffffffffffffff82169050919050565b5f6117be82611795565b9050919050565b6117ce816117b4565b81146117d8575f80fd5b50565b5f813590506117e9816117c5565b92915050565b5f819050919050565b611801816117ef565b811461180b575f80fd5b50565b5f8135905061181c816117f8565b92915050565b5f806040838503121561183857611837611570565b5b5f611845858286016117db565b92505060206118568582860161180e565b9150509250929050565b5f8115159050919050565b61187481611860565b82525050565b5f60208201905061188d5f83018461186b565b92915050565b61189c816117ef565b82525050565b5f6020820190506118b55f830184611893565b92915050565b5f805f606084860312156118d2576118d1611570565b5b5f6118df868287016117db565b93505060206118f0868287016117db565b92505060406119018682870161180e565b9150509250925092565b5f60ff82169050919050565b6119208161190b565b82525050565b5f6020820190506119395f830184611917565b92915050565b5f6020828403121561195457611953611570565b5b5f6119618482850161180e565b91505092915050565b5f6080820190508181035f830152611982818761173d565b90508181036020830152611996818661173d565b90506119a56040830185611893565b81810360608301526119b7818461173d565b905095945050505050565b5f602082840312156119d7576119d6611570565b5b5f6119e4848285016117db565b91505092915050565b6119f6816117b4565b82525050565b5f602082019050611a0f5f8301846119ed565b92915050565b5f805f60608486031215611a2c57611a2b611570565b5b5f84013567ffffffffffffffff811115611a4957611a48611574565b5b611a5586828701611687565b935050602084013567ffffffffffffffff811115611a7657611a75611574565b5b611a8286828701611687565b925050604084013567ffffffffffffffff811115611aa357611aa2611574565b5b611aaf86828701611687565b9150509250925092565b5f8060408385031215611acf57611ace611570565b5b5f611adc858286016117db565b9250506020611aed858286016117db565b9150509250929050565b7f4e487b71000000000000000000000000000000000000000000000000000000005f52602260045260245ffd5b5f6002820490506001821680611b3b57607f821691505b602082108103611b4e57611b4d611af7565b5b50919050565b5f819050815f5260205f209050919050565b5f6020601f8301049050919050565b5f82821b905092915050565b5f60088302611bb07fffffffffffffffffffffffffffffffffffffffffffffffffffffffffffffffff82611b75565b611bba8683611b75565b95508019841693508086168417925050509392505050565b5f819050919050565b5f611bf5611bf0611beb846117ef565b611bd2565b6117ef565b9050919050565b5f819050919050565b611c0e83611bdb565b611c22611c1a82611bfc565b848454611b81565b825550505050565b5f90565b611c36611c2a565b611c41818484611c05565b505050565b5b81811015611c6457611c595f82611c2e565b600181019050611c47565b5050565b601f821115611ca957611c7a81611b54565b611c8384611b66565b81016020851015611c92578190505b611ca6611c9e85611b66565b830182611c46565b50505b505050565b5f82821c905092915050565b5f611cc95f1984600802611cae565b1980831691505092915050565b5f611ce18383611cba565b9150826002028217905092915050565b611cfa826116fb565b67ffffffffffffffff811115611d1357611d12611590565b5b611d1d8254611b24565b611d28828285611c68565b5f60209050601f831160018114611d59575f8415611d47578287015190505b611d518582611cd6565b865550611db8565b601f198416611d6786611b54565b5f5b82811015611d8e57848901518255600182019150602085019450602081019050611d69565b86831015611dab5784890151611da7601f891682611cba565b8355505b6001600288020188555050505b505050505050565b7f4e487b71000000000000000000000000000000000000000000000000000000005f52603260045260245ffd5b7f4e487b71000000000000000000000000000000000000000000000000000000005f52601160045260245ffd5b5f611e24826117ef565b9150611e2f836117ef565b9250828203905081811115611e4757611e46611ded565b5b92915050565b5f6060820190508181035f830152611e65818661173d565b90508181036020830152611e79818561173d565b90508181036040830152611e8d818461173d565b9050949350505050565b7f496e76616c6964206164647265737300000000000000000000000000000000005f82015250565b5f611ecb600f83611705565b9150611ed682611e97565b602082019050919050565b5f6020820190508181035f830152611ef881611ebf565b9050919050565b5f606082019050611f125f8301866119ed565b611f1f6020830185611893565b611f2c6040830184611893565b949350505050565b5f611f3e826117ef565b9150611f49836117ef565b9250828201905080821115611f6157611f60611ded565b5b9291505056fea2646970667358221220236940a7fbe339ea3ee78097b138b7333d74d4f697019954ed4f545a1b4cdd4364736f6c63430008140033",
		"opcodes": "PUSH1 0x80 PUSH1 0x40 MSTORE CALLVALUE DUP1 ISZERO PUSH2 0xF JUMPI PUSH0 DUP1 REVERT JUMPDEST POP PUSH1 0x4 CALLDATASIZE LT PUSH2 0x140 JUMPI PUSH0 CALLDATALOAD PUSH1 0xE0 SHR DUP1 PUSH4 0x70A08231 GT PUSH2 0xB6 JUMPI DUP1 PUSH4 0xA9059CBB GT PUSH2 0x7A JUMPI DUP1 PUSH4 0xA9059CBB EQ PUSH2 0x36E JUMPI DUP1 PUSH4 0xAC9E5760 EQ PUSH2 0x39E JUMPI DUP1 PUSH4 0xD72B11BD EQ PUSH2 0x3BA JUMPI DUP1 PUSH4 0xDD62ED3E EQ PUSH2 0x3D8 JUMPI DUP1 PUSH4 0xDDA4FA8F EQ PUSH2 0x408 JUMPI DUP1 PUSH4 0xF2FDE38B EQ PUSH2 0x424 JUMPI PUSH2 0x140 JUMP JUMPDEST DUP1 PUSH4 0x70A08231 EQ PUSH2 0x2DA JUMPI DUP1 PUSH4 0x715018A6 EQ PUSH2 0x30A JUMPI DUP1 PUSH4 0x8DA5CB5B EQ PUSH2 0x314 JUMPI DUP1 PUSH4 0x8FB03A02 EQ PUSH2 0x332 JUMPI DUP1 PUSH4 0x95D89B41 EQ PUSH2 0x350 JUMPI PUSH2 0x140 JUMP JUMPDEST DUP1 PUSH4 0x185B6910 GT PUSH2 0x108 JUMPI DUP1 PUSH4 0x185B6910 EQ PUSH2 0x1EA JUMPI DUP1 PUSH4 0x23B872DD EQ PUSH2 0x208 JUMPI DUP1 PUSH4 0x313CE567 EQ PUSH2 0x238 JUMPI DUP1 PUSH4 0x32CB6B0C EQ PUSH2 0x256 JUMPI DUP1 PUSH4 0x51640FEE EQ PUSH2 0x274 JUMPI DUP1 PUSH4 0x663B3E22 EQ PUSH2 0x2A7 JUMPI PUSH2 0x140 JUMP JUMPDEST DUP1 PUSH4 0x4787CA2 EQ PUSH2 0x144 JUMPI DUP1 PUSH4 0x6FDDE03 EQ PUSH2 0x160 JUMPI DUP1 PUSH4 0x95EA7B3 EQ PUSH2 0x17E JUMPI DUP1 PUSH4 0x135D088D EQ PUSH2 0x1AE JUMPI DUP1 PUSH4 0x18160DDD EQ PUSH2 0x1CC JUMPI JUMPDEST PUSH0 DUP1 REVERT JUMPDEST PUSH2 0x15E PUSH1 0x4 DUP1 CALLDATASIZE SUB DUP2 ADD SWAP1 PUSH2 0x159 SWAP2 SWAP1 PUSH2 0x16B4 JUMP JUMPDEST PUSH2 0x440 JUMP JUMPDEST STOP JUMPDEST PUSH2 0x168 PUSH2 0x45B JUMP JUMPDEST PUSH1 0x40 MLOAD PUSH2 0x175 SWAP2 SWAP1 PUSH2 0x1775 JUMP JUMPDEST PUSH1 0x40 MLOAD DUP1 SWAP2 SUB SWAP1 RETURN JUMPDEST PUSH2 0x198 PUSH1 0x4 DUP1 CALLDATASIZE SUB DUP2 ADD SWAP1 PUSH2 0x193 SWAP2 SWAP1 PUSH2 0x1822 JUMP JUMPDEST PUSH2 0x4EB JUMP JUMPDEST PUSH1 0x40 MLOAD PUSH2 0x1A5 SWAP2 SWAP1 PUSH2 0x187A JUMP JUMPDEST PUSH1 0x40 MLOAD DUP1 SWAP2 SUB SWAP1 RETURN JUMPDEST PUSH2 0x1B6 PUSH2 0x50D JUMP JUMPDEST PUSH1 0x40 MLOAD PUSH2 0x1C3 SWAP2 SWAP1 PUSH2 0x1775 JUMP JUMPDEST PUSH1 0x40 MLOAD DUP1 SWAP2 SUB SWAP1 RETURN JUMPDEST PUSH2 0x1D4 PUSH2 0x599 JUMP JUMPDEST PUSH1 0x40 MLOAD PUSH2 0x1E1 SWAP2 SWAP1 PUSH2 0x18A2 JUMP JUMPDEST PUSH1 0x40 MLOAD DUP1 SWAP2 SUB SWAP1 RETURN JUMPDEST PUSH2 0x1F2 PUSH2 0x5A2 JUMP JUMPDEST PUSH1 0x40 MLOAD PUSH2 0x1FF SWAP2 SWAP1 PUSH2 0x1775 JUMP JUMPDEST PUSH1 0x40 MLOAD DUP1 SWAP2 SUB SWAP1 RETURN JUMPDEST PUSH2 0x222 PUSH1 0x4 DUP1 CALLDATASIZE SUB DUP2 ADD SWAP1 PUSH2 0x21D SWAP2 SWAP1 PUSH2 0x18BB JUMP JUMPDEST PUSH2 0x62E JUMP JUMPDEST PUSH1 0x40 MLOAD PUSH2 0x22F SWAP2 SWAP1 PUSH2 0x187A JUMP JUMPDEST PUSH1 0x40 MLOAD DUP1 SWAP2 SUB SWAP1 RETURN JUMPDEST PUSH2 0x240 PUSH2 0x65C JUMP JUMPDEST PUSH1 0x40 MLOAD PUSH2 0x24D SWAP2 SWAP1 PUSH2 0x1926 JUMP JUMPDEST PUSH1 0x40 MLOAD DUP1 SWAP2 SUB SWAP1 RETURN JUMPDEST PUSH2 0x25E PUSH2 0x664 JUMP JUMPDEST PUSH1 0x40 MLOAD PUSH2 0x26B SWAP2 SWAP1 PUSH2 0x18A2 JUMP JUMPDEST PUSH1 0x40 MLOAD DUP1 SWAP2 SUB SWAP1 RETURN JUMPDEST PUSH2 0x28E PUSH1 0x4 DUP1 CALLDATASIZE SUB DUP2 ADD SWAP1 PUSH2 0x289 SWAP2 SWAP1 PUSH2 0x193F JUMP JUMPDEST PUSH2 0x674 JUMP JUMPDEST PUSH1 0x40 MLOAD PUSH2 0x29E SWAP5 SWAP4 SWAP3 SWAP2 SWAP1 PUSH2 0x196A JUMP JUMPDEST PUSH1 0x40 MLOAD DUP1 SWAP2 SUB SWAP1 RETURN JUMPDEST PUSH2 0x2C1 PUSH1 0x4 DUP1 CALLDATASIZE SUB DUP2 ADD SWAP1 PUSH2 0x2BC SWAP2 SWAP1 PUSH2 0x193F JUMP JUMPDEST PUSH2 0x884 JUMP JUMPDEST PUSH1 0x40 MLOAD PUSH2 0x2D1 SWAP5 SWAP4 SWAP3 SWAP2 SWAP1 PUSH2 0x196A JUMP JUMPDEST PUSH1 0x40 MLOAD DUP1 SWAP2 SUB SWAP1 RETURN JUMPDEST PUSH2 0x2F4 PUSH1 0x4 DUP1 CALLDATASIZE SUB DUP2 ADD SWAP1 PUSH2 0x2EF SWAP2 SWAP1 PUSH2 0x19C2 JUMP JUMPDEST PUSH2 0xA51 JUMP JUMPDEST PUSH1 0x40 MLOAD PUSH2 0x301 SWAP2 SWAP1 PUSH2 0x18A2 JUMP JUMPDEST PUSH1 0x40 MLOAD DUP1 SWAP2 SUB SWAP1 RETURN JUMPDEST PUSH2 0x312 PUSH2 0xA96 JUMP JUMPDEST STOP JUMPDEST PUSH2 0x31C PUSH2 0xAA9 JUMP JUMPDEST PUSH1 0x40 MLOAD PUSH2 0x329 SWAP2 SWAP1 PUSH2 0x19FC JUMP JUMPDEST PUSH1 0x40 MLOAD DUP1 SWAP2 SUB SWAP1 RETURN JUMPDEST PUSH2 0x33A PUSH2 0xAD1 JUMP JUMPDEST PUSH1 0x40 MLOAD PUSH2 0x347 SWAP2 SWAP1 PUSH2 0x18A2 JUMP JUMPDEST PUSH1 0x40 MLOAD DUP1 SWAP2 SUB SWAP1 RETURN JUMPDEST PUSH2 0x358 PUSH2 0xADD JUMP JUMPDEST PUSH1 0x40 MLOAD PUSH2 0x365 SWAP2 SWAP1 PUSH2 0x1775 JUMP JUMPDEST PUSH1 0x40 MLOAD DUP1 SWAP2 SUB SWAP1 RETURN JUMPDEST PUSH2 0x388 PUSH1 0x4 DUP1 CALLDATASIZE SUB DUP2 ADD SWAP1 PUSH2 0x383 SWAP2 SWAP1 PUSH2 0x1822 JUMP JUMPDEST PUSH2 0xB6D JUMP JUMPDEST PUSH1 0x40 MLOAD PUSH2 0x395 SWAP2 SWAP1 PUSH2 0x187A JUMP JUMPDEST PUSH1 0x40 MLOAD DUP1 SWAP2 SUB SWAP1 RETURN JUMPDEST PUSH2 0x3B8 PUSH1 0x4 DUP1 CALLDATASIZE SUB DUP2 ADD SWAP1 PUSH2 0x3B3 SWAP2 SWAP1 PUSH2 0x1A15 JUMP JUMPDEST PUSH2 0xB8F JUMP JUMPDEST STOP JUMPDEST PUSH2 0x3C2 PUSH2 0xC7E JUMP JUMPDEST PUSH1 0x40 MLOAD PUSH2 0x3CF SWAP2 SWAP1 PUSH2 0x19FC JUMP JUMPDEST PUSH1 0x40 MLOAD DUP1 SWAP2 SUB SWAP1 RETURN JUMPDEST PUSH2 0x3F2 PUSH1 0x4 DUP1 CALLDATASIZE SUB DUP2 ADD SWAP1 PUSH2 0x3ED SWAP2 SWAP1 PUSH2 0x1AB9 JUMP JUMPDEST PUSH2 0xCA3 JUMP JUMPDEST PUSH1 0x40 MLOAD PUSH2 0x3FF SWAP2 SWAP1 PUSH2 0x18A2 JUMP JUMPDEST PUSH1 0x40 MLOAD DUP1 SWAP2 SUB SWAP1 RETURN JUMPDEST PUSH2 0x422 PUSH1 0x4 DUP1 CALLDATASIZE SUB DUP2 ADD SWAP1 PUSH2 0x41D SWAP2 SWAP1 PUSH2 0x19C2 JUMP JUMPDEST PUSH2 0xD25 JUMP JUMPDEST STOP JUMPDEST PUSH2 0x43E PUSH1 0x4 DUP1 CALLDATASIZE SUB DUP2 ADD SWAP1 PUSH2 0x439 SWAP2 SWAP1 PUSH2 0x19C2 JUMP JUMPDEST PUSH2 0xE15 JUMP JUMPDEST STOP JUMPDEST PUSH2 0x448 PUSH2 0xE99 JUMP JUMPDEST DUP1 PUSH1 0x6 SWAP1 DUP2 PUSH2 0x457 SWAP2 SWAP1 PUSH2 0x1CF1 JUMP JUMPDEST POP POP JUMP JUMPDEST PUSH1 0x60 PUSH1 0x3 DUP1 SLOAD PUSH2 0x46A SWAP1 PUSH2 0x1B24 JUMP JUMPDEST DUP1 PUSH1 0x1F ADD PUSH1 0x20 DUP1 SWAP2 DIV MUL PUSH1 0x20 ADD PUSH1 0x40 MLOAD SWAP1 DUP2 ADD PUSH1 0x40 MSTORE DUP1 SWAP3 SWAP2 SWAP1 DUP2 DUP2 MSTORE PUSH1 0x20 ADD DUP3 DUP1 SLOAD PUSH2 0x496 SWAP1 PUSH2 0x1B24 JUMP JUMPDEST DUP1 ISZERO PUSH2 0x4E1 JUMPI DUP1 PUSH1 0x1F LT PUSH2 0x4B8 JUMPI PUSH2 0x100 DUP1 DUP4 SLOAD DIV MUL DUP4 MSTORE SWAP2 PUSH1 0x20 ADD SWAP2 PUSH2 0x4E1 JUMP JUMPDEST DUP3 ADD SWAP2 SWAP1 PUSH0 MSTORE PUSH1 0x20 PUSH0 KECCAK256 SWAP1 JUMPDEST DUP2 SLOAD DUP2 MSTORE SWAP1 PUSH1 0x1 ADD SWAP1 PUSH1 0x20 ADD DUP1 DUP4 GT PUSH2 0x4C4 JUMPI DUP3 SWAP1 SUB PUSH1 0x1F AND DUP3 ADD SWAP2 JUMPDEST POP POP POP POP POP SWAP1 POP SWAP1 JUMP JUMPDEST PUSH0 DUP1 PUSH2 0x4F5 PUSH2 0xF20 JUMP JUMPDEST SWAP1 POP PUSH2 0x502 DUP2 DUP6 DUP6 PUSH2 0xF27 JUMP JUMPDEST PUSH1 0x1 SWAP2 POP POP SWAP3 SWAP2 POP POP JUMP JUMPDEST PUSH1 0x6 DUP1 SLOAD PUSH2 0x51A SWAP1 PUSH2 0x1B24 JUMP JUMPDEST DUP1 PUSH1 0x1F ADD PUSH1 0x20 DUP1 SWAP2 DIV MUL PUSH1 0x20 ADD PUSH1 0x40 MLOAD SWAP1 DUP2 ADD PUSH1 0x40 MSTORE DUP1 SWAP3 SWAP2 SWAP1 DUP2 DUP2 MSTORE PUSH1 0x20 ADD DUP3 DUP1 SLOAD PUSH2 0x546 SWAP1 PUSH2 0x1B24 JUMP JUMPDEST DUP1 ISZERO PUSH2 0x591 JUMPI DUP1 PUSH1 0x1F LT PUSH2 0x568 JUMPI PUSH2 0x100 DUP1 DUP4 SLOAD DIV MUL DUP4 MSTORE SWAP2 PUSH1 0x20 ADD SWAP2 PUSH2 0x591 JUMP JUMPDEST DUP3 ADD SWAP2 SWAP1 PUSH0 MSTORE PUSH1 0x20 PUSH0 KECCAK256 SWAP1 JUMPDEST DUP2 SLOAD DUP2 MSTORE SWAP1 PUSH1 0x1 ADD SWAP1 PUSH1 0x20 ADD DUP1 DUP4 GT PUSH2 0x574 JUMPI DUP3 SWAP1 SUB PUSH1 0x1F AND DUP3 ADD SWAP2 JUMPDEST POP POP POP POP POP DUP2 JUMP JUMPDEST PUSH0 PUSH1 0x2 SLOAD SWAP1 POP SWAP1 JUMP JUMPDEST PUSH1 0x7 DUP1 SLOAD PUSH2 0x5AF SWAP1 PUSH2 0x1B24 JUMP JUMPDEST DUP1 PUSH1 0x1F ADD PUSH1 0x20 DUP1 SWAP2 DIV MUL PUSH1 0x20 ADD PUSH1 0x40 MLOAD SWAP1 DUP2 ADD PUSH1 0x40 MSTORE DUP1 SWAP3 SWAP2 SWAP1 DUP2 DUP2 MSTORE PUSH1 0x20 ADD DUP3 DUP1 SLOAD PUSH2 0x5DB SWAP1 PUSH2 0x1B24 JUMP JUMPDEST DUP1 ISZERO PUSH2 0x626 JUMPI DUP1 PUSH1 0x1F LT PUSH2 0x5FD JUMPI PUSH2 0x100 DUP1 DUP4 SLOAD DIV MUL DUP4 MSTORE SWAP2 PUSH1 0x20 ADD SWAP2 PUSH2 0x626 JUMP JUMPDEST DUP3 ADD SWAP2 SWAP1 PUSH0 MSTORE PUSH1 0x20 PUSH0 KECCAK256 SWAP1 JUMPDEST DUP2 SLOAD DUP2 MSTORE SWAP1 PUSH1 0x1 ADD SWAP1 PUSH1 0x20 ADD DUP1 DUP4 GT PUSH2 0x609 JUMPI DUP3 SWAP1 SUB PUSH1 0x1F AND DUP3 ADD SWAP2 JUMPDEST POP POP POP POP POP DUP2 JUMP JUMPDEST PUSH0 DUP1 PUSH2 0x638 PUSH2 0xF20 JUMP JUMPDEST SWAP1 POP PUSH2 0x645 DUP6 DUP3 DUP6 PUSH2 0xF39 JUMP JUMPDEST PUSH2 0x650 DUP6 DUP6 DUP6 PUSH2 0xFCC JUMP JUMPDEST PUSH1 0x1 SWAP2 POP POP SWAP4 SWAP3 POP POP POP JUMP JUMPDEST PUSH0 PUSH1 0x12 SWAP1 POP SWAP1 JUMP JUMPDEST PUSH12 0x409F9CBC7C4A04C220000000 DUP2 JUMP JUMPDEST PUSH1 0x60 DUP1 PUSH0 PUSH1 0x60 PUSH0 PUSH1 0x9 DUP7 DUP2 SLOAD DUP2 LT PUSH2 0x68F JUMPI PUSH2 0x68E PUSH2 0x1DC0 JUMP JUMPDEST JUMPDEST SWAP1 PUSH0 MSTORE PUSH1 0x20 PUSH0 KECCAK256 SWAP1 PUSH1 0x4 MUL ADD PUSH1 0x40 MLOAD DUP1 PUSH1 0x80 ADD PUSH1 0x40 MSTORE SWAP1 DUP2 PUSH0 DUP3 ADD DUP1 SLOAD PUSH2 0x6B5 SWAP1 PUSH2 0x1B24 JUMP JUMPDEST DUP1 PUSH1 0x1F ADD PUSH1 0x20 DUP1 SWAP2 DIV MUL PUSH1 0x20 ADD PUSH1 0x40 MLOAD SWAP1 DUP2 ADD PUSH1 0x40 MSTORE DUP1 SWAP3 SWAP2 SWAP1 DUP2 DUP2 MSTORE PUSH1 0x20 ADD DUP3 DUP1 SLOAD PUSH2 0x6E1 SWAP1 PUSH2 0x1B24 JUMP JUMPDEST DUP1 ISZERO PUSH2 0x72C JUMPI DUP1 PUSH1 0x1F LT PUSH2 0x703 JUMPI PUSH2 0x100 DUP1 DUP4 SLOAD DIV MUL DUP4 MSTORE SWAP2 PUSH1 0x20 ADD SWAP2 PUSH2 0x72C JUMP JUMPDEST DUP3 ADD SWAP2 SWAP1 PUSH0 MSTORE PUSH1 0x20 PUSH0 KECCAK256 SWAP1 JUMPDEST DUP2 SLOAD DUP2 MSTORE SWAP1 PUSH1 0x1 ADD SWAP1 PUSH1 0x20 ADD DUP1 DUP4 GT PUSH2 0x70F JUMPI DUP3 SWAP1 SUB PUSH1 0x1F AND DUP3 ADD SWAP2 JUMPDEST POP POP POP POP POP DUP2 MSTORE PUSH1 0x20 ADD PUSH1 0x1 DUP3 ADD DUP1 SLOAD PUSH2 0x745 SWAP1 PUSH2 0x1B24 JUMP JUMPDEST DUP1 PUSH1 0x1F ADD PUSH1 0x20 DUP1 SWAP2 DIV MUL PUSH1 0x20 ADD PUSH1 0x40 MLOAD SWAP1 DUP2 ADD PUSH1 0x40 MSTORE DUP1 SWAP3 SWAP2 SWAP1 DUP2 DUP2 MSTORE PUSH1 0x20 ADD DUP3 DUP1 SLOAD PUSH2 0x771 SWAP1 PUSH2 0x1B24 JUMP JUMPDEST DUP1 ISZERO PUSH2 0x7BC JUMPI DUP1 PUSH1 0x1F LT PUSH2 0x793 JUMPI PUSH2 0x100 DUP1 DUP4 SLOAD DIV MUL DUP4 MSTORE SWAP2 PUSH1 0x20 ADD SWAP2 PUSH2 0x7BC JUMP JUMPDEST DUP3 ADD SWAP2 SWAP1 PUSH0 MSTORE PUSH1 0x20 PUSH0 KECCAK256 SWAP1 JUMPDEST DUP2 SLOAD DUP2 MSTORE SWAP1 PUSH1 0x1 ADD SWAP1 PUSH1 0x20 ADD DUP1 DUP4 GT PUSH2 0x79F JUMPI DUP3 SWAP1 SUB PUSH1 0x1F AND DUP3 ADD SWAP2 JUMPDEST POP POP POP POP POP DUP2 MSTORE PUSH1 0x20 ADD PUSH1 0x2 DUP3 ADD SLOAD DUP2 MSTORE PUSH1 0x20 ADD PUSH1 0x3 DUP3 ADD DUP1 SLOAD PUSH2 0x7DF SWAP1 PUSH2 0x1B24 JUMP JUMPDEST DUP1 PUSH1 0x1F ADD PUSH1 0x20 DUP1 SWAP2 DIV MUL PUSH1 0x20 ADD PUSH1 0x40 MLOAD SWAP1 DUP2 ADD PUSH1 0x40 MSTORE DUP1 SWAP3 SWAP2 SWAP1 DUP2 DUP2 MSTORE PUSH1 0x20 ADD DUP3 DUP1 SLOAD PUSH2 0x80B SWAP1 PUSH2 0x1B24 JUMP JUMPDEST DUP1 ISZERO PUSH2 0x856 JUMPI DUP1 PUSH1 0x1F LT PUSH2 0x82D JUMPI PUSH2 0x100 DUP1 DUP4 SLOAD DIV MUL DUP4 MSTORE SWAP2 PUSH1 0x20 ADD SWAP2 PUSH2 0x856 JUMP JUMPDEST DUP3 ADD SWAP2 SWAP1 PUSH0 MSTORE PUSH1 0x20 PUSH0 KECCAK256 SWAP1 JUMPDEST DUP2 SLOAD DUP2 MSTORE SWAP1 PUSH1 0x1 ADD SWAP1 PUSH1 0x20 ADD DUP1 DUP4 GT PUSH2 0x839 JUMPI DUP3 SWAP1 SUB PUSH1 0x1F AND DUP3 ADD SWAP2 JUMPDEST POP POP POP POP POP DUP2 MSTORE POP POP SWAP1 POP DUP1 PUSH0 ADD MLOAD DUP2 PUSH1 0x20 ADD MLOAD DUP3 PUSH1 0x40 ADD MLOAD DUP4 PUSH1 0x60 ADD MLOAD SWAP5 POP SWAP5 POP SWAP5 POP SWAP5 POP POP SWAP2 SWAP4 POP SWAP2 SWAP4 JUMP JUMPDEST PUSH1 0x9 DUP2 DUP2 SLOAD DUP2 LT PUSH2 0x893 JUMPI PUSH0 DUP1 REVERT JUMPDEST SWAP1 PUSH0 MSTORE PUSH1 0x20 PUSH0 KECCAK256 SWAP1 PUSH1 0x4 MUL ADD PUSH0 SWAP2 POP SWAP1 POP DUP1 PUSH0 ADD DUP1 SLOAD PUSH2 0x8B2 SWAP1 PUSH2 0x1B24 JUMP JUMPDEST DUP1 PUSH1 0x1F ADD PUSH1 0x20 DUP1 SWAP2 DIV MUL PUSH1 0x20 ADD PUSH1 0x40 MLOAD SWAP1 DUP2 ADD PUSH1 0x40 MSTORE DUP1 SWAP3 SWAP2 SWAP1 DUP2 DUP2 MSTORE PUSH1 0x20 ADD DUP3 DUP1 SLOAD PUSH2 0x8DE SWAP1 PUSH2 0x1B24 JUMP JUMPDEST DUP1 ISZERO PUSH2 0x929 JUMPI DUP1 PUSH1 0x1F LT PUSH2 0x900 JUMPI PUSH2 0x100 DUP1 DUP4 SLOAD DIV MUL DUP4 MSTORE SWAP2 PUSH1 0x20 ADD SWAP2 PUSH2 0x929 JUMP JUMPDEST DUP3 ADD SWAP2 SWAP1 PUSH0 MSTORE PUSH1 0x20 PUSH0 KECCAK256 SWAP1 JUMPDEST DUP2 SLOAD DUP2 MSTORE SWAP1 PUSH1 0x1 ADD SWAP1 PUSH1 0x20 ADD DUP1 DUP4 GT PUSH2 0x90C JUMPI DUP3 SWAP1 SUB PUSH1 0x1F AND DUP3 ADD SWAP2 JUMPDEST POP POP POP POP POP SWAP1 DUP1 PUSH1 0x1 ADD DUP1 SLOAD PUSH2 0x93E SWAP1 PUSH2 0x1B24 JUMP JUMPDEST DUP1 PUSH1 0x1F ADD PUSH1 0x20 DUP1 SWAP2 DIV MUL PUSH1 0x20 ADD PUSH1 0x40 MLOAD SWAP1 DUP2 ADD PUSH1 0x40 MSTORE DUP1 SWAP3 SWAP2 SWAP1 DUP2 DUP2 MSTORE PUSH1 0x20 ADD DUP3 DUP1 SLOAD PUSH2 0x96A SWAP1 PUSH2 0x1B24 JUMP JUMPDEST DUP1 ISZERO PUSH2 0x9B5 JUMPI DUP1 PUSH1 0x1F LT PUSH2 0x98C JUMPI PUSH2 0x100 DUP1 DUP4 SLOAD DIV MUL DUP4 MSTORE SWAP2 PUSH1 0x20 ADD SWAP2 PUSH2 0x9B5 JUMP JUMPDEST DUP3 ADD SWAP2 SWAP1 PUSH0 MSTORE PUSH1 0x20 PUSH0 KECCAK256 SWAP1 JUMPDEST DUP2 SLOAD DUP2 MSTORE SWAP1 PUSH1 0x1 ADD SWAP1 PUSH1 0x20 ADD DUP1 DUP4 GT PUSH2 0x998 JUMPI DUP3 SWAP1 SUB PUSH1 0x1F AND DUP3 ADD SWAP2 JUMPDEST POP POP POP POP POP SWAP1 DUP1 PUSH1 0x2 ADD SLOAD SWAP1 DUP1 PUSH1 0x3 ADD DUP1 SLOAD PUSH2 0x9D0 SWAP1 PUSH2 0x1B24 JUMP JUMPDEST DUP1 PUSH1 0x1F ADD PUSH1 0x20 DUP1 SWAP2 DIV MUL PUSH1 0x20 ADD PUSH1 0x40 MLOAD SWAP1 DUP2 ADD PUSH1 0x40 MSTORE DUP1 SWAP3 SWAP2 SWAP1 DUP2 DUP2 MSTORE PUSH1 0x20 ADD DUP3 DUP1 SLOAD PUSH2 0x9FC SWAP1 PUSH2 0x1B24 JUMP JUMPDEST DUP1 ISZERO PUSH2 0xA47 JUMPI DUP1 PUSH1 0x1F LT PUSH2 0xA1E JUMPI PUSH2 0x100 DUP1 DUP4 SLOAD DIV MUL DUP4 MSTORE SWAP2 PUSH1 0x20 ADD SWAP2 PUSH2 0xA47 JUMP JUMPDEST DUP3 ADD SWAP2 SWAP1 PUSH0 MSTORE PUSH1 0x20 PUSH0 KECCAK256 SWAP1 JUMPDEST DUP2 SLOAD DUP2 MSTORE SWAP1 PUSH1 0x1 ADD SWAP1 PUSH1 0x20 ADD DUP1 DUP4 GT PUSH2 0xA2A JUMPI DUP3 SWAP1 SUB PUSH1 0x1F AND DUP3 ADD SWAP2 JUMPDEST POP POP POP POP POP SWAP1 POP DUP5 JUMP JUMPDEST PUSH0 DUP1 PUSH0 DUP4 PUSH20 0xFFFFFFFFFFFFFFFFFFFFFFFFFFFFFFFFFFFFFFFF AND PUSH20 0xFFFFFFFFFFFFFFFFFFFFFFFFFFFFFFFFFFFFFFFF AND DUP2 MSTORE PUSH1 0x20 ADD SWAP1 DUP2 MSTORE PUSH1 0x20 ADD PUSH0 KECCAK256 SLOAD SWAP1 POP SWAP2 SWAP1 POP JUMP JUMPDEST PUSH2 0xA9E PUSH2 0xE99 JUMP JUMPDEST PUSH2 0xAA7 PUSH0 PUSH2 0x10BC JUMP JUMPDEST JUMP JUMPDEST PUSH0 PUSH1 0x5 PUSH0 SWAP1 SLOAD SWAP1 PUSH2 0x100 EXP SWAP1 DIV PUSH20 0xFFFFFFFFFFFFFFFFFFFFFFFFFFFFFFFFFFFFFFFF AND SWAP1 POP SWAP1 JUMP JUMPDEST PUSH0 PUSH1 0x9 DUP1 SLOAD SWAP1 POP SWAP1 POP SWAP1 JUMP JUMPDEST PUSH1 0x60 PUSH1 0x4 DUP1 SLOAD PUSH2 0xAEC SWAP1 PUSH2 0x1B24 JUMP JUMPDEST DUP1 PUSH1 0x1F ADD PUSH1 0x20 DUP1 SWAP2 DIV MUL PUSH1 0x20 ADD PUSH1 0x40 MLOAD SWAP1 DUP2 ADD PUSH1 0x40 MSTORE DUP1 SWAP3 SWAP2 SWAP1 DUP2 DUP2 MSTORE PUSH1 0x20 ADD DUP3 DUP1 SLOAD PUSH2 0xB18 SWAP1 PUSH2 0x1B24 JUMP JUMPDEST DUP1 ISZERO PUSH2 0xB63 JUMPI DUP1 PUSH1 0x1F LT PUSH2 0xB3A JUMPI PUSH2 0x100 DUP1 DUP4 SLOAD DIV MUL DUP4 MSTORE SWAP2 PUSH1 0x20 ADD SWAP2 PUSH2 0xB63 JUMP JUMPDEST DUP3 ADD SWAP2 SWAP1 PUSH0 MSTORE PUSH1 0x20 PUSH0 KECCAK256 SWAP1 JUMPDEST DUP2 SLOAD DUP2 MSTORE SWAP1 PUSH1 0x1 ADD SWAP1 PUSH1 0x20 ADD DUP1 DUP4 GT PUSH2 0xB46 JUMPI DUP3 SWAP1 SUB PUSH1 0x1F AND DUP3 ADD SWAP2 JUMPDEST POP POP POP POP POP SWAP1 POP SWAP1 JUMP JUMPDEST PUSH0 DUP1 PUSH2 0xB77 PUSH2 0xF20 JUMP JUMPDEST SWAP1 POP PUSH2 0xB84 DUP2 DUP6 DUP6 PUSH2 0xFCC JUMP JUMPDEST PUSH1 0x1 SWAP2 POP POP SWAP3 SWAP2 POP POP JUMP JUMPDEST PUSH2 0xB97 PUSH2 0xE99 JUMP JUMPDEST PUSH1 0x9 PUSH1 0x40 MLOAD DUP1 PUSH1 0x80 ADD PUSH1 0x40 MSTORE DUP1 DUP6 DUP2 MSTORE PUSH1 0x20 ADD DUP5 DUP2 MSTORE PUSH1 0x20 ADD TIMESTAMP DUP2 MSTORE PUSH1 0x20 ADD DUP4 DUP2 MSTORE POP SWAP1 DUP1 PUSH1 0x1 DUP2 SLOAD ADD DUP1 DUP3 SSTORE DUP1 SWAP2 POP POP PUSH1 0x1 SWAP1 SUB SWAP1 PUSH0 MSTORE PUSH1 0x20 PUSH0 KECCAK256 SWAP1 PUSH1 0x4 MUL ADD PUSH0 SWAP1 SWAP2 SWAP1 SWAP2 SWAP1 SWAP2 POP PUSH0 DUP3 ADD MLOAD DUP2 PUSH0 ADD SWAP1 DUP2 PUSH2 0xBF3 SWAP2 SWAP1 PUSH2 0x1CF1 JUMP JUMPDEST POP PUSH1 0x20 DUP3 ADD MLOAD DUP2 PUSH1 0x1 ADD SWAP1 DUP2 PUSH2 0xC09 SWAP2 SWAP1 PUSH2 0x1CF1 JUMP JUMPDEST POP PUSH1 0x40 DUP3 ADD MLOAD DUP2 PUSH1 0x2 ADD SSTORE PUSH1 0x60 DUP3 ADD MLOAD DUP2 PUSH1 0x3 ADD SWAP1 DUP2 PUSH2 0xC29 SWAP2 SWAP1 PUSH2 0x1CF1 JUMP JUMPDEST POP POP POP PUSH1 0x1 PUSH1 0x9 DUP1 SLOAD SWAP1 POP PUSH2 0xC3E SWAP2 SWAP1 PUSH2 0x1E1A JUMP JUMPDEST PUSH32 0x2774E9EF4AFEF65425B7A7FBFD20AD10AE87A2BE53C24FD3C78CC311981BC848 DUP5 DUP5 DUP5 PUSH1 0x40 MLOAD PUSH2 0xC71 SWAP4 SWAP3 SWAP2 SWAP1 PUSH2 0x1E4D JUMP JUMPDEST PUSH1 0x40 MLOAD DUP1 SWAP2 SUB SWAP1 LOG2 POP POP POP JUMP JUMPDEST PUSH1 0x8 PUSH0 SWAP1 SLOAD SWAP1 PUSH2 0x100 EXP SWAP1 DIV PUSH20 0xFFFFFFFFFFFFFFFFFFFFFFFFFFFFFFFFFFFFFFFF AND DUP2 JUMP JUMPDEST PUSH0 PUSH1 0x1 PUSH0 DUP5 PUSH20 0xFFFFFFFFFFFFFFFFFFFFFFFFFFFFFFFFFFFFFFFF AND PUSH20 0xFFFFFFFFFFFFFFFFFFFFFFFFFFFFFFFFFFFFFFFF AND DUP2 MSTORE PUSH1 0x20 ADD SWAP1 DUP2 MSTORE PUSH1 0x20 ADD PUSH0 KECCAK256 PUSH0 DUP4 PUSH20 0xFFFFFFFFFFFFFFFFFFFFFFFFFFFFFFFFFFFFFFFF AND PUSH20 0xFFFFFFFFFFFFFFFFFFFFFFFFFFFFFFFFFFFFFFFF AND DUP2 MSTORE PUSH1 0x20 ADD SWAP1 DUP2 MSTORE PUSH1 0x20 ADD PUSH0 KECCAK256 SLOAD SWAP1 POP SWAP3 SWAP2 POP POP JUMP JUMPDEST PUSH2 0xD2D PUSH2 0xE99 JUMP JUMPDEST PUSH0 PUSH20 0xFFFFFFFFFFFFFFFFFFFFFFFFFFFFFFFFFFFFFFFF AND DUP2 PUSH20 0xFFFFFFFFFFFFFFFFFFFFFFFFFFFFFFFFFFFFFFFF AND SUB PUSH2 0xD9B JUMPI PUSH1 0x40 MLOAD PUSH32 0x8C379A000000000000000000000000000000000000000000000000000000000 DUP2 MSTORE PUSH1 0x4 ADD PUSH2 0xD92 SWAP1 PUSH2 0x1EE1 JUMP JUMPDEST PUSH1 0x40 MLOAD DUP1 SWAP2 SUB SWAP1 REVERT JUMPDEST DUP1 PUSH1 0x8 PUSH0 PUSH2 0x100 EXP DUP2 SLOAD DUP2 PUSH20 0xFFFFFFFFFFFFFFFFFFFFFFFFFFFFFFFFFFFFFFFF MUL NOT AND SWAP1 DUP4 PUSH20 0xFFFFFFFFFFFFFFFFFFFFFFFFFFFFFFFFFFFFFFFF AND MUL OR SWAP1 SSTORE POP PUSH32 0xB6682970C3624FF1F1130C7910F4F5A7619C2356DC365283EB44E7806DC1A86F DUP2 PUSH1 0x40 MLOAD PUSH2 0xE0A SWAP2 SWAP1 PUSH2 0x19FC JUMP JUMPDEST PUSH1 0x40 MLOAD DUP1 SWAP2 SUB SWAP1 LOG1 POP JUMP JUMPDEST PUSH2 0xE1D PUSH2 0xE99 JUMP JUMPDEST PUSH0 PUSH20 0xFFFFFFFFFFFFFFFFFFFFFFFFFFFFFFFFFFFFFFFF AND DUP2 PUSH20 0xFFFFFFFFFFFFFFFFFFFFFFFFFFFFFFFFFFFFFFFF AND SUB PUSH2 0xE8D JUMPI PUSH0 PUSH1 0x40 MLOAD PUSH32 0x1E4FBDF700000000000000000000000000000000000000000000000000000000 DUP2 MSTORE PUSH1 0x4 ADD PUSH2 0xE84 SWAP2 SWAP1 PUSH2 0x19FC JUMP JUMPDEST PUSH1 0x40 MLOAD DUP1 SWAP2 SUB SWAP1 REVERT JUMPDEST PUSH2 0xE96 DUP2 PUSH2 0x10BC JUMP JUMPDEST POP JUMP JUMPDEST PUSH2 0xEA1 PUSH2 0xF20 JUMP JUMPDEST PUSH20 0xFFFFFFFFFFFFFFFFFFFFFFFFFFFFFFFFFFFFFFFF AND PUSH2 0xEBF PUSH2 0xAA9 JUMP JUMPDEST PUSH20 0xFFFFFFFFFFFFFFFFFFFFFFFFFFFFFFFFFFFFFFFF AND EQ PUSH2 0xF1E JUMPI PUSH2 0xEE2 PUSH2 0xF20 JUMP JUMPDEST PUSH1 0x40 MLOAD PUSH32 0x118CDAA700000000000000000000000000000000000000000000000000000000 DUP2 MSTORE PUSH1 0x4 ADD PUSH2 0xF15 SWAP2 SWAP1 PUSH2 0x19FC JUMP JUMPDEST PUSH1 0x40 MLOAD DUP1 SWAP2 SUB SWAP1 REVERT JUMPDEST JUMP JUMPDEST PUSH0 CALLER SWAP1 POP SWAP1 JUMP JUMPDEST PUSH2 0xF34 DUP4 DUP4 DUP4 PUSH1 0x1 PUSH2 0x117F JUMP JUMPDEST POP POP POP JUMP JUMPDEST PUSH0 PUSH2 0xF44 DUP5 DUP5 PUSH2 0xCA3 JUMP JUMPDEST SWAP1 POP PUSH32 0xFFFFFFFFFFFFFFFFFFFFFFFFFFFFFFFFFFFFFFFFFFFFFFFFFFFFFFFFFFFFFFFF DUP2 LT ISZERO PUSH2 0xFC6 JUMPI DUP2 DUP2 LT ISZERO PUSH2 0xFB7 JUMPI DUP3 DUP2 DUP4 PUSH1 0x40 MLOAD PUSH32 0xFB8F41B200000000000000000000000000000000000000000000000000000000 DUP2 MSTORE PUSH1 0x4 ADD PUSH2 0xFAE SWAP4 SWAP3 SWAP2 SWAP1 PUSH2 0x1EFF JUMP JUMPDEST PUSH1 0x40 MLOAD DUP1 SWAP2 SUB SWAP1 REVERT JUMPDEST PUSH2 0xFC5 DUP5 DUP5 DUP5 DUP5 SUB PUSH0 PUSH2 0x117F JUMP JUMPDEST JUMPDEST POP POP POP POP JUMP JUMPDEST PUSH0 PUSH20 0xFFFFFFFFFFFFFFFFFFFFFFFFFFFFFFFFFFFFFFFF AND DUP4 PUSH20 0xFFFFFFFFFFFFFFFFFFFFFFFFFFFFFFFFFFFFFFFF AND SUB PUSH2 0x103C JUMPI PUSH0 PUSH1 0x40 MLOAD PUSH32 0x96C6FD1E00000000000000000000000000000000000000000000000000000000 DUP2 MSTORE PUSH1 0x4 ADD PUSH2 0x1033 SWAP2 SWAP1 PUSH2 0x19FC JUMP JUMPDEST PUSH1 0x40 MLOAD DUP1 SWAP2 SUB SWAP1 REVERT JUMPDEST PUSH0 PUSH20 0xFFFFFFFFFFFFFFFFFFFFFFFFFFFFFFFFFFFFFFFF AND DUP3 PUSH20 0xFFFFFFFFFFFFFFFFFFFFFFFFFFFFFFFFFFFFFFFF AND SUB PUSH2 0x10AC JUMPI PUSH0 PUSH1 0x40 MLOAD PUSH32 0xEC442F0500000000000000000000000000000000000000000000000000000000 DUP2 MSTORE PUSH1 0x4 ADD PUSH2 0x10A3 SWAP2 SWAP1 PUSH2 0x19FC JUMP JUMPDEST PUSH1 0x40 MLOAD DUP1 SWAP2 SUB SWAP1 REVERT JUMPDEST PUSH2 0x10B7 DUP4 DUP4 DUP4 PUSH2 0x134E JUMP JUMPDEST POP POP POP JUMP JUMPDEST PUSH0 PUSH1 0x5 PUSH0 SWAP1 SLOAD SWAP1 PUSH2 0x100 EXP SWAP1 DIV PUSH20 0xFFFFFFFFFFFFFFFFFFFFFFFFFFFFFFFFFFFFFFFF AND SWAP1 POP DUP2 PUSH1 0x5 PUSH0 PUSH2 0x100 EXP DUP2 SLOAD DUP2 PUSH20 0xFFFFFFFFFFFFFFFFFFFFFFFFFFFFFFFFFFFFFFFF MUL NOT AND SWAP1 DUP4 PUSH20 0xFFFFFFFFFFFFFFFFFFFFFFFFFFFFFFFFFFFFFFFF AND MUL OR SWAP1 SSTORE POP DUP2 PUSH20 0xFFFFFFFFFFFFFFFFFFFFFFFFFFFFFFFFFFFFFFFF AND DUP2 PUSH20 0xFFFFFFFFFFFFFFFFFFFFFFFFFFFFFFFFFFFFFFFF AND PUSH32 0x8BE0079C531659141344CD1FD0A4F28419497F9722A3DAAFE3B4186F6B6457E0 PUSH1 0x40 MLOAD PUSH1 0x40 MLOAD DUP1 SWAP2 SUB SWAP1 LOG3 POP POP JUMP JUMPDEST PUSH0 PUSH20 0xFFFFFFFFFFFFFFFFFFFFFFFFFFFFFFFFFFFFFFFF AND DUP5 PUSH20 0xFFFFFFFFFFFFFFFFFFFFFFFFFFFFFFFFFFFFFFFF AND SUB PUSH2 0x11EF JUMPI PUSH0 PUSH1 0x40 MLOAD PUSH32 0xE602DF0500000000000000000000000000000000000000000000000000000000 DUP2 MSTORE PUSH1 0x4 ADD PUSH2 0x11E6 SWAP2 SWAP1 PUSH2 0x19FC JUMP JUMPDEST PUSH1 0x40 MLOAD DUP1 SWAP2 SUB SWAP1 REVERT JUMPDEST PUSH0 PUSH20 0xFFFFFFFFFFFFFFFFFFFFFFFFFFFFFFFFFFFFFFFF AND DUP4 PUSH20 0xFFFFFFFFFFFFFFFFFFFFFFFFFFFFFFFFFFFFFFFF AND SUB PUSH2 0x125F JUMPI PUSH0 PUSH1 0x40 MLOAD PUSH32 0x94280D6200000000000000000000000000000000000000000000000000000000 DUP2 MSTORE PUSH1 0x4 ADD PUSH2 0x1256 SWAP2 SWAP1 PUSH2 0x19FC JUMP JUMPDEST PUSH1 0x40 MLOAD DUP1 SWAP2 SUB SWAP1 REVERT JUMPDEST DUP2 PUSH1 0x1 PUSH0 DUP7 PUSH20 0xFFFFFFFFFFFFFFFFFFFFFFFFFFFFFFFFFFFFFFFF AND PUSH20 0xFFFFFFFFFFFFFFFFFFFFFFFFFFFFFFFFFFFFFFFF AND DUP2 MSTORE PUSH1 0x20 ADD SWAP1 DUP2 MSTORE PUSH1 0x20 ADD PUSH0 KECCAK256 PUSH0 DUP6 PUSH20 0xFFFFFFFFFFFFFFFFFFFFFFFFFFFFFFFFFFFFFFFF AND PUSH20 0xFFFFFFFFFFFFFFFFFFFFFFFFFFFFFFFFFFFFFFFF AND DUP2 MSTORE PUSH1 0x20 ADD SWAP1 DUP2 MSTORE PUSH1 0x20 ADD PUSH0 KECCAK256 DUP2 SWAP1 SSTORE POP DUP1 ISZERO PUSH2 0x1348 JUMPI DUP3 PUSH20 0xFFFFFFFFFFFFFFFFFFFFFFFFFFFFFFFFFFFFFFFF AND DUP5 PUSH20 0xFFFFFFFFFFFFFFFFFFFFFFFFFFFFFFFFFFFFFFFF AND PUSH32 0x8C5BE1E5EBEC7D5BD14F71427D1E84F3DD0314C0F7B2291E5B200AC8C7C3B925 DUP5 PUSH1 0x40 MLOAD PUSH2 0x133F SWAP2 SWAP1 PUSH2 0x18A2 JUMP JUMPDEST PUSH1 0x40 MLOAD DUP1 SWAP2 SUB SWAP1 LOG3 JUMPDEST POP POP POP POP JUMP JUMPDEST PUSH0 PUSH20 0xFFFFFFFFFFFFFFFFFFFFFFFFFFFFFFFFFFFFFFFF AND DUP4 PUSH20 0xFFFFFFFFFFFFFFFFFFFFFFFFFFFFFFFFFFFFFFFF AND SUB PUSH2 0x139E JUMPI DUP1 PUSH1 0x2 PUSH0 DUP3 DUP3 SLOAD PUSH2 0x1392 SWAP2 SWAP1 PUSH2 0x1F34 JUMP JUMPDEST SWAP3 POP POP DUP2 SWAP1 SSTORE POP PUSH2 0x146C JUMP JUMPDEST PUSH0 DUP1 PUSH0 DUP6 PUSH20 0xFFFFFFFFFFFFFFFFFFFFFFFFFFFFFFFFFFFFFFFF AND PUSH20 0xFFFFFFFFFFFFFFFFFFFFFFFFFFFFFFFFFFFFFFFF AND DUP2 MSTORE PUSH1 0x20 ADD SWAP1 DUP2 MSTORE PUSH1 0x20 ADD PUSH0 KECCAK256 SLOAD SWAP1 POP DUP2 DUP2 LT ISZERO PUSH2 0x1427 JUMPI DUP4 DUP2 DUP4 PUSH1 0x40 MLOAD PUSH32 0xE450D38C00000000000000000000000000000000000000000000000000000000 DUP2 MSTORE PUSH1 0x4 ADD PUSH2 0x141E SWAP4 SWAP3 SWAP2 SWAP1 PUSH2 0x1EFF JUMP JUMPDEST PUSH1 0x40 MLOAD DUP1 SWAP2 SUB SWAP1 REVERT JUMPDEST DUP2 DUP2 SUB PUSH0 DUP1 DUP7 PUSH20 0xFFFFFFFFFFFFFFFFFFFFFFFFFFFFFFFFFFFFFFFF AND PUSH20 0xFFFFFFFFFFFFFFFFFFFFFFFFFFFFFFFFFFFFFFFF AND DUP2 MSTORE PUSH1 0x20 ADD SWAP1 DUP2 MSTORE PUSH1 0x20 ADD PUSH0 KECCAK256 DUP2 SWAP1 SSTORE POP POP JUMPDEST PUSH0 PUSH20 0xFFFFFFFFFFFFFFFFFFFFFFFFFFFFFFFFFFFFFFFF AND DUP3 PUSH20 0xFFFFFFFFFFFFFFFFFFFFFFFFFFFFFFFFFFFFFFFF AND SUB PUSH2 0x14B3 JUMPI DUP1 PUSH1 0x2 PUSH0 DUP3 DUP3 SLOAD SUB SWAP3 POP POP DUP2 SWAP1 SSTORE POP PUSH2 0x14FD JUMP JUMPDEST DUP1 PUSH0 DUP1 DUP5 PUSH20 0xFFFFFFFFFFFFFFFFFFFFFFFFFFFFFFFFFFFFFFFF AND PUSH20 0xFFFFFFFFFFFFFFFFFFFFFFFFFFFFFFFFFFFFFFFF AND DUP2 MSTORE PUSH1 0x20 ADD SWAP1 DUP2 MSTORE PUSH1 0x20 ADD PUSH0 KECCAK256 PUSH0 DUP3 DUP3 SLOAD ADD SWAP3 POP POP DUP2 SWAP1 SSTORE POP JUMPDEST DUP2 PUSH20 0xFFFFFFFFFFFFFFFFFFFFFFFFFFFFFFFFFFFFFFFF AND DUP4 PUSH20 0xFFFFFFFFFFFFFFFFFFFFFFFFFFFFFFFFFFFFFFFF AND PUSH32 0xDDF252AD1BE2C89B69C2B068FC378DAA952BA7F163C4A11628F55A4DF523B3EF DUP4 PUSH1 0x40 MLOAD PUSH2 0x155A SWAP2 SWAP1 PUSH2 0x18A2 JUMP JUMPDEST PUSH1 0x40 MLOAD DUP1 SWAP2 SUB SWAP1 LOG3 POP POP POP JUMP JUMPDEST PUSH0 PUSH1 0x40 MLOAD SWAP1 POP SWAP1 JUMP JUMPDEST PUSH0 DUP1 REVERT JUMPDEST PUSH0 DUP1 REVERT JUMPDEST PUSH0 DUP1 REVERT JUMPDEST PUSH0 DUP1 REVERT JUMPDEST PUSH0 PUSH1 0x1F NOT PUSH1 0x1F DUP4 ADD AND SWAP1 POP SWAP2 SWAP1 POP JUMP JUMPDEST PUSH32 0x4E487B7100000000000000000000000000000000000000000000000000000000 PUSH0 MSTORE PUSH1 0x41 PUSH1 0x4 MSTORE PUSH1 0x24 PUSH0 REVERT JUMPDEST PUSH2 0x15C6 DUP3 PUSH2 0x1580 JUMP JUMPDEST DUP2 ADD DUP2 DUP2 LT PUSH8 0xFFFFFFFFFFFFFFFF DUP3 GT OR ISZERO PUSH2 0x15E5 JUMPI PUSH2 0x15E4 PUSH2 0x1590 JUMP JUMPDEST JUMPDEST DUP1 PUSH1 0x40 MSTORE POP POP POP JUMP JUMPDEST PUSH0 PUSH2 0x15F7 PUSH2 0x1567 JUMP JUMPDEST SWAP1 POP PUSH2 0x1603 DUP3 DUP3 PUSH2 0x15BD JUMP JUMPDEST SWAP2 SWAP1 POP JUMP JUMPDEST PUSH0 PUSH8 0xFFFFFFFFFFFFFFFF DUP3 GT ISZERO PUSH2 0x1622 JUMPI PUSH2 0x1621 PUSH2 0x1590 JUMP JUMPDEST JUMPDEST PUSH2 0x162B DUP3 PUSH2 0x1580 JUMP JUMPDEST SWAP1 POP PUSH1 0x20 DUP2 ADD SWAP1 POP SWAP2 SWAP1 POP JUMP JUMPDEST DUP3 DUP2 DUP4 CALLDATACOPY PUSH0 DUP4 DUP4 ADD MSTORE POP POP POP JUMP JUMPDEST PUSH0 PUSH2 0x1658 PUSH2 0x1653 DUP5 PUSH2 0x1608 JUMP JUMPDEST PUSH2 0x15EE JUMP JUMPDEST SWAP1 POP DUP3 DUP2 MSTORE PUSH1 0x20 DUP2 ADD DUP5 DUP5 DUP5 ADD GT ISZERO PUSH2 0x1674 JUMPI PUSH2 0x1673 PUSH2 0x157C JUMP JUMPDEST JUMPDEST PUSH2 0x167F DUP5 DUP3 DUP6 PUSH2 0x1638 JUMP JUMPDEST POP SWAP4 SWAP3 POP POP POP JUMP JUMPDEST PUSH0 DUP3 PUSH1 0x1F DUP4 ADD SLT PUSH2 0x169B JUMPI PUSH2 0x169A PUSH2 0x1578 JUMP JUMPDEST JUMPDEST DUP2 CALLDATALOAD PUSH2 0x16AB DUP5 DUP3 PUSH1 0x20 DUP7 ADD PUSH2 0x1646 JUMP JUMPDEST SWAP2 POP POP SWAP3 SWAP2 POP POP JUMP JUMPDEST PUSH0 PUSH1 0x20 DUP3 DUP5 SUB SLT ISZERO PUSH2 0x16C9 JUMPI PUSH2 0x16C8 PUSH2 0x1570 JUMP JUMPDEST JUMPDEST PUSH0 DUP3 ADD CALLDATALOAD PUSH8 0xFFFFFFFFFFFFFFFF DUP2 GT ISZERO PUSH2 0x16E6 JUMPI PUSH2 0x16E5 PUSH2 0x1574 JUMP JUMPDEST JUMPDEST PUSH2 0x16F2 DUP5 DUP3 DUP6 ADD PUSH2 0x1687 JUMP JUMPDEST SWAP2 POP POP SWAP3 SWAP2 POP POP JUMP JUMPDEST PUSH0 DUP2 MLOAD SWAP1 POP SWAP2 SWAP1 POP JUMP JUMPDEST PUSH0 DUP3 DUP3 MSTORE PUSH1 0x20 DUP3 ADD SWAP1 POP SWAP3 SWAP2 POP POP JUMP JUMPDEST PUSH0 JUMPDEST DUP4 DUP2 LT ISZERO PUSH2 0x1732 JUMPI DUP1 DUP3 ADD MLOAD DUP2 DUP5 ADD MSTORE PUSH1 0x20 DUP2 ADD SWAP1 POP PUSH2 0x1717 JUMP JUMPDEST PUSH0 DUP5 DUP5 ADD MSTORE POP POP POP POP JUMP JUMPDEST PUSH0 PUSH2 0x1747 DUP3 PUSH2 0x16FB JUMP JUMPDEST PUSH2 0x1751 DUP2 DUP6 PUSH2 0x1705 JUMP JUMPDEST SWAP4 POP PUSH2 0x1761 DUP2 DUP6 PUSH1 0x20 DUP7 ADD PUSH2 0x1715 JUMP JUMPDEST PUSH2 0x176A DUP2 PUSH2 0x1580 JUMP JUMPDEST DUP5 ADD SWAP2 POP POP SWAP3 SWAP2 POP POP JUMP JUMPDEST PUSH0 PUSH1 0x20 DUP3 ADD SWAP1 POP DUP2 DUP2 SUB PUSH0 DUP4 ADD MSTORE PUSH2 0x178D DUP2 DUP5 PUSH2 0x173D JUMP JUMPDEST SWAP1 POP SWAP3 SWAP2 POP POP JUMP JUMPDEST PUSH0 PUSH20 0xFFFFFFFFFFFFFFFFFFFFFFFFFFFFFFFFFFFFFFFF DUP3 AND SWAP1 POP SWAP2 SWAP1 POP JUMP JUMPDEST PUSH0 PUSH2 0x17BE DUP3 PUSH2 0x1795 JUMP JUMPDEST SWAP1 POP SWAP2 SWAP1 POP JUMP JUMPDEST PUSH2 0x17CE DUP2 PUSH2 0x17B4 JUMP JUMPDEST DUP2 EQ PUSH2 0x17D8 JUMPI PUSH0 DUP1 REVERT JUMPDEST POP JUMP JUMPDEST PUSH0 DUP2 CALLDATALOAD SWAP1 POP PUSH2 0x17E9 DUP2 PUSH2 0x17C5 JUMP JUMPDEST SWAP3 SWAP2 POP POP JUMP JUMPDEST PUSH0 DUP2 SWAP1 POP SWAP2 SWAP1 POP JUMP JUMPDEST PUSH2 0x1801 DUP2 PUSH2 0x17EF JUMP JUMPDEST DUP2 EQ PUSH2 0x180B JUMPI PUSH0 DUP1 REVERT JUMPDEST POP JUMP JUMPDEST PUSH0 DUP2 CALLDATALOAD SWAP1 POP PUSH2 0x181C DUP2 PUSH2 0x17F8 JUMP JUMPDEST SWAP3 SWAP2 POP POP JUMP JUMPDEST PUSH0 DUP1 PUSH1 0x40 DUP4 DUP6 SUB SLT ISZERO PUSH2 0x1838 JUMPI PUSH2 0x1837 PUSH2 0x1570 JUMP JUMPDEST JUMPDEST PUSH0 PUSH2 0x1845 DUP6 DUP3 DUP7 ADD PUSH2 0x17DB JUMP JUMPDEST SWAP3 POP POP PUSH1 0x20 PUSH2 0x1856 DUP6 DUP3 DUP7 ADD PUSH2 0x180E JUMP JUMPDEST SWAP2 POP POP SWAP3 POP SWAP3 SWAP1 POP JUMP JUMPDEST PUSH0 DUP2 ISZERO ISZERO SWAP1 POP SWAP2 SWAP1 POP JUMP JUMPDEST PUSH2 0x1874 DUP2 PUSH2 0x1860 JUMP JUMPDEST DUP3 MSTORE POP POP JUMP JUMPDEST PUSH0 PUSH1 0x20 DUP3 ADD SWAP1 POP PUSH2 0x188D PUSH0 DUP4 ADD DUP5 PUSH2 0x186B JUMP JUMPDEST SWAP3 SWAP2 POP POP JUMP JUMPDEST PUSH2 0x189C DUP2 PUSH2 0x17EF JUMP JUMPDEST DUP3 MSTORE POP POP JUMP JUMPDEST PUSH0 PUSH1 0x20 DUP3 ADD SWAP1 POP PUSH2 0x18B5 PUSH0 DUP4 ADD DUP5 PUSH2 0x1893 JUMP JUMPDEST SWAP3 SWAP2 POP POP JUMP JUMPDEST PUSH0 DUP1 PUSH0 PUSH1 0x60 DUP5 DUP7 SUB SLT ISZERO PUSH2 0x18D2 JUMPI PUSH2 0x18D1 PUSH2 0x1570 JUMP JUMPDEST JUMPDEST PUSH0 PUSH2 0x18DF DUP7 DUP3 DUP8 ADD PUSH2 0x17DB JUMP JUMPDEST SWAP4 POP POP PUSH1 0x20 PUSH2 0x18F0 DUP7 DUP3 DUP8 ADD PUSH2 0x17DB JUMP JUMPDEST SWAP3 POP POP PUSH1 0x40 PUSH2 0x1901 DUP7 DUP3 DUP8 ADD PUSH2 0x180E JUMP JUMPDEST SWAP2 POP POP SWAP3 POP SWAP3 POP SWAP3 JUMP JUMPDEST PUSH0 PUSH1 0xFF DUP3 AND SWAP1 POP SWAP2 SWAP1 POP JUMP JUMPDEST PUSH2 0x1920 DUP2 PUSH2 0x190B JUMP JUMPDEST DUP3 MSTORE POP POP JUMP JUMPDEST PUSH0 PUSH1 0x20 DUP3 ADD SWAP1 POP PUSH2 0x1939 PUSH0 DUP4 ADD DUP5 PUSH2 0x1917 JUMP JUMPDEST SWAP3 SWAP2 POP POP JUMP JUMPDEST PUSH0 PUSH1 0x20 DUP3 DUP5 SUB SLT ISZERO PUSH2 0x1954 JUMPI PUSH2 0x1953 PUSH2 0x1570 JUMP JUMPDEST JUMPDEST PUSH0 PUSH2 0x1961 DUP5 DUP3 DUP6 ADD PUSH2 0x180E JUMP JUMPDEST SWAP2 POP POP SWAP3 SWAP2 POP POP JUMP JUMPDEST PUSH0 PUSH1 0x80 DUP3 ADD SWAP1 POP DUP2 DUP2 SUB PUSH0 DUP4 ADD MSTORE PUSH2 0x1982 DUP2 DUP8 PUSH2 0x173D JUMP JUMPDEST SWAP1 POP DUP2 DUP2 SUB PUSH1 0x20 DUP4 ADD MSTORE PUSH2 0x1996 DUP2 DUP7 PUSH2 0x173D JUMP JUMPDEST SWAP1 POP PUSH2 0x19A5 PUSH1 0x40 DUP4 ADD DUP6 PUSH2 0x1893 JUMP JUMPDEST DUP2 DUP2 SUB PUSH1 0x60 DUP4 ADD MSTORE PUSH2 0x19B7 DUP2 DUP5 PUSH2 0x173D JUMP JUMPDEST SWAP1 POP SWAP6 SWAP5 POP POP POP POP POP JUMP JUMPDEST PUSH0 PUSH1 0x20 DUP3 DUP5 SUB SLT ISZERO PUSH2 0x19D7 JUMPI PUSH2 0x19D6 PUSH2 0x1570 JUMP JUMPDEST JUMPDEST PUSH0 PUSH2 0x19E4 DUP5 DUP3 DUP6 ADD PUSH2 0x17DB JUMP JUMPDEST SWAP2 POP POP SWAP3 SWAP2 POP POP JUMP JUMPDEST PUSH2 0x19F6 DUP2 PUSH2 0x17B4 JUMP JUMPDEST DUP3 MSTORE POP POP JUMP JUMPDEST PUSH0 PUSH1 0x20 DUP3 ADD SWAP1 POP PUSH2 0x1A0F PUSH0 DUP4 ADD DUP5 PUSH2 0x19ED JUMP JUMPDEST SWAP3 SWAP2 POP POP JUMP JUMPDEST PUSH0 DUP1 PUSH0 PUSH1 0x60 DUP5 DUP7 SUB SLT ISZERO PUSH2 0x1A2C JUMPI PUSH2 0x1A2B PUSH2 0x1570 JUMP JUMPDEST JUMPDEST PUSH0 DUP5 ADD CALLDATALOAD PUSH8 0xFFFFFFFFFFFFFFFF DUP2 GT ISZERO PUSH2 0x1A49 JUMPI PUSH2 0x1A48 PUSH2 0x1574 JUMP JUMPDEST JUMPDEST PUSH2 0x1A55 DUP7 DUP3 DUP8 ADD PUSH2 0x1687 JUMP JUMPDEST SWAP4 POP POP PUSH1 0x20 DUP5 ADD CALLDATALOAD PUSH8 0xFFFFFFFFFFFFFFFF DUP2 GT ISZERO PUSH2 0x1A76 JUMPI PUSH2 0x1A75 PUSH2 0x1574 JUMP JUMPDEST JUMPDEST PUSH2 0x1A82 DUP7 DUP3 DUP8 ADD PUSH2 0x1687 JUMP JUMPDEST SWAP3 POP POP PUSH1 0x40 DUP5 ADD CALLDATALOAD PUSH8 0xFFFFFFFFFFFFFFFF DUP2 GT ISZERO PUSH2 0x1AA3 JUMPI PUSH2 0x1AA2 PUSH2 0x1574 JUMP JUMPDEST JUMPDEST PUSH2 0x1AAF DUP7 DUP3 DUP8 ADD PUSH2 0x1687 JUMP JUMPDEST SWAP2 POP POP SWAP3 POP SWAP3 POP SWAP3 JUMP JUMPDEST PUSH0 DUP1 PUSH1 0x40 DUP4 DUP6 SUB SLT ISZERO PUSH2 0x1ACF JUMPI PUSH2 0x1ACE PUSH2 0x1570 JUMP JUMPDEST JUMPDEST PUSH0 PUSH2 0x1ADC DUP6 DUP3 DUP7 ADD PUSH2 0x17DB JUMP JUMPDEST SWAP3 POP POP PUSH1 0x20 PUSH2 0x1AED DUP6 DUP3 DUP7 ADD PUSH2 0x17DB JUMP JUMPDEST SWAP2 POP POP SWAP3 POP SWAP3 SWAP1 POP JUMP JUMPDEST PUSH32 0x4E487B7100000000000000000000000000000000000000000000000000000000 PUSH0 MSTORE PUSH1 0x22 PUSH1 0x4 MSTORE PUSH1 0x24 PUSH0 REVERT JUMPDEST PUSH0 PUSH1 0x2 DUP3 DIV SWAP1 POP PUSH1 0x1 DUP3 AND DUP1 PUSH2 0x1B3B JUMPI PUSH1 0x7F DUP3 AND SWAP2 POP JUMPDEST PUSH1 0x20 DUP3 LT DUP2 SUB PUSH2 0x1B4E JUMPI PUSH2 0x1B4D PUSH2 0x1AF7 JUMP JUMPDEST JUMPDEST POP SWAP2 SWAP1 POP JUMP JUMPDEST PUSH0 DUP2 SWAP1 POP DUP2 PUSH0 MSTORE PUSH1 0x20 PUSH0 KECCAK256 SWAP1 POP SWAP2 SWAP1 POP JUMP JUMPDEST PUSH0 PUSH1 0x20 PUSH1 0x1F DUP4 ADD DIV SWAP1 POP SWAP2 SWAP1 POP JUMP JUMPDEST PUSH0 DUP3 DUP3 SHL SWAP1 POP SWAP3 SWAP2 POP POP JUMP JUMPDEST PUSH0 PUSH1 0x8 DUP4 MUL PUSH2 0x1BB0 PUSH32 0xFFFFFFFFFFFFFFFFFFFFFFFFFFFFFFFFFFFFFFFFFFFFFFFFFFFFFFFFFFFFFFFF DUP3 PUSH2 0x1B75 JUMP JUMPDEST PUSH2 0x1BBA DUP7 DUP4 PUSH2 0x1B75 JUMP JUMPDEST SWAP6 POP DUP1 NOT DUP5 AND SWAP4 POP DUP1 DUP7 AND DUP5 OR SWAP3 POP POP POP SWAP4 SWAP3 POP POP POP JUMP JUMPDEST PUSH0 DUP2 SWAP1 POP SWAP2 SWAP1 POP JUMP JUMPDEST PUSH0 PUSH2 0x1BF5 PUSH2 0x1BF0 PUSH2 0x1BEB DUP5 PUSH2 0x17EF JUMP JUMPDEST PUSH2 0x1BD2 JUMP JUMPDEST PUSH2 0x17EF JUMP JUMPDEST SWAP1 POP SWAP2 SWAP1 POP JUMP JUMPDEST PUSH0 DUP2 SWAP1 POP SWAP2 SWAP1 POP JUMP JUMPDEST PUSH2 0x1C0E DUP4 PUSH2 0x1BDB JUMP JUMPDEST PUSH2 0x1C22 PUSH2 0x1C1A DUP3 PUSH2 0x1BFC JUMP JUMPDEST DUP5 DUP5 SLOAD PUSH2 0x1B81 JUMP JUMPDEST DUP3 SSTORE POP POP POP POP JUMP JUMPDEST PUSH0 SWAP1 JUMP JUMPDEST PUSH2 0x1C36 PUSH2 0x1C2A JUMP JUMPDEST PUSH2 0x1C41 DUP2 DUP5 DUP5 PUSH2 0x1C05 JUMP JUMPDEST POP POP POP JUMP JUMPDEST JUMPDEST DUP2 DUP2 LT ISZERO PUSH2 0x1C64 JUMPI PUSH2 0x1C59 PUSH0 DUP3 PUSH2 0x1C2E JUMP JUMPDEST PUSH1 0x1 DUP2 ADD SWAP1 POP PUSH2 0x1C47 JUMP JUMPDEST POP POP JUMP JUMPDEST PUSH1 0x1F DUP3 GT ISZERO PUSH2 0x1CA9 JUMPI PUSH2 0x1C7A DUP2 PUSH2 0x1B54 JUMP JUMPDEST PUSH2 0x1C83 DUP5 PUSH2 0x1B66 JUMP JUMPDEST DUP2 ADD PUSH1 0x20 DUP6 LT ISZERO PUSH2 0x1C92 JUMPI DUP2 SWAP1 POP JUMPDEST PUSH2 0x1CA6 PUSH2 0x1C9E DUP6 PUSH2 0x1B66 JUMP JUMPDEST DUP4 ADD DUP3 PUSH2 0x1C46 JUMP JUMPDEST POP POP JUMPDEST POP POP POP JUMP JUMPDEST PUSH0 DUP3 DUP3 SHR SWAP1 POP SWAP3 SWAP2 POP POP JUMP JUMPDEST PUSH0 PUSH2 0x1CC9 PUSH0 NOT DUP5 PUSH1 0x8 MUL PUSH2 0x1CAE JUMP JUMPDEST NOT DUP1 DUP4 AND SWAP2 POP POP SWAP3 SWAP2 POP POP JUMP JUMPDEST PUSH0 PUSH2 0x1CE1 DUP4 DUP4 PUSH2 0x1CBA JUMP JUMPDEST SWAP2 POP DUP3 PUSH1 0x2 MUL DUP3 OR SWAP1 POP SWAP3 SWAP2 POP POP JUMP JUMPDEST PUSH2 0x1CFA DUP3 PUSH2 0x16FB JUMP JUMPDEST PUSH8 0xFFFFFFFFFFFFFFFF DUP2 GT ISZERO PUSH2 0x1D13 JUMPI PUSH2 0x1D12 PUSH2 0x1590 JUMP JUMPDEST JUMPDEST PUSH2 0x1D1D DUP3 SLOAD PUSH2 0x1B24 JUMP JUMPDEST PUSH2 0x1D28 DUP3 DUP3 DUP6 PUSH2 0x1C68 JUMP JUMPDEST PUSH0 PUSH1 0x20 SWAP1 POP PUSH1 0x1F DUP4 GT PUSH1 0x1 DUP2 EQ PUSH2 0x1D59 JUMPI PUSH0 DUP5 ISZERO PUSH2 0x1D47 JUMPI DUP3 DUP8 ADD MLOAD SWAP1 POP JUMPDEST PUSH2 0x1D51 DUP6 DUP3 PUSH2 0x1CD6 JUMP JUMPDEST DUP7 SSTORE POP PUSH2 0x1DB8 JUMP JUMPDEST PUSH1 0x1F NOT DUP5 AND PUSH2 0x1D67 DUP7 PUSH2 0x1B54 JUMP JUMPDEST PUSH0 JUMPDEST DUP3 DUP2 LT ISZERO PUSH2 0x1D8E JUMPI DUP5 DUP10 ADD MLOAD DUP3 SSTORE PUSH1 0x1 DUP3 ADD SWAP2 POP PUSH1 0x20 DUP6 ADD SWAP5 POP PUSH1 0x20 DUP2 ADD SWAP1 POP PUSH2 0x1D69 JUMP JUMPDEST DUP7 DUP4 LT ISZERO PUSH2 0x1DAB JUMPI DUP5 DUP10 ADD MLOAD PUSH2 0x1DA7 PUSH1 0x1F DUP10 AND DUP3 PUSH2 0x1CBA JUMP JUMPDEST DUP4 SSTORE POP JUMPDEST PUSH1 0x1 PUSH1 0x2 DUP9 MUL ADD DUP9 SSTORE POP POP POP JUMPDEST POP POP POP POP POP POP JUMP JUMPDEST PUSH32 0x4E487B7100000000000000000000000000000000000000000000000000000000 PUSH0 MSTORE PUSH1 0x32 PUSH1 0x4 MSTORE PUSH1 0x24 PUSH0 REVERT JUMPDEST PUSH32 0x4E487B7100000000000000000000000000000000000000000000000000000000 PUSH0 MSTORE PUSH1 0x11 PUSH1 0x4 MSTORE PUSH1 0x24 PUSH0 REVERT JUMPDEST PUSH0 PUSH2 0x1E24 DUP3 PUSH2 0x17EF JUMP JUMPDEST SWAP2 POP PUSH2 0x1E2F DUP4 PUSH2 0x17EF JUMP JUMPDEST SWAP3 POP DUP3 DUP3 SUB SWAP1 POP DUP2 DUP2 GT ISZERO PUSH2 0x1E47 JUMPI PUSH2 0x1E46 PUSH2 0x1DED JUMP JUMPDEST JUMPDEST SWAP3 SWAP2 POP POP JUMP JUMPDEST PUSH0 PUSH1 0x60 DUP3 ADD SWAP1 POP DUP2 DUP2 SUB PUSH0 DUP4 ADD MSTORE PUSH2 0x1E65 DUP2 DUP7 PUSH2 0x173D JUMP JUMPDEST SWAP1 POP DUP2 DUP2 SUB PUSH1 0x20 DUP4 ADD MSTORE PUSH2 0x1E79 DUP2 DUP6 PUSH2 0x173D JUMP JUMPDEST SWAP1 POP DUP2 DUP2 SUB PUSH1 0x40 DUP4 ADD MSTORE PUSH2 0x1E8D DUP2 DUP5 PUSH2 0x173D JUMP JUMPDEST SWAP1 POP SWAP5 SWAP4 POP POP POP POP JUMP JUMPDEST PUSH32 0x496E76616C696420616464726573730000000000000000000000000000000000 PUSH0 DUP3 ADD MSTORE POP JUMP JUMPDEST PUSH0 PUSH2 0x1ECB PUSH1 0xF DUP4 PUSH2 0x1705 JUMP JUMPDEST SWAP2 POP PUSH2 0x1ED6 DUP3 PUSH2 0x1E97 JUMP JUMPDEST PUSH1 0x20 DUP3 ADD SWAP1 POP SWAP2 SWAP1 POP JUMP JUMPDEST PUSH0 PUSH1 0x20 DUP3 ADD SWAP1 POP DUP2 DUP2 SUB PUSH0 DUP4 ADD MSTORE PUSH2 0x1EF8 DUP2 PUSH2 0x1EBF JUMP JUMPDEST SWAP1 POP SWAP2 SWAP1 POP JUMP JUMPDEST PUSH0 PUSH1 0x60 DUP3 ADD SWAP1 POP PUSH2 0x1F12 PUSH0 DUP4 ADD DUP7 PUSH2 0x19ED JUMP JUMPDEST PUSH2 0x1F1F PUSH1 0x20 DUP4 ADD DUP6 PUSH2 0x1893 JUMP JUMPDEST PUSH2 0x1F2C PUSH1 0x40 DUP4 ADD DUP5 PUSH2 0x1893 JUMP JUMPDEST SWAP5 SWAP4 POP POP POP POP JUMP JUMPDEST PUSH0 PUSH2 0x1F3E DUP3 PUSH2 0x17EF JUMP JUMPDEST SWAP2 POP PUSH2 0x1F49 DUP4 PUSH2 0x17EF JUMP JUMPDEST SWAP3 POP DUP3 DUP3 ADD SWAP1 POP DUP1 DUP3 GT ISZERO PUSH2 0x1F61 JUMPI PUSH2 0x1F60 PUSH2 0x1DED JUMP JUMPDEST JUMPDEST SWAP3 SWAP2 POP POP JUMP INVALID LOG2 PUSH5 0x6970667358 0x22 SLT KECCAK256 0x23 PUSH10 0x40A7FBE339EA3EE78097 0xB1 CODESIZE 0xB7 CALLER RETURNDATASIZE PUSH21 0xD4F697019954ED4F545A1B4CDD4364736F6C634300 ADDMOD EQ STOP CALLER "
	},
	"Assembly": ".code\n  PUSH 80\t\t\tcontract CarbonCreditCoins is ...\n  PUSH 40\t\t\tcontract CarbonCreditCoins is ...\n  MSTORE \t\t\tcontract CarbonCreditCoins is ...\n  PUSH 40\t\t\tstring public projectInfo =\\n ...\n  MLOAD \t\t\tstring public projectInfo =\\n ...\n  DUP1 \t\t\tstring public projectInfo =\\n ...\n  PUSH 100\t\t\tstring public projectInfo =\\n ...\n  ADD \t\t\tstring public projectInfo =\\n ...\n  PUSH 40\t\t\tstring public projectInfo =\\n ...\n  MSTORE \t\t\tstring public projectInfo =\\n ...\n  DUP1 \t\t\tstring public projectInfo =\\n ...\n  PUSH C6\t\t\tstring public projectInfo =\\n ...\n  DUP2 \t\t\tstring public projectInfo =\\n ...\n  MSTORE \t\t\tstring public projectInfo =\\n ...\n  PUSH 20\t\t\tstring public projectInfo =\\n ...\n  ADD \t\t\tstring public projectInfo =\\n ...\n  PUSH data 8C5F82D13E45FD2F12771247B9C65EB53F78E9D62D52383B45BF80805CA6AB4D\t\t\tstring public projectInfo =\\n ...\n  PUSH C6\t\t\tstring public projectInfo =\\n ...\n  SWAP2 \t\t\tstring public projectInfo =\\n ...\n  CODECOPY \t\t\tstring public projectInfo =\\n ...\n  PUSH 7\t\t\tstring public projectInfo =\\n ...\n  SWAP1 \t\t\tstring public projectInfo =\\n ...\n  DUP2 \t\t\tstring public projectInfo =\\n ...\n  PUSH [tag] 1\t\t\tstring public projectInfo =\\n ...\n  SWAP2 \t\t\tstring public projectInfo =\\n ...\n  SWAP1 \t\t\tstring public projectInfo =\\n ...\n  PUSH [tag] 2\t\t\tstring public projectInfo =\\n ...\n  JUMP \t\t\tstring public projectInfo =\\n ...\ntag 1\t\t\tstring public projectInfo =\\n ...\n  JUMPDEST \t\t\tstring public projectInfo =\\n ...\n  POP \t\t\tstring public projectInfo =\\n ...\n  CALLVALUE \t\t\tconstructor(\\n        address ...\n  DUP1 \t\t\tconstructor(\\n        address ...\n  ISZERO \t\t\tconstructor(\\n        address ...\n  PUSH [tag] 3\t\t\tconstructor(\\n        address ...\n  JUMPI \t\t\tconstructor(\\n        address ...\n  PUSH 0\t\t\tconstructor(\\n        address ...\n  DUP1 \t\t\tconstructor(\\n        address ...\n  REVERT \t\t\tconstructor(\\n        address ...\ntag 3\t\t\tconstructor(\\n        address ...\n  JUMPDEST \t\t\tconstructor(\\n        address ...\n  POP \t\t\tconstructor(\\n        address ...\n  PUSH 40\t\t\tconstructor(\\n        address ...\n  MLOAD \t\t\tconstructor(\\n        address ...\n  PUSHSIZE \t\t\tconstructor(\\n        address ...\n  CODESIZE \t\t\tconstructor(\\n        address ...\n  SUB \t\t\tconstructor(\\n        address ...\n  DUP1 \t\t\tconstructor(\\n        address ...\n  PUSHSIZE \t\t\tconstructor(\\n        address ...\n  DUP4 \t\t\tconstructor(\\n        address ...\n  CODECOPY \t\t\tconstructor(\\n        address ...\n  DUP2 \t\t\tconstructor(\\n        address ...\n  DUP2 \t\t\tconstructor(\\n        address ...\n  ADD \t\t\tconstructor(\\n        address ...\n  PUSH 40\t\t\tconstructor(\\n        address ...\n  MSTORE \t\t\tconstructor(\\n        address ...\n  DUP2 \t\t\tconstructor(\\n        address ...\n  ADD \t\t\tconstructor(\\n        address ...\n  SWAP1 \t\t\tconstructor(\\n        address ...\n  PUSH [tag] 4\t\t\tconstructor(\\n        address ...\n  SWAP2 \t\t\tconstructor(\\n        address ...\n  SWAP1 \t\t\tconstructor(\\n        address ...\n  PUSH [tag] 5\t\t\tconstructor(\\n        address ...\n  JUMP \t\t\tconstructor(\\n        address ...\ntag 4\t\t\tconstructor(\\n        address ...\n  JUMPDEST \t\t\tconstructor(\\n        address ...\n  DUP3 \t\t\tmasterWallet\n  PUSH 40\t\t\tss masterWallet,\\n        stri...\n  MLOAD \t\t\tss masterWallet,\\n        stri...\n  DUP1 \t\t\tss masterWallet,\\n        stri...\n  PUSH 40\t\t\tss masterWallet,\\n        stri...\n  ADD \t\t\tss masterWallet,\\n        stri...\n  PUSH 40\t\t\tss masterWallet,\\n        stri...\n  MSTORE \t\t\tss masterWallet,\\n        stri...\n  DUP1 \t\t\tss masterWallet,\\n        stri...\n  PUSH 13\t\t\tss masterWallet,\\n        stri...\n  DUP2 \t\t\tss masterWallet,\\n        stri...\n  MSTORE \t\t\tss masterWallet,\\n        stri...\n  PUSH 20\t\t\tss masterWallet,\\n        stri...\n  ADD \t\t\tss masterWallet,\\n        stri...\n  PUSH 436172626F6E2043726564697420436F696E7300000000000000000000000000\t\t\tss masterWallet,\\n        stri...\n  DUP2 \t\t\tss masterWallet,\\n        stri...\n  MSTORE \t\t\tss masterWallet,\\n        stri...\n  POP \t\t\tss masterWallet,\\n        stri...\n  PUSH 40\t\t\tss masterWallet,\\n        stri...\n  MLOAD \t\t\tss masterWallet,\\n        stri...\n  DUP1 \t\t\tss masterWallet,\\n        stri...\n  PUSH 40\t\t\tss masterWallet,\\n        stri...\n  ADD \t\t\tss masterWallet,\\n        stri...\n  PUSH 40\t\t\tss masterWallet,\\n        stri...\n  MSTORE \t\t\tss masterWallet,\\n        stri...\n  DUP1 \t\t\tss masterWallet,\\n        stri...\n  PUSH 3\t\t\tss masterWallet,\\n        stri...\n  DUP2 \t\t\tss masterWallet,\\n        stri...\n  MSTORE \t\t\tss masterWallet,\\n        stri...\n  PUSH 20\t\t\tss masterWallet,\\n        stri...\n  ADD \t\t\tss masterWallet,\\n        stri...\n  PUSH 4343430000000000000000000000000000000000000000000000000000000000\t\t\tss masterWallet,\\n        stri...\n  DUP2 \t\t\tss masterWallet,\\n        stri...\n  MSTORE \t\t\tss masterWallet,\\n        stri...\n  POP \t\t\tss masterWallet,\\n        stri...\n  DUP2 \t\t\tWalle\n  PUSH 3\t\t\t_rese\n  SWAP1 \t\t\t_reserveWalle\n  DUP2 \t\t\t_reserveWalle\n  PUSH [tag] 10\t\t\t_reserveWalle\n  SWAP2 \t\t\t_reserveWalle\n  SWAP1 \t\t\t_reserveWalle\n  PUSH [tag] 2\t\t\t_reserveWalle\n  JUMP \t\t\t_reserveWalle\ntag 10\t\t\t_reserveWalle\n  JUMPDEST \t\t\t_reserveWalle\n  POP \t\t\t_reserveWalle\n  DUP1 \t\t\t0(\"Carb\n  PUSH 4\t\t\t      E\n  SWAP1 \t\t\t      ERC20(\"Carb\n  DUP2 \t\t\t      ERC20(\"Carb\n  PUSH [tag] 11\t\t\t      ERC20(\"Carb\n  SWAP2 \t\t\t      ERC20(\"Carb\n  SWAP1 \t\t\t      ERC20(\"Carb\n  PUSH [tag] 2\t\t\t      ERC20(\"Carb\n  JUMP \t\t\t      ERC20(\"Carb\ntag 11\t\t\t      ERC20(\"Carb\n  JUMPDEST \t\t\t      ERC20(\"Carb\n  POP \t\t\t      ERC20(\"Carb\n  POP \t\t\tss masterWallet,\\n        stri...\n  POP \t\t\tss masterWallet,\\n        stri...\n  PUSH 0\t\t\td\n  PUSH FFFFFFFFFFFFFFFFFFFFFFFFFFFFFFFFFFFFFFFF\t\t\t\\n    event CertificateAdde\n  AND \t\t\t\\n    event CertificateAdde\n  DUP2 \t\t\t\\n    event C\n  PUSH FFFFFFFFFFFFFFFFFFFFFFFFFFFFFFFFFFFFFFFF\t\t\t\\n    event CertificateAdde\n  AND \t\t\t\\n    event CertificateAdde\n  SUB \t\t\t\\n    event CertificateAdde\n  PUSH [tag] 13\t\t\t===\\n\\n    event CertificateAd...\n  JUMPI \t\t\t===\\n\\n    event CertificateAd...\n  PUSH 0\t\t\t\\n\n  PUSH 40\t\t\txed id,\\n        string name,\\...\n  MLOAD \t\t\txed id,\\n        string name,\\...\n  PUSH 1E4FBDF700000000000000000000000000000000000000000000000000000000\t\t\txed id,\\n        string name,\\...\n  DUP2 \t\t\txed id,\\n        string name,\\...\n  MSTORE \t\t\txed id,\\n        string name,\\...\n  PUSH 4\t\t\txed id,\\n        string name,\\...\n  ADD \t\t\txed id,\\n        string name,\\...\n  PUSH [tag] 14\t\t\txed id,\\n        string name,\\...\n  SWAP2 \t\t\txed id,\\n        string name,\\...\n  SWAP1 \t\t\txed id,\\n        string name,\\...\n  PUSH [tag] 15\t\t\txed id,\\n        string name,\\...\n  JUMP \t\t\txed id,\\n        string name,\\...\ntag 14\t\t\txed id,\\n        string name,\\...\n  JUMPDEST \t\t\txed id,\\n        string name,\\...\n  PUSH 40\t\t\txed id,\\n        string name,\\...\n  MLOAD \t\t\txed id,\\n        string name,\\...\n  DUP1 \t\t\txed id,\\n        string name,\\...\n  SWAP2 \t\t\txed id,\\n        string name,\\...\n  SUB \t\t\txed id,\\n        string name,\\...\n  SWAP1 \t\t\txed id,\\n        string name,\\...\n  REVERT \t\t\txed id,\\n        string name,\\...\ntag 13\t\t\t===\\n\\n    event CertificateAd...\n  JUMPDEST \t\t\t===\\n\\n    event CertificateAd...\n  PUSH [tag] 16\t\t\t       string description\\n   ...\n  DUP2 \t\t\tiption\\n    )\n  PUSH [tag] 17\t\t\t       string desc\n  PUSH 20\t\t\t       string desc\n  SHL \t\t\t       string desc\n  PUSH 20\t\t\t       string description\\n   ...\n  SHR \t\t\t       string description\\n   ...\n  JUMP \t\t\t       string description\\n   ...\ntag 16\t\t\t       string description\\n   ...\n  JUMPDEST \t\t\t       string description\\n   ...\n  POP \t\t\t\\n    // EVENTS\\n    // ======...\n  PUSH 0\t\t\t0\n  PUSH FFFFFFFFFFFFFFFFFFFFFFFFFFFFFFFFFFFFFFFF\t\t\tmasterWallet != address(0)\n  AND \t\t\tmasterWallet != address(0)\n  DUP4 \t\t\tmasterWallet\n  PUSH FFFFFFFFFFFFFFFFFFFFFFFFFFFFFFFFFFFFFFFF\t\t\tmasterWallet != address(0)\n  AND \t\t\tmasterWallet != address(0)\n  SUB \t\t\tmasterWallet != address(0)\n  PUSH [tag] 19\t\t\trequire(masterWallet != addres...\n  JUMPI \t\t\trequire(masterWallet != addres...\n  PUSH 40\t\t\trequire(masterWallet != addres...\n  MLOAD \t\t\trequire(masterWallet != addres...\n  PUSH 8C379A000000000000000000000000000000000000000000000000000000000\t\t\trequire(masterWallet != addres...\n  DUP2 \t\t\trequire(masterWallet != addres...\n  MSTORE \t\t\trequire(masterWallet != addres...\n  PUSH 4\t\t\trequire(masterWallet != addres...\n  ADD \t\t\trequire(masterWallet != addres...\n  PUSH [tag] 20\t\t\trequire(masterWallet != addres...\n  SWAP1 \t\t\trequire(masterWallet != addres...\n  PUSH [tag] 21\t\t\trequire(masterWallet != addres...\n  JUMP \t\t\trequire(masterWallet != addres...\ntag 20\t\t\trequire(masterWallet != addres...\n  JUMPDEST \t\t\trequire(masterWallet != addres...\n  PUSH 40\t\t\trequire(masterWallet != addres...\n  MLOAD \t\t\trequire(masterWallet != addres...\n  DUP1 \t\t\trequire(masterWallet != addres...\n  SWAP2 \t\t\trequire(masterWallet != addres...\n  SUB \t\t\trequire(masterWallet != addres...\n  SWAP1 \t\t\trequire(masterWallet != addres...\n  REVERT \t\t\trequire(masterWallet != addres...\ntag 19\t\t\trequire(masterWallet != addres...\n  JUMPDEST \t\t\trequire(masterWallet != addres...\n  PUSH 0\t\t\t0\n  PUSH FFFFFFFFFFFFFFFFFFFFFFFFFFFFFFFFFFFFFFFF\t\t\t_reserveWallet != address(0)\n  AND \t\t\t_reserveWallet != address(0)\n  DUP2 \t\t\t_reserveWallet\n  PUSH FFFFFFFFFFFFFFFFFFFFFFFFFFFFFFFFFFFFFFFF\t\t\t_reserveWallet != address(0)\n  AND \t\t\t_reserveWallet != address(0)\n  SUB \t\t\t_reserveWallet != address(0)\n  PUSH [tag] 22\t\t\trequire(_reserveWallet != addr...\n  JUMPI \t\t\trequire(_reserveWallet != addr...\n  PUSH 40\t\t\trequire(_reserveWallet != addr...\n  MLOAD \t\t\trequire(_reserveWallet != addr...\n  PUSH 8C379A000000000000000000000000000000000000000000000000000000000\t\t\trequire(_reserveWallet != addr...\n  DUP2 \t\t\trequire(_reserveWallet != addr...\n  MSTORE \t\t\trequire(_reserveWallet != addr...\n  PUSH 4\t\t\trequire(_reserveWallet != addr...\n  ADD \t\t\trequire(_reserveWallet != addr...\n  PUSH [tag] 23\t\t\trequire(_reserveWallet != addr...\n  SWAP1 \t\t\trequire(_reserveWallet != addr...\n  PUSH [tag] 24\t\t\trequire(_reserveWallet != addr...\n  JUMP \t\t\trequire(_reserveWallet != addr...\ntag 23\t\t\trequire(_reserveWallet != addr...\n  JUMPDEST \t\t\trequire(_reserveWallet != addr...\n  PUSH 40\t\t\trequire(_reserveWallet != addr...\n  MLOAD \t\t\trequire(_reserveWallet != addr...\n  DUP1 \t\t\trequire(_reserveWallet != addr...\n  SWAP2 \t\t\trequire(_reserveWallet != addr...\n  SUB \t\t\trequire(_reserveWallet != addr...\n  SWAP1 \t\t\trequire(_reserveWallet != addr...\n  REVERT \t\t\trequire(_reserveWallet != addr...\ntag 22\t\t\trequire(_reserveWallet != addr...\n  JUMPDEST \t\t\trequire(_reserveWallet != addr...\n  DUP2 \t\t\t_imageURI\n  PUSH 6\t\t\timageURI\n  SWAP1 \t\t\timageURI = _imageURI\n  DUP2 \t\t\timageURI = _imageURI\n  PUSH [tag] 25\t\t\timageURI = _imageURI\n  SWAP2 \t\t\timageURI = _imageURI\n  SWAP1 \t\t\timageURI = _imageURI\n  PUSH [tag] 2\t\t\timageURI = _imageURI\n  JUMP \t\t\timageURI = _imageURI\ntag 25\t\t\timageURI = _imageURI\n  JUMPDEST \t\t\timageURI = _imageURI\n  POP \t\t\timageURI = _imageURI\n  DUP1 \t\t\t_reserveWallet\n  PUSH 8\t\t\treserveWallet\n  PUSH 0\t\t\treserveWallet\n  PUSH 100\t\t\treserveWallet = _reserveWallet\n  EXP \t\t\treserveWallet = _reserveWallet\n  DUP2 \t\t\treserveWallet = _reserveWallet\n  SLOAD \t\t\treserveWallet = _reserveWallet\n  DUP2 \t\t\treserveWallet = _reserveWallet\n  PUSH FFFFFFFFFFFFFFFFFFFFFFFFFFFFFFFFFFFFFFFF\t\t\treserveWallet = _reserveWallet\n  MUL \t\t\treserveWallet = _reserveWallet\n  NOT \t\t\treserveWallet = _reserveWallet\n  AND \t\t\treserveWallet = _reserveWallet\n  SWAP1 \t\t\treserveWallet = _reserveWallet\n  DUP4 \t\t\treserveWallet = _reserveWallet\n  PUSH FFFFFFFFFFFFFFFFFFFFFFFFFFFFFFFFFFFFFFFF\t\t\treserveWallet = _reserveWallet\n  AND \t\t\treserveWallet = _reserveWallet\n  MUL \t\t\treserveWallet = _reserveWallet\n  OR \t\t\treserveWallet = _reserveWallet\n  SWAP1 \t\t\treserveWallet = _reserveWallet\n  SSTORE \t\t\treserveWallet = _reserveWallet\n  POP \t\t\treserveWallet = _reserveWallet\n  PUSH [tag] 26\t\t\t_mint(masterWallet, MAX_SUPPLY...\n  DUP4 \t\t\tmasterWallet\n  PUSH 409F9CBC7C4A04C220000000\t\t\t20000000000 * 10**18\n  PUSH [tag] 27\t\t\t_mint\n  PUSH 20\t\t\t_mint\n  SHL \t\t\t_mint\n  PUSH 20\t\t\t_mint(masterWallet, MAX_SUPPLY...\n  SHR \t\t\t_mint(masterWallet, MAX_SUPPLY...\n  JUMP \t\t\t_mint(masterWallet, MAX_SUPPLY...\ntag 26\t\t\t_mint(masterWallet, MAX_SUPPLY...\n  JUMPDEST \t\t\t_mint(masterWallet, MAX_SUPPLY...\n  PUSH 9\t\t\tcertificates\n  PUSH 40\t\t\tCertificate(\\n            \"Pro...\n  MLOAD \t\t\tCertificate(\\n            \"Pro...\n  DUP1 \t\t\tCertificate(\\n            \"Pro...\n  PUSH 80\t\t\tCertificate(\\n            \"Pro...\n  ADD \t\t\tCertificate(\\n            \"Pro...\n  PUSH 40\t\t\tCertificate(\\n            \"Pro...\n  MSTORE \t\t\tCertificate(\\n            \"Pro...\n  DUP1 \t\t\tCertificate(\\n            \"Pro...\n  PUSH 40\t\t\tCertificate(\\n            \"Pro...\n  MLOAD \t\t\tCertificate(\\n            \"Pro...\n  DUP1 \t\t\tCertificate(\\n            \"Pro...\n  PUSH 40\t\t\tCertificate(\\n            \"Pro...\n  ADD \t\t\tCertificate(\\n            \"Pro...\n  PUSH 40\t\t\tCertificate(\\n            \"Pro...\n  MSTORE \t\t\tCertificate(\\n            \"Pro...\n  DUP1 \t\t\tCertificate(\\n            \"Pro...\n  PUSH 15\t\t\tCertificate(\\n            \"Pro...\n  DUP2 \t\t\tCertificate(\\n            \"Pro...\n  MSTORE \t\t\tCertificate(\\n            \"Pro...\n  PUSH 20\t\t\tCertificate(\\n            \"Pro...\n  ADD \t\t\tCertificate(\\n            \"Pro...\n  PUSH 50726F6A65637420446F63756D656E746174696F6E0000000000000000000000\t\t\tCertificate(\\n            \"Pro...\n  DUP2 \t\t\tCertificate(\\n            \"Pro...\n  MSTORE \t\t\tCertificate(\\n            \"Pro...\n  POP \t\t\tCertificate(\\n            \"Pro...\n  DUP2 \t\t\tCertificate(\\n            \"Pro...\n  MSTORE \t\t\tCertificate(\\n            \"Pro...\n  PUSH 20\t\t\tCertificate(\\n            \"Pro...\n  ADD \t\t\tCertificate(\\n            \"Pro...\n  PUSH 40\t\t\tCertificate(\\n            \"Pro...\n  MLOAD \t\t\tCertificate(\\n            \"Pro...\n  DUP1 \t\t\tCertificate(\\n            \"Pro...\n  PUSH 40\t\t\tCertificate(\\n            \"Pro...\n  ADD \t\t\tCertificate(\\n            \"Pro...\n  PUSH 40\t\t\tCertificate(\\n            \"Pro...\n  MSTORE \t\t\tCertificate(\\n            \"Pro...\n  DUP1 \t\t\tCertificate(\\n            \"Pro...\n  PUSH 1C\t\t\tCertificate(\\n            \"Pro...\n  DUP2 \t\t\tCertificate(\\n            \"Pro...\n  MSTORE \t\t\tCertificate(\\n            \"Pro...\n  PUSH 20\t\t\tCertificate(\\n            \"Pro...\n  ADD \t\t\tCertificate(\\n            \"Pro...\n  PUSH 68747470733A2F2F646F63756D656E746363632E6469676974616C2F00000000\t\t\tCertificate(\\n            \"Pro...\n  DUP2 \t\t\tCertificate(\\n            \"Pro...\n  MSTORE \t\t\tCertificate(\\n            \"Pro...\n  POP \t\t\tCertificate(\\n            \"Pro...\n  DUP2 \t\t\tCertificate(\\n            \"Pro...\n  MSTORE \t\t\tCertificate(\\n            \"Pro...\n  PUSH 20\t\t\tCertificate(\\n            \"Pro...\n  ADD \t\t\tCertificate(\\n            \"Pro...\n  TIMESTAMP \t\t\tblock.timestamp\n  DUP2 \t\t\tCertificate(\\n            \"Pro...\n  MSTORE \t\t\tCertificate(\\n            \"Pro...\n  PUSH 20\t\t\tCertificate(\\n            \"Pro...\n  ADD \t\t\tCertificate(\\n            \"Pro...\n  PUSH 40\t\t\tCertificate(\\n            \"Pro...\n  MLOAD \t\t\tCertificate(\\n            \"Pro...\n  DUP1 \t\t\tCertificate(\\n            \"Pro...\n  PUSH 60\t\t\tCertificate(\\n            \"Pro...\n  ADD \t\t\tCertificate(\\n            \"Pro...\n  PUSH 40\t\t\tCertificate(\\n            \"Pro...\n  MSTORE \t\t\tCertificate(\\n            \"Pro...\n  DUP1 \t\t\tCertificate(\\n            \"Pro...\n  PUSH 25\t\t\tCertificate(\\n            \"Pro...\n  DUP2 \t\t\tCertificate(\\n            \"Pro...\n  MSTORE \t\t\tCertificate(\\n            \"Pro...\n  PUSH 20\t\t\tCertificate(\\n            \"Pro...\n  ADD \t\t\tCertificate(\\n            \"Pro...\n  PUSH data 5CBBDB55ACA4552FEEF66A78B71220654669B7FD42B60EF41B38DEEC6BF93FE3\t\t\tCertificate(\\n            \"Pro...\n  PUSH 25\t\t\tCertificate(\\n            \"Pro...\n  SWAP2 \t\t\tCertificate(\\n            \"Pro...\n  CODECOPY \t\t\tCertificate(\\n            \"Pro...\n  DUP2 \t\t\tCertificate(\\n            \"Pro...\n  MSTORE \t\t\tCertificate(\\n            \"Pro...\n  POP \t\t\tCertificate(\\n            \"Pro...\n  SWAP1 \t\t\tcertificates.push(Certificate(...\n  DUP1 \t\t\tcertificates.push(Certificate(...\n  PUSH 1\t\t\tcertificates.push(Certificate(...\n  DUP2 \t\t\tcertificates.push(Certificate(...\n  SLOAD \t\t\tcertificates.push(Certificate(...\n  ADD \t\t\tcertificates.push(Certificate(...\n  DUP1 \t\t\tcertificates.push(Certificate(...\n  DUP3 \t\t\tcertificates.push(Certificate(...\n  SSTORE \t\t\tcertificates.push(Certificate(...\n  DUP1 \t\t\tcertificates.push(Certificate(...\n  SWAP2 \t\t\tcertificates.push(Certificate(...\n  POP \t\t\tcertificates.push(Certificate(...\n  POP \t\t\tcertificates.push(Certificate(...\n  PUSH 1\t\t\tcertificates.push(Certificate(...\n  SWAP1 \t\t\tcertificates.push(Certificate(...\n  SUB \t\t\tcertificates.push(Certificate(...\n  SWAP1 \t\t\tcertificates.push(Certificate(...\n  PUSH 0\t\t\tcertificates.push(Certificate(...\n  MSTORE \t\t\tcertificates.push(Certificate(...\n  PUSH 20\t\t\tcertificates.push(Certificate(...\n  PUSH 0\t\t\tcertificates.push(Certificate(...\n  KECCAK256 \t\t\tcertificates.push(Certificate(...\n  SWAP1 \t\t\tcertificates.push(Certificate(...\n  PUSH 4\t\t\tcertificates.push(Certificate(...\n  MUL \t\t\tcertificates.push(Certificate(...\n  ADD \t\t\tcertificates.push(Certificate(...\n  PUSH 0\t\t\tcertificates.push(Certificate(...\n  SWAP1 \t\t\tcertificates.push(Certificate(...\n  SWAP2 \t\t\tcertificates.push(Certificate(...\n  SWAP1 \t\t\tcertificates.push(Certificate(...\n  SWAP2 \t\t\tcertificates.push(Certificate(...\n  SWAP1 \t\t\tcertificates.push(Certificate(...\n  SWAP2 \t\t\tcertificates.push(Certificate(...\n  POP \t\t\tcertificates.push(Certificate(...\n  PUSH 0\t\t\tcertificates.push(Certificate(...\n  DUP3 \t\t\tcertificates.push(Certificate(...\n  ADD \t\t\tcertificates.push(Certificate(...\n  MLOAD \t\t\tcertificates.push(Certificate(...\n  DUP2 \t\t\tcertificates.push(Certificate(...\n  PUSH 0\t\t\tcertificates.push(Certificate(...\n  ADD \t\t\tcertificates.push(Certificate(...\n  SWAP1 \t\t\tcertificates.push(Certificate(...\n  DUP2 \t\t\tcertificates.push(Certificate(...\n  PUSH [tag] 29\t\t\tcertificates.push(Certificate(...\n  SWAP2 \t\t\tcertificates.push(Certificate(...\n  SWAP1 \t\t\tcertificates.push(Certificate(...\n  PUSH [tag] 2\t\t\tcertificates.push(Certificate(...\n  JUMP \t\t\tcertificates.push(Certificate(...\ntag 29\t\t\tcertificates.push(Certificate(...\n  JUMPDEST \t\t\tcertificates.push(Certificate(...\n  POP \t\t\tcertificates.push(Certificate(...\n  PUSH 20\t\t\tcertificates.push(Certificate(...\n  DUP3 \t\t\tcertificates.push(Certificate(...\n  ADD \t\t\tcertificates.push(Certificate(...\n  MLOAD \t\t\tcertificates.push(Certificate(...\n  DUP2 \t\t\tcertificates.push(Certificate(...\n  PUSH 1\t\t\tcertificates.push(Certificate(...\n  ADD \t\t\tcertificates.push(Certificate(...\n  SWAP1 \t\t\tcertificates.push(Certificate(...\n  DUP2 \t\t\tcertificates.push(Certificate(...\n  PUSH [tag] 30\t\t\tcertificates.push(Certificate(...\n  SWAP2 \t\t\tcertificates.push(Certificate(...\n  SWAP1 \t\t\tcertificates.push(Certificate(...\n  PUSH [tag] 2\t\t\tcertificates.push(Certificate(...\n  JUMP \t\t\tcertificates.push(Certificate(...\ntag 30\t\t\tcertificates.push(Certificate(...\n  JUMPDEST \t\t\tcertificates.push(Certificate(...\n  POP \t\t\tcertificates.push(Certificate(...\n  PUSH 40\t\t\tcertificates.push(Certificate(...\n  DUP3 \t\t\tcertificates.push(Certificate(...\n  ADD \t\t\tcertificates.push(Certificate(...\n  MLOAD \t\t\tcertificates.push(Certificate(...\n  DUP2 \t\t\tcertificates.push(Certificate(...\n  PUSH 2\t\t\tcertificates.push(Certificate(...\n  ADD \t\t\tcertificates.push(Certificate(...\n  SSTORE \t\t\tcertificates.push(Certificate(...\n  PUSH 60\t\t\tcertificates.push(Certificate(...\n  DUP3 \t\t\tcertificates.push(Certificate(...\n  ADD \t\t\tcertificates.push(Certificate(...\n  MLOAD \t\t\tcertificates.push(Certificate(...\n  DUP2 \t\t\tcertificates.push(Certificate(...\n  PUSH 3\t\t\tcertificates.push(Certificate(...\n  ADD \t\t\tcertificates.push(Certificate(...\n  SWAP1 \t\t\tcertificates.push(Certificate(...\n  DUP2 \t\t\tcertificates.push(Certificate(...\n  PUSH [tag] 31\t\t\tcertificates.push(Certificate(...\n  SWAP2 \t\t\tcertificates.push(Certificate(...\n  SWAP1 \t\t\tcertificates.push(Certificate(...\n  PUSH [tag] 2\t\t\tcertificates.push(Certificate(...\n  JUMP \t\t\tcertificates.push(Certificate(...\ntag 31\t\t\tcertificates.push(Certificate(...\n  JUMPDEST \t\t\tcertificates.push(Certificate(...\n  POP \t\t\tcertificates.push(Certificate(...\n  POP \t\t\tcertificates.push(Certificate(...\n  POP \t\t\tcertificates.push(Certificate(...\n  PUSH 9\t\t\tcertificates\n  PUSH 40\t\t\tCertificate(\\n            \"Aud...\n  MLOAD \t\t\tCertificate(\\n            \"Aud...\n  DUP1 \t\t\tCertificate(\\n            \"Aud...\n  PUSH 80\t\t\tCertificate(\\n            \"Aud...\n  ADD \t\t\tCertificate(\\n            \"Aud...\n  PUSH 40\t\t\tCertificate(\\n            \"Aud...\n  MSTORE \t\t\tCertificate(\\n            \"Aud...\n  DUP1 \t\t\tCertificate(\\n            \"Aud...\n  PUSH 40\t\t\tCertificate(\\n            \"Aud...\n  MLOAD \t\t\tCertificate(\\n            \"Aud...\n  DUP1 \t\t\tCertificate(\\n            \"Aud...\n  PUSH 40\t\t\tCertificate(\\n            \"Aud...\n  ADD \t\t\tCertificate(\\n            \"Aud...\n  PUSH 40\t\t\tCertificate(\\n            \"Aud...\n  MSTORE \t\t\tCertificate(\\n            \"Aud...\n  DUP1 \t\t\tCertificate(\\n            \"Aud...\n  PUSH 19\t\t\tCertificate(\\n            \"Aud...\n  DUP2 \t\t\tCertificate(\\n            \"Aud...\n  MSTORE \t\t\tCertificate(\\n            \"Aud...\n  PUSH 20\t\t\tCertificate(\\n            \"Aud...\n  ADD \t\t\tCertificate(\\n            \"Aud...\n  PUSH 41756469747320616E642043657274696669636174696F6E7300000000000000\t\t\tCertificate(\\n            \"Aud...\n  DUP2 \t\t\tCertificate(\\n            \"Aud...\n  MSTORE \t\t\tCertificate(\\n            \"Aud...\n  POP \t\t\tCertificate(\\n            \"Aud...\n  DUP2 \t\t\tCertificate(\\n            \"Aud...\n  MSTORE \t\t\tCertificate(\\n            \"Aud...\n  PUSH 20\t\t\tCertificate(\\n            \"Aud...\n  ADD \t\t\tCertificate(\\n            \"Aud...\n  PUSH 40\t\t\tCertificate(\\n            \"Aud...\n  MLOAD \t\t\tCertificate(\\n            \"Aud...\n  DUP1 \t\t\tCertificate(\\n            \"Aud...\n  PUSH 40\t\t\tCertificate(\\n            \"Aud...\n  ADD \t\t\tCertificate(\\n            \"Aud...\n  PUSH 40\t\t\tCertificate(\\n            \"Aud...\n  MSTORE \t\t\tCertificate(\\n            \"Aud...\n  DUP1 \t\t\tCertificate(\\n            \"Aud...\n  PUSH 1B\t\t\tCertificate(\\n            \"Aud...\n  DUP2 \t\t\tCertificate(\\n            \"Aud...\n  MSTORE \t\t\tCertificate(\\n            \"Aud...\n  PUSH 20\t\t\tCertificate(\\n            \"Aud...\n  ADD \t\t\tCertificate(\\n            \"Aud...\n  PUSH 68747470733A2F2F646F63756D656E746363632E6F6E6C696E652F0000000000\t\t\tCertificate(\\n            \"Aud...\n  DUP2 \t\t\tCertificate(\\n            \"Aud...\n  MSTORE \t\t\tCertificate(\\n            \"Aud...\n  POP \t\t\tCertificate(\\n            \"Aud...\n  DUP2 \t\t\tCertificate(\\n            \"Aud...\n  MSTORE \t\t\tCertificate(\\n            \"Aud...\n  PUSH 20\t\t\tCertificate(\\n            \"Aud...\n  ADD \t\t\tCertificate(\\n            \"Aud...\n  TIMESTAMP \t\t\tblock.timestamp\n  DUP2 \t\t\tCertificate(\\n            \"Aud...\n  MSTORE \t\t\tCertificate(\\n            \"Aud...\n  PUSH 20\t\t\tCertificate(\\n            \"Aud...\n  ADD \t\t\tCertificate(\\n            \"Aud...\n  PUSH 40\t\t\tCertificate(\\n            \"Aud...\n  MLOAD \t\t\tCertificate(\\n            \"Aud...\n  DUP1 \t\t\tCertificate(\\n            \"Aud...\n  PUSH 40\t\t\tCertificate(\\n            \"Aud...\n  ADD \t\t\tCertificate(\\n            \"Aud...\n  PUSH 40\t\t\tCertificate(\\n            \"Aud...\n  MSTORE \t\t\tCertificate(\\n            \"Aud...\n  DUP1 \t\t\tCertificate(\\n            \"Aud...\n  PUSH 20\t\t\tCertificate(\\n            \"Aud...\n  DUP2 \t\t\tCertificate(\\n            \"Aud...\n  MSTORE \t\t\tCertificate(\\n            \"Aud...\n  PUSH 20\t\t\tCertificate(\\n            \"Aud...\n  ADD \t\t\tCertificate(\\n            \"Aud...\n  PUSH 4175646974207265706F72747320616E642063657274696669636174696F6E73\t\t\tCertificate(\\n            \"Aud...\n  DUP2 \t\t\tCertificate(\\n            \"Aud...\n  MSTORE \t\t\tCertificate(\\n            \"Aud...\n  POP \t\t\tCertificate(\\n            \"Aud...\n  DUP2 \t\t\tCertificate(\\n            \"Aud...\n  MSTORE \t\t\tCertificate(\\n            \"Aud...\n  POP \t\t\tCertificate(\\n            \"Aud...\n  SWAP1 \t\t\tcertificates.push(Certificate(...\n  DUP1 \t\t\tcertificates.push(Certificate(...\n  PUSH 1\t\t\tcertificates.push(Certificate(...\n  DUP2 \t\t\tcertificates.push(Certificate(...\n  SLOAD \t\t\tcertificates.push(Certificate(...\n  ADD \t\t\tcertificates.push(Certificate(...\n  DUP1 \t\t\tcertificates.push(Certificate(...\n  DUP3 \t\t\tcertificates.push(Certificate(...\n  SSTORE \t\t\tcertificates.push(Certificate(...\n  DUP1 \t\t\tcertificates.push(Certificate(...\n  SWAP2 \t\t\tcertificates.push(Certificate(...\n  POP \t\t\tcertificates.push(Certificate(...\n  POP \t\t\tcertificates.push(Certificate(...\n  PUSH 1\t\t\tcertificates.push(Certificate(...\n  SWAP1 \t\t\tcertificates.push(Certificate(...\n  SUB \t\t\tcertificates.push(Certificate(...\n  SWAP1 \t\t\tcertificates.push(Certificate(...\n  PUSH 0\t\t\tcertificates.push(Certificate(...\n  MSTORE \t\t\tcertificates.push(Certificate(...\n  PUSH 20\t\t\tcertificates.push(Certificate(...\n  PUSH 0\t\t\tcertificates.push(Certificate(...\n  KECCAK256 \t\t\tcertificates.push(Certificate(...\n  SWAP1 \t\t\tcertificates.push(Certificate(...\n  PUSH 4\t\t\tcertificates.push(Certificate(...\n  MUL \t\t\tcertificates.push(Certificate(...\n  ADD \t\t\tcertificates.push(Certificate(...\n  PUSH 0\t\t\tcertificates.push(Certificate(...\n  SWAP1 \t\t\tcertificates.push(Certificate(...\n  SWAP2 \t\t\tcertificates.push(Certificate(...\n  SWAP1 \t\t\tcertificates.push(Certificate(...\n  SWAP2 \t\t\tcertificates.push(Certificate(...\n  SWAP1 \t\t\tcertificates.push(Certificate(...\n  SWAP2 \t\t\tcertificates.push(Certificate(...\n  POP \t\t\tcertificates.push(Certificate(...\n  PUSH 0\t\t\tcertificates.push(Certificate(...\n  DUP3 \t\t\tcertificates.push(Certificate(...\n  ADD \t\t\tcertificates.push(Certificate(...\n  MLOAD \t\t\tcertificates.push(Certificate(...\n  DUP2 \t\t\tcertificates.push(Certificate(...\n  PUSH 0\t\t\tcertificates.push(Certificate(...\n  ADD \t\t\tcertificates.push(Certificate(...\n  SWAP1 \t\t\tcertificates.push(Certificate(...\n  DUP2 \t\t\tcertificates.push(Certificate(...\n  PUSH [tag] 33\t\t\tcertificates.push(Certificate(...\n  SWAP2 \t\t\tcertificates.push(Certificate(...\n  SWAP1 \t\t\tcertificates.push(Certificate(...\n  PUSH [tag] 2\t\t\tcertificates.push(Certificate(...\n  JUMP \t\t\tcertificates.push(Certificate(...\ntag 33\t\t\tcertificates.push(Certificate(...\n  JUMPDEST \t\t\tcertificates.push(Certificate(...\n  POP \t\t\tcertificates.push(Certificate(...\n  PUSH 20\t\t\tcertificates.push(Certificate(...\n  DUP3 \t\t\tcertificates.push(Certificate(...\n  ADD \t\t\tcertificates.push(Certificate(...\n  MLOAD \t\t\tcertificates.push(Certificate(...\n  DUP2 \t\t\tcertificates.push(Certificate(...\n  PUSH 1\t\t\tcertificates.push(Certificate(...\n  ADD \t\t\tcertificates.push(Certificate(...\n  SWAP1 \t\t\tcertificates.push(Certificate(...\n  DUP2 \t\t\tcertificates.push(Certificate(...\n  PUSH [tag] 34\t\t\tcertificates.push(Certificate(...\n  SWAP2 \t\t\tcertificates.push(Certificate(...\n  SWAP1 \t\t\tcertificates.push(Certificate(...\n  PUSH [tag] 2\t\t\tcertificates.push(Certificate(...\n  JUMP \t\t\tcertificates.push(Certificate(...\ntag 34\t\t\tcertificates.push(Certificate(...\n  JUMPDEST \t\t\tcertificates.push(Certificate(...\n  POP \t\t\tcertificates.push(Certificate(...\n  PUSH 40\t\t\tcertificates.push(Certificate(...\n  DUP3 \t\t\tcertificates.push(Certificate(...\n  ADD \t\t\tcertificates.push(Certificate(...\n  MLOAD \t\t\tcertificates.push(Certificate(...\n  DUP2 \t\t\tcertificates.push(Certificate(...\n  PUSH 2\t\t\tcertificates.push(Certificate(...\n  ADD \t\t\tcertificates.push(Certificate(...\n  SSTORE \t\t\tcertificates.push(Certificate(...\n  PUSH 60\t\t\tcertificates.push(Certificate(...\n  DUP3 \t\t\tcertificates.push(Certificate(...\n  ADD \t\t\tcertificates.push(Certificate(...\n  MLOAD \t\t\tcertificates.push(Certificate(...\n  DUP2 \t\t\tcertificates.push(Certificate(...\n  PUSH 3\t\t\tcertificates.push(Certificate(...\n  ADD \t\t\tcertificates.push(Certificate(...\n  SWAP1 \t\t\tcertificates.push(Certificate(...\n  DUP2 \t\t\tcertificates.push(Certificate(...\n  PUSH [tag] 35\t\t\tcertificates.push(Certificate(...\n  SWAP2 \t\t\tcertificates.push(Certificate(...\n  SWAP1 \t\t\tcertificates.push(Certificate(...\n  PUSH [tag] 2\t\t\tcertificates.push(Certificate(...\n  JUMP \t\t\tcertificates.push(Certificate(...\ntag 35\t\t\tcertificates.push(Certificate(...\n  JUMPDEST \t\t\tcertificates.push(Certificate(...\n  POP \t\t\tcertificates.push(Certificate(...\n  POP \t\t\tcertificates.push(Certificate(...\n  POP \t\t\tcertificates.push(Certificate(...\n  PUSH 9\t\t\tcertificates\n  PUSH 40\t\t\tCertificate(\\n            \"Whi...\n  MLOAD \t\t\tCertificate(\\n            \"Whi...\n  DUP1 \t\t\tCertificate(\\n            \"Whi...\n  PUSH 80\t\t\tCertificate(\\n            \"Whi...\n  ADD \t\t\tCertificate(\\n            \"Whi...\n  PUSH 40\t\t\tCertificate(\\n            \"Whi...\n  MSTORE \t\t\tCertificate(\\n            \"Whi...\n  DUP1 \t\t\tCertificate(\\n            \"Whi...\n  PUSH 40\t\t\tCertificate(\\n            \"Whi...\n  MLOAD \t\t\tCertificate(\\n            \"Whi...\n  DUP1 \t\t\tCertificate(\\n            \"Whi...\n  PUSH 40\t\t\tCertificate(\\n            \"Whi...\n  ADD \t\t\tCertificate(\\n            \"Whi...\n  PUSH 40\t\t\tCertificate(\\n            \"Whi...\n  MSTORE \t\t\tCertificate(\\n            \"Whi...\n  DUP1 \t\t\tCertificate(\\n            \"Whi...\n  PUSH E\t\t\tCertificate(\\n            \"Whi...\n  DUP2 \t\t\tCertificate(\\n            \"Whi...\n  MSTORE \t\t\tCertificate(\\n            \"Whi...\n  PUSH 20\t\t\tCertificate(\\n            \"Whi...\n  ADD \t\t\tCertificate(\\n            \"Whi...\n  PUSH 5768697465706170657220434343000000000000000000000000000000000000\t\t\tCertificate(\\n            \"Whi...\n  DUP2 \t\t\tCertificate(\\n            \"Whi...\n  MSTORE \t\t\tCertificate(\\n            \"Whi...\n  POP \t\t\tCertificate(\\n            \"Whi...\n  DUP2 \t\t\tCertificate(\\n            \"Whi...\n  MSTORE \t\t\tCertificate(\\n            \"Whi...\n  PUSH 20\t\t\tCertificate(\\n            \"Whi...\n  ADD \t\t\tCertificate(\\n            \"Whi...\n  PUSH 40\t\t\tCertificate(\\n            \"Whi...\n  MLOAD \t\t\tCertificate(\\n            \"Whi...\n  DUP1 \t\t\tCertificate(\\n            \"Whi...\n  PUSH 40\t\t\tCertificate(\\n            \"Whi...\n  ADD \t\t\tCertificate(\\n            \"Whi...\n  PUSH 40\t\t\tCertificate(\\n            \"Whi...\n  MSTORE \t\t\tCertificate(\\n            \"Whi...\n  DUP1 \t\t\tCertificate(\\n            \"Whi...\n  PUSH 1D\t\t\tCertificate(\\n            \"Whi...\n  DUP2 \t\t\tCertificate(\\n            \"Whi...\n  MSTORE \t\t\tCertificate(\\n            \"Whi...\n  PUSH 20\t\t\tCertificate(\\n            \"Whi...\n  ADD \t\t\tCertificate(\\n            \"Whi...\n  PUSH 68747470733A2F2F776869746570617065726363632E6F6E6C696E652F000000\t\t\tCertificate(\\n            \"Whi...\n  DUP2 \t\t\tCertificate(\\n            \"Whi...\n  MSTORE \t\t\tCertificate(\\n            \"Whi...\n  POP \t\t\tCertificate(\\n            \"Whi...\n  DUP2 \t\t\tCertificate(\\n            \"Whi...\n  MSTORE \t\t\tCertificate(\\n            \"Whi...\n  PUSH 20\t\t\tCertificate(\\n            \"Whi...\n  ADD \t\t\tCertificate(\\n            \"Whi...\n  TIMESTAMP \t\t\tblock.timestamp\n  DUP2 \t\t\tCertificate(\\n            \"Whi...\n  MSTORE \t\t\tCertificate(\\n            \"Whi...\n  PUSH 20\t\t\tCertificate(\\n            \"Whi...\n  ADD \t\t\tCertificate(\\n            \"Whi...\n  PUSH 40\t\t\tCertificate(\\n            \"Whi...\n  MLOAD \t\t\tCertificate(\\n            \"Whi...\n  DUP1 \t\t\tCertificate(\\n            \"Whi...\n  PUSH 40\t\t\tCertificate(\\n            \"Whi...\n  ADD \t\t\tCertificate(\\n            \"Whi...\n  PUSH 40\t\t\tCertificate(\\n            \"Whi...\n  MSTORE \t\t\tCertificate(\\n            \"Whi...\n  DUP1 \t\t\tCertificate(\\n            \"Whi...\n  PUSH 1B\t\t\tCertificate(\\n            \"Whi...\n  DUP2 \t\t\tCertificate(\\n            \"Whi...\n  MSTORE \t\t\tCertificate(\\n            \"Whi...\n  PUSH 20\t\t\tCertificate(\\n            \"Whi...\n  ADD \t\t\tCertificate(\\n            \"Whi...\n  PUSH 4F6666696369616C2070726F6A65637420776869746570617065720000000000\t\t\tCertificate(\\n            \"Whi...\n  DUP2 \t\t\tCertificate(\\n            \"Whi...\n  MSTORE \t\t\tCertificate(\\n            \"Whi...\n  POP \t\t\tCertificate(\\n            \"Whi...\n  DUP2 \t\t\tCertificate(\\n            \"Whi...\n  MSTORE \t\t\tCertificate(\\n            \"Whi...\n  POP \t\t\tCertificate(\\n            \"Whi...\n  SWAP1 \t\t\tcertificates.push(Certificate(...\n  DUP1 \t\t\tcertificates.push(Certificate(...\n  PUSH 1\t\t\tcertificates.push(Certificate(...\n  DUP2 \t\t\tcertificates.push(Certificate(...\n  SLOAD \t\t\tcertificates.push(Certificate(...\n  ADD \t\t\tcertificates.push(Certificate(...\n  DUP1 \t\t\tcertificates.push(Certificate(...\n  DUP3 \t\t\tcertificates.push(Certificate(...\n  SSTORE \t\t\tcertificates.push(Certificate(...\n  DUP1 \t\t\tcertificates.push(Certificate(...\n  SWAP2 \t\t\tcertificates.push(Certificate(...\n  POP \t\t\tcertificates.push(Certificate(...\n  POP \t\t\tcertificates.push(Certificate(...\n  PUSH 1\t\t\tcertificates.push(Certificate(...\n  SWAP1 \t\t\tcertificates.push(Certificate(...\n  SUB \t\t\tcertificates.push(Certificate(...\n  SWAP1 \t\t\tcertificates.push(Certificate(...\n  PUSH 0\t\t\tcertificates.push(Certificate(...\n  MSTORE \t\t\tcertificates.push(Certificate(...\n  PUSH 20\t\t\tcertificates.push(Certificate(...\n  PUSH 0\t\t\tcertificates.push(Certificate(...\n  KECCAK256 \t\t\tcertificates.push(Certificate(...\n  SWAP1 \t\t\tcertificates.push(Certificate(...\n  PUSH 4\t\t\tcertificates.push(Certificate(...\n  MUL \t\t\tcertificates.push(Certificate(...\n  ADD \t\t\tcertificates.push(Certificate(...\n  PUSH 0\t\t\tcertificates.push(Certificate(...\n  SWAP1 \t\t\tcertificates.push(Certificate(...\n  SWAP2 \t\t\tcertificates.push(Certificate(...\n  SWAP1 \t\t\tcertificates.push(Certificate(...\n  SWAP2 \t\t\tcertificates.push(Certificate(...\n  SWAP1 \t\t\tcertificates.push(Certificate(...\n  SWAP2 \t\t\tcertificates.push(Certificate(...\n  POP \t\t\tcertificates.push(Certificate(...\n  PUSH 0\t\t\tcertificates.push(Certificate(...\n  DUP3 \t\t\tcertificates.push(Certificate(...\n  ADD \t\t\tcertificates.push(Certificate(...\n  MLOAD \t\t\tcertificates.push(Certificate(...\n  DUP2 \t\t\tcertificates.push(Certificate(...\n  PUSH 0\t\t\tcertificates.push(Certificate(...\n  ADD \t\t\tcertificates.push(Certificate(...\n  SWAP1 \t\t\tcertificates.push(Certificate(...\n  DUP2 \t\t\tcertificates.push(Certificate(...\n  PUSH [tag] 37\t\t\tcertificates.push(Certificate(...\n  SWAP2 \t\t\tcertificates.push(Certificate(...\n  SWAP1 \t\t\tcertificates.push(Certificate(...\n  PUSH [tag] 2\t\t\tcertificates.push(Certificate(...\n  JUMP \t\t\tcertificates.push(Certificate(...\ntag 37\t\t\tcertificates.push(Certificate(...\n  JUMPDEST \t\t\tcertificates.push(Certificate(...\n  POP \t\t\tcertificates.push(Certificate(...\n  PUSH 20\t\t\tcertificates.push(Certificate(...\n  DUP3 \t\t\tcertificates.push(Certificate(...\n  ADD \t\t\tcertificates.push(Certificate(...\n  MLOAD \t\t\tcertificates.push(Certificate(...\n  DUP2 \t\t\tcertificates.push(Certificate(...\n  PUSH 1\t\t\tcertificates.push(Certificate(...\n  ADD \t\t\tcertificates.push(Certificate(...\n  SWAP1 \t\t\tcertificates.push(Certificate(...\n  DUP2 \t\t\tcertificates.push(Certificate(...\n  PUSH [tag] 38\t\t\tcertificates.push(Certificate(...\n  SWAP2 \t\t\tcertificates.push(Certificate(...\n  SWAP1 \t\t\tcertificates.push(Certificate(...\n  PUSH [tag] 2\t\t\tcertificates.push(Certificate(...\n  JUMP \t\t\tcertificates.push(Certificate(...\ntag 38\t\t\tcertificates.push(Certificate(...\n  JUMPDEST \t\t\tcertificates.push(Certificate(...\n  POP \t\t\tcertificates.push(Certificate(...\n  PUSH 40\t\t\tcertificates.push(Certificate(...\n  DUP3 \t\t\tcertificates.push(Certificate(...\n  ADD \t\t\tcertificates.push(Certificate(...\n  MLOAD \t\t\tcertificates.push(Certificate(...\n  DUP2 \t\t\tcertificates.push(Certificate(...\n  PUSH 2\t\t\tcertificates.push(Certificate(...\n  ADD \t\t\tcertificates.push(Certificate(...\n  SSTORE \t\t\tcertificates.push(Certificate(...\n  PUSH 60\t\t\tcertificates.push(Certificate(...\n  DUP3 \t\t\tcertificates.push(Certificate(...\n  ADD \t\t\tcertificates.push(Certificate(...\n  MLOAD \t\t\tcertificates.push(Certificate(...\n  DUP2 \t\t\tcertificates.push(Certificate(...\n  PUSH 3\t\t\tcertificates.push(Certificate(...\n  ADD \t\t\tcertificates.push(Certificate(...\n  SWAP1 \t\t\tcertificates.push(Certificate(...\n  DUP2 \t\t\tcertificates.push(Certificate(...\n  PUSH [tag] 39\t\t\tcertificates.push(Certificate(...\n  SWAP2 \t\t\tcertificates.push(Certificate(...\n  SWAP1 \t\t\tcertificates.push(Certificate(...\n  PUSH [tag] 2\t\t\tcertificates.push(Certificate(...\n  JUMP \t\t\tcertificates.push(Certificate(...\ntag 39\t\t\tcertificates.push(Certificate(...\n  JUMPDEST \t\t\tcertificates.push(Certificate(...\n  POP \t\t\tcertificates.push(Certificate(...\n  POP \t\t\tcertificates.push(Certificate(...\n  POP \t\t\tcertificates.push(Certificate(...\n  POP \t\t\tconstructor(\\n        address ...\n  POP \t\t\tconstructor(\\n        address ...\n  POP \t\t\tconstructor(\\n        address ...\n  PUSH [tag] 40\t\t\tcontract CarbonCreditCoins is ...\n  JUMP \t\t\tcontract CarbonCreditCoins is ...\ntag 17\t\t\tdress(0), \"Invalid address\");\\...\n  JUMPDEST \t\t\tdress(0), \"Invalid address\");\\...\n  PUSH 0\t\t\tit ReserveWallet\n  PUSH 5\t\t\tated(_\n  PUSH 0\t\t\tated(_\n  SWAP1 \t\t\tated(_\n  SLOAD \t\t\tated(_\n  SWAP1 \t\t\tated(_\n  PUSH 100\t\t\tated(_\n  EXP \t\t\tated(_\n  SWAP1 \t\t\tated(_\n  DIV \t\t\tated(_\n  PUSH FFFFFFFFFFFFFFFFFFFFFFFFFFFFFFFFFFFFFFFF\t\t\tated(_\n  AND \t\t\tated(_\n  SWAP1 \t\t\tit ReserveWalletUpdated(_\n  POP \t\t\tit ReserveWalletUpdated(_\n  DUP2 \t\t\t functio\n  PUSH 5\t\t\t   }\\n\\n\n  PUSH 0\t\t\t   }\\n\\n\n  PUSH 100\t\t\t   }\\n\\n    functio\n  EXP \t\t\t   }\\n\\n    functio\n  DUP2 \t\t\t   }\\n\\n    functio\n  SLOAD \t\t\t   }\\n\\n    functio\n  DUP2 \t\t\t   }\\n\\n    functio\n  PUSH FFFFFFFFFFFFFFFFFFFFFFFFFFFFFFFFFFFFFFFF\t\t\t   }\\n\\n    functio\n  MUL \t\t\t   }\\n\\n    functio\n  NOT \t\t\t   }\\n\\n    functio\n  AND \t\t\t   }\\n\\n    functio\n  SWAP1 \t\t\t   }\\n\\n    functio\n  DUP4 \t\t\t   }\\n\\n    functio\n  PUSH FFFFFFFFFFFFFFFFFFFFFFFFFFFFFFFFFFFFFFFF\t\t\t   }\\n\\n    functio\n  AND \t\t\t   }\\n\\n    functio\n  MUL \t\t\t   }\\n\\n    functio\n  OR \t\t\t   }\\n\\n    functio\n  SWAP1 \t\t\t   }\\n\\n    functio\n  SSTORE \t\t\t   }\\n\\n    functio\n  POP \t\t\t   }\\n\\n    functio\n  DUP2 \t\t\tyOwner {\n  PUSH FFFFFFFFFFFFFFFFFFFFFFFFFFFFFFFFFFFFFFFF\t\t\ttring memory _uri) external on...\n  AND \t\t\ttring memory _uri) external on...\n  DUP2 \t\t\tternal o\n  PUSH FFFFFFFFFFFFFFFFFFFFFFFFFFFFFFFFFFFFFFFF\t\t\ttring memory _uri) external on...\n  AND \t\t\ttring memory _uri) external on...\n  PUSH 8BE0079C531659141344CD1FD0A4F28419497F9722A3DAAFE3B4186F6B6457E0\t\t\ttring memory _uri) external on...\n  PUSH 40\t\t\ttring memory _uri) external on...\n  MLOAD \t\t\ttring memory _uri) external on...\n  PUSH 40\t\t\ttring memory _uri) external on...\n  MLOAD \t\t\ttring memory _uri) external on...\n  DUP1 \t\t\ttring memory _uri) external on...\n  SWAP2 \t\t\ttring memory _uri) external on...\n  SUB \t\t\ttring memory _uri) external on...\n  SWAP1 \t\t\ttring memory _uri) external on...\n  LOG3 \t\t\ttring memory _uri) external on...\n  POP \t\t\t        emit ReserveWalletUpda...\n  POP \t\t\tdress(0), \"Invalid address\");\\...\n  JUMP \t\t\tdress(0), \"Invalid address\");\\...\ntag 27\t\t\t\n  JUMPDEST \t\t\t\n  PUSH 0\t\t\t\n  PUSH FFFFFFFFFFFFFFFFFFFFFFFFFFFFFFFFFFFFFFFF\t\t\t\n  AND \t\t\t\n  DUP3 \t\t\t\n  PUSH FFFFFFFFFFFFFFFFFFFFFFFFFFFFFFFFFFFFFFFF\t\t\t\n  AND \t\t\t\n  SUB \t\t\t\n  PUSH [tag] 43\t\t\t\n  JUMPI \t\t\t\n  PUSH 0\t\t\t\n  PUSH 40\t\t\t\n  MLOAD \t\t\t\n  PUSH EC442F0500000000000000000000000000000000000000000000000000000000\t\t\t\n  DUP2 \t\t\t\n  MSTORE \t\t\t\n  PUSH 4\t\t\t\n  ADD \t\t\t\n  PUSH [tag] 44\t\t\t\n  SWAP2 \t\t\t\n  SWAP1 \t\t\t\n  PUSH [tag] 15\t\t\t\n  JUMP \t\t\t\ntag 44\t\t\t\n  JUMPDEST \t\t\t\n  PUSH 40\t\t\t\n  MLOAD \t\t\t\n  DUP1 \t\t\t\n  SWAP2 \t\t\t\n  SUB \t\t\t\n  SWAP1 \t\t\t\n  REVERT \t\t\t\ntag 43\t\t\t\n  JUMPDEST \t\t\t\n  PUSH [tag] 45\t\t\t\n  PUSH 0\t\t\t\n  DUP4 \t\t\t\n  DUP4 \t\t\t\n  PUSH [tag] 46\t\t\t\n  PUSH 20\t\t\t\n  SHL \t\t\t\n  PUSH 20\t\t\t\n  SHR \t\t\t\n  JUMP \t\t\t\ntag 45\t\t\t\n  JUMPDEST \t\t\t\n  POP \t\t\t\n  POP \t\t\t\n  JUMP \t\t\t\ntag 46\t\t\t\n  JUMPDEST \t\t\t\n  PUSH 0\t\t\t\n  PUSH FFFFFFFFFFFFFFFFFFFFFFFFFFFFFFFFFFFFFFFF\t\t\t\n  AND \t\t\t\n  DUP4 \t\t\t\n  PUSH FFFFFFFFFFFFFFFFFFFFFFFFFFFFFFFFFFFFFFFF\t\t\t\n  AND \t\t\t\n  SUB \t\t\t\n  PUSH [tag] 48\t\t\t\n  JUMPI \t\t\t\n  DUP1 \t\t\t\n  PUSH 2\t\t\t\n  PUSH 0\t\t\t\n  DUP3 \t\t\t\n  DUP3 \t\t\t\n  SLOAD \t\t\t\n  PUSH [tag] 49\t\t\t\n  SWAP2 \t\t\t\n  SWAP1 \t\t\t\n  PUSH [tag] 50\t\t\t\n  JUMP \t\t\t\ntag 49\t\t\t\n  JUMPDEST \t\t\t\n  SWAP3 \t\t\t\n  POP \t\t\t\n  POP \t\t\t\n  DUP2 \t\t\t\n  SWAP1 \t\t\t\n  SSTORE \t\t\t\n  POP \t\t\t\n  PUSH [tag] 51\t\t\t\n  JUMP \t\t\t\ntag 48\t\t\t\n  JUMPDEST \t\t\t\n  PUSH 0\t\t\t\n  DUP1 \t\t\t\n  PUSH 0\t\t\t\n  DUP6 \t\t\t\n  PUSH FFFFFFFFFFFFFFFFFFFFFFFFFFFFFFFFFFFFFFFF\t\t\t\n  AND \t\t\t\n  PUSH FFFFFFFFFFFFFFFFFFFFFFFFFFFFFFFFFFFFFFFF\t\t\t\n  AND \t\t\t\n  DUP2 \t\t\t\n  MSTORE \t\t\t\n  PUSH 20\t\t\t\n  ADD \t\t\t\n  SWAP1 \t\t\t\n  DUP2 \t\t\t\n  MSTORE \t\t\t\n  PUSH 20\t\t\t\n  ADD \t\t\t\n  PUSH 0\t\t\t\n  KECCAK256 \t\t\t\n  SLOAD \t\t\t\n  SWAP1 \t\t\t\n  POP \t\t\t\n  DUP2 \t\t\t\n  DUP2 \t\t\t\n  LT \t\t\t\n  ISZERO \t\t\t\n  PUSH [tag] 52\t\t\t\n  JUMPI \t\t\t\n  DUP4 \t\t\t\n  DUP2 \t\t\t\n  DUP4 \t\t\t\n  PUSH 40\t\t\t\n  MLOAD \t\t\t\n  PUSH E450D38C00000000000000000000000000000000000000000000000000000000\t\t\t\n  DUP2 \t\t\t\n  MSTORE \t\t\t\n  PUSH 4\t\t\t\n  ADD \t\t\t\n  PUSH [tag] 53\t\t\t\n  SWAP4 \t\t\t\n  SWAP3 \t\t\t\n  SWAP2 \t\t\t\n  SWAP1 \t\t\t\n  PUSH [tag] 54\t\t\t\n  JUMP \t\t\t\ntag 53\t\t\t\n  JUMPDEST \t\t\t\n  PUSH 40\t\t\t\n  MLOAD \t\t\t\n  DUP1 \t\t\t\n  SWAP2 \t\t\t\n  SUB \t\t\t\n  SWAP1 \t\t\t\n  REVERT \t\t\t\ntag 52\t\t\t\n  JUMPDEST \t\t\t\n  DUP2 \t\t\t\n  DUP2 \t\t\t\n  SUB \t\t\t\n  PUSH 0\t\t\t\n  DUP1 \t\t\t\n  DUP7 \t\t\t\n  PUSH FFFFFFFFFFFFFFFFFFFFFFFFFFFFFFFFFFFFFFFF\t\t\t\n  AND \t\t\t\n  PUSH FFFFFFFFFFFFFFFFFFFFFFFFFFFFFFFFFFFFFFFF\t\t\t\n  AND \t\t\t\n  DUP2 \t\t\t\n  MSTORE \t\t\t\n  PUSH 20\t\t\t\n  ADD \t\t\t\n  SWAP1 \t\t\t\n  DUP2 \t\t\t\n  MSTORE \t\t\t\n  PUSH 20\t\t\t\n  ADD \t\t\t\n  PUSH 0\t\t\t\n  KECCAK256 \t\t\t\n  DUP2 \t\t\t\n  SWAP1 \t\t\t\n  SSTORE \t\t\t\n  POP \t\t\t\n  POP \t\t\t\ntag 51\t\t\t\n  JUMPDEST \t\t\t\n  PUSH 0\t\t\t\n  PUSH FFFFFFFFFFFFFFFFFFFFFFFFFFFFFFFFFFFFFFFF\t\t\t\n  AND \t\t\t\n  DUP3 \t\t\t\n  PUSH FFFFFFFFFFFFFFFFFFFFFFFFFFFFFFFFFFFFFFFF\t\t\t\n  AND \t\t\t\n  SUB \t\t\t\n  PUSH [tag] 55\t\t\t\n  JUMPI \t\t\t\n  DUP1 \t\t\t\n  PUSH 2\t\t\t\n  PUSH 0\t\t\t\n  DUP3 \t\t\t\n  DUP3 \t\t\t\n  SLOAD \t\t\t\n  SUB \t\t\t\n  SWAP3 \t\t\t\n  POP \t\t\t\n  POP \t\t\t\n  DUP2 \t\t\t\n  SWAP1 \t\t\t\n  SSTORE \t\t\t\n  POP \t\t\t\n  PUSH [tag] 56\t\t\t\n  JUMP \t\t\t\ntag 55\t\t\t\n  JUMPDEST \t\t\t\n  DUP1 \t\t\t\n  PUSH 0\t\t\t\n  DUP1 \t\t\t\n  DUP5 \t\t\t\n  PUSH FFFFFFFFFFFFFFFFFFFFFFFFFFFFFFFFFFFFFFFF\t\t\t\n  AND \t\t\t\n  PUSH FFFFFFFFFFFFFFFFFFFFFFFFFFFFFFFFFFFFFFFF\t\t\t\n  AND \t\t\t\n  DUP2 \t\t\t\n  MSTORE \t\t\t\n  PUSH 20\t\t\t\n  ADD \t\t\t\n  SWAP1 \t\t\t\n  DUP2 \t\t\t\n  MSTORE \t\t\t\n  PUSH 20\t\t\t\n  ADD \t\t\t\n  PUSH 0\t\t\t\n  KECCAK256 \t\t\t\n  PUSH 0\t\t\t\n  DUP3 \t\t\t\n  DUP3 \t\t\t\n  SLOAD \t\t\t\n  ADD \t\t\t\n  SWAP3 \t\t\t\n  POP \t\t\t\n  POP \t\t\t\n  DUP2 \t\t\t\n  SWAP1 \t\t\t\n  SSTORE \t\t\t\n  POP \t\t\t\ntag 56\t\t\t\n  JUMPDEST \t\t\t\n  DUP2 \t\t\t\n  PUSH FFFFFFFFFFFFFFFFFFFFFFFFFFFFFFFFFFFFFFFF\t\t\t\n  AND \t\t\t\n  DUP4 \t\t\t\n  PUSH FFFFFFFFFFFFFFFFFFFFFFFFFFFFFFFFFFFFFFFF\t\t\t\n  AND \t\t\t\n  PUSH DDF252AD1BE2C89B69C2B068FC378DAA952BA7F163C4A11628F55A4DF523B3EF\t\t\t\n  DUP4 \t\t\t\n  PUSH 40\t\t\t\n  MLOAD \t\t\t\n  PUSH [tag] 57\t\t\t\n  SWAP2 \t\t\t\n  SWAP1 \t\t\t\n  PUSH [tag] 58\t\t\t\n  JUMP \t\t\t\ntag 57\t\t\t\n  JUMPDEST \t\t\t\n  PUSH 40\t\t\t\n  MLOAD \t\t\t\n  DUP1 \t\t\t\n  SWAP2 \t\t\t\n  SUB \t\t\t\n  SWAP1 \t\t\t\n  LOG3 \t\t\t\n  POP \t\t\t\n  POP \t\t\t\n  POP \t\t\t\n  JUMP \t\t\t\ntag 59\t\t\t-License-Identifier: MIT\\nprag...\n  JUMPDEST \t\t\t-License-Identifier: MIT\\nprag...\n  PUSH 0\t\t\t*\\nCarb\n  DUP2 \t\t\tution\n  MLOAD \t\t\tInstitutiona\n  SWAP1 \t\t\tins (CCC)\\nInstitutiona\n  POP \t\t\tins (CCC)\\nInstitutiona\n  SWAP2 \t\t\t-License-Identifier: MIT\\nprag...\n  SWAP1 \t\t\t-License-Identifier: MIT\\nprag...\n  POP \t\t\t-License-Identifier: MIT\\nprag...\n  JUMP \t\t\t-License-Identifier: MIT\\nprag...\ntag 60\t\t\t with Transparency Layer\\n*/\\n...\n  JUMPDEST \t\t\t with Transparency Layer\\n*/\\n...\n  PUSH 4E487B7100000000000000000000000000000000000000000000000000000000\t\t\tin/contracts/token/ERC20/ERC20...\n  PUSH 0\t\t\tp\n  MSTORE \t\t\topenzeppelin/contracts/token/E...\n  PUSH 41\t\t\tct C\n  PUSH 4\t\t\tt\n  MSTORE \t\t\t\";\\n\\ncontract Ca\n  PUSH 24\t\t\tERC2\n  PUSH 0\t\t\ti\n  REVERT \t\t\ttCoins is ERC20\ntag 61\t\t\t\\n    // =====================...\n  JUMPDEST \t\t\t\\n    // =====================...\n  PUSH 4E487B7100000000000000000000000000000000000000000000000000000000\t\t\tONFIG\\n    // ================...\n  PUSH 0\t\t\tN\n  MSTORE \t\t\t// TOKEN CONFIG\\n    // ======...\n  PUSH 22\t\t\t**18\n  PUSH 4\t\t\t \n  MSTORE \t\t\t00000 * 10**18;\n  PUSH 24\t\t\t====\n  PUSH 0\t\t\t=\n  REVERT \t\t\t===============\ntag 62\t\t\t   // METADATA\\n    // =======...\n  JUMPDEST \t\t\t   // METADATA\\n    // =======...\n  PUSH 0\t\t\t===\\n\\n \n  PUSH 2\t\t\t \n  DUP3 \t\t\t;\\n\\n \n  DIV \t\t\teURI;\\n\\n    s\n  SWAP1 \t\t\tublic imageURI;\\n\\n    s\n  POP \t\t\tublic imageURI;\\n\\n    s\n  PUSH 1\t\t\te\n  DUP3 \t\t\tbon \n  AND \t\t\t\"Carbon Cred\n  DUP1 \t\t\t digital asset des\n  PUSH [tag] 108\t\t\t(CCC) is a digital asset desig...\n  JUMPI \t\t\t(CCC) is a digital asset desig...\n  PUSH 7F\t\t\t thr\n  DUP3 \t\t\tal val\n  AND \t\t\tmental value thro\n  SWAP2 \t\t\tnt environmental value thro\n  POP \t\t\tnt environmental value thro\ntag 108\t\t\t(CCC) is a digital asset desig...\n  JUMPDEST \t\t\t(CCC) is a digital asset desig...\n  PUSH 20\t\t\toc\n  DUP3 \t\t\tted by\n  LT \t\t\tported by docu\n  DUP2 \t\t\t-related assets, s\n  SUB \t\t\tbon-related assets, supported ...\n  PUSH [tag] 109\t\t\tcarbon-related assets, support...\n  JUMPI \t\t\tcarbon-related assets, support...\n  PUSH [tag] 110\t\t\ts, and transparenc\n  PUSH [tag] 61\t\t\ts, and transparenc\n  JUMP \t\t\ts, and transparenc\ntag 110\t\t\ts, and transparenc\n  JUMPDEST \t\t\ts, and transparenc\ntag 109\t\t\tcarbon-related assets, support...\n  JUMPDEST \t\t\tcarbon-related assets, support...\n  POP \t\t\t  string public imageURI;\\n\\n ...\n  SWAP2 \t\t\t   // METADATA\\n    // =======...\n  SWAP1 \t\t\t   // METADATA\\n    // =======...\n  POP \t\t\t   // METADATA\\n    // =======...\n  JUMP \t\t\t   // METADATA\\n    // =======...\ntag 63\t\t\t/ =========================\\n ...\n  JUMPDEST \t\t\t/ =========================\\n ...\n  PUSH 0\t\t\t ===\n  DUP2 \t\t\t===\n  SWAP1 \t\t\t===========\n  POP \t\t\t===========\n  DUP2 \t\t\t re\n  PUSH 0\t\t\tl\n  MSTORE \t\t\tess public res\n  PUSH 20\t\t\t====\n  PUSH 0\t\t\t=\n  KECCAK256 \t\t\t// ===============\n  SWAP1 \t\t\tt;\\n\\n    // ===============\n  POP \t\t\tt;\\n\\n    // ===============\n  SWAP2 \t\t\t/ =========================\\n ...\n  SWAP1 \t\t\t/ =========================\\n ...\n  POP \t\t\t/ =========================\\n ...\n  JUMP \t\t\t/ =========================\\n ...\ntag 64\t\t\t  // CERTIFICATES (IPFS / LINK...\n  JUMPDEST \t\t\t  // CERTIFICATES (IPFS / LINK...\n  PUSH 0\t\t\t// ===\n  PUSH 20\t\t\tic\n  PUSH 1F\t\t\ter\n  DUP4 \t\t\ttruct\n  ADD \t\t\t   struct Cert\n  DIV \t\t\t=\\n\\n    struct Certifica\n  SWAP1 \t\t\t===========\\n\\n    struct Cert...\n  POP \t\t\t===========\\n\\n    struct Cert...\n  SWAP2 \t\t\t  // CERTIFICATES (IPFS / LINK...\n  SWAP1 \t\t\t  // CERTIFICATES (IPFS / LINK...\n  POP \t\t\t  // CERTIFICATES (IPFS / LINK...\n  JUMP \t\t\t  // CERTIFICATES (IPFS / LINK...\ntag 65\t\t\t string name;\\n        string ...\n  JUMPDEST \t\t\t string name;\\n        string ...\n  PUSH 0\t\t\tint256 t\n  DUP3 \t\t\t}\\n\\n  \n  DUP3 \t\t\t;\\n  \n  SHL \t\t\ttion;\\n    }\\n\\n   \n  SWAP1 \t\t\t       string description;\\n  ...\n  POP \t\t\t       string description;\\n  ...\n  SWAP3 \t\t\t string name;\\n        string ...\n  SWAP2 \t\t\t string name;\\n        string ...\n  POP \t\t\t string name;\\n        string ...\n  POP \t\t\t string name;\\n        string ...\n  JUMP \t\t\t string name;\\n        string ...\ntag 66\t\t\t] public certificates;\\n\\n    ...\n  JUMPDEST \t\t\t] public certificates;\\n\\n    ...\n  PUSH 0\t\t\tS\\n    \n  PUSH 8\t\t\ti\n  DUP4 \t\t\t  event Ce\n  MUL \t\t\t\\n\\n    event Certif\n  PUSH [tag] 115\t\t\tint256 indexed id,\\n        st...\n  PUSH FFFFFFFFFFFFFFFFFFFFFFFFFFFFFFFFFFFFFFFFFFFFFFFFFFFFFFFFFFFFFFFF\t\t\ting name,\\n        string link...\n  DUP3 \t\t\t        s\n  PUSH [tag] 65\t\t\tint256 indexed id,\\n        st...\n  JUMP \t\t\tint256 indexed id,\\n        st...\ntag 115\t\t\tint256 indexed id,\\n        st...\n  JUMPDEST \t\t\tint256 indexed id,\\n        st...\n  PUSH [tag] 116\t\t\ttUpdated(address newReserveWal...\n  DUP7 \t\t\tlet);\\n\\n \n  DUP4 \t\t\twReserveW\n  PUSH [tag] 65\t\t\ttUpdated(address newReserveWal...\n  JUMP \t\t\ttUpdated(address newReserveWal...\ntag 116\t\t\ttUpdated(address newReserveWal...\n  JUMPDEST \t\t\ttUpdated(address newReserveWal...\n  SWAP6 \t\t\tReserveWalletUpdated(address n...\n  POP \t\t\tReserveWalletUpdated(address n...\n  DUP1 \t\t\t  //\n  NOT \t\t\t=\\n    // \n  DUP5 \t\t\t=====\n  AND \t\t\t============\\n    // C\n  SWAP4 \t\t\t=====================\\n    // ...\n  POP \t\t\t=====================\\n    // ...\n  DUP1 \t\t\t\\n\\n  \n  DUP7 \t\t\t========\n  AND \t\t\t==============\\n\\n   \n  DUP5 \t\t\t=====\n  OR \t\t\t========================\\n\\n  ...\n  SWAP3 \t\t\tR\\n    // ====================...\n  POP \t\t\tR\\n    // ====================...\n  POP \t\t\t/ =========================\\n\\...\n  POP \t\t\t/ =========================\\n\\...\n  SWAP4 \t\t\t] public certificates;\\n\\n    ...\n  SWAP3 \t\t\t] public certificates;\\n\\n    ...\n  POP \t\t\t] public certificates;\\n\\n    ...\n  POP \t\t\t] public certificates;\\n\\n    ...\n  POP \t\t\t] public certificates;\\n\\n    ...\n  JUMP \t\t\t] public certificates;\\n\\n    ...\ntag 67\t\t\t\\n        address masterWallet...\n  JUMPDEST \t\t\t\\n        address masterWallet...\n  PUSH 0\t\t\t  strin\n  DUP2 \t\t\t     \n  SWAP1 \t\t\tmageURI,\\n       \n  POP \t\t\tmageURI,\\n       \n  SWAP2 \t\t\t\\n        address masterWallet...\n  SWAP1 \t\t\t\\n        address masterWallet...\n  POP \t\t\t\\n        address masterWallet...\n  JUMP \t\t\t\\n        address masterWallet...\ntag 68\t\t\tserveWallet\\n    )\\n        ER...\n  JUMPDEST \t\t\tserveWallet\\n    )\\n        ER...\n  PUSH 0\t\t\tC20\n  DUP2 \t\t\tins\",\n  SWAP1 \t\t\tedit Coins\",\n  POP \t\t\tedit Coins\",\n  SWAP2 \t\t\tserveWallet\\n    )\\n        ER...\n  SWAP1 \t\t\tserveWallet\\n    )\\n        ER...\n  POP \t\t\tserveWallet\\n    )\\n        ER...\n  JUMP \t\t\tserveWallet\\n    )\\n        ER...\ntag 69\t\t\t    Ownable(masterWallet)\\n   ...\n  JUMPDEST \t\t\t    Ownable(masterWallet)\\n   ...\n  PUSH 0\t\t\tsterWalle\n  PUSH [tag] 120\t\t\td owner\");\\n        require(_r...\n  PUSH [tag] 121\t\t\t require(_reserveWallet != add...\n  PUSH [tag] 122\t\t\t_reserveWallet != addres\n  DUP5 \t\t\taddre\n  PUSH [tag] 67\t\t\t_reserveWallet != addres\n  JUMP \t\t\t_reserveWallet != addres\ntag 122\t\t\t_reserveWallet != addres\n  JUMPDEST \t\t\t_reserveWallet != addres\n  PUSH [tag] 68\t\t\t require(_reserveWallet != add...\n  JUMP \t\t\t require(_reserveWallet != add...\ntag 121\t\t\t require(_reserveWallet != add...\n  JUMPDEST \t\t\t require(_reserveWallet != add...\n  PUSH [tag] 67\t\t\td owner\");\\n        require(_r...\n  JUMP \t\t\td owner\");\\n        require(_r...\ntag 120\t\t\td owner\");\\n        require(_r...\n  JUMPDEST \t\t\td owner\");\\n        require(_r...\n  SWAP1 \t\t\ts(0), \"Invalid owner\");\\n     ...\n  POP \t\t\ts(0), \"Invalid owner\");\\n     ...\n  SWAP2 \t\t\t    Ownable(masterWallet)\\n   ...\n  SWAP1 \t\t\t    Ownable(masterWallet)\\n   ...\n  POP \t\t\t    Ownable(masterWallet)\\n   ...\n  JUMP \t\t\t    Ownable(masterWallet)\\n   ...\ntag 70\t\t\t reserve\");\\n\\n        imageUR...\n  JUMPDEST \t\t\t reserve\");\\n\\n        imageUR...\n  PUSH 0\t\t\t   \n  DUP2 \t\t\t = _r\n  SWAP1 \t\t\teWallet = _r\n  POP \t\t\teWallet = _r\n  SWAP2 \t\t\t reserve\");\\n\\n        imageUR...\n  SWAP1 \t\t\t reserve\");\\n\\n        imageUR...\n  POP \t\t\t reserve\");\\n\\n        imageUR...\n  JUMP \t\t\t reserve\");\\n\\n        imageUR...\ntag 71\t\t\t;\\n\\n        _mint(masterWalle...\n  JUMPDEST \t\t\t;\\n\\n        _mint(masterWalle...\n  PUSH [tag] 125\t\t\t\\n        // =================...\n  DUP4 \t\t\t======\\n\n  PUSH [tag] 69\t\t\t\\n        // =================...\n  JUMP \t\t\t\\n        // =================...\ntag 125\t\t\t\\n        // =================...\n  JUMPDEST \t\t\t\\n        // =================...\n  PUSH [tag] 126\t\t\tush(Certificate(\\n            ...\n  PUSH [tag] 127\t\t\ton\",\\n            \"https://doc...\n  DUP3 \t\t\t//documentccc.di\n  PUSH [tag] 70\t\t\ton\",\\n            \"https://doc...\n  JUMP \t\t\ton\",\\n            \"https://doc...\ntag 127\t\t\ton\",\\n            \"https://doc...\n  JUMPDEST \t\t\ton\",\\n            \"https://doc...\n  DUP5 \t\t\tumenta\n  DUP5 \t\t\tect \n  SLOAD \t\t\t \"Project D\n  PUSH [tag] 66\t\t\tush(Certificate(\\n            ...\n  JUMP \t\t\tush(Certificate(\\n            ...\ntag 126\t\t\tush(Certificate(\\n            ...\n  JUMPDEST \t\t\tush(Certificate(\\n            ...\n  DUP3 \t\t\tates\n  SSTORE \t\t\tertificates.push(Certificate(\\...\n  POP \t\t\t=====\\n        // INITIAL DOCU...\n  POP \t\t\t;\\n\\n        _mint(masterWalle...\n  POP \t\t\t;\\n\\n        _mint(masterWalle...\n  POP \t\t\t;\\n\\n        _mint(masterWalle...\n  JUMP \t\t\t;\\n\\n        _mint(masterWalle...\ntag 72\t\t\t      block.timestamp,\\n      ...\n  JUMPDEST \t\t\t      block.timestamp,\\n      ...\n  PUSH 0\t\t\tnta\n  SWAP1 \t\t\t      block.timestamp,\\n      ...\n  JUMP \t\t\t      block.timestamp,\\n      ...\ntag 73\t\t\t    ));\\n\\n        certificate...\n  JUMPDEST \t\t\t    ));\\n\\n        certificate...\n  PUSH [tag] 130\t\t\tfications\",\\n            \"http...\n  PUSH [tag] 72\t\t\tfications\",\\n            \"http...\n  JUMP \t\t\tfications\",\\n            \"http...\ntag 130\t\t\tfications\",\\n            \"http...\n  JUMPDEST \t\t\tfications\",\\n            \"http...\n  PUSH [tag] 131\t\t\tccc.online/\",\\n            blo...\n  DUP2 \t\t\tdit re\n  DUP5 \t\t\t     \"\n  DUP5 \t\t\t    \n  PUSH [tag] 71\t\t\tccc.online/\",\\n            blo...\n  JUMP \t\t\tccc.online/\",\\n            blo...\ntag 131\t\t\tccc.online/\",\\n            blo...\n  JUMPDEST \t\t\tccc.online/\",\\n            blo...\n  POP \t\t\t       \"Audits and Certificati...\n  POP \t\t\t    ));\\n\\n        certificate...\n  POP \t\t\t    ));\\n\\n        certificate...\n  JUMP \t\t\t    ));\\n\\n        certificate...\ntag 74\t\t\ttifications\"\\n        ));\\n\\n ...\n  JUMPDEST \t\t\ttifications\"\\n        ));\\n\\n ...\ntag 133\t\t\tate(\\n            \"Whitepaper ...\n  JUMPDEST \t\t\tate(\\n            \"Whitepaper ...\n  DUP2 \t\t\t\"Wh\n  DUP2 \t\t\t     \n  LT \t\t\t          \"Whi\n  ISZERO \t\t\tate(\\n            \"Whitepaper ...\n  PUSH [tag] 135\t\t\tate(\\n            \"Whitepaper ...\n  JUMPI \t\t\tate(\\n            \"Whitepaper ...\n  PUSH [tag] 136\t\t\tnline/\",\\n            block.ti...\n  PUSH 0\t\t\t\\n\n  DUP3 \t\t\testam\n  PUSH [tag] 73\t\t\tnline/\",\\n            block.ti...\n  JUMP \t\t\tnline/\",\\n            block.ti...\ntag 136\t\t\tnline/\",\\n            block.ti...\n  JUMPDEST \t\t\tnline/\",\\n            block.ti...\n  PUSH 1\t\t\t \n  DUP2 \t\t\t     \n  ADD \t\t\t,\\n           \n  SWAP1 \t\t\taper CCC\",\\n           \n  POP \t\t\taper CCC\",\\n           \n  PUSH [tag] 133\t\t\tate(\\n            \"Whitepaper ...\n  JUMP \t\t\tate(\\n            \"Whitepaper ...\ntag 135\t\t\tate(\\n            \"Whitepaper ...\n  JUMPDEST \t\t\tate(\\n            \"Whitepaper ...\n  POP \t\t\ttifications\"\\n        ));\\n\\n ...\n  POP \t\t\ttifications\"\\n        ));\\n\\n ...\n  JUMP \t\t\ttifications\"\\n        ));\\n\\n ...\ntag 75\t\t\troject whitepaper\"\\n        ))...\n  JUMPDEST \t\t\troject whitepaper\"\\n        ))...\n  PUSH 1F\t\t\t==\n  DUP3 \t\t\t  /\n  GT \t\t\t\\n    // ===\n  ISZERO \t\t\tONS\\n    // ==================...\n  PUSH [tag] 138\t\t\tONS\\n    // ==================...\n  JUMPI \t\t\tONS\\n    // ==================...\n  PUSH [tag] 139\t\t\tction setReserveWallet(address...\n  DUP2 \t\t\twalle\n  PUSH [tag] 63\t\t\tction setReserveWallet(address...\n  JUMP \t\t\tction setReserveWallet(address...\ntag 139\t\t\tction setReserveWallet(address...\n  JUMPDEST \t\t\tction setReserveWallet(address...\n  PUSH [tag] 140\t\t\t != address(0), \"Invalid addr\n  DUP5 \t\t\tnvalid add\n  PUSH [tag] 64\t\t\t != address(0), \"Invalid addr\n  JUMP \t\t\t != address(0), \"Invalid addr\ntag 140\t\t\t != address(0), \"Invalid addr\n  JUMPDEST \t\t\t != address(0), \"Invalid addr\n  DUP2 \t\t\tre(_wall\n  ADD \t\t\tequire(_wallet != address(0), ...\n  PUSH 20\t\t\t {\n  DUP6 \t\t\tal onlyOwn\n  LT \t\t\ternal onlyOwner {\\n\n  ISZERO \t\t\texternal onlyOwner {\\n        ...\n  PUSH [tag] 141\t\t\texternal onlyOwner {\\n        ...\n  JUMPI \t\t\texternal onlyOwner {\\n        ...\n  DUP2 \t\t\t _uri;\\n \n  SWAP1 \t\t\t     imageURI = _uri;\\n \n  POP \t\t\t     imageURI = _uri;\\n \ntag 141\t\t\texternal onlyOwner {\\n        ...\n  JUMPDEST \t\t\texternal onlyOwner {\\n        ...\n  PUSH [tag] 142\t\t\tion addCertificate(\\n        s...\n  PUSH [tag] 143\t\t\t string memory _link,\\n\n  DUP6 \t\t\tnk,\n  PUSH [tag] 64\t\t\t string memory _link,\\n\n  JUMP \t\t\t string memory _link,\\n\ntag 143\t\t\t string memory _link,\\n\n  JUMPDEST \t\t\t string memory _link,\\n\n  DUP4 \t\t\te,\\n     \n  ADD \t\t\t_name,\\n        string memory ...\n  DUP3 \t\t\ttring memor\n  PUSH [tag] 74\t\t\tion addCertificate(\\n        s...\n  JUMP \t\t\tion addCertificate(\\n        s...\ntag 142\t\t\tion addCertificate(\\n        s...\n  JUMPDEST \t\t\tion addCertificate(\\n        s...\n  POP \t\t\t=====================\\n\\n    f...\n  POP \t\t\t=====================\\n\\n    f...\ntag 138\t\t\tONS\\n    // ==================...\n  JUMPDEST \t\t\tONS\\n    // ==================...\n  POP \t\t\troject whitepaper\"\\n        ))...\n  POP \t\t\troject whitepaper\"\\n        ))...\n  POP \t\t\troject whitepaper\"\\n        ))...\n  JUMP \t\t\troject whitepaper\"\\n        ))...\ntag 76\t\t\tsc\\n    ) external onlyOwner {...\n  JUMPDEST \t\t\tsc\\n    ) external onlyOwner {...\n  PUSH 0\t\t\th(\\n     \n  DUP3 \t\t\testam\n  DUP3 \t\t\tck.t\n  SHR \t\t\t block.timestamp\n  SWAP1 \t\t\tificate(_name, _link, block.ti...\n  POP \t\t\tificate(_name, _link, block.ti...\n  SWAP3 \t\t\tsc\\n    ) external onlyOwner {...\n  SWAP2 \t\t\tsc\\n    ) external onlyOwner {...\n  POP \t\t\tsc\\n    ) external onlyOwner {...\n  POP \t\t\tsc\\n    ) external onlyOwner {...\n  JUMP \t\t\tsc\\n    ) external onlyOwner {...\ntag 77\t\t\t    );\\n\\n        emit Certifi...\n  JUMPDEST \t\t\t    );\\n\\n        emit Certifi...\n  PUSH 0\t\t\t      \n  PUSH [tag] 146\t\t\t           _name,\\n           ...\n  PUSH 0\t\t\t \n  NOT \t\t\t     _\n  DUP5 \t\t\t\\n    \n  PUSH 8\t\t\tn\n  MUL \t\t\t _link,\\n     \n  PUSH [tag] 76\t\t\t           _name,\\n           ...\n  JUMP \t\t\t           _name,\\n           ...\ntag 146\t\t\t           _name,\\n           ...\n  JUMPDEST \t\t\t           _name,\\n           ...\n  NOT \t\t\t1,\\n            _name,\\n      ...\n  DUP1 \t\t\t====\n  DUP4 \t\t\t  //\n  AND \t\t\t\\n\\n    // ======\n  SWAP2 \t\t\t  );\\n    }\\n\\n    // ======\n  POP \t\t\t  );\\n    }\\n\\n    // ======\n  POP \t\t\tcertificates.length - 1,\\n    ...\n  SWAP3 \t\t\t    );\\n\\n        emit Certifi...\n  SWAP2 \t\t\t    );\\n\\n        emit Certifi...\n  POP \t\t\t    );\\n\\n        emit Certifi...\n  POP \t\t\t    );\\n\\n        emit Certifi...\n  JUMP \t\t\t    );\\n\\n        emit Certifi...\ntag 78\t\t\t========\\n    // VIEW FUNCTION...\n  JUMPDEST \t\t\t========\\n    // VIEW FUNCTION...\n  PUSH 0\t\t\tn ge\n  PUSH [tag] 148\t\t\t       external\\n        view\\...\n  DUP4 \t\t\tiew\n  DUP4 \t\t\t    \n  PUSH [tag] 77\t\t\t       external\\n        view\\...\n  JUMP \t\t\t       external\\n        view\\...\ntag 148\t\t\t       external\\n        view\\...\n  JUMPDEST \t\t\t       external\\n        view\\...\n  SWAP2 \t\t\tindex)\\n        external\\n    ...\n  POP \t\t\tindex)\\n        external\\n    ...\n  DUP3 \t\t\ting\n  PUSH 2\t\t\ts\n  MUL \t\t\t    string \n  DUP3 \t\t\t    \n  OR \t\t\t\\n            string m\n  SWAP1 \t\t\teturns (\\n            string m\n  POP \t\t\teturns (\\n            string m\n  SWAP3 \t\t\t========\\n    // VIEW FUNCTION...\n  SWAP2 \t\t\t========\\n    // VIEW FUNCTION...\n  POP \t\t\t========\\n    // VIEW FUNCTION...\n  POP \t\t\t========\\n    // VIEW FUNCTION...\n  JUMP \t\t\t========\\n    // VIEW FUNCTION...\ntag 2\t\t\t\\n            string memory li...\n  JUMPDEST \t\t\t\\n            string memory li...\n  PUSH [tag] 150\t\t\t\\n        Certificate memory c...\n  DUP3 \t\t\tert\n  PUSH [tag] 59\t\t\t\\n        Certificate memory c...\n  JUMP \t\t\t\\n        Certificate memory c...\ntag 150\t\t\t\\n        Certificate memory c...\n  JUMPDEST \t\t\t\\n        Certificate memory c...\n  PUSH FFFFFFFFFFFFFFFF\t\t\tscription);\\n    }\\n\n  DUP2 \t\t\tmp, c.\n  GT \t\t\tstamp, c.description);\\n    }\\...\n  ISZERO \t\t\timestamp, c.description);\\n   ...\n  PUSH [tag] 151\t\t\timestamp, c.description);\\n   ...\n  JUMPI \t\t\timestamp, c.description);\\n   ...\n  PUSH [tag] 152\t\t\t\n  PUSH [tag] 60\t\t\t\n  JUMP \t\t\t\ntag 152\t\t\t\n  JUMPDEST \t\t\t\ntag 151\t\t\timestamp, c.description);\\n   ...\n  JUMPDEST \t\t\timestamp, c.description);\\n   ...\n  PUSH [tag] 153\t\t\t\n  DUP3 \t\t\t\n  SLOAD \t\t\t\n  PUSH [tag] 62\t\t\t\n  JUMP \t\t\t\ntag 153\t\t\t\n  JUMPDEST \t\t\t\n  PUSH [tag] 154\t\t\t\n  DUP3 \t\t\t\n  DUP3 \t\t\t\n  DUP6 \t\t\t\n  PUSH [tag] 75\t\t\t\n  JUMP \t\t\t\ntag 154\t\t\t\n  JUMPDEST \t\t\t\n  PUSH 0\t\t\t\n  PUSH 20\t\t\t\n  SWAP1 \t\t\t\n  POP \t\t\t\n  PUSH 1F\t\t\t\n  DUP4 \t\t\t\n  GT \t\t\t\n  PUSH 1\t\t\t\n  DUP2 \t\t\t\n  EQ \t\t\t\n  PUSH [tag] 156\t\t\t\n  JUMPI \t\t\t\n  PUSH 0\t\t\t\n  DUP5 \t\t\t\n  ISZERO \t\t\t\n  PUSH [tag] 157\t\t\t\n  JUMPI \t\t\t\n  DUP3 \t\t\t\n  DUP8 \t\t\t\n  ADD \t\t\t\n  MLOAD \t\t\t\n  SWAP1 \t\t\t\n  POP \t\t\t\ntag 157\t\t\t\n  JUMPDEST \t\t\t\n  PUSH [tag] 158\t\t\t\n  DUP6 \t\t\t\n  DUP3 \t\t\t\n  PUSH [tag] 78\t\t\t\n  JUMP \t\t\t\ntag 158\t\t\t\n  JUMPDEST \t\t\t\n  DUP7 \t\t\t\n  SSTORE \t\t\t\n  POP \t\t\t\n  PUSH [tag] 155\t\t\t\n  JUMP \t\t\t\ntag 156\t\t\t\n  JUMPDEST \t\t\t\n  PUSH 1F\t\t\t\n  NOT \t\t\t\n  DUP5 \t\t\t\n  AND \t\t\t\n  PUSH [tag] 159\t\t\t\n  DUP7 \t\t\t\n  PUSH [tag] 63\t\t\t\n  JUMP \t\t\t\ntag 159\t\t\t\n  JUMPDEST \t\t\t\n  PUSH 0\t\t\t\ntag 160\t\t\t\n  JUMPDEST \t\t\t\n  DUP3 \t\t\t\n  DUP2 \t\t\t\n  LT \t\t\t\n  ISZERO \t\t\t\n  PUSH [tag] 162\t\t\t\n  JUMPI \t\t\t\n  DUP5 \t\t\t\n  DUP10 \t\t\t\n  ADD \t\t\t\n  MLOAD \t\t\t\n  DUP3 \t\t\t\n  SSTORE \t\t\t\n  PUSH 1\t\t\t\n  DUP3 \t\t\t\n  ADD \t\t\t\n  SWAP2 \t\t\t\n  POP \t\t\t\n  PUSH 20\t\t\t\n  DUP6 \t\t\t\n  ADD \t\t\t\n  SWAP5 \t\t\t\n  POP \t\t\t\n  PUSH 20\t\t\t\n  DUP2 \t\t\t\n  ADD \t\t\t\n  SWAP1 \t\t\t\n  POP \t\t\t\n  PUSH [tag] 160\t\t\t\n  JUMP \t\t\t\ntag 162\t\t\t\n  JUMPDEST \t\t\t\n  DUP7 \t\t\t\n  DUP4 \t\t\t\n  LT \t\t\t\n  ISZERO \t\t\t\n  PUSH [tag] 163\t\t\t\n  JUMPI \t\t\t\n  DUP5 \t\t\t\n  DUP10 \t\t\t\n  ADD \t\t\t\n  MLOAD \t\t\t\n  PUSH [tag] 164\t\t\t\n  PUSH 1F\t\t\t\n  DUP10 \t\t\t\n  AND \t\t\t\n  DUP3 \t\t\t\n  PUSH [tag] 77\t\t\t\n  JUMP \t\t\t\ntag 164\t\t\t\n  JUMPDEST \t\t\t\n  DUP4 \t\t\t\n  SSTORE \t\t\t\n  POP \t\t\t\ntag 163\t\t\t\n  JUMPDEST \t\t\t\n  PUSH 1\t\t\t\n  PUSH 2\t\t\t\n  DUP9 \t\t\t\n  MUL \t\t\t\n  ADD \t\t\t\n  DUP9 \t\t\t\n  SSTORE \t\t\t\n  POP \t\t\t\n  POP \t\t\t\n  POP \t\t\t\ntag 155\t\t\t\n  JUMPDEST \t\t\t\n  POP \t\t\t\n  POP \t\t\tscription\\n        )\\n    {\\n ...\n  POP \t\t\tscription\\n        )\\n    {\\n ...\n  POP \t\t\tscription\\n        )\\n    {\\n ...\n  POP \t\t\t\\n            string memory li...\n  POP \t\t\t\\n            string memory li...\n  JUMP \t\t\t\\n            string memory li...\ntag 79\t\t\t\n  JUMPDEST \t\t\t\n  PUSH 0\t\t\t\n  PUSH 40\t\t\t\n  MLOAD \t\t\t\n  SWAP1 \t\t\t\n  POP \t\t\t\n  SWAP1 \t\t\t\n  JUMP \t\t\t\ntag 80\t\t\t\n  JUMPDEST \t\t\t\n  PUSH 0\t\t\t\n  DUP1 \t\t\t\n  REVERT \t\t\t\ntag 81\t\t\t\n  JUMPDEST \t\t\t\n  PUSH 0\t\t\t\n  DUP1 \t\t\t\n  REVERT \t\t\t\ntag 82\t\t\t\n  JUMPDEST \t\t\t\n  PUSH 0\t\t\t\n  PUSH FFFFFFFFFFFFFFFFFFFFFFFFFFFFFFFFFFFFFFFF\t\t\t\n  DUP3 \t\t\t\n  AND \t\t\t\n  SWAP1 \t\t\t\n  POP \t\t\t\n  SWAP2 \t\t\t\n  SWAP1 \t\t\t\n  POP \t\t\t\n  JUMP \t\t\t\ntag 83\t\t\t\n  JUMPDEST \t\t\t\n  PUSH 0\t\t\t\n  PUSH [tag] 170\t\t\t\n  DUP3 \t\t\t\n  PUSH [tag] 82\t\t\t\n  JUMP \t\t\t\ntag 170\t\t\t\n  JUMPDEST \t\t\t\n  SWAP1 \t\t\t\n  POP \t\t\t\n  SWAP2 \t\t\t\n  SWAP1 \t\t\t\n  POP \t\t\t\n  JUMP \t\t\t\ntag 84\t\t\t\n  JUMPDEST \t\t\t\n  PUSH [tag] 172\t\t\t\n  DUP2 \t\t\t\n  PUSH [tag] 83\t\t\t\n  JUMP \t\t\t\ntag 172\t\t\t\n  JUMPDEST \t\t\t\n  DUP2 \t\t\t\n  EQ \t\t\t\n  PUSH [tag] 173\t\t\t\n  JUMPI \t\t\t\n  PUSH 0\t\t\t\n  DUP1 \t\t\t\n  REVERT \t\t\t\ntag 173\t\t\t\n  JUMPDEST \t\t\t\n  POP \t\t\t\n  JUMP \t\t\t\ntag 85\t\t\t\n  JUMPDEST \t\t\t\n  PUSH 0\t\t\t\n  DUP2 \t\t\t\n  MLOAD \t\t\t\n  SWAP1 \t\t\t\n  POP \t\t\t\n  PUSH [tag] 175\t\t\t\n  DUP2 \t\t\t\n  PUSH [tag] 84\t\t\t\n  JUMP \t\t\t\ntag 175\t\t\t\n  JUMPDEST \t\t\t\n  SWAP3 \t\t\t\n  SWAP2 \t\t\t\n  POP \t\t\t\n  POP \t\t\t\n  JUMP \t\t\t\ntag 86\t\t\t\n  JUMPDEST \t\t\t\n  PUSH 0\t\t\t\n  DUP1 \t\t\t\n  REVERT \t\t\t\ntag 87\t\t\t\n  JUMPDEST \t\t\t\n  PUSH 0\t\t\t\n  DUP1 \t\t\t\n  REVERT \t\t\t\ntag 88\t\t\t\n  JUMPDEST \t\t\t\n  PUSH 0\t\t\t\n  PUSH 1F\t\t\t\n  NOT \t\t\t\n  PUSH 1F\t\t\t\n  DUP4 \t\t\t\n  ADD \t\t\t\n  AND \t\t\t\n  SWAP1 \t\t\t\n  POP \t\t\t\n  SWAP2 \t\t\t\n  SWAP1 \t\t\t\n  POP \t\t\t\n  JUMP \t\t\t\ntag 89\t\t\t\n  JUMPDEST \t\t\t\n  PUSH [tag] 180\t\t\t\n  DUP3 \t\t\t\n  PUSH [tag] 88\t\t\t\n  JUMP \t\t\t\ntag 180\t\t\t\n  JUMPDEST \t\t\t\n  DUP2 \t\t\t\n  ADD \t\t\t\n  DUP2 \t\t\t\n  DUP2 \t\t\t\n  LT \t\t\t\n  PUSH FFFFFFFFFFFFFFFF\t\t\t\n  DUP3 \t\t\t\n  GT \t\t\t\n  OR \t\t\t\n  ISZERO \t\t\t\n  PUSH [tag] 181\t\t\t\n  JUMPI \t\t\t\n  PUSH [tag] 182\t\t\t\n  PUSH [tag] 60\t\t\t\n  JUMP \t\t\t\ntag 182\t\t\t\n  JUMPDEST \t\t\t\ntag 181\t\t\t\n  JUMPDEST \t\t\t\n  DUP1 \t\t\t\n  PUSH 40\t\t\t\n  MSTORE \t\t\t\n  POP \t\t\t\n  POP \t\t\t\n  POP \t\t\t\n  JUMP \t\t\t\ntag 90\t\t\t\n  JUMPDEST \t\t\t\n  PUSH 0\t\t\t\n  PUSH [tag] 184\t\t\t\n  PUSH [tag] 79\t\t\t\n  JUMP \t\t\t\ntag 184\t\t\t\n  JUMPDEST \t\t\t\n  SWAP1 \t\t\t\n  POP \t\t\t\n  PUSH [tag] 185\t\t\t\n  DUP3 \t\t\t\n  DUP3 \t\t\t\n  PUSH [tag] 89\t\t\t\n  JUMP \t\t\t\ntag 185\t\t\t\n  JUMPDEST \t\t\t\n  SWAP2 \t\t\t\n  SWAP1 \t\t\t\n  POP \t\t\t\n  JUMP \t\t\t\ntag 91\t\t\t\n  JUMPDEST \t\t\t\n  PUSH 0\t\t\t\n  PUSH FFFFFFFFFFFFFFFF\t\t\t\n  DUP3 \t\t\t\n  GT \t\t\t\n  ISZERO \t\t\t\n  PUSH [tag] 187\t\t\t\n  JUMPI \t\t\t\n  PUSH [tag] 188\t\t\t\n  PUSH [tag] 60\t\t\t\n  JUMP \t\t\t\ntag 188\t\t\t\n  JUMPDEST \t\t\t\ntag 187\t\t\t\n  JUMPDEST \t\t\t\n  PUSH [tag] 189\t\t\t\n  DUP3 \t\t\t\n  PUSH [tag] 88\t\t\t\n  JUMP \t\t\t\ntag 189\t\t\t\n  JUMPDEST \t\t\t\n  SWAP1 \t\t\t\n  POP \t\t\t\n  PUSH 20\t\t\t\n  DUP2 \t\t\t\n  ADD \t\t\t\n  SWAP1 \t\t\t\n  POP \t\t\t\n  SWAP2 \t\t\t\n  SWAP1 \t\t\t\n  POP \t\t\t\n  JUMP \t\t\t\ntag 92\t\t\t\n  JUMPDEST \t\t\t\n  PUSH 0\t\t\t\ntag 191\t\t\t\n  JUMPDEST \t\t\t\n  DUP4 \t\t\t\n  DUP2 \t\t\t\n  LT \t\t\t\n  ISZERO \t\t\t\n  PUSH [tag] 193\t\t\t\n  JUMPI \t\t\t\n  DUP1 \t\t\t\n  DUP3 \t\t\t\n  ADD \t\t\t\n  MLOAD \t\t\t\n  DUP2 \t\t\t\n  DUP5 \t\t\t\n  ADD \t\t\t\n  MSTORE \t\t\t\n  PUSH 20\t\t\t\n  DUP2 \t\t\t\n  ADD \t\t\t\n  SWAP1 \t\t\t\n  POP \t\t\t\n  PUSH [tag] 191\t\t\t\n  JUMP \t\t\t\ntag 193\t\t\t\n  JUMPDEST \t\t\t\n  PUSH 0\t\t\t\n  DUP5 \t\t\t\n  DUP5 \t\t\t\n  ADD \t\t\t\n  MSTORE \t\t\t\n  POP \t\t\t\n  POP \t\t\t\n  POP \t\t\t\n  POP \t\t\t\n  JUMP \t\t\t\ntag 93\t\t\t\n  JUMPDEST \t\t\t\n  PUSH 0\t\t\t\n  PUSH [tag] 195\t\t\t\n  PUSH [tag] 196\t\t\t\n  DUP5 \t\t\t\n  PUSH [tag] 91\t\t\t\n  JUMP \t\t\t\ntag 196\t\t\t\n  JUMPDEST \t\t\t\n  PUSH [tag] 90\t\t\t\n  JUMP \t\t\t\ntag 195\t\t\t\n  JUMPDEST \t\t\t\n  SWAP1 \t\t\t\n  POP \t\t\t\n  DUP3 \t\t\t\n  DUP2 \t\t\t\n  MSTORE \t\t\t\n  PUSH 20\t\t\t\n  DUP2 \t\t\t\n  ADD \t\t\t\n  DUP5 \t\t\t\n  DUP5 \t\t\t\n  DUP5 \t\t\t\n  ADD \t\t\t\n  GT \t\t\t\n  ISZERO \t\t\t\n  PUSH [tag] 197\t\t\t\n  JUMPI \t\t\t\n  PUSH [tag] 198\t\t\t\n  PUSH [tag] 87\t\t\t\n  JUMP \t\t\t\ntag 198\t\t\t\n  JUMPDEST \t\t\t\ntag 197\t\t\t\n  JUMPDEST \t\t\t\n  PUSH [tag] 199\t\t\t\n  DUP5 \t\t\t\n  DUP3 \t\t\t\n  DUP6 \t\t\t\n  PUSH [tag] 92\t\t\t\n  JUMP \t\t\t\ntag 199\t\t\t\n  JUMPDEST \t\t\t\n  POP \t\t\t\n  SWAP4 \t\t\t\n  SWAP3 \t\t\t\n  POP \t\t\t\n  POP \t\t\t\n  POP \t\t\t\n  JUMP \t\t\t\ntag 94\t\t\t\n  JUMPDEST \t\t\t\n  PUSH 0\t\t\t\n  DUP3 \t\t\t\n  PUSH 1F\t\t\t\n  DUP4 \t\t\t\n  ADD \t\t\t\n  SLT \t\t\t\n  PUSH [tag] 201\t\t\t\n  JUMPI \t\t\t\n  PUSH [tag] 202\t\t\t\n  PUSH [tag] 86\t\t\t\n  JUMP \t\t\t\ntag 202\t\t\t\n  JUMPDEST \t\t\t\ntag 201\t\t\t\n  JUMPDEST \t\t\t\n  DUP2 \t\t\t\n  MLOAD \t\t\t\n  PUSH [tag] 203\t\t\t\n  DUP5 \t\t\t\n  DUP3 \t\t\t\n  PUSH 20\t\t\t\n  DUP7 \t\t\t\n  ADD \t\t\t\n  PUSH [tag] 93\t\t\t\n  JUMP \t\t\t\ntag 203\t\t\t\n  JUMPDEST \t\t\t\n  SWAP2 \t\t\t\n  POP \t\t\t\n  POP \t\t\t\n  SWAP3 \t\t\t\n  SWAP2 \t\t\t\n  POP \t\t\t\n  POP \t\t\t\n  JUMP \t\t\t\ntag 5\t\t\t\n  JUMPDEST \t\t\t\n  PUSH 0\t\t\t\n  DUP1 \t\t\t\n  PUSH 0\t\t\t\n  PUSH 60\t\t\t\n  DUP5 \t\t\t\n  DUP7 \t\t\t\n  SUB \t\t\t\n  SLT \t\t\t\n  ISZERO \t\t\t\n  PUSH [tag] 205\t\t\t\n  JUMPI \t\t\t\n  PUSH [tag] 206\t\t\t\n  PUSH [tag] 80\t\t\t\n  JUMP \t\t\t\ntag 206\t\t\t\n  JUMPDEST \t\t\t\ntag 205\t\t\t\n  JUMPDEST \t\t\t\n  PUSH 0\t\t\t\n  PUSH [tag] 207\t\t\t\n  DUP7 \t\t\t\n  DUP3 \t\t\t\n  DUP8 \t\t\t\n  ADD \t\t\t\n  PUSH [tag] 85\t\t\t\n  JUMP \t\t\t\ntag 207\t\t\t\n  JUMPDEST \t\t\t\n  SWAP4 \t\t\t\n  POP \t\t\t\n  POP \t\t\t\n  PUSH 20\t\t\t\n  DUP5 \t\t\t\n  ADD \t\t\t\n  MLOAD \t\t\t\n  PUSH FFFFFFFFFFFFFFFF\t\t\t\n  DUP2 \t\t\t\n  GT \t\t\t\n  ISZERO \t\t\t\n  PUSH [tag] 208\t\t\t\n  JUMPI \t\t\t\n  PUSH [tag] 209\t\t\t\n  PUSH [tag] 81\t\t\t\n  JUMP \t\t\t\ntag 209\t\t\t\n  JUMPDEST \t\t\t\ntag 208\t\t\t\n  JUMPDEST \t\t\t\n  PUSH [tag] 210\t\t\t\n  DUP7 \t\t\t\n  DUP3 \t\t\t\n  DUP8 \t\t\t\n  ADD \t\t\t\n  PUSH [tag] 94\t\t\t\n  JUMP \t\t\t\ntag 210\t\t\t\n  JUMPDEST \t\t\t\n  SWAP3 \t\t\t\n  POP \t\t\t\n  POP \t\t\t\n  PUSH 40\t\t\t\n  PUSH [tag] 211\t\t\t\n  DUP7 \t\t\t\n  DUP3 \t\t\t\n  DUP8 \t\t\t\n  ADD \t\t\t\n  PUSH [tag] 85\t\t\t\n  JUMP \t\t\t\ntag 211\t\t\t\n  JUMPDEST \t\t\t\n  SWAP2 \t\t\t\n  POP \t\t\t\n  POP \t\t\t\n  SWAP3 \t\t\t\n  POP \t\t\t\n  SWAP3 \t\t\t\n  POP \t\t\t\n  SWAP3 \t\t\t\n  JUMP \t\t\t\ntag 95\t\t\t\n  JUMPDEST \t\t\t\n  PUSH [tag] 213\t\t\t\n  DUP2 \t\t\t\n  PUSH [tag] 83\t\t\t\n  JUMP \t\t\t\ntag 213\t\t\t\n  JUMPDEST \t\t\t\n  DUP3 \t\t\t\n  MSTORE \t\t\t\n  POP \t\t\t\n  POP \t\t\t\n  JUMP \t\t\t\ntag 15\t\t\t\n  JUMPDEST \t\t\t\n  PUSH 0\t\t\t\n  PUSH 20\t\t\t\n  DUP3 \t\t\t\n  ADD \t\t\t\n  SWAP1 \t\t\t\n  POP \t\t\t\n  PUSH [tag] 215\t\t\t\n  PUSH 0\t\t\t\n  DUP4 \t\t\t\n  ADD \t\t\t\n  DUP5 \t\t\t\n  PUSH [tag] 95\t\t\t\n  JUMP \t\t\t\ntag 215\t\t\t\n  JUMPDEST \t\t\t\n  SWAP3 \t\t\t\n  SWAP2 \t\t\t\n  POP \t\t\t\n  POP \t\t\t\n  JUMP \t\t\t\ntag 96\t\t\t\n  JUMPDEST \t\t\t\n  PUSH 0\t\t\t\n  DUP3 \t\t\t\n  DUP3 \t\t\t\n  MSTORE \t\t\t\n  PUSH 20\t\t\t\n  DUP3 \t\t\t\n  ADD \t\t\t\n  SWAP1 \t\t\t\n  POP \t\t\t\n  SWAP3 \t\t\t\n  SWAP2 \t\t\t\n  POP \t\t\t\n  POP \t\t\t\n  JUMP \t\t\t\ntag 97\t\t\t\n  JUMPDEST \t\t\t\n  PUSH 496E76616C6964206F776E657200000000000000000000000000000000000000\t\t\t\n  PUSH 0\t\t\t\n  DUP3 \t\t\t\n  ADD \t\t\t\n  MSTORE \t\t\t\n  POP \t\t\t\n  JUMP \t\t\t\ntag 98\t\t\t\n  JUMPDEST \t\t\t\n  PUSH 0\t\t\t\n  PUSH [tag] 219\t\t\t\n  PUSH D\t\t\t\n  DUP4 \t\t\t\n  PUSH [tag] 96\t\t\t\n  JUMP \t\t\t\ntag 219\t\t\t\n  JUMPDEST \t\t\t\n  SWAP2 \t\t\t\n  POP \t\t\t\n  PUSH [tag] 220\t\t\t\n  DUP3 \t\t\t\n  PUSH [tag] 97\t\t\t\n  JUMP \t\t\t\ntag 220\t\t\t\n  JUMPDEST \t\t\t\n  PUSH 20\t\t\t\n  DUP3 \t\t\t\n  ADD \t\t\t\n  SWAP1 \t\t\t\n  POP \t\t\t\n  SWAP2 \t\t\t\n  SWAP1 \t\t\t\n  POP \t\t\t\n  JUMP \t\t\t\ntag 21\t\t\t\n  JUMPDEST \t\t\t\n  PUSH 0\t\t\t\n  PUSH 20\t\t\t\n  DUP3 \t\t\t\n  ADD \t\t\t\n  SWAP1 \t\t\t\n  POP \t\t\t\n  DUP2 \t\t\t\n  DUP2 \t\t\t\n  SUB \t\t\t\n  PUSH 0\t\t\t\n  DUP4 \t\t\t\n  ADD \t\t\t\n  MSTORE \t\t\t\n  PUSH [tag] 222\t\t\t\n  DUP2 \t\t\t\n  PUSH [tag] 98\t\t\t\n  JUMP \t\t\t\ntag 222\t\t\t\n  JUMPDEST \t\t\t\n  SWAP1 \t\t\t\n  POP \t\t\t\n  SWAP2 \t\t\t\n  SWAP1 \t\t\t\n  POP \t\t\t\n  JUMP \t\t\t\ntag 99\t\t\t\n  JUMPDEST \t\t\t\n  PUSH 496E76616C696420726573657276650000000000000000000000000000000000\t\t\t\n  PUSH 0\t\t\t\n  DUP3 \t\t\t\n  ADD \t\t\t\n  MSTORE \t\t\t\n  POP \t\t\t\n  JUMP \t\t\t\ntag 100\t\t\t\n  JUMPDEST \t\t\t\n  PUSH 0\t\t\t\n  PUSH [tag] 225\t\t\t\n  PUSH F\t\t\t\n  DUP4 \t\t\t\n  PUSH [tag] 96\t\t\t\n  JUMP \t\t\t\ntag 225\t\t\t\n  JUMPDEST \t\t\t\n  SWAP2 \t\t\t\n  POP \t\t\t\n  PUSH [tag] 226\t\t\t\n  DUP3 \t\t\t\n  PUSH [tag] 99\t\t\t\n  JUMP \t\t\t\ntag 226\t\t\t\n  JUMPDEST \t\t\t\n  PUSH 20\t\t\t\n  DUP3 \t\t\t\n  ADD \t\t\t\n  SWAP1 \t\t\t\n  POP \t\t\t\n  SWAP2 \t\t\t\n  SWAP1 \t\t\t\n  POP \t\t\t\n  JUMP \t\t\t\ntag 24\t\t\t\n  JUMPDEST \t\t\t\n  PUSH 0\t\t\t\n  PUSH 20\t\t\t\n  DUP3 \t\t\t\n  ADD \t\t\t\n  SWAP1 \t\t\t\n  POP \t\t\t\n  DUP2 \t\t\t\n  DUP2 \t\t\t\n  SUB \t\t\t\n  PUSH 0\t\t\t\n  DUP4 \t\t\t\n  ADD \t\t\t\n  MSTORE \t\t\t\n  PUSH [tag] 228\t\t\t\n  DUP2 \t\t\t\n  PUSH [tag] 100\t\t\t\n  JUMP \t\t\t\ntag 228\t\t\t\n  JUMPDEST \t\t\t\n  SWAP1 \t\t\t\n  POP \t\t\t\n  SWAP2 \t\t\t\n  SWAP1 \t\t\t\n  POP \t\t\t\n  JUMP \t\t\t\ntag 101\t\t\t\n  JUMPDEST \t\t\t\n  PUSH 4E487B7100000000000000000000000000000000000000000000000000000000\t\t\t\n  PUSH 0\t\t\t\n  MSTORE \t\t\t\n  PUSH 11\t\t\t\n  PUSH 4\t\t\t\n  MSTORE \t\t\t\n  PUSH 24\t\t\t\n  PUSH 0\t\t\t\n  REVERT \t\t\t\ntag 50\t\t\t\n  JUMPDEST \t\t\t\n  PUSH 0\t\t\t\n  PUSH [tag] 231\t\t\t\n  DUP3 \t\t\t\n  PUSH [tag] 67\t\t\t\n  JUMP \t\t\t\ntag 231\t\t\t\n  JUMPDEST \t\t\t\n  SWAP2 \t\t\t\n  POP \t\t\t\n  PUSH [tag] 232\t\t\t\n  DUP4 \t\t\t\n  PUSH [tag] 67\t\t\t\n  JUMP \t\t\t\ntag 232\t\t\t\n  JUMPDEST \t\t\t\n  SWAP3 \t\t\t\n  POP \t\t\t\n  DUP3 \t\t\t\n  DUP3 \t\t\t\n  ADD \t\t\t\n  SWAP1 \t\t\t\n  POP \t\t\t\n  DUP1 \t\t\t\n  DUP3 \t\t\t\n  GT \t\t\t\n  ISZERO \t\t\t\n  PUSH [tag] 233\t\t\t\n  JUMPI \t\t\t\n  PUSH [tag] 234\t\t\t\n  PUSH [tag] 101\t\t\t\n  JUMP \t\t\t\ntag 234\t\t\t\n  JUMPDEST \t\t\t\ntag 233\t\t\t\n  JUMPDEST \t\t\t\n  SWAP3 \t\t\t\n  SWAP2 \t\t\t\n  POP \t\t\t\n  POP \t\t\t\n  JUMP \t\t\t\ntag 102\t\t\t\n  JUMPDEST \t\t\t\n  PUSH [tag] 236\t\t\t\n  DUP2 \t\t\t\n  PUSH [tag] 67\t\t\t\n  JUMP \t\t\t\ntag 236\t\t\t\n  JUMPDEST \t\t\t\n  DUP3 \t\t\t\n  MSTORE \t\t\t\n  POP \t\t\t\n  POP \t\t\t\n  JUMP \t\t\t\ntag 54\t\t\t\n  JUMPDEST \t\t\t\n  PUSH 0\t\t\t\n  PUSH 60\t\t\t\n  DUP3 \t\t\t\n  ADD \t\t\t\n  SWAP1 \t\t\t\n  POP \t\t\t\n  PUSH [tag] 238\t\t\t\n  PUSH 0\t\t\t\n  DUP4 \t\t\t\n  ADD \t\t\t\n  DUP7 \t\t\t\n  PUSH [tag] 95\t\t\t\n  JUMP \t\t\t\ntag 238\t\t\t\n  JUMPDEST \t\t\t\n  PUSH [tag] 239\t\t\t\n  PUSH 20\t\t\t\n  DUP4 \t\t\t\n  ADD \t\t\t\n  DUP6 \t\t\t\n  PUSH [tag] 102\t\t\t\n  JUMP \t\t\t\ntag 239\t\t\t\n  JUMPDEST \t\t\t\n  PUSH [tag] 240\t\t\t\n  PUSH 40\t\t\t\n  DUP4 \t\t\t\n  ADD \t\t\t\n  DUP5 \t\t\t\n  PUSH [tag] 102\t\t\t\n  JUMP \t\t\t\ntag 240\t\t\t\n  JUMPDEST \t\t\t\n  SWAP5 \t\t\t\n  SWAP4 \t\t\t\n  POP \t\t\t\n  POP \t\t\t\n  POP \t\t\t\n  POP \t\t\t\n  JUMP \t\t\t\ntag 58\t\t\t\n  JUMPDEST \t\t\t\n  PUSH 0\t\t\t\n  PUSH 20\t\t\t\n  DUP3 \t\t\t\n  ADD \t\t\t\n  SWAP1 \t\t\t\n  POP \t\t\t\n  PUSH [tag] 242\t\t\t\n  PUSH 0\t\t\t\n  DUP4 \t\t\t\n  ADD \t\t\t\n  DUP5 \t\t\t\n  PUSH [tag] 102\t\t\t\n  JUMP \t\t\t\ntag 242\t\t\t\n  JUMPDEST \t\t\t\n  SWAP3 \t\t\t\n  SWAP2 \t\t\t\n  POP \t\t\t\n  POP \t\t\t\n  JUMP \t\t\t\ntag 40\t\t\tcontract CarbonCreditCoins is ...\n  JUMPDEST \t\t\tcontract CarbonCreditCoins is ...\n  PUSH #[$] 0000000000000000000000000000000000000000000000000000000000000000\t\t\tcontract CarbonCreditCoins is ...\n  DUP1 \t\t\tcontract CarbonCreditCoins is ...\n  PUSH [$] 0000000000000000000000000000000000000000000000000000000000000000\t\t\tcontract CarbonCreditCoins is ...\n  PUSH 0\t\t\tcontract CarbonCreditCoins is ...\n  CODECOPY \t\t\tcontract CarbonCreditCoins is ...\n  PUSH 0\t\t\tcontract CarbonCreditCoins is ...\n  RETURN \t\t\tcontract CarbonCreditCoins is ...\n.data\n  0:\n    .code\n      PUSH 80\t\t\tcontract CarbonCreditCoins is ...\n      PUSH 40\t\t\tcontract CarbonCreditCoins is ...\n      MSTORE \t\t\tcontract CarbonCreditCoins is ...\n      CALLVALUE \t\t\tcontract CarbonCreditCoins is ...\n      DUP1 \t\t\tcontract CarbonCreditCoins is ...\n      ISZERO \t\t\tcontract CarbonCreditCoins is ...\n      PUSH [tag] 1\t\t\tcontract CarbonCreditCoins is ...\n      JUMPI \t\t\tcontract CarbonCreditCoins is ...\n      PUSH 0\t\t\tcontract CarbonCreditCoins is ...\n      DUP1 \t\t\tcontract CarbonCreditCoins is ...\n      REVERT \t\t\tcontract CarbonCreditCoins is ...\n    tag 1\t\t\tcontract CarbonCreditCoins is ...\n      JUMPDEST \t\t\tcontract CarbonCreditCoins is ...\n      POP \t\t\tcontract CarbonCreditCoins is ...\n      PUSH 4\t\t\tcontract CarbonCreditCoins is ...\n      CALLDATASIZE \t\t\tcontract CarbonCreditCoins is ...\n      LT \t\t\tcontract CarbonCreditCoins is ...\n      PUSH [tag] 2\t\t\tcontract CarbonCreditCoins is ...\n      JUMPI \t\t\tcontract CarbonCreditCoins is ...\n      PUSH 0\t\t\tcontract CarbonCreditCoins is ...\n      CALLDATALOAD \t\t\tcontract CarbonCreditCoins is ...\n      PUSH E0\t\t\tcontract CarbonCreditCoins is ...\n      SHR \t\t\tcontract CarbonCreditCoins is ...\n      DUP1 \t\t\tcontract CarbonCreditCoins is ...\n      PUSH 70A08231\t\t\tcontract CarbonCreditCoins is ...\n      GT \t\t\tcontract CarbonCreditCoins is ...\n      PUSH [tag] 25\t\t\tcontract CarbonCreditCoins is ...\n      JUMPI \t\t\tcontract CarbonCreditCoins is ...\n      DUP1 \t\t\tcontract CarbonCreditCoins is ...\n      PUSH A9059CBB\t\t\tcontract CarbonCreditCoins is ...\n      GT \t\t\tcontract CarbonCreditCoins is ...\n      PUSH [tag] 26\t\t\tcontract CarbonCreditCoins is ...\n      JUMPI \t\t\tcontract CarbonCreditCoins is ...\n      DUP1 \t\t\tcontract CarbonCreditCoins is ...\n      PUSH A9059CBB\t\t\tcontract CarbonCreditCoins is ...\n      EQ \t\t\tcontract CarbonCreditCoins is ...\n      PUSH [tag] 19\t\t\tcontract CarbonCreditCoins is ...\n      JUMPI \t\t\tcontract CarbonCreditCoins is ...\n      DUP1 \t\t\tcontract CarbonCreditCoins is ...\n      PUSH AC9E5760\t\t\tcontract CarbonCreditCoins is ...\n      EQ \t\t\tcontract CarbonCreditCoins is ...\n      PUSH [tag] 20\t\t\tcontract CarbonCreditCoins is ...\n      JUMPI \t\t\tcontract CarbonCreditCoins is ...\n      DUP1 \t\t\tcontract CarbonCreditCoins is ...\n      PUSH D72B11BD\t\t\tcontract CarbonCreditCoins is ...\n      EQ \t\t\tcontract CarbonCreditCoins is ...\n      PUSH [tag] 21\t\t\tcontract CarbonCreditCoins is ...\n      JUMPI \t\t\tcontract CarbonCreditCoins is ...\n      DUP1 \t\t\tcontract CarbonCreditCoins is ...\n      PUSH DD62ED3E\t\t\tcontract CarbonCreditCoins is ...\n      EQ \t\t\tcontract CarbonCreditCoins is ...\n      PUSH [tag] 22\t\t\tcontract CarbonCreditCoins is ...\n      JUMPI \t\t\tcontract CarbonCreditCoins is ...\n      DUP1 \t\t\tcontract CarbonCreditCoins is ...\n      PUSH DDA4FA8F\t\t\tcontract CarbonCreditCoins is ...\n      EQ \t\t\tcontract CarbonCreditCoins is ...\n      PUSH [tag] 23\t\t\tcontract CarbonCreditCoins is ...\n      JUMPI \t\t\tcontract CarbonCreditCoins is ...\n      DUP1 \t\t\tcontract CarbonCreditCoins is ...\n      PUSH F2FDE38B\t\t\tcontract CarbonCreditCoins is ...\n      EQ \t\t\tcontract CarbonCreditCoins is ...\n      PUSH [tag] 24\t\t\tcontract CarbonCreditCoins is ...\n      JUMPI \t\t\tcontract CarbonCreditCoins is ...\n      PUSH [tag] 2\t\t\tcontract CarbonCreditCoins is ...\n      JUMP \t\t\tcontract CarbonCreditCoins is ...\n    tag 26\t\t\tcontract CarbonCreditCoins is ...\n      JUMPDEST \t\t\tcontract CarbonCreditCoins is ...\n      DUP1 \t\t\tcontract CarbonCreditCoins is ...\n      PUSH 70A08231\t\t\tcontract CarbonCreditCoins is ...\n      EQ \t\t\tcontract CarbonCreditCoins is ...\n      PUSH [tag] 14\t\t\tcontract CarbonCreditCoins is ...\n      JUMPI \t\t\tcontract CarbonCreditCoins is ...\n      DUP1 \t\t\tcontract CarbonCreditCoins is ...\n      PUSH 715018A6\t\t\tcontract CarbonCreditCoins is ...\n      EQ \t\t\tcontract CarbonCreditCoins is ...\n      PUSH [tag] 15\t\t\tcontract CarbonCreditCoins is ...\n      JUMPI \t\t\tcontract CarbonCreditCoins is ...\n      DUP1 \t\t\tcontract CarbonCreditCoins is ...\n      PUSH 8DA5CB5B\t\t\tcontract CarbonCreditCoins is ...\n      EQ \t\t\tcontract CarbonCreditCoins is ...\n      PUSH [tag] 16\t\t\tcontract CarbonCreditCoins is ...\n      JUMPI \t\t\tcontract CarbonCreditCoins is ...\n      DUP1 \t\t\tcontract CarbonCreditCoins is ...\n      PUSH 8FB03A02\t\t\tcontract CarbonCreditCoins is ...\n      EQ \t\t\tcontract CarbonCreditCoins is ...\n      PUSH [tag] 17\t\t\tcontract CarbonCreditCoins is ...\n      JUMPI \t\t\tcontract CarbonCreditCoins is ...\n      DUP1 \t\t\tcontract CarbonCreditCoins is ...\n      PUSH 95D89B41\t\t\tcontract CarbonCreditCoins is ...\n      EQ \t\t\tcontract CarbonCreditCoins is ...\n      PUSH [tag] 18\t\t\tcontract CarbonCreditCoins is ...\n      JUMPI \t\t\tcontract CarbonCreditCoins is ...\n      PUSH [tag] 2\t\t\tcontract CarbonCreditCoins is ...\n      JUMP \t\t\tcontract CarbonCreditCoins is ...\n    tag 25\t\t\tcontract CarbonCreditCoins is ...\n      JUMPDEST \t\t\tcontract CarbonCreditCoins is ...\n      DUP1 \t\t\tcontract CarbonCreditCoins is ...\n      PUSH 185B6910\t\t\tcontract CarbonCreditCoins is ...\n      GT \t\t\tcontract CarbonCreditCoins is ...\n      PUSH [tag] 27\t\t\tcontract CarbonCreditCoins is ...\n      JUMPI \t\t\tcontract CarbonCreditCoins is ...\n      DUP1 \t\t\tcontract CarbonCreditCoins is ...\n      PUSH 185B6910\t\t\tcontract CarbonCreditCoins is ...\n      EQ \t\t\tcontract CarbonCreditCoins is ...\n      PUSH [tag] 8\t\t\tcontract CarbonCreditCoins is ...\n      JUMPI \t\t\tcontract CarbonCreditCoins is ...\n      DUP1 \t\t\tcontract CarbonCreditCoins is ...\n      PUSH 23B872DD\t\t\tcontract CarbonCreditCoins is ...\n      EQ \t\t\tcontract CarbonCreditCoins is ...\n      PUSH [tag] 9\t\t\tcontract CarbonCreditCoins is ...\n      JUMPI \t\t\tcontract CarbonCreditCoins is ...\n      DUP1 \t\t\tcontract CarbonCreditCoins is ...\n      PUSH 313CE567\t\t\tcontract CarbonCreditCoins is ...\n      EQ \t\t\tcontract CarbonCreditCoins is ...\n      PUSH [tag] 10\t\t\tcontract CarbonCreditCoins is ...\n      JUMPI \t\t\tcontract CarbonCreditCoins is ...\n      DUP1 \t\t\tcontract CarbonCreditCoins is ...\n      PUSH 32CB6B0C\t\t\tcontract CarbonCreditCoins is ...\n      EQ \t\t\tcontract CarbonCreditCoins is ...\n      PUSH [tag] 11\t\t\tcontract CarbonCreditCoins is ...\n      JUMPI \t\t\tcontract CarbonCreditCoins is ...\n      DUP1 \t\t\tcontract CarbonCreditCoins is ...\n      PUSH 51640FEE\t\t\tcontract CarbonCreditCoins is ...\n      EQ \t\t\tcontract CarbonCreditCoins is ...\n      PUSH [tag] 12\t\t\tcontract CarbonCreditCoins is ...\n      JUMPI \t\t\tcontract CarbonCreditCoins is ...\n      DUP1 \t\t\tcontract CarbonCreditCoins is ...\n      PUSH 663B3E22\t\t\tcontract CarbonCreditCoins is ...\n      EQ \t\t\tcontract CarbonCreditCoins is ...\n      PUSH [tag] 13\t\t\tcontract CarbonCreditCoins is ...\n      JUMPI \t\t\tcontract CarbonCreditCoins is ...\n      PUSH [tag] 2\t\t\tcontract CarbonCreditCoins is ...\n      JUMP \t\t\tcontract CarbonCreditCoins is ...\n    tag 27\t\t\tcontract CarbonCreditCoins is ...\n      JUMPDEST \t\t\tcontract CarbonCreditCoins is ...\n      DUP1 \t\t\tcontract CarbonCreditCoins is ...\n      PUSH 4787CA2\t\t\tcontract CarbonCreditCoins is ...\n      EQ \t\t\tcontract CarbonCreditCoins is ...\n      PUSH [tag] 3\t\t\tcontract CarbonCreditCoins is ...\n      JUMPI \t\t\tcontract CarbonCreditCoins is ...\n      DUP1 \t\t\tcontract CarbonCreditCoins is ...\n      PUSH 6FDDE03\t\t\tcontract CarbonCreditCoins is ...\n      EQ \t\t\tcontract CarbonCreditCoins is ...\n      PUSH [tag] 4\t\t\tcontract CarbonCreditCoins is ...\n      JUMPI \t\t\tcontract CarbonCreditCoins is ...\n      DUP1 \t\t\tcontract CarbonCreditCoins is ...\n      PUSH 95EA7B3\t\t\tcontract CarbonCreditCoins is ...\n      EQ \t\t\tcontract CarbonCreditCoins is ...\n      PUSH [tag] 5\t\t\tcontract CarbonCreditCoins is ...\n      JUMPI \t\t\tcontract CarbonCreditCoins is ...\n      DUP1 \t\t\tcontract CarbonCreditCoins is ...\n      PUSH 135D088D\t\t\tcontract CarbonCreditCoins is ...\n      EQ \t\t\tcontract CarbonCreditCoins is ...\n      PUSH [tag] 6\t\t\tcontract CarbonCreditCoins is ...\n      JUMPI \t\t\tcontract CarbonCreditCoins is ...\n      DUP1 \t\t\tcontract CarbonCreditCoins is ...\n      PUSH 18160DDD\t\t\tcontract CarbonCreditCoins is ...\n      EQ \t\t\tcontract CarbonCreditCoins is ...\n      PUSH [tag] 7\t\t\tcontract CarbonCreditCoins is ...\n      JUMPI \t\t\tcontract CarbonCreditCoins is ...\n    tag 2\t\t\tcontract CarbonCreditCoins is ...\n      JUMPDEST \t\t\tcontract CarbonCreditCoins is ...\n      PUSH 0\t\t\tcontract CarbonCreditCoins is ...\n      DUP1 \t\t\tcontract CarbonCreditCoins is ...\n      REVERT \t\t\tcontract CarbonCreditCoins is ...\n    tag 3\t\t\tfunction setImageURI(string me...\n      JUMPDEST \t\t\tfunction setImageURI(string me...\n      PUSH [tag] 28\t\t\tfunction setImageURI(string me...\n      PUSH 4\t\t\tfunction setImageURI(string me...\n      DUP1 \t\t\tfunction setImageURI(string me...\n      CALLDATASIZE \t\t\tfunction setImageURI(string me...\n      SUB \t\t\tfunction setImageURI(string me...\n      DUP2 \t\t\tfunction setImageURI(string me...\n      ADD \t\t\tfunction setImageURI(string me...\n      SWAP1 \t\t\tfunction setImageURI(string me...\n      PUSH [tag] 29\t\t\tfunction setImageURI(string me...\n      SWAP2 \t\t\tfunction setImageURI(string me...\n      SWAP1 \t\t\tfunction setImageURI(string me...\n      PUSH [tag] 30\t\t\tfunction setImageURI(string me...\n      JUMP \t\t\tfunction setImageURI(string me...\n    tag 29\t\t\tfunction setImageURI(string me...\n      JUMPDEST \t\t\tfunction setImageURI(string me...\n      PUSH [tag] 31\t\t\tfunction setImageURI(string me...\n      JUMP \t\t\tfunction setImageURI(string me...\n    tag 28\t\t\tfunction setImageURI(string me...\n      JUMPDEST \t\t\tfunction setImageURI(string me...\n      STOP \t\t\tfunction setImageURI(string me...\n    tag 4\t\t\tuire(masterWallet != address(0...\n      JUMPDEST \t\t\tuire(masterWallet != address(0...\n      PUSH [tag] 32\t\t\tuire(masterWallet != address(0...\n      PUSH [tag] 33\t\t\tuire(masterWallet != address(0...\n      JUMP \t\t\tuire(masterWallet != address(0...\n    tag 32\t\t\tuire(masterWallet != address(0...\n      JUMPDEST \t\t\tuire(masterWallet != address(0...\n      PUSH 40\t\t\tuire(masterWallet != address(0...\n      MLOAD \t\t\tuire(masterWallet != address(0...\n      PUSH [tag] 34\t\t\tuire(masterWallet != address(0...\n      SWAP2 \t\t\tuire(masterWallet != address(0...\n      SWAP1 \t\t\tuire(masterWallet != address(0...\n      PUSH [tag] 35\t\t\tuire(masterWallet != address(0...\n      JUMP \t\t\tuire(masterWallet != address(0...\n    tag 34\t\t\tuire(masterWallet != address(0...\n      JUMPDEST \t\t\tuire(masterWallet != address(0...\n      PUSH 40\t\t\tuire(masterWallet != address(0...\n      MLOAD \t\t\tuire(masterWallet != address(0...\n      DUP1 \t\t\tuire(masterWallet != address(0...\n      SWAP2 \t\t\tuire(masterWallet != address(0...\n      SUB \t\t\tuire(masterWallet != address(0...\n      SWAP1 \t\t\tuire(masterWallet != address(0...\n      RETURN \t\t\tuire(masterWallet != address(0...\n    tag 5\t\t\t       string memory descripti...\n      JUMPDEST \t\t\t       string memory descripti...\n      PUSH [tag] 36\t\t\t       string memory descripti...\n      PUSH 4\t\t\t       string memory descripti...\n      DUP1 \t\t\t       string memory descripti...\n      CALLDATASIZE \t\t\t       string memory descripti...\n      SUB \t\t\t       string memory descripti...\n      DUP2 \t\t\t       string memory descripti...\n      ADD \t\t\t       string memory descripti...\n      SWAP1 \t\t\t       string memory descripti...\n      PUSH [tag] 37\t\t\t       string memory descripti...\n      SWAP2 \t\t\t       string memory descripti...\n      SWAP1 \t\t\t       string memory descripti...\n      PUSH [tag] 38\t\t\t       string memory descripti...\n      JUMP \t\t\t       string memory descripti...\n    tag 37\t\t\t       string memory descripti...\n      JUMPDEST \t\t\t       string memory descripti...\n      PUSH [tag] 39\t\t\t       string memory descripti...\n      JUMP \t\t\t       string memory descripti...\n    tag 36\t\t\t       string memory descripti...\n      JUMPDEST \t\t\t       string memory descripti...\n      PUSH 40\t\t\t       string memory descripti...\n      MLOAD \t\t\t       string memory descripti...\n      PUSH [tag] 40\t\t\t       string memory descripti...\n      SWAP2 \t\t\t       string memory descripti...\n      SWAP1 \t\t\t       string memory descripti...\n      PUSH [tag] 41\t\t\t       string memory descripti...\n      JUMP \t\t\t       string memory descripti...\n    tag 40\t\t\t       string memory descripti...\n      JUMPDEST \t\t\t       string memory descripti...\n      PUSH 40\t\t\t       string memory descripti...\n      MLOAD \t\t\t       string memory descripti...\n      DUP1 \t\t\t       string memory descripti...\n      SWAP2 \t\t\t       string memory descripti...\n      SUB \t\t\t       string memory descripti...\n      SWAP1 \t\t\t       string memory descripti...\n      RETURN \t\t\t       string memory descripti...\n    tag 6\t\t\tstring public imageURI\n      JUMPDEST \t\t\tstring public imageURI\n      PUSH [tag] 42\t\t\tstring public imageURI\n      PUSH [tag] 43\t\t\tstring public imageURI\n      JUMP \t\t\tstring public imageURI\n    tag 42\t\t\tstring public imageURI\n      JUMPDEST \t\t\tstring public imageURI\n      PUSH 40\t\t\tstring public imageURI\n      MLOAD \t\t\tstring public imageURI\n      PUSH [tag] 44\t\t\tstring public imageURI\n      SWAP2 \t\t\tstring public imageURI\n      SWAP1 \t\t\tstring public imageURI\n      PUSH [tag] 35\t\t\tstring public imageURI\n      JUMP \t\t\tstring public imageURI\n    tag 44\t\t\tstring public imageURI\n      JUMPDEST \t\t\tstring public imageURI\n      PUSH 40\t\t\tstring public imageURI\n      MLOAD \t\t\tstring public imageURI\n      DUP1 \t\t\tstring public imageURI\n      SWAP2 \t\t\tstring public imageURI\n      SUB \t\t\tstring public imageURI\n      SWAP1 \t\t\tstring public imageURI\n      RETURN \t\t\tstring public imageURI\n    tag 7\t\t\t==========\\n\\n    function set...\n      JUMPDEST \t\t\t==========\\n\\n    function set...\n      PUSH [tag] 45\t\t\t==========\\n\\n    function set...\n      PUSH [tag] 46\t\t\t==========\\n\\n    function set...\n      JUMP \t\t\t==========\\n\\n    function set...\n    tag 45\t\t\t==========\\n\\n    function set...\n      JUMPDEST \t\t\t==========\\n\\n    function set...\n      PUSH 40\t\t\t==========\\n\\n    function set...\n      MLOAD \t\t\t==========\\n\\n    function set...\n      PUSH [tag] 47\t\t\t==========\\n\\n    function set...\n      SWAP2 \t\t\t==========\\n\\n    function set...\n      SWAP1 \t\t\t==========\\n\\n    function set...\n      PUSH [tag] 48\t\t\t==========\\n\\n    function set...\n      JUMP \t\t\t==========\\n\\n    function set...\n    tag 47\t\t\t==========\\n\\n    function set...\n      JUMPDEST \t\t\t==========\\n\\n    function set...\n      PUSH 40\t\t\t==========\\n\\n    function set...\n      MLOAD \t\t\t==========\\n\\n    function set...\n      DUP1 \t\t\t==========\\n\\n    function set...\n      SWAP2 \t\t\t==========\\n\\n    function set...\n      SUB \t\t\t==========\\n\\n    function set...\n      SWAP1 \t\t\t==========\\n\\n    function set...\n      RETURN \t\t\t==========\\n\\n    function set...\n    tag 8\t\t\tstring public projectInfo =\\n ...\n      JUMPDEST \t\t\tstring public projectInfo =\\n ...\n      PUSH [tag] 49\t\t\tstring public projectInfo =\\n ...\n      PUSH [tag] 50\t\t\tstring public projectInfo =\\n ...\n      JUMP \t\t\tstring public projectInfo =\\n ...\n    tag 49\t\t\tstring public projectInfo =\\n ...\n      JUMPDEST \t\t\tstring public projectInfo =\\n ...\n      PUSH 40\t\t\tstring public projectInfo =\\n ...\n      MLOAD \t\t\tstring public projectInfo =\\n ...\n      PUSH [tag] 51\t\t\tstring public projectInfo =\\n ...\n      SWAP2 \t\t\tstring public projectInfo =\\n ...\n      SWAP1 \t\t\tstring public projectInfo =\\n ...\n      PUSH [tag] 35\t\t\tstring public projectInfo =\\n ...\n      JUMP \t\t\tstring public projectInfo =\\n ...\n    tag 51\t\t\tstring public projectInfo =\\n ...\n      JUMPDEST \t\t\tstring public projectInfo =\\n ...\n      PUSH 40\t\t\tstring public projectInfo =\\n ...\n      MLOAD \t\t\tstring public projectInfo =\\n ...\n      DUP1 \t\t\tstring public projectInfo =\\n ...\n      SWAP2 \t\t\tstring public projectInfo =\\n ...\n      SUB \t\t\tstring public projectInfo =\\n ...\n      SWAP1 \t\t\tstring public projectInfo =\\n ...\n      RETURN \t\t\tstring public projectInfo =\\n ...\n    tag 9\t\t\t\n      JUMPDEST \t\t\t\n      PUSH [tag] 52\t\t\t\n      PUSH 4\t\t\t\n      DUP1 \t\t\t\n      CALLDATASIZE \t\t\t\n      SUB \t\t\t\n      DUP2 \t\t\t\n      ADD \t\t\t\n      SWAP1 \t\t\t\n      PUSH [tag] 53\t\t\t\n      SWAP2 \t\t\t\n      SWAP1 \t\t\t\n      PUSH [tag] 54\t\t\t\n      JUMP \t\t\t\n    tag 53\t\t\t\n      JUMPDEST \t\t\t\n      PUSH [tag] 55\t\t\t\n      JUMP \t\t\t\n    tag 52\t\t\t\n      JUMPDEST \t\t\t\n      PUSH 40\t\t\t\n      MLOAD \t\t\t\n      PUSH [tag] 56\t\t\t\n      SWAP2 \t\t\t\n      SWAP1 \t\t\t\n      PUSH [tag] 41\t\t\t\n      JUMP \t\t\t\n    tag 56\t\t\t\n      JUMPDEST \t\t\t\n      PUSH 40\t\t\t\n      MLOAD \t\t\t\n      DUP1 \t\t\t\n      SWAP2 \t\t\t\n      SUB \t\t\t\n      SWAP1 \t\t\t\n      RETURN \t\t\t\n    tag 10\t\t\toject whitepaper\"\\n        ));...\n      JUMPDEST \t\t\toject whitepaper\"\\n        ));...\n      PUSH [tag] 57\t\t\toject whitepaper\"\\n        ));...\n      PUSH [tag] 58\t\t\toject whitepaper\"\\n        ));...\n      JUMP \t\t\toject whitepaper\"\\n        ));...\n    tag 57\t\t\toject whitepaper\"\\n        ));...\n      JUMPDEST \t\t\toject whitepaper\"\\n        ));...\n      PUSH 40\t\t\toject whitepaper\"\\n        ));...\n      MLOAD \t\t\toject whitepaper\"\\n        ));...\n      PUSH [tag] 59\t\t\toject whitepaper\"\\n        ));...\n      SWAP2 \t\t\toject whitepaper\"\\n        ));...\n      SWAP1 \t\t\toject whitepaper\"\\n        ));...\n      PUSH [tag] 60\t\t\toject whitepaper\"\\n        ));...\n      JUMP \t\t\toject whitepaper\"\\n        ));...\n    tag 59\t\t\toject whitepaper\"\\n        ));...\n      JUMPDEST \t\t\toject whitepaper\"\\n        ));...\n      PUSH 40\t\t\toject whitepaper\"\\n        ));...\n      MLOAD \t\t\toject whitepaper\"\\n        ));...\n      DUP1 \t\t\toject whitepaper\"\\n        ));...\n      SWAP2 \t\t\toject whitepaper\"\\n        ));...\n      SUB \t\t\toject whitepaper\"\\n        ));...\n      SWAP1 \t\t\toject whitepaper\"\\n        ));...\n      RETURN \t\t\toject whitepaper\"\\n        ));...\n    tag 11\t\t\tuint256 public constant MAX_SU...\n      JUMPDEST \t\t\tuint256 public constant MAX_SU...\n      PUSH [tag] 61\t\t\tuint256 public constant MAX_SU...\n      PUSH [tag] 62\t\t\tuint256 public constant MAX_SU...\n      JUMP \t\t\tuint256 public constant MAX_SU...\n    tag 61\t\t\tuint256 public constant MAX_SU...\n      JUMPDEST \t\t\tuint256 public constant MAX_SU...\n      PUSH 40\t\t\tuint256 public constant MAX_SU...\n      MLOAD \t\t\tuint256 public constant MAX_SU...\n      PUSH [tag] 63\t\t\tuint256 public constant MAX_SU...\n      SWAP2 \t\t\tuint256 public constant MAX_SU...\n      SWAP1 \t\t\tuint256 public constant MAX_SU...\n      PUSH [tag] 48\t\t\tuint256 public constant MAX_SU...\n      JUMP \t\t\tuint256 public constant MAX_SU...\n    tag 63\t\t\tuint256 public constant MAX_SU...\n      JUMPDEST \t\t\tuint256 public constant MAX_SU...\n      PUSH 40\t\t\tuint256 public constant MAX_SU...\n      MLOAD \t\t\tuint256 public constant MAX_SU...\n      DUP1 \t\t\tuint256 public constant MAX_SU...\n      SWAP2 \t\t\tuint256 public constant MAX_SU...\n      SUB \t\t\tuint256 public constant MAX_SU...\n      SWAP1 \t\t\tuint256 public constant MAX_SU...\n      RETURN \t\t\tuint256 public constant MAX_SU...\n    tag 12\t\t\tfunction getCertificate(uint25...\n      JUMPDEST \t\t\tfunction getCertificate(uint25...\n      PUSH [tag] 64\t\t\tfunction getCertificate(uint25...\n      PUSH 4\t\t\tfunction getCertificate(uint25...\n      DUP1 \t\t\tfunction getCertificate(uint25...\n      CALLDATASIZE \t\t\tfunction getCertificate(uint25...\n      SUB \t\t\tfunction getCertificate(uint25...\n      DUP2 \t\t\tfunction getCertificate(uint25...\n      ADD \t\t\tfunction getCertificate(uint25...\n      SWAP1 \t\t\tfunction getCertificate(uint25...\n      PUSH [tag] 65\t\t\tfunction getCertificate(uint25...\n      SWAP2 \t\t\tfunction getCertificate(uint25...\n      SWAP1 \t\t\tfunction getCertificate(uint25...\n      PUSH [tag] 66\t\t\tfunction getCertificate(uint25...\n      JUMP \t\t\tfunction getCertificate(uint25...\n    tag 65\t\t\tfunction getCertificate(uint25...\n      JUMPDEST \t\t\tfunction getCertificate(uint25...\n      PUSH [tag] 67\t\t\tfunction getCertificate(uint25...\n      JUMP \t\t\tfunction getCertificate(uint25...\n    tag 64\t\t\tfunction getCertificate(uint25...\n      JUMPDEST \t\t\tfunction getCertificate(uint25...\n      PUSH 40\t\t\tfunction getCertificate(uint25...\n      MLOAD \t\t\tfunction getCertificate(uint25...\n      PUSH [tag] 68\t\t\tfunction getCertificate(uint25...\n      SWAP5 \t\t\tfunction getCertificate(uint25...\n      SWAP4 \t\t\tfunction getCertificate(uint25...\n      SWAP3 \t\t\tfunction getCertificate(uint25...\n      SWAP2 \t\t\tfunction getCertificate(uint25...\n      SWAP1 \t\t\tfunction getCertificate(uint25...\n      PUSH [tag] 69\t\t\tfunction getCertificate(uint25...\n      JUMP \t\t\tfunction getCertificate(uint25...\n    tag 68\t\t\tfunction getCertificate(uint25...\n      JUMPDEST \t\t\tfunction getCertificate(uint25...\n      PUSH 40\t\t\tfunction getCertificate(uint25...\n      MLOAD \t\t\tfunction getCertificate(uint25...\n      DUP1 \t\t\tfunction getCertificate(uint25...\n      SWAP2 \t\t\tfunction getCertificate(uint25...\n      SUB \t\t\tfunction getCertificate(uint25...\n      SWAP1 \t\t\tfunction getCertificate(uint25...\n      RETURN \t\t\tfunction getCertificate(uint25...\n    tag 13\t\t\tCertificate[] public certifica...\n      JUMPDEST \t\t\tCertificate[] public certifica...\n      PUSH [tag] 70\t\t\tCertificate[] public certifica...\n      PUSH 4\t\t\tCertificate[] public certifica...\n      DUP1 \t\t\tCertificate[] public certifica...\n      CALLDATASIZE \t\t\tCertificate[] public certifica...\n      SUB \t\t\tCertificate[] public certifica...\n      DUP2 \t\t\tCertificate[] public certifica...\n      ADD \t\t\tCertificate[] public certifica...\n      SWAP1 \t\t\tCertificate[] public certifica...\n      PUSH [tag] 71\t\t\tCertificate[] public certifica...\n      SWAP2 \t\t\tCertificate[] public certifica...\n      SWAP1 \t\t\tCertificate[] public certifica...\n      PUSH [tag] 66\t\t\tCertificate[] public certifica...\n      JUMP \t\t\tCertificate[] public certifica...\n    tag 71\t\t\tCertificate[] public certifica...\n      JUMPDEST \t\t\tCertificate[] public certifica...\n      PUSH [tag] 72\t\t\tCertificate[] public certifica...\n      JUMP \t\t\tCertificate[] public certifica...\n    tag 70\t\t\tCertificate[] public certifica...\n      JUMPDEST \t\t\tCertificate[] public certifica...\n      PUSH 40\t\t\tCertificate[] public certifica...\n      MLOAD \t\t\tCertificate[] public certifica...\n      PUSH [tag] 73\t\t\tCertificate[] public certifica...\n      SWAP5 \t\t\tCertificate[] public certifica...\n      SWAP4 \t\t\tCertificate[] public certifica...\n      SWAP3 \t\t\tCertificate[] public certifica...\n      SWAP2 \t\t\tCertificate[] public certifica...\n      SWAP1 \t\t\tCertificate[] public certifica...\n      PUSH [tag] 69\t\t\tCertificate[] public certifica...\n      JUMP \t\t\tCertificate[] public certifica...\n    tag 73\t\t\tCertificate[] public certifica...\n      JUMPDEST \t\t\tCertificate[] public certifica...\n      PUSH 40\t\t\tCertificate[] public certifica...\n      MLOAD \t\t\tCertificate[] public certifica...\n      DUP1 \t\t\tCertificate[] public certifica...\n      SWAP2 \t\t\tCertificate[] public certifica...\n      SUB \t\t\tCertificate[] public certifica...\n      SWAP1 \t\t\tCertificate[] public certifica...\n      RETURN \t\t\tCertificate[] public certifica...\n    tag 14\t\t\tdress\");\\n        reserveWalle...\n      JUMPDEST \t\t\tdress\");\\n        reserveWalle...\n      PUSH [tag] 74\t\t\tdress\");\\n        reserveWalle...\n      PUSH 4\t\t\tdress\");\\n        reserveWalle...\n      DUP1 \t\t\tdress\");\\n        reserveWalle...\n      CALLDATASIZE \t\t\tdress\");\\n        reserveWalle...\n      SUB \t\t\tdress\");\\n        reserveWalle...\n      DUP2 \t\t\tdress\");\\n        reserveWalle...\n      ADD \t\t\tdress\");\\n        reserveWalle...\n      SWAP1 \t\t\tdress\");\\n        reserveWalle...\n      PUSH [tag] 75\t\t\tdress\");\\n        reserveWalle...\n      SWAP2 \t\t\tdress\");\\n        reserveWalle...\n      SWAP1 \t\t\tdress\");\\n        reserveWalle...\n      PUSH [tag] 76\t\t\tdress\");\\n        reserveWalle...\n      JUMP \t\t\tdress\");\\n        reserveWalle...\n    tag 75\t\t\tdress\");\\n        reserveWalle...\n      JUMPDEST \t\t\tdress\");\\n        reserveWalle...\n      PUSH [tag] 77\t\t\tdress\");\\n        reserveWalle...\n      JUMP \t\t\tdress\");\\n        reserveWalle...\n    tag 74\t\t\tdress\");\\n        reserveWalle...\n      JUMPDEST \t\t\tdress\");\\n        reserveWalle...\n      PUSH 40\t\t\tdress\");\\n        reserveWalle...\n      MLOAD \t\t\tdress\");\\n        reserveWalle...\n      PUSH [tag] 78\t\t\tdress\");\\n        reserveWalle...\n      SWAP2 \t\t\tdress\");\\n        reserveWalle...\n      SWAP1 \t\t\tdress\");\\n        reserveWalle...\n      PUSH [tag] 48\t\t\tdress\");\\n        reserveWalle...\n      JUMP \t\t\tdress\");\\n        reserveWalle...\n    tag 78\t\t\tdress\");\\n        reserveWalle...\n      JUMPDEST \t\t\tdress\");\\n        reserveWalle...\n      PUSH 40\t\t\tdress\");\\n        reserveWalle...\n      MLOAD \t\t\tdress\");\\n        reserveWalle...\n      DUP1 \t\t\tdress\");\\n        reserveWalle...\n      SWAP2 \t\t\tdress\");\\n        reserveWalle...\n      SUB \t\t\tdress\");\\n        reserveWalle...\n      SWAP1 \t\t\tdress\");\\n        reserveWalle...\n      RETURN \t\t\tdress\");\\n        reserveWalle...\n    tag 15\t\t\tn\"\\n        ));\\n\\n        cer...\n      JUMPDEST \t\t\tn\"\\n        ));\\n\\n        cer...\n      PUSH [tag] 79\t\t\tn\"\\n        ));\\n\\n        cer...\n      PUSH [tag] 80\t\t\tn\"\\n        ));\\n\\n        cer...\n      JUMP \t\t\tn\"\\n        ));\\n\\n        cer...\n    tag 79\t\t\tn\"\\n        ));\\n\\n        cer...\n      JUMPDEST \t\t\tn\"\\n        ));\\n\\n        cer...\n      STOP \t\t\tn\"\\n        ));\\n\\n        cer...\n    tag 16\t\t\t  address _reserveWallet\\n    ...\n      JUMPDEST \t\t\t  address _reserveWallet\\n    ...\n      PUSH [tag] 81\t\t\t  address _reserveWallet\\n    ...\n      PUSH [tag] 82\t\t\t  address _reserveWallet\\n    ...\n      JUMP \t\t\t  address _reserveWallet\\n    ...\n    tag 81\t\t\t  address _reserveWallet\\n    ...\n      JUMPDEST \t\t\t  address _reserveWallet\\n    ...\n      PUSH 40\t\t\t  address _reserveWallet\\n    ...\n      MLOAD \t\t\t  address _reserveWallet\\n    ...\n      PUSH [tag] 83\t\t\t  address _reserveWallet\\n    ...\n      SWAP2 \t\t\t  address _reserveWallet\\n    ...\n      SWAP1 \t\t\t  address _reserveWallet\\n    ...\n      PUSH [tag] 84\t\t\t  address _reserveWallet\\n    ...\n      JUMP \t\t\t  address _reserveWallet\\n    ...\n    tag 83\t\t\t  address _reserveWallet\\n    ...\n      JUMPDEST \t\t\t  address _reserveWallet\\n    ...\n      PUSH 40\t\t\t  address _reserveWallet\\n    ...\n      MLOAD \t\t\t  address _reserveWallet\\n    ...\n      DUP1 \t\t\t  address _reserveWallet\\n    ...\n      SWAP2 \t\t\t  address _reserveWallet\\n    ...\n      SUB \t\t\t  address _reserveWallet\\n    ...\n      SWAP1 \t\t\t  address _reserveWallet\\n    ...\n      RETURN \t\t\t  address _reserveWallet\\n    ...\n    tag 17\t\t\tfunction getCertificatesCount(...\n      JUMPDEST \t\t\tfunction getCertificatesCount(...\n      PUSH [tag] 85\t\t\tfunction getCertificatesCount(...\n      PUSH [tag] 86\t\t\tfunction getCertificatesCount(...\n      JUMP \t\t\tfunction getCertificatesCount(...\n    tag 85\t\t\tfunction getCertificatesCount(...\n      JUMPDEST \t\t\tfunction getCertificatesCount(...\n      PUSH 40\t\t\tfunction getCertificatesCount(...\n      MLOAD \t\t\tfunction getCertificatesCount(...\n      PUSH [tag] 87\t\t\tfunction getCertificatesCount(...\n      SWAP2 \t\t\tfunction getCertificatesCount(...\n      SWAP1 \t\t\tfunction getCertificatesCount(...\n      PUSH [tag] 48\t\t\tfunction getCertificatesCount(...\n      JUMP \t\t\tfunction getCertificatesCount(...\n    tag 87\t\t\tfunction getCertificatesCount(...\n      JUMPDEST \t\t\tfunction getCertificatesCount(...\n      PUSH 40\t\t\tfunction getCertificatesCount(...\n      MLOAD \t\t\tfunction getCertificatesCount(...\n      DUP1 \t\t\tfunction getCertificatesCount(...\n      SWAP2 \t\t\tfunction getCertificatesCount(...\n      SUB \t\t\tfunction getCertificatesCount(...\n      SWAP1 \t\t\tfunction getCertificatesCount(...\n      RETURN \t\t\tfunction getCertificatesCount(...\n    tag 18\t\t\t(masterWallet, MAX_SUPPLY);\\n\\...\n      JUMPDEST \t\t\t(masterWallet, MAX_SUPPLY);\\n\\...\n      PUSH [tag] 88\t\t\t(masterWallet, MAX_SUPPLY);\\n\\...\n      PUSH [tag] 89\t\t\t(masterWallet, MAX_SUPPLY);\\n\\...\n      JUMP \t\t\t(masterWallet, MAX_SUPPLY);\\n\\...\n    tag 88\t\t\t(masterWallet, MAX_SUPPLY);\\n\\...\n      JUMPDEST \t\t\t(masterWallet, MAX_SUPPLY);\\n\\...\n      PUSH 40\t\t\t(masterWallet, MAX_SUPPLY);\\n\\...\n      MLOAD \t\t\t(masterWallet, MAX_SUPPLY);\\n\\...\n      PUSH [tag] 90\t\t\t(masterWallet, MAX_SUPPLY);\\n\\...\n      SWAP2 \t\t\t(masterWallet, MAX_SUPPLY);\\n\\...\n      SWAP1 \t\t\t(masterWallet, MAX_SUPPLY);\\n\\...\n      PUSH [tag] 35\t\t\t(masterWallet, MAX_SUPPLY);\\n\\...\n      JUMP \t\t\t(masterWallet, MAX_SUPPLY);\\n\\...\n    tag 90\t\t\t(masterWallet, MAX_SUPPLY);\\n\\...\n      JUMPDEST \t\t\t(masterWallet, MAX_SUPPLY);\\n\\...\n      PUSH 40\t\t\t(masterWallet, MAX_SUPPLY);\\n\\...\n      MLOAD \t\t\t(masterWallet, MAX_SUPPLY);\\n\\...\n      DUP1 \t\t\t(masterWallet, MAX_SUPPLY);\\n\\...\n      SWAP2 \t\t\t(masterWallet, MAX_SUPPLY);\\n\\...\n      SUB \t\t\t(masterWallet, MAX_SUPPLY);\\n\\...\n      SWAP1 \t\t\t(masterWallet, MAX_SUPPLY);\\n\\...\n      RETURN \t\t\t(masterWallet, MAX_SUPPLY);\\n\\...\n    tag 19\t\t\t external onlyOwner {\\n       ...\n      JUMPDEST \t\t\t external onlyOwner {\\n       ...\n      PUSH [tag] 91\t\t\t external onlyOwner {\\n       ...\n      PUSH 4\t\t\t external onlyOwner {\\n       ...\n      DUP1 \t\t\t external onlyOwner {\\n       ...\n      CALLDATASIZE \t\t\t external onlyOwner {\\n       ...\n      SUB \t\t\t external onlyOwner {\\n       ...\n      DUP2 \t\t\t external onlyOwner {\\n       ...\n      ADD \t\t\t external onlyOwner {\\n       ...\n      SWAP1 \t\t\t external onlyOwner {\\n       ...\n      PUSH [tag] 92\t\t\t external onlyOwner {\\n       ...\n      SWAP2 \t\t\t external onlyOwner {\\n       ...\n      SWAP1 \t\t\t external onlyOwner {\\n       ...\n      PUSH [tag] 38\t\t\t external onlyOwner {\\n       ...\n      JUMP \t\t\t external onlyOwner {\\n       ...\n    tag 92\t\t\t external onlyOwner {\\n       ...\n      JUMPDEST \t\t\t external onlyOwner {\\n       ...\n      PUSH [tag] 93\t\t\t external onlyOwner {\\n       ...\n      JUMP \t\t\t external onlyOwner {\\n       ...\n    tag 91\t\t\t external onlyOwner {\\n       ...\n      JUMPDEST \t\t\t external onlyOwner {\\n       ...\n      PUSH 40\t\t\t external onlyOwner {\\n       ...\n      MLOAD \t\t\t external onlyOwner {\\n       ...\n      PUSH [tag] 94\t\t\t external onlyOwner {\\n       ...\n      SWAP2 \t\t\t external onlyOwner {\\n       ...\n      SWAP1 \t\t\t external onlyOwner {\\n       ...\n      PUSH [tag] 41\t\t\t external onlyOwner {\\n       ...\n      JUMP \t\t\t external onlyOwner {\\n       ...\n    tag 94\t\t\t external onlyOwner {\\n       ...\n      JUMPDEST \t\t\t external onlyOwner {\\n       ...\n      PUSH 40\t\t\t external onlyOwner {\\n       ...\n      MLOAD \t\t\t external onlyOwner {\\n       ...\n      DUP1 \t\t\t external onlyOwner {\\n       ...\n      SWAP2 \t\t\t external onlyOwner {\\n       ...\n      SUB \t\t\t external onlyOwner {\\n       ...\n      SWAP1 \t\t\t external onlyOwner {\\n       ...\n      RETURN \t\t\t external onlyOwner {\\n       ...\n    tag 20\t\t\tfunction addCertificate(\\n    ...\n      JUMPDEST \t\t\tfunction addCertificate(\\n    ...\n      PUSH [tag] 95\t\t\tfunction addCertificate(\\n    ...\n      PUSH 4\t\t\tfunction addCertificate(\\n    ...\n      DUP1 \t\t\tfunction addCertificate(\\n    ...\n      CALLDATASIZE \t\t\tfunction addCertificate(\\n    ...\n      SUB \t\t\tfunction addCertificate(\\n    ...\n      DUP2 \t\t\tfunction addCertificate(\\n    ...\n      ADD \t\t\tfunction addCertificate(\\n    ...\n      SWAP1 \t\t\tfunction addCertificate(\\n    ...\n      PUSH [tag] 96\t\t\tfunction addCertificate(\\n    ...\n      SWAP2 \t\t\tfunction addCertificate(\\n    ...\n      SWAP1 \t\t\tfunction addCertificate(\\n    ...\n      PUSH [tag] 97\t\t\tfunction addCertificate(\\n    ...\n      JUMP \t\t\tfunction addCertificate(\\n    ...\n    tag 96\t\t\tfunction addCertificate(\\n    ...\n      JUMPDEST \t\t\tfunction addCertificate(\\n    ...\n      PUSH [tag] 98\t\t\tfunction addCertificate(\\n    ...\n      JUMP \t\t\tfunction addCertificate(\\n    ...\n    tag 95\t\t\tfunction addCertificate(\\n    ...\n      JUMPDEST \t\t\tfunction addCertificate(\\n    ...\n      STOP \t\t\tfunction addCertificate(\\n    ...\n    tag 21\t\t\taddress public reserveWallet\n      JUMPDEST \t\t\taddress public reserveWallet\n      PUSH [tag] 99\t\t\taddress public reserveWallet\n      PUSH [tag] 100\t\t\taddress public reserveWallet\n      JUMP \t\t\taddress public reserveWallet\n    tag 99\t\t\taddress public reserveWallet\n      JUMPDEST \t\t\taddress public reserveWallet\n      PUSH 40\t\t\taddress public reserveWallet\n      MLOAD \t\t\taddress public reserveWallet\n      PUSH [tag] 101\t\t\taddress public reserveWallet\n      SWAP2 \t\t\taddress public reserveWallet\n      SWAP1 \t\t\taddress public reserveWallet\n      PUSH [tag] 84\t\t\taddress public reserveWallet\n      JUMP \t\t\taddress public reserveWallet\n    tag 101\t\t\taddress public reserveWallet\n      JUMPDEST \t\t\taddress public reserveWallet\n      PUSH 40\t\t\taddress public reserveWallet\n      MLOAD \t\t\taddress public reserveWallet\n      DUP1 \t\t\taddress public reserveWallet\n      SWAP2 \t\t\taddress public reserveWallet\n      SUB \t\t\taddress public reserveWallet\n      SWAP1 \t\t\taddress public reserveWallet\n      RETURN \t\t\taddress public reserveWallet\n    tag 22\t\t\t           _link,\\n           ...\n      JUMPDEST \t\t\t           _link,\\n           ...\n      PUSH [tag] 102\t\t\t           _link,\\n           ...\n      PUSH 4\t\t\t           _link,\\n           ...\n      DUP1 \t\t\t           _link,\\n           ...\n      CALLDATASIZE \t\t\t           _link,\\n           ...\n      SUB \t\t\t           _link,\\n           ...\n      DUP2 \t\t\t           _link,\\n           ...\n      ADD \t\t\t           _link,\\n           ...\n      SWAP1 \t\t\t           _link,\\n           ...\n      PUSH [tag] 103\t\t\t           _link,\\n           ...\n      SWAP2 \t\t\t           _link,\\n           ...\n      SWAP1 \t\t\t           _link,\\n           ...\n      PUSH [tag] 104\t\t\t           _link,\\n           ...\n      JUMP \t\t\t           _link,\\n           ...\n    tag 103\t\t\t           _link,\\n           ...\n      JUMPDEST \t\t\t           _link,\\n           ...\n      PUSH [tag] 105\t\t\t           _link,\\n           ...\n      JUMP \t\t\t           _link,\\n           ...\n    tag 102\t\t\t           _link,\\n           ...\n      JUMPDEST \t\t\t           _link,\\n           ...\n      PUSH 40\t\t\t           _link,\\n           ...\n      MLOAD \t\t\t           _link,\\n           ...\n      PUSH [tag] 106\t\t\t           _link,\\n           ...\n      SWAP2 \t\t\t           _link,\\n           ...\n      SWAP1 \t\t\t           _link,\\n           ...\n      PUSH [tag] 48\t\t\t           _link,\\n           ...\n      JUMP \t\t\t           _link,\\n           ...\n    tag 106\t\t\t           _link,\\n           ...\n      JUMPDEST \t\t\t           _link,\\n           ...\n      PUSH 40\t\t\t           _link,\\n           ...\n      MLOAD \t\t\t           _link,\\n           ...\n      DUP1 \t\t\t           _link,\\n           ...\n      SWAP2 \t\t\t           _link,\\n           ...\n      SUB \t\t\t           _link,\\n           ...\n      SWAP1 \t\t\t           _link,\\n           ...\n      RETURN \t\t\t           _link,\\n           ...\n    tag 23\t\t\tfunction setReserveWallet(addr...\n      JUMPDEST \t\t\tfunction setReserveWallet(addr...\n      PUSH [tag] 107\t\t\tfunction setReserveWallet(addr...\n      PUSH 4\t\t\tfunction setReserveWallet(addr...\n      DUP1 \t\t\tfunction setReserveWallet(addr...\n      CALLDATASIZE \t\t\tfunction setReserveWallet(addr...\n      SUB \t\t\tfunction setReserveWallet(addr...\n      DUP2 \t\t\tfunction setReserveWallet(addr...\n      ADD \t\t\tfunction setReserveWallet(addr...\n      SWAP1 \t\t\tfunction setReserveWallet(addr...\n      PUSH [tag] 108\t\t\tfunction setReserveWallet(addr...\n      SWAP2 \t\t\tfunction setReserveWallet(addr...\n      SWAP1 \t\t\tfunction setReserveWallet(addr...\n      PUSH [tag] 76\t\t\tfunction setReserveWallet(addr...\n      JUMP \t\t\tfunction setReserveWallet(addr...\n    tag 108\t\t\tfunction setReserveWallet(addr...\n      JUMPDEST \t\t\tfunction setReserveWallet(addr...\n      PUSH [tag] 109\t\t\tfunction setReserveWallet(addr...\n      JUMP \t\t\tfunction setReserveWallet(addr...\n    tag 107\t\t\tfunction setReserveWallet(addr...\n      JUMPDEST \t\t\tfunction setReserveWallet(addr...\n      STOP \t\t\tfunction setReserveWallet(addr...\n    tag 24\t\t\tush(Certificate(\\n            ...\n      JUMPDEST \t\t\tush(Certificate(\\n            ...\n      PUSH [tag] 110\t\t\tush(Certificate(\\n            ...\n      PUSH 4\t\t\tush(Certificate(\\n            ...\n      DUP1 \t\t\tush(Certificate(\\n            ...\n      CALLDATASIZE \t\t\tush(Certificate(\\n            ...\n      SUB \t\t\tush(Certificate(\\n            ...\n      DUP2 \t\t\tush(Certificate(\\n            ...\n      ADD \t\t\tush(Certificate(\\n            ...\n      SWAP1 \t\t\tush(Certificate(\\n            ...\n      PUSH [tag] 111\t\t\tush(Certificate(\\n            ...\n      SWAP2 \t\t\tush(Certificate(\\n            ...\n      SWAP1 \t\t\tush(Certificate(\\n            ...\n      PUSH [tag] 76\t\t\tush(Certificate(\\n            ...\n      JUMP \t\t\tush(Certificate(\\n            ...\n    tag 111\t\t\tush(Certificate(\\n            ...\n      JUMPDEST \t\t\tush(Certificate(\\n            ...\n      PUSH [tag] 112\t\t\tush(Certificate(\\n            ...\n      JUMP \t\t\tush(Certificate(\\n            ...\n    tag 110\t\t\tush(Certificate(\\n            ...\n      JUMPDEST \t\t\tush(Certificate(\\n            ...\n      STOP \t\t\tush(Certificate(\\n            ...\n    tag 31\t\t\tfunction setImageURI(string me...\n      JUMPDEST \t\t\tfunction setImageURI(string me...\n      PUSH [tag] 114\t\t\t=============\n      PUSH [tag] 115\t\t\t===========\n      JUMP \t\t\t=============\n    tag 114\t\t\t=============\n      JUMPDEST \t\t\t=============\n      DUP1 \t\t\t_uri\n      PUSH 6\t\t\timageURI\n      SWAP1 \t\t\timageURI = _uri\n      DUP2 \t\t\timageURI = _uri\n      PUSH [tag] 117\t\t\timageURI = _uri\n      SWAP2 \t\t\timageURI = _uri\n      SWAP1 \t\t\timageURI = _uri\n      PUSH [tag] 118\t\t\timageURI = _uri\n      JUMP \t\t\timageURI = _uri\n    tag 117\t\t\timageURI = _uri\n      JUMPDEST \t\t\timageURI = _uri\n      POP \t\t\timageURI = _uri\n      POP \t\t\tfunction setImageURI(string me...\n      JUMP \t\t\tfunction setImageURI(string me...\n    tag 33\t\t\tuire(masterWallet != address(0...\n      JUMPDEST \t\t\tuire(masterWallet != address(0...\n      PUSH 60\t\t\ter\");\\n       \n      PUSH 3\t\t\tllet \n      DUP1 \t\t\tserveWallet \n      SLOAD \t\t\tserveWallet \n      PUSH [tag] 120\t\t\tserveWallet \n      SWAP1 \t\t\tserveWallet \n      PUSH [tag] 121\t\t\tserveWallet \n      JUMP \t\t\tserveWallet \n    tag 120\t\t\tserveWallet \n      JUMPDEST \t\t\tserveWallet \n      DUP1 \t\t\tserveWallet \n      PUSH 1F\t\t\tserveWallet \n      ADD \t\t\tserveWallet \n      PUSH 20\t\t\tserveWallet \n      DUP1 \t\t\tserveWallet \n      SWAP2 \t\t\tserveWallet \n      DIV \t\t\tserveWallet \n      MUL \t\t\tserveWallet \n      PUSH 20\t\t\tserveWallet \n      ADD \t\t\tserveWallet \n      PUSH 40\t\t\tserveWallet \n      MLOAD \t\t\tserveWallet \n      SWAP1 \t\t\tserveWallet \n      DUP2 \t\t\tserveWallet \n      ADD \t\t\tserveWallet \n      PUSH 40\t\t\tserveWallet \n      MSTORE \t\t\tserveWallet \n      DUP1 \t\t\tserveWallet \n      SWAP3 \t\t\tserveWallet \n      SWAP2 \t\t\tserveWallet \n      SWAP1 \t\t\tserveWallet \n      DUP2 \t\t\tserveWallet \n      DUP2 \t\t\tserveWallet \n      MSTORE \t\t\tserveWallet \n      PUSH 20\t\t\tserveWallet \n      ADD \t\t\tserveWallet \n      DUP3 \t\t\tserveWallet \n      DUP1 \t\t\tserveWallet \n      SLOAD \t\t\tserveWallet \n      PUSH [tag] 122\t\t\tserveWallet \n      SWAP1 \t\t\tserveWallet \n      PUSH [tag] 121\t\t\tserveWallet \n      JUMP \t\t\tserveWallet \n    tag 122\t\t\tserveWallet \n      JUMPDEST \t\t\tserveWallet \n      DUP1 \t\t\tserveWallet \n      ISZERO \t\t\tserveWallet \n      PUSH [tag] 123\t\t\tserveWallet \n      JUMPI \t\t\tserveWallet \n      DUP1 \t\t\tserveWallet \n      PUSH 1F\t\t\tserveWallet \n      LT \t\t\tserveWallet \n      PUSH [tag] 124\t\t\tserveWallet \n      JUMPI \t\t\tserveWallet \n      PUSH 100\t\t\tserveWallet \n      DUP1 \t\t\tserveWallet \n      DUP4 \t\t\tserveWallet \n      SLOAD \t\t\tserveWallet \n      DIV \t\t\tserveWallet \n      MUL \t\t\tserveWallet \n      DUP4 \t\t\tserveWallet \n      MSTORE \t\t\tserveWallet \n      SWAP2 \t\t\tserveWallet \n      PUSH 20\t\t\tserveWallet \n      ADD \t\t\tserveWallet \n      SWAP2 \t\t\tserveWallet \n      PUSH [tag] 123\t\t\tserveWallet \n      JUMP \t\t\tserveWallet \n    tag 124\t\t\tserveWallet \n      JUMPDEST \t\t\tserveWallet \n      DUP3 \t\t\tserveWallet \n      ADD \t\t\tserveWallet \n      SWAP2 \t\t\tserveWallet \n      SWAP1 \t\t\tserveWallet \n      PUSH 0\t\t\tserveWallet \n      MSTORE \t\t\tserveWallet \n      PUSH 20\t\t\tserveWallet \n      PUSH 0\t\t\tserveWallet \n      KECCAK256 \t\t\tserveWallet \n      SWAP1 \t\t\tserveWallet \n    tag 125\t\t\tserveWallet \n      JUMPDEST \t\t\tserveWallet \n      DUP2 \t\t\tserveWallet \n      SLOAD \t\t\tserveWallet \n      DUP2 \t\t\tserveWallet \n      MSTORE \t\t\tserveWallet \n      SWAP1 \t\t\tserveWallet \n      PUSH 1\t\t\tserveWallet \n      ADD \t\t\tserveWallet \n      SWAP1 \t\t\tserveWallet \n      PUSH 20\t\t\tserveWallet \n      ADD \t\t\tserveWallet \n      DUP1 \t\t\tserveWallet \n      DUP4 \t\t\tserveWallet \n      GT \t\t\tserveWallet \n      PUSH [tag] 125\t\t\tserveWallet \n      JUMPI \t\t\tserveWallet \n      DUP3 \t\t\tserveWallet \n      SWAP1 \t\t\tserveWallet \n      SUB \t\t\tserveWallet \n      PUSH 1F\t\t\tserveWallet \n      AND \t\t\tserveWallet \n      DUP3 \t\t\tserveWallet \n      ADD \t\t\tserveWallet \n      SWAP2 \t\t\tserveWallet \n    tag 123\t\t\tserveWallet \n      JUMPDEST \t\t\tserveWallet \n      POP \t\t\tserveWallet \n      POP \t\t\tserveWallet \n      POP \t\t\tserveWallet \n      POP \t\t\tserveWallet \n      POP \t\t\tserveWallet \n      SWAP1 \t\t\tserveWallet \n      POP \t\t\tserveWallet \n      SWAP1 \t\t\tuire(masterWallet != address(0...\n      JUMP \t\t\tuire(masterWallet != address(0...\n    tag 39\t\t\t       string memory descripti...\n      JUMPDEST \t\t\t       string memory descripti...\n      PUSH 0\t\t\try c\n      DUP1 \t\t\ttes[index];\\n \n      PUSH [tag] 127\t\t\t    return (\n      PUSH [tag] 128\t\t\t    return\n      JUMP \t\t\t    return (\n    tag 127\t\t\t    return (\n      JUMPDEST \t\t\t    return (\n      SWAP1 \t\t\ttes[index];\\n        return (\n      POP \t\t\ttes[index];\\n        return (\n      PUSH [tag] 129\t\t\tlink, c.timestamp, c.descripti...\n      DUP2 \t\t\timest\n      DUP6 \t\t\tp, c.de\n      DUP6 \t\t\tripti\n      PUSH [tag] 130\t\t\tlink, c.\n      JUMP \t\t\tlink, c.timestamp, c.descripti...\n    tag 129\t\t\tlink, c.timestamp, c.descripti...\n      JUMPDEST \t\t\tlink, c.timestamp, c.descripti...\n      PUSH 1\t\t\t\n      SWAP2 \t\t\t}\\n\n      POP \t\t\t}\\n\n      POP \t\t\t}\\n\n      SWAP3 \t\t\t       string memory descripti...\n      SWAP2 \t\t\t       string memory descripti...\n      POP \t\t\t       string memory descripti...\n      POP \t\t\t       string memory descripti...\n      JUMP \t\t\t       string memory descripti...\n    tag 43\t\t\tstring public imageURI\n      JUMPDEST \t\t\tstring public imageURI\n      PUSH 6\t\t\tstring public imageURI\n      DUP1 \t\t\tstring public imageURI\n      SLOAD \t\t\tstring public imageURI\n      PUSH [tag] 131\t\t\tstring public imageURI\n      SWAP1 \t\t\tstring public imageURI\n      PUSH [tag] 121\t\t\tstring public imageURI\n      JUMP \t\t\tstring public imageURI\n    tag 131\t\t\tstring public imageURI\n      JUMPDEST \t\t\tstring public imageURI\n      DUP1 \t\t\tstring public imageURI\n      PUSH 1F\t\t\tstring public imageURI\n      ADD \t\t\tstring public imageURI\n      PUSH 20\t\t\tstring public imageURI\n      DUP1 \t\t\tstring public imageURI\n      SWAP2 \t\t\tstring public imageURI\n      DIV \t\t\tstring public imageURI\n      MUL \t\t\tstring public imageURI\n      PUSH 20\t\t\tstring public imageURI\n      ADD \t\t\tstring public imageURI\n      PUSH 40\t\t\tstring public imageURI\n      MLOAD \t\t\tstring public imageURI\n      SWAP1 \t\t\tstring public imageURI\n      DUP2 \t\t\tstring public imageURI\n      ADD \t\t\tstring public imageURI\n      PUSH 40\t\t\tstring public imageURI\n      MSTORE \t\t\tstring public imageURI\n      DUP1 \t\t\tstring public imageURI\n      SWAP3 \t\t\tstring public imageURI\n      SWAP2 \t\t\tstring public imageURI\n      SWAP1 \t\t\tstring public imageURI\n      DUP2 \t\t\tstring public imageURI\n      DUP2 \t\t\tstring public imageURI\n      MSTORE \t\t\tstring public imageURI\n      PUSH 20\t\t\tstring public imageURI\n      ADD \t\t\tstring public imageURI\n      DUP3 \t\t\tstring public imageURI\n      DUP1 \t\t\tstring public imageURI\n      SLOAD \t\t\tstring public imageURI\n      PUSH [tag] 132\t\t\tstring public imageURI\n      SWAP1 \t\t\tstring public imageURI\n      PUSH [tag] 121\t\t\tstring public imageURI\n      JUMP \t\t\tstring public imageURI\n    tag 132\t\t\tstring public imageURI\n      JUMPDEST \t\t\tstring public imageURI\n      DUP1 \t\t\tstring public imageURI\n      ISZERO \t\t\tstring public imageURI\n      PUSH [tag] 133\t\t\tstring public imageURI\n      JUMPI \t\t\tstring public imageURI\n      DUP1 \t\t\tstring public imageURI\n      PUSH 1F\t\t\tstring public imageURI\n      LT \t\t\tstring public imageURI\n      PUSH [tag] 134\t\t\tstring public imageURI\n      JUMPI \t\t\tstring public imageURI\n      PUSH 100\t\t\tstring public imageURI\n      DUP1 \t\t\tstring public imageURI\n      DUP4 \t\t\tstring public imageURI\n      SLOAD \t\t\tstring public imageURI\n      DIV \t\t\tstring public imageURI\n      MUL \t\t\tstring public imageURI\n      DUP4 \t\t\tstring public imageURI\n      MSTORE \t\t\tstring public imageURI\n      SWAP2 \t\t\tstring public imageURI\n      PUSH 20\t\t\tstring public imageURI\n      ADD \t\t\tstring public imageURI\n      SWAP2 \t\t\tstring public imageURI\n      PUSH [tag] 133\t\t\tstring public imageURI\n      JUMP \t\t\tstring public imageURI\n    tag 134\t\t\tstring public imageURI\n      JUMPDEST \t\t\tstring public imageURI\n      DUP3 \t\t\tstring public imageURI\n      ADD \t\t\tstring public imageURI\n      SWAP2 \t\t\tstring public imageURI\n      SWAP1 \t\t\tstring public imageURI\n      PUSH 0\t\t\tstring public imageURI\n      MSTORE \t\t\tstring public imageURI\n      PUSH 20\t\t\tstring public imageURI\n      PUSH 0\t\t\tstring public imageURI\n      KECCAK256 \t\t\tstring public imageURI\n      SWAP1 \t\t\tstring public imageURI\n    tag 135\t\t\tstring public imageURI\n      JUMPDEST \t\t\tstring public imageURI\n      DUP2 \t\t\tstring public imageURI\n      SLOAD \t\t\tstring public imageURI\n      DUP2 \t\t\tstring public imageURI\n      MSTORE \t\t\tstring public imageURI\n      SWAP1 \t\t\tstring public imageURI\n      PUSH 1\t\t\tstring public imageURI\n      ADD \t\t\tstring public imageURI\n      SWAP1 \t\t\tstring public imageURI\n      PUSH 20\t\t\tstring public imageURI\n      ADD \t\t\tstring public imageURI\n      DUP1 \t\t\tstring public imageURI\n      DUP4 \t\t\tstring public imageURI\n      GT \t\t\tstring public imageURI\n      PUSH [tag] 135\t\t\tstring public imageURI\n      JUMPI \t\t\tstring public imageURI\n      DUP3 \t\t\tstring public imageURI\n      SWAP1 \t\t\tstring public imageURI\n      SUB \t\t\tstring public imageURI\n      PUSH 1F\t\t\tstring public imageURI\n      AND \t\t\tstring public imageURI\n      DUP3 \t\t\tstring public imageURI\n      ADD \t\t\tstring public imageURI\n      SWAP2 \t\t\tstring public imageURI\n    tag 133\t\t\tstring public imageURI\n      JUMPDEST \t\t\tstring public imageURI\n      POP \t\t\tstring public imageURI\n      POP \t\t\tstring public imageURI\n      POP \t\t\tstring public imageURI\n      POP \t\t\tstring public imageURI\n      POP \t\t\tstring public imageURI\n      DUP2 \t\t\tstring public imageURI\n      JUMP \t\t\tstring public imageURI\n    tag 46\t\t\t==========\\n\\n    function set...\n      JUMPDEST \t\t\t==========\\n\\n    function set...\n      PUSH 0\t\t\tallet) \n      PUSH 2\t\t\t{\\n        re\n      SLOAD \t\t\t{\\n        re\n      SWAP1 \t\t\tyOwner {\\n        re\n      POP \t\t\tyOwner {\\n        re\n      SWAP1 \t\t\t==========\\n\\n    function set...\n      JUMP \t\t\t==========\\n\\n    function set...\n    tag 50\t\t\tstring public projectInfo =\\n ...\n      JUMPDEST \t\t\tstring public projectInfo =\\n ...\n      PUSH 7\t\t\tstring public projectInfo =\\n ...\n      DUP1 \t\t\tstring public projectInfo =\\n ...\n      SLOAD \t\t\tstring public projectInfo =\\n ...\n      PUSH [tag] 137\t\t\tstring public projectInfo =\\n ...\n      SWAP1 \t\t\tstring public projectInfo =\\n ...\n      PUSH [tag] 121\t\t\tstring public projectInfo =\\n ...\n      JUMP \t\t\tstring public projectInfo =\\n ...\n    tag 137\t\t\tstring public projectInfo =\\n ...\n      JUMPDEST \t\t\tstring public projectInfo =\\n ...\n      DUP1 \t\t\tstring public projectInfo =\\n ...\n      PUSH 1F\t\t\tstring public projectInfo =\\n ...\n      ADD \t\t\tstring public projectInfo =\\n ...\n      PUSH 20\t\t\tstring public projectInfo =\\n ...\n      DUP1 \t\t\tstring public projectInfo =\\n ...\n      SWAP2 \t\t\tstring public projectInfo =\\n ...\n      DIV \t\t\tstring public projectInfo =\\n ...\n      MUL \t\t\tstring public projectInfo =\\n ...\n      PUSH 20\t\t\tstring public projectInfo =\\n ...\n      ADD \t\t\tstring public projectInfo =\\n ...\n      PUSH 40\t\t\tstring public projectInfo =\\n ...\n      MLOAD \t\t\tstring public projectInfo =\\n ...\n      SWAP1 \t\t\tstring public projectInfo =\\n ...\n      DUP2 \t\t\tstring public projectInfo =\\n ...\n      ADD \t\t\tstring public projectInfo =\\n ...\n      PUSH 40\t\t\tstring public projectInfo =\\n ...\n      MSTORE \t\t\tstring public projectInfo =\\n ...\n      DUP1 \t\t\tstring public projectInfo =\\n ...\n      SWAP3 \t\t\tstring public projectInfo =\\n ...\n      SWAP2 \t\t\tstring public projectInfo =\\n ...\n      SWAP1 \t\t\tstring public projectInfo =\\n ...\n      DUP2 \t\t\tstring public projectInfo =\\n ...\n      DUP2 \t\t\tstring public projectInfo =\\n ...\n      MSTORE \t\t\tstring public projectInfo =\\n ...\n      PUSH 20\t\t\tstring public projectInfo =\\n ...\n      ADD \t\t\tstring public projectInfo =\\n ...\n      DUP3 \t\t\tstring public projectInfo =\\n ...\n      DUP1 \t\t\tstring public projectInfo =\\n ...\n      SLOAD \t\t\tstring public projectInfo =\\n ...\n      PUSH [tag] 138\t\t\tstring public projectInfo =\\n ...\n      SWAP1 \t\t\tstring public projectInfo =\\n ...\n      PUSH [tag] 121\t\t\tstring public projectInfo =\\n ...\n      JUMP \t\t\tstring public projectInfo =\\n ...\n    tag 138\t\t\tstring public projectInfo =\\n ...\n      JUMPDEST \t\t\tstring public projectInfo =\\n ...\n      DUP1 \t\t\tstring public projectInfo =\\n ...\n      ISZERO \t\t\tstring public projectInfo =\\n ...\n      PUSH [tag] 139\t\t\tstring public projectInfo =\\n ...\n      JUMPI \t\t\tstring public projectInfo =\\n ...\n      DUP1 \t\t\tstring public projectInfo =\\n ...\n      PUSH 1F\t\t\tstring public projectInfo =\\n ...\n      LT \t\t\tstring public projectInfo =\\n ...\n      PUSH [tag] 140\t\t\tstring public projectInfo =\\n ...\n      JUMPI \t\t\tstring public projectInfo =\\n ...\n      PUSH 100\t\t\tstring public projectInfo =\\n ...\n      DUP1 \t\t\tstring public projectInfo =\\n ...\n      DUP4 \t\t\tstring public projectInfo =\\n ...\n      SLOAD \t\t\tstring public projectInfo =\\n ...\n      DIV \t\t\tstring public projectInfo =\\n ...\n      MUL \t\t\tstring public projectInfo =\\n ...\n      DUP4 \t\t\tstring public projectInfo =\\n ...\n      MSTORE \t\t\tstring public projectInfo =\\n ...\n      SWAP2 \t\t\tstring public projectInfo =\\n ...\n      PUSH 20\t\t\tstring public projectInfo =\\n ...\n      ADD \t\t\tstring public projectInfo =\\n ...\n      SWAP2 \t\t\tstring public projectInfo =\\n ...\n      PUSH [tag] 139\t\t\tstring public projectInfo =\\n ...\n      JUMP \t\t\tstring public projectInfo =\\n ...\n    tag 140\t\t\tstring public projectInfo =\\n ...\n      JUMPDEST \t\t\tstring public projectInfo =\\n ...\n      DUP3 \t\t\tstring public projectInfo =\\n ...\n      ADD \t\t\tstring public projectInfo =\\n ...\n      SWAP2 \t\t\tstring public projectInfo =\\n ...\n      SWAP1 \t\t\tstring public projectInfo =\\n ...\n      PUSH 0\t\t\tstring public projectInfo =\\n ...\n      MSTORE \t\t\tstring public projectInfo =\\n ...\n      PUSH 20\t\t\tstring public projectInfo =\\n ...\n      PUSH 0\t\t\tstring public projectInfo =\\n ...\n      KECCAK256 \t\t\tstring public projectInfo =\\n ...\n      SWAP1 \t\t\tstring public projectInfo =\\n ...\n    tag 141\t\t\tstring public projectInfo =\\n ...\n      JUMPDEST \t\t\tstring public projectInfo =\\n ...\n      DUP2 \t\t\tstring public projectInfo =\\n ...\n      SLOAD \t\t\tstring public projectInfo =\\n ...\n      DUP2 \t\t\tstring public projectInfo =\\n ...\n      MSTORE \t\t\tstring public projectInfo =\\n ...\n      SWAP1 \t\t\tstring public projectInfo =\\n ...\n      PUSH 1\t\t\tstring public projectInfo =\\n ...\n      ADD \t\t\tstring public projectInfo =\\n ...\n      SWAP1 \t\t\tstring public projectInfo =\\n ...\n      PUSH 20\t\t\tstring public projectInfo =\\n ...\n      ADD \t\t\tstring public projectInfo =\\n ...\n      DUP1 \t\t\tstring public projectInfo =\\n ...\n      DUP4 \t\t\tstring public projectInfo =\\n ...\n      GT \t\t\tstring public projectInfo =\\n ...\n      PUSH [tag] 141\t\t\tstring public projectInfo =\\n ...\n      JUMPI \t\t\tstring public projectInfo =\\n ...\n      DUP3 \t\t\tstring public projectInfo =\\n ...\n      SWAP1 \t\t\tstring public projectInfo =\\n ...\n      SUB \t\t\tstring public projectInfo =\\n ...\n      PUSH 1F\t\t\tstring public projectInfo =\\n ...\n      AND \t\t\tstring public projectInfo =\\n ...\n      DUP3 \t\t\tstring public projectInfo =\\n ...\n      ADD \t\t\tstring public projectInfo =\\n ...\n      SWAP2 \t\t\tstring public projectInfo =\\n ...\n    tag 139\t\t\tstring public projectInfo =\\n ...\n      JUMPDEST \t\t\tstring public projectInfo =\\n ...\n      POP \t\t\tstring public projectInfo =\\n ...\n      POP \t\t\tstring public projectInfo =\\n ...\n      POP \t\t\tstring public projectInfo =\\n ...\n      POP \t\t\tstring public projectInfo =\\n ...\n      POP \t\t\tstring public projectInfo =\\n ...\n      DUP2 \t\t\tstring public projectInfo =\\n ...\n      JUMP \t\t\tstring public projectInfo =\\n ...\n    tag 55\t\t\t\n      JUMPDEST \t\t\t\n      PUSH 0\t\t\t\n      DUP1 \t\t\t\n      PUSH [tag] 143\t\t\t\n      PUSH [tag] 128\t\t\t\n      JUMP \t\t\t\n    tag 143\t\t\t\n      JUMPDEST \t\t\t\n      SWAP1 \t\t\t\n      POP \t\t\t\n      PUSH [tag] 144\t\t\t\n      DUP6 \t\t\t\n      DUP3 \t\t\t\n      DUP6 \t\t\t\n      PUSH [tag] 145\t\t\t\n      JUMP \t\t\t\n    tag 144\t\t\t\n      JUMPDEST \t\t\t\n      PUSH [tag] 146\t\t\t\n      DUP6 \t\t\t\n      DUP6 \t\t\t\n      DUP6 \t\t\t\n      PUSH [tag] 147\t\t\t\n      JUMP \t\t\t\n    tag 146\t\t\t\n      JUMPDEST \t\t\t\n      PUSH 1\t\t\t\n      SWAP2 \t\t\t\n      POP \t\t\t\n      POP \t\t\t\n      SWAP4 \t\t\t\n      SWAP3 \t\t\t\n      POP \t\t\t\n      POP \t\t\t\n      POP \t\t\t\n      JUMP \t\t\t\n    tag 58\t\t\toject whitepaper\"\\n        ));...\n      JUMPDEST \t\t\toject whitepaper\"\\n        ));...\n      PUSH 0\t\t\t=====\n      PUSH 12\t\t\t /\n      SWAP1 \t\t\t===\\n    /\n      POP \t\t\t===\\n    /\n      SWAP1 \t\t\toject whitepaper\"\\n        ));...\n      JUMP \t\t\toject whitepaper\"\\n        ));...\n    tag 62\t\t\tuint256 public constant MAX_SU...\n      JUMPDEST \t\t\tuint256 public constant MAX_SU...\n      PUSH 409F9CBC7C4A04C220000000\t\t\t20000000000 * 10**18\n      DUP2 \t\t\tuint256 public constant MAX_SU...\n      JUMP \t\t\tuint256 public constant MAX_SU...\n    tag 67\t\t\tfunction getCertificate(uint25...\n      JUMPDEST \t\t\tfunction getCertificate(uint25...\n      PUSH 60\t\t\tstring memory name\n      DUP1 \t\t\tstring memory link\n      PUSH 0\t\t\tuint256 timestamp\n      PUSH 60\t\t\tstring memory description\n      PUSH 0\t\t\tCertificate memory c\n      PUSH 9\t\t\tcertificates\n      DUP7 \t\t\tindex\n      DUP2 \t\t\tcertificates[index]\n      SLOAD \t\t\tcertificates[index]\n      DUP2 \t\t\tcertificates[index]\n      LT \t\t\tcertificates[index]\n      PUSH [tag] 150\t\t\tcertificates[index]\n      JUMPI \t\t\tcertificates[index]\n      PUSH [tag] 151\t\t\tcertificates[index]\n      PUSH [tag] 152\t\t\tcertificates[index]\n      JUMP \t\t\tcertificates[index]\n    tag 151\t\t\tcertificates[index]\n      JUMPDEST \t\t\tcertificates[index]\n    tag 150\t\t\tcertificates[index]\n      JUMPDEST \t\t\tcertificates[index]\n      SWAP1 \t\t\tcertificates[index]\n      PUSH 0\t\t\tcertificates[index]\n      MSTORE \t\t\tcertificates[index]\n      PUSH 20\t\t\tcertificates[index]\n      PUSH 0\t\t\tcertificates[index]\n      KECCAK256 \t\t\tcertificates[index]\n      SWAP1 \t\t\tcertificates[index]\n      PUSH 4\t\t\tcertificates[index]\n      MUL \t\t\tcertificates[index]\n      ADD \t\t\tcertificates[index]\n      PUSH 40\t\t\tCertificate memory c = certifi...\n      MLOAD \t\t\tCertificate memory c = certifi...\n      DUP1 \t\t\tCertificate memory c = certifi...\n      PUSH 80\t\t\tCertificate memory c = certifi...\n      ADD \t\t\tCertificate memory c = certifi...\n      PUSH 40\t\t\tCertificate memory c = certifi...\n      MSTORE \t\t\tCertificate memory c = certifi...\n      SWAP1 \t\t\tCertificate memory c = certifi...\n      DUP2 \t\t\tCertificate memory c = certifi...\n      PUSH 0\t\t\tCertificate memory c = certifi...\n      DUP3 \t\t\tCertificate memory c = certifi...\n      ADD \t\t\tCertificate memory c = certifi...\n      DUP1 \t\t\tCertificate memory c = certifi...\n      SLOAD \t\t\tCertificate memory c = certifi...\n      PUSH [tag] 154\t\t\tCertificate memory c = certifi...\n      SWAP1 \t\t\tCertificate memory c = certifi...\n      PUSH [tag] 121\t\t\tCertificate memory c = certifi...\n      JUMP \t\t\tCertificate memory c = certifi...\n    tag 154\t\t\tCertificate memory c = certifi...\n      JUMPDEST \t\t\tCertificate memory c = certifi...\n      DUP1 \t\t\tCertificate memory c = certifi...\n      PUSH 1F\t\t\tCertificate memory c = certifi...\n      ADD \t\t\tCertificate memory c = certifi...\n      PUSH 20\t\t\tCertificate memory c = certifi...\n      DUP1 \t\t\tCertificate memory c = certifi...\n      SWAP2 \t\t\tCertificate memory c = certifi...\n      DIV \t\t\tCertificate memory c = certifi...\n      MUL \t\t\tCertificate memory c = certifi...\n      PUSH 20\t\t\tCertificate memory c = certifi...\n      ADD \t\t\tCertificate memory c = certifi...\n      PUSH 40\t\t\tCertificate memory c = certifi...\n      MLOAD \t\t\tCertificate memory c = certifi...\n      SWAP1 \t\t\tCertificate memory c = certifi...\n      DUP2 \t\t\tCertificate memory c = certifi...\n      ADD \t\t\tCertificate memory c = certifi...\n      PUSH 40\t\t\tCertificate memory c = certifi...\n      MSTORE \t\t\tCertificate memory c = certifi...\n      DUP1 \t\t\tCertificate memory c = certifi...\n      SWAP3 \t\t\tCertificate memory c = certifi...\n      SWAP2 \t\t\tCertificate memory c = certifi...\n      SWAP1 \t\t\tCertificate memory c = certifi...\n      DUP2 \t\t\tCertificate memory c = certifi...\n      DUP2 \t\t\tCertificate memory c = certifi...\n      MSTORE \t\t\tCertificate memory c = certifi...\n      PUSH 20\t\t\tCertificate memory c = certifi...\n      ADD \t\t\tCertificate memory c = certifi...\n      DUP3 \t\t\tCertificate memory c = certifi...\n      DUP1 \t\t\tCertificate memory c = certifi...\n      SLOAD \t\t\tCertificate memory c = certifi...\n      PUSH [tag] 155\t\t\tCertificate memory c = certifi...\n      SWAP1 \t\t\tCertificate memory c = certifi...\n      PUSH [tag] 121\t\t\tCertificate memory c = certifi...\n      JUMP \t\t\tCertificate memory c = certifi...\n    tag 155\t\t\tCertificate memory c = certifi...\n      JUMPDEST \t\t\tCertificate memory c = certifi...\n      DUP1 \t\t\tCertificate memory c = certifi...\n      ISZERO \t\t\tCertificate memory c = certifi...\n      PUSH [tag] 156\t\t\tCertificate memory c = certifi...\n      JUMPI \t\t\tCertificate memory c = certifi...\n      DUP1 \t\t\tCertificate memory c = certifi...\n      PUSH 1F\t\t\tCertificate memory c = certifi...\n      LT \t\t\tCertificate memory c = certifi...\n      PUSH [tag] 157\t\t\tCertificate memory c = certifi...\n      JUMPI \t\t\tCertificate memory c = certifi...\n      PUSH 100\t\t\tCertificate memory c = certifi...\n      DUP1 \t\t\tCertificate memory c = certifi...\n      DUP4 \t\t\tCertificate memory c = certifi...\n      SLOAD \t\t\tCertificate memory c = certifi...\n      DIV \t\t\tCertificate memory c = certifi...\n      MUL \t\t\tCertificate memory c = certifi...\n      DUP4 \t\t\tCertificate memory c = certifi...\n      MSTORE \t\t\tCertificate memory c = certifi...\n      SWAP2 \t\t\tCertificate memory c = certifi...\n      PUSH 20\t\t\tCertificate memory c = certifi...\n      ADD \t\t\tCertificate memory c = certifi...\n      SWAP2 \t\t\tCertificate memory c = certifi...\n      PUSH [tag] 156\t\t\tCertificate memory c = certifi...\n      JUMP \t\t\tCertificate memory c = certifi...\n    tag 157\t\t\tCertificate memory c = certifi...\n      JUMPDEST \t\t\tCertificate memory c = certifi...\n      DUP3 \t\t\tCertificate memory c = certifi...\n      ADD \t\t\tCertificate memory c = certifi...\n      SWAP2 \t\t\tCertificate memory c = certifi...\n      SWAP1 \t\t\tCertificate memory c = certifi...\n      PUSH 0\t\t\tCertificate memory c = certifi...\n      MSTORE \t\t\tCertificate memory c = certifi...\n      PUSH 20\t\t\tCertificate memory c = certifi...\n      PUSH 0\t\t\tCertificate memory c = certifi...\n      KECCAK256 \t\t\tCertificate memory c = certifi...\n      SWAP1 \t\t\tCertificate memory c = certifi...\n    tag 158\t\t\tCertificate memory c = certifi...\n      JUMPDEST \t\t\tCertificate memory c = certifi...\n      DUP2 \t\t\tCertificate memory c = certifi...\n      SLOAD \t\t\tCertificate memory c = certifi...\n      DUP2 \t\t\tCertificate memory c = certifi...\n      MSTORE \t\t\tCertificate memory c = certifi...\n      SWAP1 \t\t\tCertificate memory c = certifi...\n      PUSH 1\t\t\tCertificate memory c = certifi...\n      ADD \t\t\tCertificate memory c = certifi...\n      SWAP1 \t\t\tCertificate memory c = certifi...\n      PUSH 20\t\t\tCertificate memory c = certifi...\n      ADD \t\t\tCertificate memory c = certifi...\n      DUP1 \t\t\tCertificate memory c = certifi...\n      DUP4 \t\t\tCertificate memory c = certifi...\n      GT \t\t\tCertificate memory c = certifi...\n      PUSH [tag] 158\t\t\tCertificate memory c = certifi...\n      JUMPI \t\t\tCertificate memory c = certifi...\n      DUP3 \t\t\tCertificate memory c = certifi...\n      SWAP1 \t\t\tCertificate memory c = certifi...\n      SUB \t\t\tCertificate memory c = certifi...\n      PUSH 1F\t\t\tCertificate memory c = certifi...\n      AND \t\t\tCertificate memory c = certifi...\n      DUP3 \t\t\tCertificate memory c = certifi...\n      ADD \t\t\tCertificate memory c = certifi...\n      SWAP2 \t\t\tCertificate memory c = certifi...\n    tag 156\t\t\tCertificate memory c = certifi...\n      JUMPDEST \t\t\tCertificate memory c = certifi...\n      POP \t\t\tCertificate memory c = certifi...\n      POP \t\t\tCertificate memory c = certifi...\n      POP \t\t\tCertificate memory c = certifi...\n      POP \t\t\tCertificate memory c = certifi...\n      POP \t\t\tCertificate memory c = certifi...\n      DUP2 \t\t\tCertificate memory c = certifi...\n      MSTORE \t\t\tCertificate memory c = certifi...\n      PUSH 20\t\t\tCertificate memory c = certifi...\n      ADD \t\t\tCertificate memory c = certifi...\n      PUSH 1\t\t\tCertificate memory c = certifi...\n      DUP3 \t\t\tCertificate memory c = certifi...\n      ADD \t\t\tCertificate memory c = certifi...\n      DUP1 \t\t\tCertificate memory c = certifi...\n      SLOAD \t\t\tCertificate memory c = certifi...\n      PUSH [tag] 159\t\t\tCertificate memory c = certifi...\n      SWAP1 \t\t\tCertificate memory c = certifi...\n      PUSH [tag] 121\t\t\tCertificate memory c = certifi...\n      JUMP \t\t\tCertificate memory c = certifi...\n    tag 159\t\t\tCertificate memory c = certifi...\n      JUMPDEST \t\t\tCertificate memory c = certifi...\n      DUP1 \t\t\tCertificate memory c = certifi...\n      PUSH 1F\t\t\tCertificate memory c = certifi...\n      ADD \t\t\tCertificate memory c = certifi...\n      PUSH 20\t\t\tCertificate memory c = certifi...\n      DUP1 \t\t\tCertificate memory c = certifi...\n      SWAP2 \t\t\tCertificate memory c = certifi...\n      DIV \t\t\tCertificate memory c = certifi...\n      MUL \t\t\tCertificate memory c = certifi...\n      PUSH 20\t\t\tCertificate memory c = certifi...\n      ADD \t\t\tCertificate memory c = certifi...\n      PUSH 40\t\t\tCertificate memory c = certifi...\n      MLOAD \t\t\tCertificate memory c = certifi...\n      SWAP1 \t\t\tCertificate memory c = certifi...\n      DUP2 \t\t\tCertificate memory c = certifi...\n      ADD \t\t\tCertificate memory c = certifi...\n      PUSH 40\t\t\tCertificate memory c = certifi...\n      MSTORE \t\t\tCertificate memory c = certifi...\n      DUP1 \t\t\tCertificate memory c = certifi...\n      SWAP3 \t\t\tCertificate memory c = certifi...\n      SWAP2 \t\t\tCertificate memory c = certifi...\n      SWAP1 \t\t\tCertificate memory c = certifi...\n      DUP2 \t\t\tCertificate memory c = certifi...\n      DUP2 \t\t\tCertificate memory c = certifi...\n      MSTORE \t\t\tCertificate memory c = certifi...\n      PUSH 20\t\t\tCertificate memory c = certifi...\n      ADD \t\t\tCertificate memory c = certifi...\n      DUP3 \t\t\tCertificate memory c = certifi...\n      DUP1 \t\t\tCertificate memory c = certifi...\n      SLOAD \t\t\tCertificate memory c = certifi...\n      PUSH [tag] 160\t\t\tCertificate memory c = certifi...\n      SWAP1 \t\t\tCertificate memory c = certifi...\n      PUSH [tag] 121\t\t\tCertificate memory c = certifi...\n      JUMP \t\t\tCertificate memory c = certifi...\n    tag 160\t\t\tCertificate memory c = certifi...\n      JUMPDEST \t\t\tCertificate memory c = certifi...\n      DUP1 \t\t\tCertificate memory c = certifi...\n      ISZERO \t\t\tCertificate memory c = certifi...\n      PUSH [tag] 161\t\t\tCertificate memory c = certifi...\n      JUMPI \t\t\tCertificate memory c = certifi...\n      DUP1 \t\t\tCertificate memory c = certifi...\n      PUSH 1F\t\t\tCertificate memory c = certifi...\n      LT \t\t\tCertificate memory c = certifi...\n      PUSH [tag] 162\t\t\tCertificate memory c = certifi...\n      JUMPI \t\t\tCertificate memory c = certifi...\n      PUSH 100\t\t\tCertificate memory c = certifi...\n      DUP1 \t\t\tCertificate memory c = certifi...\n      DUP4 \t\t\tCertificate memory c = certifi...\n      SLOAD \t\t\tCertificate memory c = certifi...\n      DIV \t\t\tCertificate memory c = certifi...\n      MUL \t\t\tCertificate memory c = certifi...\n      DUP4 \t\t\tCertificate memory c = certifi...\n      MSTORE \t\t\tCertificate memory c = certifi...\n      SWAP2 \t\t\tCertificate memory c = certifi...\n      PUSH 20\t\t\tCertificate memory c = certifi...\n      ADD \t\t\tCertificate memory c = certifi...\n      SWAP2 \t\t\tCertificate memory c = certifi...\n      PUSH [tag] 161\t\t\tCertificate memory c = certifi...\n      JUMP \t\t\tCertificate memory c = certifi...\n    tag 162\t\t\tCertificate memory c = certifi...\n      JUMPDEST \t\t\tCertificate memory c = certifi...\n      DUP3 \t\t\tCertificate memory c = certifi...\n      ADD \t\t\tCertificate memory c = certifi...\n      SWAP2 \t\t\tCertificate memory c = certifi...\n      SWAP1 \t\t\tCertificate memory c = certifi...\n      PUSH 0\t\t\tCertificate memory c = certifi...\n      MSTORE \t\t\tCertificate memory c = certifi...\n      PUSH 20\t\t\tCertificate memory c = certifi...\n      PUSH 0\t\t\tCertificate memory c = certifi...\n      KECCAK256 \t\t\tCertificate memory c = certifi...\n      SWAP1 \t\t\tCertificate memory c = certifi...\n    tag 163\t\t\tCertificate memory c = certifi...\n      JUMPDEST \t\t\tCertificate memory c = certifi...\n      DUP2 \t\t\tCertificate memory c = certifi...\n      SLOAD \t\t\tCertificate memory c = certifi...\n      DUP2 \t\t\tCertificate memory c = certifi...\n      MSTORE \t\t\tCertificate memory c = certifi...\n      SWAP1 \t\t\tCertificate memory c = certifi...\n      PUSH 1\t\t\tCertificate memory c = certifi...\n      ADD \t\t\tCertificate memory c = certifi...\n      SWAP1 \t\t\tCertificate memory c = certifi...\n      PUSH 20\t\t\tCertificate memory c = certifi...\n      ADD \t\t\tCertificate memory c = certifi...\n      DUP1 \t\t\tCertificate memory c = certifi...\n      DUP4 \t\t\tCertificate memory c = certifi...\n      GT \t\t\tCertificate memory c = certifi...\n      PUSH [tag] 163\t\t\tCertificate memory c = certifi...\n      JUMPI \t\t\tCertificate memory c = certifi...\n      DUP3 \t\t\tCertificate memory c = certifi...\n      SWAP1 \t\t\tCertificate memory c = certifi...\n      SUB \t\t\tCertificate memory c = certifi...\n      PUSH 1F\t\t\tCertificate memory c = certifi...\n      AND \t\t\tCertificate memory c = certifi...\n      DUP3 \t\t\tCertificate memory c = certifi...\n      ADD \t\t\tCertificate memory c = certifi...\n      SWAP2 \t\t\tCertificate memory c = certifi...\n    tag 161\t\t\tCertificate memory c = certifi...\n      JUMPDEST \t\t\tCertificate memory c = certifi...\n      POP \t\t\tCertificate memory c = certifi...\n      POP \t\t\tCertificate memory c = certifi...\n      POP \t\t\tCertificate memory c = certifi...\n      POP \t\t\tCertificate memory c = certifi...\n      POP \t\t\tCertificate memory c = certifi...\n      DUP2 \t\t\tCertificate memory c = certifi...\n      MSTORE \t\t\tCertificate memory c = certifi...\n      PUSH 20\t\t\tCertificate memory c = certifi...\n      ADD \t\t\tCertificate memory c = certifi...\n      PUSH 2\t\t\tCertificate memory c = certifi...\n      DUP3 \t\t\tCertificate memory c = certifi...\n      ADD \t\t\tCertificate memory c = certifi...\n      SLOAD \t\t\tCertificate memory c = certifi...\n      DUP2 \t\t\tCertificate memory c = certifi...\n      MSTORE \t\t\tCertificate memory c = certifi...\n      PUSH 20\t\t\tCertificate memory c = certifi...\n      ADD \t\t\tCertificate memory c = certifi...\n      PUSH 3\t\t\tCertificate memory c = certifi...\n      DUP3 \t\t\tCertificate memory c = certifi...\n      ADD \t\t\tCertificate memory c = certifi...\n      DUP1 \t\t\tCertificate memory c = certifi...\n      SLOAD \t\t\tCertificate memory c = certifi...\n      PUSH [tag] 164\t\t\tCertificate memory c = certifi...\n      SWAP1 \t\t\tCertificate memory c = certifi...\n      PUSH [tag] 121\t\t\tCertificate memory c = certifi...\n      JUMP \t\t\tCertificate memory c = certifi...\n    tag 164\t\t\tCertificate memory c = certifi...\n      JUMPDEST \t\t\tCertificate memory c = certifi...\n      DUP1 \t\t\tCertificate memory c = certifi...\n      PUSH 1F\t\t\tCertificate memory c = certifi...\n      ADD \t\t\tCertificate memory c = certifi...\n      PUSH 20\t\t\tCertificate memory c = certifi...\n      DUP1 \t\t\tCertificate memory c = certifi...\n      SWAP2 \t\t\tCertificate memory c = certifi...\n      DIV \t\t\tCertificate memory c = certifi...\n      MUL \t\t\tCertificate memory c = certifi...\n      PUSH 20\t\t\tCertificate memory c = certifi...\n      ADD \t\t\tCertificate memory c = certifi...\n      PUSH 40\t\t\tCertificate memory c = certifi...\n      MLOAD \t\t\tCertificate memory c = certifi...\n      SWAP1 \t\t\tCertificate memory c = certifi...\n      DUP2 \t\t\tCertificate memory c = certifi...\n      ADD \t\t\tCertificate memory c = certifi...\n      PUSH 40\t\t\tCertificate memory c = certifi...\n      MSTORE \t\t\tCertificate memory c = certifi...\n      DUP1 \t\t\tCertificate memory c = certifi...\n      SWAP3 \t\t\tCertificate memory c = certifi...\n      SWAP2 \t\t\tCertificate memory c = certifi...\n      SWAP1 \t\t\tCertificate memory c = certifi...\n      DUP2 \t\t\tCertificate memory c = certifi...\n      DUP2 \t\t\tCertificate memory c = certifi...\n      MSTORE \t\t\tCertificate memory c = certifi...\n      PUSH 20\t\t\tCertificate memory c = certifi...\n      ADD \t\t\tCertificate memory c = certifi...\n      DUP3 \t\t\tCertificate memory c = certifi...\n      DUP1 \t\t\tCertificate memory c = certifi...\n      SLOAD \t\t\tCertificate memory c = certifi...\n      PUSH [tag] 165\t\t\tCertificate memory c = certifi...\n      SWAP1 \t\t\tCertificate memory c = certifi...\n      PUSH [tag] 121\t\t\tCertificate memory c = certifi...\n      JUMP \t\t\tCertificate memory c = certifi...\n    tag 165\t\t\tCertificate memory c = certifi...\n      JUMPDEST \t\t\tCertificate memory c = certifi...\n      DUP1 \t\t\tCertificate memory c = certifi...\n      ISZERO \t\t\tCertificate memory c = certifi...\n      PUSH [tag] 166\t\t\tCertificate memory c = certifi...\n      JUMPI \t\t\tCertificate memory c = certifi...\n      DUP1 \t\t\tCertificate memory c = certifi...\n      PUSH 1F\t\t\tCertificate memory c = certifi...\n      LT \t\t\tCertificate memory c = certifi...\n      PUSH [tag] 167\t\t\tCertificate memory c = certifi...\n      JUMPI \t\t\tCertificate memory c = certifi...\n      PUSH 100\t\t\tCertificate memory c = certifi...\n      DUP1 \t\t\tCertificate memory c = certifi...\n      DUP4 \t\t\tCertificate memory c = certifi...\n      SLOAD \t\t\tCertificate memory c = certifi...\n      DIV \t\t\tCertificate memory c = certifi...\n      MUL \t\t\tCertificate memory c = certifi...\n      DUP4 \t\t\tCertificate memory c = certifi...\n      MSTORE \t\t\tCertificate memory c = certifi...\n      SWAP2 \t\t\tCertificate memory c = certifi...\n      PUSH 20\t\t\tCertificate memory c = certifi...\n      ADD \t\t\tCertificate memory c = certifi...\n      SWAP2 \t\t\tCertificate memory c = certifi...\n      PUSH [tag] 166\t\t\tCertificate memory c = certifi...\n      JUMP \t\t\tCertificate memory c = certifi...\n    tag 167\t\t\tCertificate memory c = certifi...\n      JUMPDEST \t\t\tCertificate memory c = certifi...\n      DUP3 \t\t\tCertificate memory c = certifi...\n      ADD \t\t\tCertificate memory c = certifi...\n      SWAP2 \t\t\tCertificate memory c = certifi...\n      SWAP1 \t\t\tCertificate memory c = certifi...\n      PUSH 0\t\t\tCertificate memory c = certifi...\n      MSTORE \t\t\tCertificate memory c = certifi...\n      PUSH 20\t\t\tCertificate memory c = certifi...\n      PUSH 0\t\t\tCertificate memory c = certifi...\n      KECCAK256 \t\t\tCertificate memory c = certifi...\n      SWAP1 \t\t\tCertificate memory c = certifi...\n    tag 168\t\t\tCertificate memory c = certifi...\n      JUMPDEST \t\t\tCertificate memory c = certifi...\n      DUP2 \t\t\tCertificate memory c = certifi...\n      SLOAD \t\t\tCertificate memory c = certifi...\n      DUP2 \t\t\tCertificate memory c = certifi...\n      MSTORE \t\t\tCertificate memory c = certifi...\n      SWAP1 \t\t\tCertificate memory c = certifi...\n      PUSH 1\t\t\tCertificate memory c = certifi...\n      ADD \t\t\tCertificate memory c = certifi...\n      SWAP1 \t\t\tCertificate memory c = certifi...\n      PUSH 20\t\t\tCertificate memory c = certifi...\n      ADD \t\t\tCertificate memory c = certifi...\n      DUP1 \t\t\tCertificate memory c = certifi...\n      DUP4 \t\t\tCertificate memory c = certifi...\n      GT \t\t\tCertificate memory c = certifi...\n      PUSH [tag] 168\t\t\tCertificate memory c = certifi...\n      JUMPI \t\t\tCertificate memory c = certifi...\n      DUP3 \t\t\tCertificate memory c = certifi...\n      SWAP1 \t\t\tCertificate memory c = certifi...\n      SUB \t\t\tCertificate memory c = certifi...\n      PUSH 1F\t\t\tCertificate memory c = certifi...\n      AND \t\t\tCertificate memory c = certifi...\n      DUP3 \t\t\tCertificate memory c = certifi...\n      ADD \t\t\tCertificate memory c = certifi...\n      SWAP2 \t\t\tCertificate memory c = certifi...\n    tag 166\t\t\tCertificate memory c = certifi...\n      JUMPDEST \t\t\tCertificate memory c = certifi...\n      POP \t\t\tCertificate memory c = certifi...\n      POP \t\t\tCertificate memory c = certifi...\n      POP \t\t\tCertificate memory c = certifi...\n      POP \t\t\tCertificate memory c = certifi...\n      POP \t\t\tCertificate memory c = certifi...\n      DUP2 \t\t\tCertificate memory c = certifi...\n      MSTORE \t\t\tCertificate memory c = certifi...\n      POP \t\t\tCertificate memory c = certifi...\n      POP \t\t\tCertificate memory c = certifi...\n      SWAP1 \t\t\tCertificate memory c = certifi...\n      POP \t\t\tCertificate memory c = certifi...\n      DUP1 \t\t\tc\n      PUSH 0\t\t\tc.name\n      ADD \t\t\tc.name\n      MLOAD \t\t\tc.name\n      DUP2 \t\t\tc\n      PUSH 20\t\t\tc.link\n      ADD \t\t\tc.link\n      MLOAD \t\t\tc.link\n      DUP3 \t\t\tc\n      PUSH 40\t\t\tc.timestamp\n      ADD \t\t\tc.timestamp\n      MLOAD \t\t\tc.timestamp\n      DUP4 \t\t\tc\n      PUSH 60\t\t\tc.description\n      ADD \t\t\tc.description\n      MLOAD \t\t\tc.description\n      SWAP5 \t\t\treturn (c.name, c.link, c.time...\n      POP \t\t\treturn (c.name, c.link, c.time...\n      SWAP5 \t\t\treturn (c.name, c.link, c.time...\n      POP \t\t\treturn (c.name, c.link, c.time...\n      SWAP5 \t\t\treturn (c.name, c.link, c.time...\n      POP \t\t\treturn (c.name, c.link, c.time...\n      SWAP5 \t\t\treturn (c.name, c.link, c.time...\n      POP \t\t\treturn (c.name, c.link, c.time...\n      POP \t\t\treturn (c.name, c.link, c.time...\n      SWAP2 \t\t\tfunction getCertificate(uint25...\n      SWAP4 \t\t\tfunction getCertificate(uint25...\n      POP \t\t\tfunction getCertificate(uint25...\n      SWAP2 \t\t\tfunction getCertificate(uint25...\n      SWAP4 \t\t\tfunction getCertificate(uint25...\n      JUMP \t\t\tfunction getCertificate(uint25...\n    tag 72\t\t\tCertificate[] public certifica...\n      JUMPDEST \t\t\tCertificate[] public certifica...\n      PUSH 9\t\t\tCertificate[] public certifica...\n      DUP2 \t\t\tCertificate[] public certifica...\n      DUP2 \t\t\tCertificate[] public certifica...\n      SLOAD \t\t\tCertificate[] public certifica...\n      DUP2 \t\t\tCertificate[] public certifica...\n      LT \t\t\tCertificate[] public certifica...\n      PUSH [tag] 169\t\t\tCertificate[] public certifica...\n      JUMPI \t\t\tCertificate[] public certifica...\n      PUSH 0\t\t\tCertificate[] public certifica...\n      DUP1 \t\t\tCertificate[] public certifica...\n      REVERT \t\t\tCertificate[] public certifica...\n    tag 169\t\t\tCertificate[] public certifica...\n      JUMPDEST \t\t\tCertificate[] public certifica...\n      SWAP1 \t\t\tCertificate[] public certifica...\n      PUSH 0\t\t\tCertificate[] public certifica...\n      MSTORE \t\t\tCertificate[] public certifica...\n      PUSH 20\t\t\tCertificate[] public certifica...\n      PUSH 0\t\t\tCertificate[] public certifica...\n      KECCAK256 \t\t\tCertificate[] public certifica...\n      SWAP1 \t\t\tCertificate[] public certifica...\n      PUSH 4\t\t\tCertificate[] public certifica...\n      MUL \t\t\tCertificate[] public certifica...\n      ADD \t\t\tCertificate[] public certifica...\n      PUSH 0\t\t\tCertificate[] public certifica...\n      SWAP2 \t\t\tCertificate[] public certifica...\n      POP \t\t\tCertificate[] public certifica...\n      SWAP1 \t\t\tCertificate[] public certifica...\n      POP \t\t\tCertificate[] public certifica...\n      DUP1 \t\t\tCertificate[] public certifica...\n      PUSH 0\t\t\tCertificate[] public certifica...\n      ADD \t\t\tCertificate[] public certifica...\n      DUP1 \t\t\tCertificate[] public certifica...\n      SLOAD \t\t\tCertificate[] public certifica...\n      PUSH [tag] 171\t\t\tCertificate[] public certifica...\n      SWAP1 \t\t\tCertificate[] public certifica...\n      PUSH [tag] 121\t\t\tCertificate[] public certifica...\n      JUMP \t\t\tCertificate[] public certifica...\n    tag 171\t\t\tCertificate[] public certifica...\n      JUMPDEST \t\t\tCertificate[] public certifica...\n      DUP1 \t\t\tCertificate[] public certifica...\n      PUSH 1F\t\t\tCertificate[] public certifica...\n      ADD \t\t\tCertificate[] public certifica...\n      PUSH 20\t\t\tCertificate[] public certifica...\n      DUP1 \t\t\tCertificate[] public certifica...\n      SWAP2 \t\t\tCertificate[] public certifica...\n      DIV \t\t\tCertificate[] public certifica...\n      MUL \t\t\tCertificate[] public certifica...\n      PUSH 20\t\t\tCertificate[] public certifica...\n      ADD \t\t\tCertificate[] public certifica...\n      PUSH 40\t\t\tCertificate[] public certifica...\n      MLOAD \t\t\tCertificate[] public certifica...\n      SWAP1 \t\t\tCertificate[] public certifica...\n      DUP2 \t\t\tCertificate[] public certifica...\n      ADD \t\t\tCertificate[] public certifica...\n      PUSH 40\t\t\tCertificate[] public certifica...\n      MSTORE \t\t\tCertificate[] public certifica...\n      DUP1 \t\t\tCertificate[] public certifica...\n      SWAP3 \t\t\tCertificate[] public certifica...\n      SWAP2 \t\t\tCertificate[] public certifica...\n      SWAP1 \t\t\tCertificate[] public certifica...\n      DUP2 \t\t\tCertificate[] public certifica...\n      DUP2 \t\t\tCertificate[] public certifica...\n      MSTORE \t\t\tCertificate[] public certifica...\n      PUSH 20\t\t\tCertificate[] public certifica...\n      ADD \t\t\tCertificate[] public certifica...\n      DUP3 \t\t\tCertificate[] public certifica...\n      DUP1 \t\t\tCertificate[] public certifica...\n      SLOAD \t\t\tCertificate[] public certifica...\n      PUSH [tag] 172\t\t\tCertificate[] public certifica...\n      SWAP1 \t\t\tCertificate[] public certifica...\n      PUSH [tag] 121\t\t\tCertificate[] public certifica...\n      JUMP \t\t\tCertificate[] public certifica...\n    tag 172\t\t\tCertificate[] public certifica...\n      JUMPDEST \t\t\tCertificate[] public certifica...\n      DUP1 \t\t\tCertificate[] public certifica...\n      ISZERO \t\t\tCertificate[] public certifica...\n      PUSH [tag] 173\t\t\tCertificate[] public certifica...\n      JUMPI \t\t\tCertificate[] public certifica...\n      DUP1 \t\t\tCertificate[] public certifica...\n      PUSH 1F\t\t\tCertificate[] public certifica...\n      LT \t\t\tCertificate[] public certifica...\n      PUSH [tag] 174\t\t\tCertificate[] public certifica...\n      JUMPI \t\t\tCertificate[] public certifica...\n      PUSH 100\t\t\tCertificate[] public certifica...\n      DUP1 \t\t\tCertificate[] public certifica...\n      DUP4 \t\t\tCertificate[] public certifica...\n      SLOAD \t\t\tCertificate[] public certifica...\n      DIV \t\t\tCertificate[] public certifica...\n      MUL \t\t\tCertificate[] public certifica...\n      DUP4 \t\t\tCertificate[] public certifica...\n      MSTORE \t\t\tCertificate[] public certifica...\n      SWAP2 \t\t\tCertificate[] public certifica...\n      PUSH 20\t\t\tCertificate[] public certifica...\n      ADD \t\t\tCertificate[] public certifica...\n      SWAP2 \t\t\tCertificate[] public certifica...\n      PUSH [tag] 173\t\t\tCertificate[] public certifica...\n      JUMP \t\t\tCertificate[] public certifica...\n    tag 174\t\t\tCertificate[] public certifica...\n      JUMPDEST \t\t\tCertificate[] public certifica...\n      DUP3 \t\t\tCertificate[] public certifica...\n      ADD \t\t\tCertificate[] public certifica...\n      SWAP2 \t\t\tCertificate[] public certifica...\n      SWAP1 \t\t\tCertificate[] public certifica...\n      PUSH 0\t\t\tCertificate[] public certifica...\n      MSTORE \t\t\tCertificate[] public certifica...\n      PUSH 20\t\t\tCertificate[] public certifica...\n      PUSH 0\t\t\tCertificate[] public certifica...\n      KECCAK256 \t\t\tCertificate[] public certifica...\n      SWAP1 \t\t\tCertificate[] public certifica...\n    tag 175\t\t\tCertificate[] public certifica...\n      JUMPDEST \t\t\tCertificate[] public certifica...\n      DUP2 \t\t\tCertificate[] public certifica...\n      SLOAD \t\t\tCertificate[] public certifica...\n      DUP2 \t\t\tCertificate[] public certifica...\n      MSTORE \t\t\tCertificate[] public certifica...\n      SWAP1 \t\t\tCertificate[] public certifica...\n      PUSH 1\t\t\tCertificate[] public certifica...\n      ADD \t\t\tCertificate[] public certifica...\n      SWAP1 \t\t\tCertificate[] public certifica...\n      PUSH 20\t\t\tCertificate[] public certifica...\n      ADD \t\t\tCertificate[] public certifica...\n      DUP1 \t\t\tCertificate[] public certifica...\n      DUP4 \t\t\tCertificate[] public certifica...\n      GT \t\t\tCertificate[] public certifica...\n      PUSH [tag] 175\t\t\tCertificate[] public certifica...\n      JUMPI \t\t\tCertificate[] public certifica...\n      DUP3 \t\t\tCertificate[] public certifica...\n      SWAP1 \t\t\tCertificate[] public certifica...\n      SUB \t\t\tCertificate[] public certifica...\n      PUSH 1F\t\t\tCertificate[] public certifica...\n      AND \t\t\tCertificate[] public certifica...\n      DUP3 \t\t\tCertificate[] public certifica...\n      ADD \t\t\tCertificate[] public certifica...\n      SWAP2 \t\t\tCertificate[] public certifica...\n    tag 173\t\t\tCertificate[] public certifica...\n      JUMPDEST \t\t\tCertificate[] public certifica...\n      POP \t\t\tCertificate[] public certifica...\n      POP \t\t\tCertificate[] public certifica...\n      POP \t\t\tCertificate[] public certifica...\n      POP \t\t\tCertificate[] public certifica...\n      POP \t\t\tCertificate[] public certifica...\n      SWAP1 \t\t\tCertificate[] public certifica...\n      DUP1 \t\t\tCertificate[] public certifica...\n      PUSH 1\t\t\tCertificate[] public certifica...\n      ADD \t\t\tCertificate[] public certifica...\n      DUP1 \t\t\tCertificate[] public certifica...\n      SLOAD \t\t\tCertificate[] public certifica...\n      PUSH [tag] 176\t\t\tCertificate[] public certifica...\n      SWAP1 \t\t\tCertificate[] public certifica...\n      PUSH [tag] 121\t\t\tCertificate[] public certifica...\n      JUMP \t\t\tCertificate[] public certifica...\n    tag 176\t\t\tCertificate[] public certifica...\n      JUMPDEST \t\t\tCertificate[] public certifica...\n      DUP1 \t\t\tCertificate[] public certifica...\n      PUSH 1F\t\t\tCertificate[] public certifica...\n      ADD \t\t\tCertificate[] public certifica...\n      PUSH 20\t\t\tCertificate[] public certifica...\n      DUP1 \t\t\tCertificate[] public certifica...\n      SWAP2 \t\t\tCertificate[] public certifica...\n      DIV \t\t\tCertificate[] public certifica...\n      MUL \t\t\tCertificate[] public certifica...\n      PUSH 20\t\t\tCertificate[] public certifica...\n      ADD \t\t\tCertificate[] public certifica...\n      PUSH 40\t\t\tCertificate[] public certifica...\n      MLOAD \t\t\tCertificate[] public certifica...\n      SWAP1 \t\t\tCertificate[] public certifica...\n      DUP2 \t\t\tCertificate[] public certifica...\n      ADD \t\t\tCertificate[] public certifica...\n      PUSH 40\t\t\tCertificate[] public certifica...\n      MSTORE \t\t\tCertificate[] public certifica...\n      DUP1 \t\t\tCertificate[] public certifica...\n      SWAP3 \t\t\tCertificate[] public certifica...\n      SWAP2 \t\t\tCertificate[] public certifica...\n      SWAP1 \t\t\tCertificate[] public certifica...\n      DUP2 \t\t\tCertificate[] public certifica...\n      DUP2 \t\t\tCertificate[] public certifica...\n      MSTORE \t\t\tCertificate[] public certifica...\n      PUSH 20\t\t\tCertificate[] public certifica...\n      ADD \t\t\tCertificate[] public certifica...\n      DUP3 \t\t\tCertificate[] public certifica...\n      DUP1 \t\t\tCertificate[] public certifica...\n      SLOAD \t\t\tCertificate[] public certifica...\n      PUSH [tag] 177\t\t\tCertificate[] public certifica...\n      SWAP1 \t\t\tCertificate[] public certifica...\n      PUSH [tag] 121\t\t\tCertificate[] public certifica...\n      JUMP \t\t\tCertificate[] public certifica...\n    tag 177\t\t\tCertificate[] public certifica...\n      JUMPDEST \t\t\tCertificate[] public certifica...\n      DUP1 \t\t\tCertificate[] public certifica...\n      ISZERO \t\t\tCertificate[] public certifica...\n      PUSH [tag] 178\t\t\tCertificate[] public certifica...\n      JUMPI \t\t\tCertificate[] public certifica...\n      DUP1 \t\t\tCertificate[] public certifica...\n      PUSH 1F\t\t\tCertificate[] public certifica...\n      LT \t\t\tCertificate[] public certifica...\n      PUSH [tag] 179\t\t\tCertificate[] public certifica...\n      JUMPI \t\t\tCertificate[] public certifica...\n      PUSH 100\t\t\tCertificate[] public certifica...\n      DUP1 \t\t\tCertificate[] public certifica...\n      DUP4 \t\t\tCertificate[] public certifica...\n      SLOAD \t\t\tCertificate[] public certifica...\n      DIV \t\t\tCertificate[] public certifica...\n      MUL \t\t\tCertificate[] public certifica...\n      DUP4 \t\t\tCertificate[] public certifica...\n      MSTORE \t\t\tCertificate[] public certifica...\n      SWAP2 \t\t\tCertificate[] public certifica...\n      PUSH 20\t\t\tCertificate[] public certifica...\n      ADD \t\t\tCertificate[] public certifica...\n      SWAP2 \t\t\tCertificate[] public certifica...\n      PUSH [tag] 178\t\t\tCertificate[] public certifica...\n      JUMP \t\t\tCertificate[] public certifica...\n    tag 179\t\t\tCertificate[] public certifica...\n      JUMPDEST \t\t\tCertificate[] public certifica...\n      DUP3 \t\t\tCertificate[] public certifica...\n      ADD \t\t\tCertificate[] public certifica...\n      SWAP2 \t\t\tCertificate[] public certifica...\n      SWAP1 \t\t\tCertificate[] public certifica...\n      PUSH 0\t\t\tCertificate[] public certifica...\n      MSTORE \t\t\tCertificate[] public certifica...\n      PUSH 20\t\t\tCertificate[] public certifica...\n      PUSH 0\t\t\tCertificate[] public certifica...\n      KECCAK256 \t\t\tCertificate[] public certifica...\n      SWAP1 \t\t\tCertificate[] public certifica...\n    tag 180\t\t\tCertificate[] public certifica...\n      JUMPDEST \t\t\tCertificate[] public certifica...\n      DUP2 \t\t\tCertificate[] public certifica...\n      SLOAD \t\t\tCertificate[] public certifica...\n      DUP2 \t\t\tCertificate[] public certifica...\n      MSTORE \t\t\tCertificate[] public certifica...\n      SWAP1 \t\t\tCertificate[] public certifica...\n      PUSH 1\t\t\tCertificate[] public certifica...\n      ADD \t\t\tCertificate[] public certifica...\n      SWAP1 \t\t\tCertificate[] public certifica...\n      PUSH 20\t\t\tCertificate[] public certifica...\n      ADD \t\t\tCertificate[] public certifica...\n      DUP1 \t\t\tCertificate[] public certifica...\n      DUP4 \t\t\tCertificate[] public certifica...\n      GT \t\t\tCertificate[] public certifica...\n      PUSH [tag] 180\t\t\tCertificate[] public certifica...\n      JUMPI \t\t\tCertificate[] public certifica...\n      DUP3 \t\t\tCertificate[] public certifica...\n      SWAP1 \t\t\tCertificate[] public certifica...\n      SUB \t\t\tCertificate[] public certifica...\n      PUSH 1F\t\t\tCertificate[] public certifica...\n      AND \t\t\tCertificate[] public certifica...\n      DUP3 \t\t\tCertificate[] public certifica...\n      ADD \t\t\tCertificate[] public certifica...\n      SWAP2 \t\t\tCertificate[] public certifica...\n    tag 178\t\t\tCertificate[] public certifica...\n      JUMPDEST \t\t\tCertificate[] public certifica...\n      POP \t\t\tCertificate[] public certifica...\n      POP \t\t\tCertificate[] public certifica...\n      POP \t\t\tCertificate[] public certifica...\n      POP \t\t\tCertificate[] public certifica...\n      POP \t\t\tCertificate[] public certifica...\n      SWAP1 \t\t\tCertificate[] public certifica...\n      DUP1 \t\t\tCertificate[] public certifica...\n      PUSH 2\t\t\tCertificate[] public certifica...\n      ADD \t\t\tCertificate[] public certifica...\n      SLOAD \t\t\tCertificate[] public certifica...\n      SWAP1 \t\t\tCertificate[] public certifica...\n      DUP1 \t\t\tCertificate[] public certifica...\n      PUSH 3\t\t\tCertificate[] public certifica...\n      ADD \t\t\tCertificate[] public certifica...\n      DUP1 \t\t\tCertificate[] public certifica...\n      SLOAD \t\t\tCertificate[] public certifica...\n      PUSH [tag] 181\t\t\tCertificate[] public certifica...\n      SWAP1 \t\t\tCertificate[] public certifica...\n      PUSH [tag] 121\t\t\tCertificate[] public certifica...\n      JUMP \t\t\tCertificate[] public certifica...\n    tag 181\t\t\tCertificate[] public certifica...\n      JUMPDEST \t\t\tCertificate[] public certifica...\n      DUP1 \t\t\tCertificate[] public certifica...\n      PUSH 1F\t\t\tCertificate[] public certifica...\n      ADD \t\t\tCertificate[] public certifica...\n      PUSH 20\t\t\tCertificate[] public certifica...\n      DUP1 \t\t\tCertificate[] public certifica...\n      SWAP2 \t\t\tCertificate[] public certifica...\n      DIV \t\t\tCertificate[] public certifica...\n      MUL \t\t\tCertificate[] public certifica...\n      PUSH 20\t\t\tCertificate[] public certifica...\n      ADD \t\t\tCertificate[] public certifica...\n      PUSH 40\t\t\tCertificate[] public certifica...\n      MLOAD \t\t\tCertificate[] public certifica...\n      SWAP1 \t\t\tCertificate[] public certifica...\n      DUP2 \t\t\tCertificate[] public certifica...\n      ADD \t\t\tCertificate[] public certifica...\n      PUSH 40\t\t\tCertificate[] public certifica...\n      MSTORE \t\t\tCertificate[] public certifica...\n      DUP1 \t\t\tCertificate[] public certifica...\n      SWAP3 \t\t\tCertificate[] public certifica...\n      SWAP2 \t\t\tCertificate[] public certifica...\n      SWAP1 \t\t\tCertificate[] public certifica...\n      DUP2 \t\t\tCertificate[] public certifica...\n      DUP2 \t\t\tCertificate[] public certifica...\n      MSTORE \t\t\tCertificate[] public certifica...\n      PUSH 20\t\t\tCertificate[] public certifica...\n      ADD \t\t\tCertificate[] public certifica...\n      DUP3 \t\t\tCertificate[] public certifica...\n      DUP1 \t\t\tCertificate[] public certifica...\n      SLOAD \t\t\tCertificate[] public certifica...\n      PUSH [tag] 182\t\t\tCertificate[] public certifica...\n      SWAP1 \t\t\tCertificate[] public certifica...\n      PUSH [tag] 121\t\t\tCertificate[] public certifica...\n      JUMP \t\t\tCertificate[] public certifica...\n    tag 182\t\t\tCertificate[] public certifica...\n      JUMPDEST \t\t\tCertificate[] public certifica...\n      DUP1 \t\t\tCertificate[] public certifica...\n      ISZERO \t\t\tCertificate[] public certifica...\n      PUSH [tag] 183\t\t\tCertificate[] public certifica...\n      JUMPI \t\t\tCertificate[] public certifica...\n      DUP1 \t\t\tCertificate[] public certifica...\n      PUSH 1F\t\t\tCertificate[] public certifica...\n      LT \t\t\tCertificate[] public certifica...\n      PUSH [tag] 184\t\t\tCertificate[] public certifica...\n      JUMPI \t\t\tCertificate[] public certifica...\n      PUSH 100\t\t\tCertificate[] public certifica...\n      DUP1 \t\t\tCertificate[] public certifica...\n      DUP4 \t\t\tCertificate[] public certifica...\n      SLOAD \t\t\tCertificate[] public certifica...\n      DIV \t\t\tCertificate[] public certifica...\n      MUL \t\t\tCertificate[] public certifica...\n      DUP4 \t\t\tCertificate[] public certifica...\n      MSTORE \t\t\tCertificate[] public certifica...\n      SWAP2 \t\t\tCertificate[] public certifica...\n      PUSH 20\t\t\tCertificate[] public certifica...\n      ADD \t\t\tCertificate[] public certifica...\n      SWAP2 \t\t\tCertificate[] public certifica...\n      PUSH [tag] 183\t\t\tCertificate[] public certifica...\n      JUMP \t\t\tCertificate[] public certifica...\n    tag 184\t\t\tCertificate[] public certifica...\n      JUMPDEST \t\t\tCertificate[] public certifica...\n      DUP3 \t\t\tCertificate[] public certifica...\n      ADD \t\t\tCertificate[] public certifica...\n      SWAP2 \t\t\tCertificate[] public certifica...\n      SWAP1 \t\t\tCertificate[] public certifica...\n      PUSH 0\t\t\tCertificate[] public certifica...\n      MSTORE \t\t\tCertificate[] public certifica...\n      PUSH 20\t\t\tCertificate[] public certifica...\n      PUSH 0\t\t\tCertificate[] public certifica...\n      KECCAK256 \t\t\tCertificate[] public certifica...\n      SWAP1 \t\t\tCertificate[] public certifica...\n    tag 185\t\t\tCertificate[] public certifica...\n      JUMPDEST \t\t\tCertificate[] public certifica...\n      DUP2 \t\t\tCertificate[] public certifica...\n      SLOAD \t\t\tCertificate[] public certifica...\n      DUP2 \t\t\tCertificate[] public certifica...\n      MSTORE \t\t\tCertificate[] public certifica...\n      SWAP1 \t\t\tCertificate[] public certifica...\n      PUSH 1\t\t\tCertificate[] public certifica...\n      ADD \t\t\tCertificate[] public certifica...\n      SWAP1 \t\t\tCertificate[] public certifica...\n      PUSH 20\t\t\tCertificate[] public certifica...\n      ADD \t\t\tCertificate[] public certifica...\n      DUP1 \t\t\tCertificate[] public certifica...\n      DUP4 \t\t\tCertificate[] public certifica...\n      GT \t\t\tCertificate[] public certifica...\n      PUSH [tag] 185\t\t\tCertificate[] public certifica...\n      JUMPI \t\t\tCertificate[] public certifica...\n      DUP3 \t\t\tCertificate[] public certifica...\n      SWAP1 \t\t\tCertificate[] public certifica...\n      SUB \t\t\tCertificate[] public certifica...\n      PUSH 1F\t\t\tCertificate[] public certifica...\n      AND \t\t\tCertificate[] public certifica...\n      DUP3 \t\t\tCertificate[] public certifica...\n      ADD \t\t\tCertificate[] public certifica...\n      SWAP2 \t\t\tCertificate[] public certifica...\n    tag 183\t\t\tCertificate[] public certifica...\n      JUMPDEST \t\t\tCertificate[] public certifica...\n      POP \t\t\tCertificate[] public certifica...\n      POP \t\t\tCertificate[] public certifica...\n      POP \t\t\tCertificate[] public certifica...\n      POP \t\t\tCertificate[] public certifica...\n      POP \t\t\tCertificate[] public certifica...\n      SWAP1 \t\t\tCertificate[] public certifica...\n      POP \t\t\tCertificate[] public certifica...\n      DUP5 \t\t\tCertificate[] public certifica...\n      JUMP \t\t\tCertificate[] public certifica...\n    tag 77\t\t\tdress\");\\n        reserveWalle...\n      JUMPDEST \t\t\tdress\");\\n        reserveWalle...\n      PUSH 0\t\t\tletUpda\n      DUP1 \t\t\t\\n\\n    fun\n      PUSH 0\t\t\t\\n\\n    function set\n      DUP4 \t\t\ttion se\n      PUSH FFFFFFFFFFFFFFFFFFFFFFFFFFFFFFFFFFFFFFFF\t\t\t\\n\\n    function set\n      AND \t\t\t\\n\\n    function set\n      PUSH FFFFFFFFFFFFFFFFFFFFFFFFFFFFFFFFFFFFFFFF\t\t\t\\n\\n    function set\n      AND \t\t\t\\n\\n    function set\n      DUP2 \t\t\t\\n\\n    function set\n      MSTORE \t\t\t\\n\\n    function set\n      PUSH 20\t\t\t\\n\\n    function set\n      ADD \t\t\t\\n\\n    function set\n      SWAP1 \t\t\t\\n\\n    function set\n      DUP2 \t\t\t\\n\\n    function set\n      MSTORE \t\t\t\\n\\n    function set\n      PUSH 20\t\t\t\\n\\n    function set\n      ADD \t\t\t\\n\\n    function set\n      PUSH 0\t\t\t\\n\\n    function set\n      KECCAK256 \t\t\t\\n\\n    function set\n      SLOAD \t\t\t\\n\\n    function set\n      SWAP1 \t\t\t;\\n    }\\n\\n    function set\n      POP \t\t\t;\\n    }\\n\\n    function set\n      SWAP2 \t\t\tdress\");\\n        reserveWalle...\n      SWAP1 \t\t\tdress\");\\n        reserveWalle...\n      POP \t\t\tdress\");\\n        reserveWalle...\n      JUMP \t\t\tdress\");\\n        reserveWalle...\n    tag 80\t\t\tn\"\\n        ));\\n\\n        cer...\n      JUMPDEST \t\t\tn\"\\n        ));\\n\\n        cer...\n      PUSH [tag] 188\t\t\t=============\n      PUSH [tag] 115\t\t\t===========\n      JUMP \t\t\t=============\n    tag 188\t\t\t=============\n      JUMPDEST \t\t\t=============\n      PUSH [tag] 190\t\t\t   \"Audits and Certifications\"\n      PUSH 0\t\t\tn\n      PUSH [tag] 191\t\t\t   \"Audits and Cer\n      JUMP \t\t\t   \"Audits and Certifications\"\n    tag 190\t\t\t   \"Audits and Certifications\"\n      JUMPDEST \t\t\t   \"Audits and Certifications\"\n      JUMP \t\t\tn\"\\n        ));\\n\\n        cer...\n    tag 82\t\t\t  address _reserveWallet\\n    ...\n      JUMPDEST \t\t\t  address _reserveWallet\\n    ...\n      PUSH 0\t\t\tCarbon \n      PUSH 5\t\t\t\")\\n   \n      PUSH 0\t\t\t\")\\n   \n      SWAP1 \t\t\t\")\\n   \n      SLOAD \t\t\t\")\\n   \n      SWAP1 \t\t\t\")\\n   \n      PUSH 100\t\t\t\")\\n   \n      EXP \t\t\t\")\\n   \n      SWAP1 \t\t\t\")\\n   \n      DIV \t\t\t\")\\n   \n      PUSH FFFFFFFFFFFFFFFFFFFFFFFFFFFFFFFFFFFFFFFF\t\t\t\")\\n   \n      AND \t\t\t\")\\n   \n      SWAP1 \t\t\t\", \"CCC\")\\n   \n      POP \t\t\t\", \"CCC\")\\n   \n      SWAP1 \t\t\t  address _reserveWallet\\n    ...\n      JUMP \t\t\t  address _reserveWallet\\n    ...\n    tag 86\t\t\tfunction getCertificatesCount(...\n      JUMPDEST \t\t\tfunction getCertificatesCount(...\n      PUSH 0\t\t\tuint256\n      PUSH 9\t\t\tcertificates\n      DUP1 \t\t\tcertificates.length\n      SLOAD \t\t\tcertificates.length\n      SWAP1 \t\t\tcertificates.length\n      POP \t\t\tcertificates.length\n      SWAP1 \t\t\treturn certificates.length\n      POP \t\t\treturn certificates.length\n      SWAP1 \t\t\tfunction getCertificatesCount(...\n      JUMP \t\t\tfunction getCertificatesCount(...\n    tag 89\t\t\t(masterWallet, MAX_SUPPLY);\\n\\...\n      JUMPDEST \t\t\t(masterWallet, MAX_SUPPLY);\\n\\...\n      PUSH 60\t\t\t=============\n      PUSH 4\t\t\tITIAL D\n      DUP1 \t\t\t  // INITIAL D\n      SLOAD \t\t\t  // INITIAL D\n      PUSH [tag] 195\t\t\t  // INITIAL D\n      SWAP1 \t\t\t  // INITIAL D\n      PUSH [tag] 121\t\t\t  // INITIAL D\n      JUMP \t\t\t  // INITIAL D\n    tag 195\t\t\t  // INITIAL D\n      JUMPDEST \t\t\t  // INITIAL D\n      DUP1 \t\t\t  // INITIAL D\n      PUSH 1F\t\t\t  // INITIAL D\n      ADD \t\t\t  // INITIAL D\n      PUSH 20\t\t\t  // INITIAL D\n      DUP1 \t\t\t  // INITIAL D\n      SWAP2 \t\t\t  // INITIAL D\n      DIV \t\t\t  // INITIAL D\n      MUL \t\t\t  // INITIAL D\n      PUSH 20\t\t\t  // INITIAL D\n      ADD \t\t\t  // INITIAL D\n      PUSH 40\t\t\t  // INITIAL D\n      MLOAD \t\t\t  // INITIAL D\n      SWAP1 \t\t\t  // INITIAL D\n      DUP2 \t\t\t  // INITIAL D\n      ADD \t\t\t  // INITIAL D\n      PUSH 40\t\t\t  // INITIAL D\n      MSTORE \t\t\t  // INITIAL D\n      DUP1 \t\t\t  // INITIAL D\n      SWAP3 \t\t\t  // INITIAL D\n      SWAP2 \t\t\t  // INITIAL D\n      SWAP1 \t\t\t  // INITIAL D\n      DUP2 \t\t\t  // INITIAL D\n      DUP2 \t\t\t  // INITIAL D\n      MSTORE \t\t\t  // INITIAL D\n      PUSH 20\t\t\t  // INITIAL D\n      ADD \t\t\t  // INITIAL D\n      DUP3 \t\t\t  // INITIAL D\n      DUP1 \t\t\t  // INITIAL D\n      SLOAD \t\t\t  // INITIAL D\n      PUSH [tag] 196\t\t\t  // INITIAL D\n      SWAP1 \t\t\t  // INITIAL D\n      PUSH [tag] 121\t\t\t  // INITIAL D\n      JUMP \t\t\t  // INITIAL D\n    tag 196\t\t\t  // INITIAL D\n      JUMPDEST \t\t\t  // INITIAL D\n      DUP1 \t\t\t  // INITIAL D\n      ISZERO \t\t\t  // INITIAL D\n      PUSH [tag] 197\t\t\t  // INITIAL D\n      JUMPI \t\t\t  // INITIAL D\n      DUP1 \t\t\t  // INITIAL D\n      PUSH 1F\t\t\t  // INITIAL D\n      LT \t\t\t  // INITIAL D\n      PUSH [tag] 198\t\t\t  // INITIAL D\n      JUMPI \t\t\t  // INITIAL D\n      PUSH 100\t\t\t  // INITIAL D\n      DUP1 \t\t\t  // INITIAL D\n      DUP4 \t\t\t  // INITIAL D\n      SLOAD \t\t\t  // INITIAL D\n      DIV \t\t\t  // INITIAL D\n      MUL \t\t\t  // INITIAL D\n      DUP4 \t\t\t  // INITIAL D\n      MSTORE \t\t\t  // INITIAL D\n      SWAP2 \t\t\t  // INITIAL D\n      PUSH 20\t\t\t  // INITIAL D\n      ADD \t\t\t  // INITIAL D\n      SWAP2 \t\t\t  // INITIAL D\n      PUSH [tag] 197\t\t\t  // INITIAL D\n      JUMP \t\t\t  // INITIAL D\n    tag 198\t\t\t  // INITIAL D\n      JUMPDEST \t\t\t  // INITIAL D\n      DUP3 \t\t\t  // INITIAL D\n      ADD \t\t\t  // INITIAL D\n      SWAP2 \t\t\t  // INITIAL D\n      SWAP1 \t\t\t  // INITIAL D\n      PUSH 0\t\t\t  // INITIAL D\n      MSTORE \t\t\t  // INITIAL D\n      PUSH 20\t\t\t  // INITIAL D\n      PUSH 0\t\t\t  // INITIAL D\n      KECCAK256 \t\t\t  // INITIAL D\n      SWAP1 \t\t\t  // INITIAL D\n    tag 199\t\t\t  // INITIAL D\n      JUMPDEST \t\t\t  // INITIAL D\n      DUP2 \t\t\t  // INITIAL D\n      SLOAD \t\t\t  // INITIAL D\n      DUP2 \t\t\t  // INITIAL D\n      MSTORE \t\t\t  // INITIAL D\n      SWAP1 \t\t\t  // INITIAL D\n      PUSH 1\t\t\t  // INITIAL D\n      ADD \t\t\t  // INITIAL D\n      SWAP1 \t\t\t  // INITIAL D\n      PUSH 20\t\t\t  // INITIAL D\n      ADD \t\t\t  // INITIAL D\n      DUP1 \t\t\t  // INITIAL D\n      DUP4 \t\t\t  // INITIAL D\n      GT \t\t\t  // INITIAL D\n      PUSH [tag] 199\t\t\t  // INITIAL D\n      JUMPI \t\t\t  // INITIAL D\n      DUP3 \t\t\t  // INITIAL D\n      SWAP1 \t\t\t  // INITIAL D\n      SUB \t\t\t  // INITIAL D\n      PUSH 1F\t\t\t  // INITIAL D\n      AND \t\t\t  // INITIAL D\n      DUP3 \t\t\t  // INITIAL D\n      ADD \t\t\t  // INITIAL D\n      SWAP2 \t\t\t  // INITIAL D\n    tag 197\t\t\t  // INITIAL D\n      JUMPDEST \t\t\t  // INITIAL D\n      POP \t\t\t  // INITIAL D\n      POP \t\t\t  // INITIAL D\n      POP \t\t\t  // INITIAL D\n      POP \t\t\t  // INITIAL D\n      POP \t\t\t  // INITIAL D\n      SWAP1 \t\t\t  // INITIAL D\n      POP \t\t\t  // INITIAL D\n      SWAP1 \t\t\t(masterWallet, MAX_SUPPLY);\\n\\...\n      JUMP \t\t\t(masterWallet, MAX_SUPPLY);\\n\\...\n    tag 93\t\t\t external onlyOwner {\\n       ...\n      JUMPDEST \t\t\t external onlyOwner {\\n       ...\n      PUSH 0\t\t\tate(\n      DUP1 \t\t\t, block.times\n      PUSH [tag] 201\t\t\tp, _desc)\\n  \n      PUSH [tag] 128\t\t\tp, _desc)\\n\n      JUMP \t\t\tp, _desc)\\n  \n    tag 201\t\t\tp, _desc)\\n  \n      JUMPDEST \t\t\tp, _desc)\\n  \n      SWAP1 \t\t\t, block.timestamp, _desc)\\n  \n      POP \t\t\t, block.timestamp, _desc)\\n  \n      PUSH [tag] 202\t\t\t        emit CertificateAdd\n      DUP2 \t\t\tit Ce\n      DUP6 \t\t\tif\n      DUP6 \t\t\tateAd\n      PUSH [tag] 147\t\t\t        e\n      JUMP \t\t\t        emit CertificateAdd\n    tag 202\t\t\t        emit CertificateAdd\n      JUMPDEST \t\t\t        emit CertificateAdd\n      PUSH 1\t\t\terti\n      SWAP2 \t\t\t      certi\n      POP \t\t\t      certi\n      POP \t\t\t      certi\n      SWAP3 \t\t\t external onlyOwner {\\n       ...\n      SWAP2 \t\t\t external onlyOwner {\\n       ...\n      POP \t\t\t external onlyOwner {\\n       ...\n      POP \t\t\t external onlyOwner {\\n       ...\n      JUMP \t\t\t external onlyOwner {\\n       ...\n    tag 98\t\t\tfunction addCertificate(\\n    ...\n      JUMPDEST \t\t\tfunction addCertificate(\\n    ...\n      PUSH [tag] 204\t\t\t=============\n      PUSH [tag] 115\t\t\t===========\n      JUMP \t\t\t=============\n    tag 204\t\t\t=============\n      JUMPDEST \t\t\t=============\n      PUSH 9\t\t\tcertificates\n      PUSH 40\t\t\tCertificate(_name, _link, bloc...\n      MLOAD \t\t\tCertificate(_name, _link, bloc...\n      DUP1 \t\t\tCertificate(_name, _link, bloc...\n      PUSH 80\t\t\tCertificate(_name, _link, bloc...\n      ADD \t\t\tCertificate(_name, _link, bloc...\n      PUSH 40\t\t\tCertificate(_name, _link, bloc...\n      MSTORE \t\t\tCertificate(_name, _link, bloc...\n      DUP1 \t\t\tCertificate(_name, _link, bloc...\n      DUP6 \t\t\t_name\n      DUP2 \t\t\tCertificate(_name, _link, bloc...\n      MSTORE \t\t\tCertificate(_name, _link, bloc...\n      PUSH 20\t\t\tCertificate(_name, _link, bloc...\n      ADD \t\t\tCertificate(_name, _link, bloc...\n      DUP5 \t\t\t_link\n      DUP2 \t\t\tCertificate(_name, _link, bloc...\n      MSTORE \t\t\tCertificate(_name, _link, bloc...\n      PUSH 20\t\t\tCertificate(_name, _link, bloc...\n      ADD \t\t\tCertificate(_name, _link, bloc...\n      TIMESTAMP \t\t\tblock.timestamp\n      DUP2 \t\t\tCertificate(_name, _link, bloc...\n      MSTORE \t\t\tCertificate(_name, _link, bloc...\n      PUSH 20\t\t\tCertificate(_name, _link, bloc...\n      ADD \t\t\tCertificate(_name, _link, bloc...\n      DUP4 \t\t\t_desc\n      DUP2 \t\t\tCertificate(_name, _link, bloc...\n      MSTORE \t\t\tCertificate(_name, _link, bloc...\n      POP \t\t\tCertificate(_name, _link, bloc...\n      SWAP1 \t\t\tcertificates.push(\\n          ...\n      DUP1 \t\t\tcertificates.push(\\n          ...\n      PUSH 1\t\t\tcertificates.push(\\n          ...\n      DUP2 \t\t\tcertificates.push(\\n          ...\n      SLOAD \t\t\tcertificates.push(\\n          ...\n      ADD \t\t\tcertificates.push(\\n          ...\n      DUP1 \t\t\tcertificates.push(\\n          ...\n      DUP3 \t\t\tcertificates.push(\\n          ...\n      SSTORE \t\t\tcertificates.push(\\n          ...\n      DUP1 \t\t\tcertificates.push(\\n          ...\n      SWAP2 \t\t\tcertificates.push(\\n          ...\n      POP \t\t\tcertificates.push(\\n          ...\n      POP \t\t\tcertificates.push(\\n          ...\n      PUSH 1\t\t\tcertificates.push(\\n          ...\n      SWAP1 \t\t\tcertificates.push(\\n          ...\n      SUB \t\t\tcertificates.push(\\n          ...\n      SWAP1 \t\t\tcertificates.push(\\n          ...\n      PUSH 0\t\t\tcertificates.push(\\n          ...\n      MSTORE \t\t\tcertificates.push(\\n          ...\n      PUSH 20\t\t\tcertificates.push(\\n          ...\n      PUSH 0\t\t\tcertificates.push(\\n          ...\n      KECCAK256 \t\t\tcertificates.push(\\n          ...\n      SWAP1 \t\t\tcertificates.push(\\n          ...\n      PUSH 4\t\t\tcertificates.push(\\n          ...\n      MUL \t\t\tcertificates.push(\\n          ...\n      ADD \t\t\tcertificates.push(\\n          ...\n      PUSH 0\t\t\tcertificates.push(\\n          ...\n      SWAP1 \t\t\tcertificates.push(\\n          ...\n      SWAP2 \t\t\tcertificates.push(\\n          ...\n      SWAP1 \t\t\tcertificates.push(\\n          ...\n      SWAP2 \t\t\tcertificates.push(\\n          ...\n      SWAP1 \t\t\tcertificates.push(\\n          ...\n      SWAP2 \t\t\tcertificates.push(\\n          ...\n      POP \t\t\tcertificates.push(\\n          ...\n      PUSH 0\t\t\tcertificates.push(\\n          ...\n      DUP3 \t\t\tcertificates.push(\\n          ...\n      ADD \t\t\tcertificates.push(\\n          ...\n      MLOAD \t\t\tcertificates.push(\\n          ...\n      DUP2 \t\t\tcertificates.push(\\n          ...\n      PUSH 0\t\t\tcertificates.push(\\n          ...\n      ADD \t\t\tcertificates.push(\\n          ...\n      SWAP1 \t\t\tcertificates.push(\\n          ...\n      DUP2 \t\t\tcertificates.push(\\n          ...\n      PUSH [tag] 207\t\t\tcertificates.push(\\n          ...\n      SWAP2 \t\t\tcertificates.push(\\n          ...\n      SWAP1 \t\t\tcertificates.push(\\n          ...\n      PUSH [tag] 118\t\t\tcertificates.push(\\n          ...\n      JUMP \t\t\tcertificates.push(\\n          ...\n    tag 207\t\t\tcertificates.push(\\n          ...\n      JUMPDEST \t\t\tcertificates.push(\\n          ...\n      POP \t\t\tcertificates.push(\\n          ...\n      PUSH 20\t\t\tcertificates.push(\\n          ...\n      DUP3 \t\t\tcertificates.push(\\n          ...\n      ADD \t\t\tcertificates.push(\\n          ...\n      MLOAD \t\t\tcertificates.push(\\n          ...\n      DUP2 \t\t\tcertificates.push(\\n          ...\n      PUSH 1\t\t\tcertificates.push(\\n          ...\n      ADD \t\t\tcertificates.push(\\n          ...\n      SWAP1 \t\t\tcertificates.push(\\n          ...\n      DUP2 \t\t\tcertificates.push(\\n          ...\n      PUSH [tag] 208\t\t\tcertificates.push(\\n          ...\n      SWAP2 \t\t\tcertificates.push(\\n          ...\n      SWAP1 \t\t\tcertificates.push(\\n          ...\n      PUSH [tag] 118\t\t\tcertificates.push(\\n          ...\n      JUMP \t\t\tcertificates.push(\\n          ...\n    tag 208\t\t\tcertificates.push(\\n          ...\n      JUMPDEST \t\t\tcertificates.push(\\n          ...\n      POP \t\t\tcertificates.push(\\n          ...\n      PUSH 40\t\t\tcertificates.push(\\n          ...\n      DUP3 \t\t\tcertificates.push(\\n          ...\n      ADD \t\t\tcertificates.push(\\n          ...\n      MLOAD \t\t\tcertificates.push(\\n          ...\n      DUP2 \t\t\tcertificates.push(\\n          ...\n      PUSH 2\t\t\tcertificates.push(\\n          ...\n      ADD \t\t\tcertificates.push(\\n          ...\n      SSTORE \t\t\tcertificates.push(\\n          ...\n      PUSH 60\t\t\tcertificates.push(\\n          ...\n      DUP3 \t\t\tcertificates.push(\\n          ...\n      ADD \t\t\tcertificates.push(\\n          ...\n      MLOAD \t\t\tcertificates.push(\\n          ...\n      DUP2 \t\t\tcertificates.push(\\n          ...\n      PUSH 3\t\t\tcertificates.push(\\n          ...\n      ADD \t\t\tcertificates.push(\\n          ...\n      SWAP1 \t\t\tcertificates.push(\\n          ...\n      DUP2 \t\t\tcertificates.push(\\n          ...\n      PUSH [tag] 209\t\t\tcertificates.push(\\n          ...\n      SWAP2 \t\t\tcertificates.push(\\n          ...\n      SWAP1 \t\t\tcertificates.push(\\n          ...\n      PUSH [tag] 118\t\t\tcertificates.push(\\n          ...\n      JUMP \t\t\tcertificates.push(\\n          ...\n    tag 209\t\t\tcertificates.push(\\n          ...\n      JUMPDEST \t\t\tcertificates.push(\\n          ...\n      POP \t\t\tcertificates.push(\\n          ...\n      POP \t\t\tcertificates.push(\\n          ...\n      POP \t\t\tcertificates.push(\\n          ...\n      PUSH 1\t\t\t1\n      PUSH 9\t\t\tcertificates\n      DUP1 \t\t\tcertificates.length\n      SLOAD \t\t\tcertificates.length\n      SWAP1 \t\t\tcertificates.length\n      POP \t\t\tcertificates.length\n      PUSH [tag] 210\t\t\tcertificates.length - 1\n      SWAP2 \t\t\tcertificates.length - 1\n      SWAP1 \t\t\tcertificates.length - 1\n      PUSH [tag] 211\t\t\tcertificates.length - 1\n      JUMP \t\t\tcertificates.length - 1\n    tag 210\t\t\tcertificates.length - 1\n      JUMPDEST \t\t\tcertificates.length - 1\n      PUSH 2774E9EF4AFEF65425B7A7FBFD20AD10AE87A2BE53C24FD3C78CC311981BC848\t\t\tCertificateAdded(\\n           ...\n      DUP5 \t\t\t_name\n      DUP5 \t\t\t_link\n      DUP5 \t\t\t_desc\n      PUSH 40\t\t\tCertificateAdded(\\n           ...\n      MLOAD \t\t\tCertificateAdded(\\n           ...\n      PUSH [tag] 212\t\t\tCertificateAdded(\\n           ...\n      SWAP4 \t\t\tCertificateAdded(\\n           ...\n      SWAP3 \t\t\tCertificateAdded(\\n           ...\n      SWAP2 \t\t\tCertificateAdded(\\n           ...\n      SWAP1 \t\t\tCertificateAdded(\\n           ...\n      PUSH [tag] 213\t\t\tCertificateAdded(\\n           ...\n      JUMP \t\t\tCertificateAdded(\\n           ...\n    tag 212\t\t\tCertificateAdded(\\n           ...\n      JUMPDEST \t\t\tCertificateAdded(\\n           ...\n      PUSH 40\t\t\tCertificateAdded(\\n           ...\n      MLOAD \t\t\tCertificateAdded(\\n           ...\n      DUP1 \t\t\tCertificateAdded(\\n           ...\n      SWAP2 \t\t\tCertificateAdded(\\n           ...\n      SUB \t\t\tCertificateAdded(\\n           ...\n      SWAP1 \t\t\tCertificateAdded(\\n           ...\n      LOG2 \t\t\tCertificateAdded(\\n           ...\n      POP \t\t\tfunction addCertificate(\\n    ...\n      POP \t\t\tfunction addCertificate(\\n    ...\n      POP \t\t\tfunction addCertificate(\\n    ...\n      JUMP \t\t\tfunction addCertificate(\\n    ...\n    tag 100\t\t\taddress public reserveWallet\n      JUMPDEST \t\t\taddress public reserveWallet\n      PUSH 8\t\t\taddress public reserveWallet\n      PUSH 0\t\t\taddress public reserveWallet\n      SWAP1 \t\t\taddress public reserveWallet\n      SLOAD \t\t\taddress public reserveWallet\n      SWAP1 \t\t\taddress public reserveWallet\n      PUSH 100\t\t\taddress public reserveWallet\n      EXP \t\t\taddress public reserveWallet\n      SWAP1 \t\t\taddress public reserveWallet\n      DIV \t\t\taddress public reserveWallet\n      PUSH FFFFFFFFFFFFFFFFFFFFFFFFFFFFFFFFFFFFFFFF\t\t\taddress public reserveWallet\n      AND \t\t\taddress public reserveWallet\n      DUP2 \t\t\taddress public reserveWallet\n      JUMP \t\t\taddress public reserveWallet\n    tag 105\t\t\t           _link,\\n           ...\n      JUMPDEST \t\t\t           _link,\\n           ...\n      PUSH 0\t\t\t======\\n\n      PUSH 1\t\t\tNS\\n    // =\n      PUSH 0\t\t\tNS\\n    // ========\n      DUP5 \t\t\t=====\n      PUSH FFFFFFFFFFFFFFFFFFFFFFFFFFFFFFFFFFFFFFFF\t\t\tNS\\n    // ========\n      AND \t\t\tNS\\n    // ========\n      PUSH FFFFFFFFFFFFFFFFFFFFFFFFFFFFFFFFFFFFFFFF\t\t\tNS\\n    // ========\n      AND \t\t\tNS\\n    // ========\n      DUP2 \t\t\tNS\\n    // ========\n      MSTORE \t\t\tNS\\n    // ========\n      PUSH 20\t\t\tNS\\n    // ========\n      ADD \t\t\tNS\\n    // ========\n      SWAP1 \t\t\tNS\\n    // ========\n      DUP2 \t\t\tNS\\n    // ========\n      MSTORE \t\t\tNS\\n    // ========\n      PUSH 20\t\t\tNS\\n    // ========\n      ADD \t\t\tNS\\n    // ========\n      PUSH 0\t\t\tNS\\n    // ========\n      KECCAK256 \t\t\tNS\\n    // ========\n      PUSH 0\t\t\tNS\\n    // =================\n      DUP4 \t\t\t=======\n      PUSH FFFFFFFFFFFFFFFFFFFFFFFFFFFFFFFFFFFFFFFF\t\t\tNS\\n    // =================\n      AND \t\t\tNS\\n    // =================\n      PUSH FFFFFFFFFFFFFFFFFFFFFFFFFFFFFFFFFFFFFFFF\t\t\tNS\\n    // =================\n      AND \t\t\tNS\\n    // =================\n      DUP2 \t\t\tNS\\n    // =================\n      MSTORE \t\t\tNS\\n    // =================\n      PUSH 20\t\t\tNS\\n    // =================\n      ADD \t\t\tNS\\n    // =================\n      SWAP1 \t\t\tNS\\n    // =================\n      DUP2 \t\t\tNS\\n    // =================\n      MSTORE \t\t\tNS\\n    // =================\n      PUSH 20\t\t\tNS\\n    // =================\n      ADD \t\t\tNS\\n    // =================\n      PUSH 0\t\t\tNS\\n    // =================\n      KECCAK256 \t\t\tNS\\n    // =================\n      SLOAD \t\t\tNS\\n    // =================\n      SWAP1 \t\t\tFUNCTIONS\\n    // ============...\n      POP \t\t\tFUNCTIONS\\n    // ============...\n      SWAP3 \t\t\t           _link,\\n           ...\n      SWAP2 \t\t\t           _link,\\n           ...\n      POP \t\t\t           _link,\\n           ...\n      POP \t\t\t           _link,\\n           ...\n      JUMP \t\t\t           _link,\\n           ...\n    tag 109\t\t\tfunction setReserveWallet(addr...\n      JUMPDEST \t\t\tfunction setReserveWallet(addr...\n      PUSH [tag] 216\t\t\t=============\n      PUSH [tag] 115\t\t\t===========\n      JUMP \t\t\t=============\n    tag 216\t\t\t=============\n      JUMPDEST \t\t\t=============\n      PUSH 0\t\t\t0\n      PUSH FFFFFFFFFFFFFFFFFFFFFFFFFFFFFFFFFFFFFFFF\t\t\t_wallet != address(0)\n      AND \t\t\t_wallet != address(0)\n      DUP2 \t\t\t_wallet\n      PUSH FFFFFFFFFFFFFFFFFFFFFFFFFFFFFFFFFFFFFFFF\t\t\t_wallet != address(0)\n      AND \t\t\t_wallet != address(0)\n      SUB \t\t\t_wallet != address(0)\n      PUSH [tag] 218\t\t\trequire(_wallet != address(0),...\n      JUMPI \t\t\trequire(_wallet != address(0),...\n      PUSH 40\t\t\trequire(_wallet != address(0),...\n      MLOAD \t\t\trequire(_wallet != address(0),...\n      PUSH 8C379A000000000000000000000000000000000000000000000000000000000\t\t\trequire(_wallet != address(0),...\n      DUP2 \t\t\trequire(_wallet != address(0),...\n      MSTORE \t\t\trequire(_wallet != address(0),...\n      PUSH 4\t\t\trequire(_wallet != address(0),...\n      ADD \t\t\trequire(_wallet != address(0),...\n      PUSH [tag] 219\t\t\trequire(_wallet != address(0),...\n      SWAP1 \t\t\trequire(_wallet != address(0),...\n      PUSH [tag] 220\t\t\trequire(_wallet != address(0),...\n      JUMP \t\t\trequire(_wallet != address(0),...\n    tag 219\t\t\trequire(_wallet != address(0),...\n      JUMPDEST \t\t\trequire(_wallet != address(0),...\n      PUSH 40\t\t\trequire(_wallet != address(0),...\n      MLOAD \t\t\trequire(_wallet != address(0),...\n      DUP1 \t\t\trequire(_wallet != address(0),...\n      SWAP2 \t\t\trequire(_wallet != address(0),...\n      SUB \t\t\trequire(_wallet != address(0),...\n      SWAP1 \t\t\trequire(_wallet != address(0),...\n      REVERT \t\t\trequire(_wallet != address(0),...\n    tag 218\t\t\trequire(_wallet != address(0),...\n      JUMPDEST \t\t\trequire(_wallet != address(0),...\n      DUP1 \t\t\t_wallet\n      PUSH 8\t\t\treserveWallet\n      PUSH 0\t\t\treserveWallet\n      PUSH 100\t\t\treserveWallet = _wallet\n      EXP \t\t\treserveWallet = _wallet\n      DUP2 \t\t\treserveWallet = _wallet\n      SLOAD \t\t\treserveWallet = _wallet\n      DUP2 \t\t\treserveWallet = _wallet\n      PUSH FFFFFFFFFFFFFFFFFFFFFFFFFFFFFFFFFFFFFFFF\t\t\treserveWallet = _wallet\n      MUL \t\t\treserveWallet = _wallet\n      NOT \t\t\treserveWallet = _wallet\n      AND \t\t\treserveWallet = _wallet\n      SWAP1 \t\t\treserveWallet = _wallet\n      DUP4 \t\t\treserveWallet = _wallet\n      PUSH FFFFFFFFFFFFFFFFFFFFFFFFFFFFFFFFFFFFFFFF\t\t\treserveWallet = _wallet\n      AND \t\t\treserveWallet = _wallet\n      MUL \t\t\treserveWallet = _wallet\n      OR \t\t\treserveWallet = _wallet\n      SWAP1 \t\t\treserveWallet = _wallet\n      SSTORE \t\t\treserveWallet = _wallet\n      POP \t\t\treserveWallet = _wallet\n      PUSH B6682970C3624FF1F1130C7910F4F5A7619C2356DC365283EB44E7806DC1A86F\t\t\tReserveWalletUpdated(_wallet)\n      DUP2 \t\t\t_wallet\n      PUSH 40\t\t\tReserveWalletUpdated(_wallet)\n      MLOAD \t\t\tReserveWalletUpdated(_wallet)\n      PUSH [tag] 221\t\t\tReserveWalletUpdated(_wallet)\n      SWAP2 \t\t\tReserveWalletUpdated(_wallet)\n      SWAP1 \t\t\tReserveWalletUpdated(_wallet)\n      PUSH [tag] 84\t\t\tReserveWalletUpdated(_wallet)\n      JUMP \t\t\tReserveWalletUpdated(_wallet)\n    tag 221\t\t\tReserveWalletUpdated(_wallet)\n      JUMPDEST \t\t\tReserveWalletUpdated(_wallet)\n      PUSH 40\t\t\tReserveWalletUpdated(_wallet)\n      MLOAD \t\t\tReserveWalletUpdated(_wallet)\n      DUP1 \t\t\tReserveWalletUpdated(_wallet)\n      SWAP2 \t\t\tReserveWalletUpdated(_wallet)\n      SUB \t\t\tReserveWalletUpdated(_wallet)\n      SWAP1 \t\t\tReserveWalletUpdated(_wallet)\n      LOG1 \t\t\tReserveWalletUpdated(_wallet)\n      POP \t\t\tfunction setReserveWallet(addr...\n      JUMP \t\t\tfunction setReserveWallet(addr...\n    tag 112\t\t\tush(Certificate(\\n            ...\n      JUMPDEST \t\t\tush(Certificate(\\n            ...\n      PUSH [tag] 223\t\t\t=============\n      PUSH [tag] 115\t\t\t===========\n      JUMP \t\t\t=============\n    tag 223\t\t\t=============\n      JUMPDEST \t\t\t=============\n      PUSH 0\t\t\tb\n      PUSH FFFFFFFFFFFFFFFFFFFFFFFFFFFFFFFFFFFFFFFF\t\t\tline/\",\\n            bl\n      AND \t\t\tline/\",\\n            bl\n      DUP2 \t\t\tline/\",\\n\n      PUSH FFFFFFFFFFFFFFFFFFFFFFFFFFFFFFFFFFFFFFFF\t\t\tline/\",\\n            bl\n      AND \t\t\tline/\",\\n            bl\n      SUB \t\t\tline/\",\\n            bl\n      PUSH [tag] 225\t\t\tc.online/\",\\n            block...\n      JUMPI \t\t\tc.online/\",\\n            block...\n      PUSH 0\t\t\ta\n      PUSH 40\t\t\t    \"Official project whitepap...\n      MLOAD \t\t\t    \"Official project whitepap...\n      PUSH 1E4FBDF700000000000000000000000000000000000000000000000000000000\t\t\t    \"Official project whitepap...\n      DUP2 \t\t\t    \"Official project whitepap...\n      MSTORE \t\t\t    \"Official project whitepap...\n      PUSH 4\t\t\t    \"Official project whitepap...\n      ADD \t\t\t    \"Official project whitepap...\n      PUSH [tag] 226\t\t\t    \"Official project whitepap...\n      SWAP2 \t\t\t    \"Official project whitepap...\n      SWAP1 \t\t\t    \"Official project whitepap...\n      PUSH [tag] 84\t\t\t    \"Official project whitepap...\n      JUMP \t\t\t    \"Official project whitepap...\n    tag 226\t\t\t    \"Official project whitepap...\n      JUMPDEST \t\t\t    \"Official project whitepap...\n      PUSH 40\t\t\t    \"Official project whitepap...\n      MLOAD \t\t\t    \"Official project whitepap...\n      DUP1 \t\t\t    \"Official project whitepap...\n      SWAP2 \t\t\t    \"Official project whitepap...\n      SUB \t\t\t    \"Official project whitepap...\n      SWAP1 \t\t\t    \"Official project whitepap...\n      REVERT \t\t\t    \"Official project whitepap...\n    tag 225\t\t\tc.online/\",\\n            block...\n      JUMPDEST \t\t\tc.online/\",\\n            block...\n      PUSH [tag] 227\t\t\t\\n\\n    // ===================\n      DUP2 \t\t\t========\n      PUSH [tag] 191\t\t\t\\n\\n    // =========\n      JUMP \t\t\t\\n\\n    // ===================\n    tag 227\t\t\t\\n\\n    // ===================\n      JUMPDEST \t\t\t\\n\\n    // ===================\n      POP \t\t\tush(Certificate(\\n            ...\n      JUMP \t\t\tush(Certificate(\\n            ...\n    tag 115\t\t\tvalid owner\");\\n        requir...\n      JUMPDEST \t\t\tvalid owner\");\\n        requir...\n      PUSH [tag] 229\t\t\treserve\");\\n\\n\n      PUSH [tag] 128\t\t\treserve\");\n      JUMP \t\t\treserve\");\\n\\n\n    tag 229\t\t\treserve\");\\n\\n\n      JUMPDEST \t\t\treserve\");\\n\\n\n      PUSH FFFFFFFFFFFFFFFFFFFFFFFFFFFFFFFFFFFFFFFF\t\t\t, \"Invalid reserve\");\\n\\n\n      AND \t\t\t, \"Invalid reserve\");\\n\\n\n      PUSH [tag] 230\t\t\t, \"Inva\n      PUSH [tag] 82\t\t\t, \"In\n      JUMP \t\t\t, \"Inva\n    tag 230\t\t\t, \"Inva\n      JUMPDEST \t\t\t, \"Inva\n      PUSH FFFFFFFFFFFFFFFFFFFFFFFFFFFFFFFFFFFFFFFF\t\t\t, \"Invalid reserve\");\\n\\n\n      AND \t\t\t, \"Invalid reserve\");\\n\\n\n      EQ \t\t\t, \"Invalid reserve\");\\n\\n\n      PUSH [tag] 231\t\t\ts(0), \"Invalid reserve\");\\n\\n ...\n      JUMPI \t\t\ts(0), \"Invalid reserve\");\\n\\n ...\n      PUSH [tag] 232\t\t\tt = _reserve\n      PUSH [tag] 128\t\t\tt = _reser\n      JUMP \t\t\tt = _reserve\n    tag 232\t\t\tt = _reserve\n      JUMPDEST \t\t\tt = _reserve\n      PUSH 40\t\t\tgeURI;\\n        reserveWallet ...\n      MLOAD \t\t\tgeURI;\\n        reserveWallet ...\n      PUSH 118CDAA700000000000000000000000000000000000000000000000000000000\t\t\tgeURI;\\n        reserveWallet ...\n      DUP2 \t\t\tgeURI;\\n        reserveWallet ...\n      MSTORE \t\t\tgeURI;\\n        reserveWallet ...\n      PUSH 4\t\t\tgeURI;\\n        reserveWallet ...\n      ADD \t\t\tgeURI;\\n        reserveWallet ...\n      PUSH [tag] 233\t\t\tgeURI;\\n        reserveWallet ...\n      SWAP2 \t\t\tgeURI;\\n        reserveWallet ...\n      SWAP1 \t\t\tgeURI;\\n        reserveWallet ...\n      PUSH [tag] 84\t\t\tgeURI;\\n        reserveWallet ...\n      JUMP \t\t\tgeURI;\\n        reserveWallet ...\n    tag 233\t\t\tgeURI;\\n        reserveWallet ...\n      JUMPDEST \t\t\tgeURI;\\n        reserveWallet ...\n      PUSH 40\t\t\tgeURI;\\n        reserveWallet ...\n      MLOAD \t\t\tgeURI;\\n        reserveWallet ...\n      DUP1 \t\t\tgeURI;\\n        reserveWallet ...\n      SWAP2 \t\t\tgeURI;\\n        reserveWallet ...\n      SUB \t\t\tgeURI;\\n        reserveWallet ...\n      SWAP1 \t\t\tgeURI;\\n        reserveWallet ...\n      REVERT \t\t\tgeURI;\\n        reserveWallet ...\n    tag 231\t\t\ts(0), \"Invalid reserve\");\\n\\n ...\n      JUMPDEST \t\t\ts(0), \"Invalid reserve\");\\n\\n ...\n      JUMP \t\t\tvalid owner\");\\n        requir...\n    tag 128\t\t\t to represent environmental va...\n      JUMPDEST \t\t\t to represent environmental va...\n      PUSH 0\t\t\tn of ca\n      CALLER \t\t\t, supporte\n      SWAP1 \t\t\t assets, supporte\n      POP \t\t\t assets, supporte\n      SWAP1 \t\t\t to represent environmental va...\n      JUMP \t\t\t to represent environmental va...\n    tag 130\t\t\t\n      JUMPDEST \t\t\t\n      PUSH [tag] 236\t\t\t\n      DUP4 \t\t\t\n      DUP4 \t\t\t\n      DUP4 \t\t\t\n      PUSH 1\t\t\t\n      PUSH [tag] 237\t\t\t\n      JUMP \t\t\t\n    tag 236\t\t\t\n      JUMPDEST \t\t\t\n      POP \t\t\t\n      POP \t\t\t\n      POP \t\t\t\n      JUMP \t\t\t\n    tag 145\t\t\t\n      JUMPDEST \t\t\t\n      PUSH 0\t\t\t\n      PUSH [tag] 239\t\t\t\n      DUP5 \t\t\t\n      DUP5 \t\t\t\n      PUSH [tag] 105\t\t\t\n      JUMP \t\t\t\n    tag 239\t\t\t\n      JUMPDEST \t\t\t\n      SWAP1 \t\t\t\n      POP \t\t\t\n      PUSH FFFFFFFFFFFFFFFFFFFFFFFFFFFFFFFFFFFFFFFFFFFFFFFFFFFFFFFFFFFFFFFF\t\t\t\n      DUP2 \t\t\t\n      LT \t\t\t\n      ISZERO \t\t\t\n      PUSH [tag] 240\t\t\t\n      JUMPI \t\t\t\n      DUP2 \t\t\t\n      DUP2 \t\t\t\n      LT \t\t\t\n      ISZERO \t\t\t\n      PUSH [tag] 241\t\t\t\n      JUMPI \t\t\t\n      DUP3 \t\t\t\n      DUP2 \t\t\t\n      DUP4 \t\t\t\n      PUSH 40\t\t\t\n      MLOAD \t\t\t\n      PUSH FB8F41B200000000000000000000000000000000000000000000000000000000\t\t\t\n      DUP2 \t\t\t\n      MSTORE \t\t\t\n      PUSH 4\t\t\t\n      ADD \t\t\t\n      PUSH [tag] 242\t\t\t\n      SWAP4 \t\t\t\n      SWAP3 \t\t\t\n      SWAP2 \t\t\t\n      SWAP1 \t\t\t\n      PUSH [tag] 243\t\t\t\n      JUMP \t\t\t\n    tag 242\t\t\t\n      JUMPDEST \t\t\t\n      PUSH 40\t\t\t\n      MLOAD \t\t\t\n      DUP1 \t\t\t\n      SWAP2 \t\t\t\n      SUB \t\t\t\n      SWAP1 \t\t\t\n      REVERT \t\t\t\n    tag 241\t\t\t\n      JUMPDEST \t\t\t\n      PUSH [tag] 244\t\t\t\n      DUP5 \t\t\t\n      DUP5 \t\t\t\n      DUP5 \t\t\t\n      DUP5 \t\t\t\n      SUB \t\t\t\n      PUSH 0\t\t\t\n      PUSH [tag] 237\t\t\t\n      JUMP \t\t\t\n    tag 244\t\t\t\n      JUMPDEST \t\t\t\n    tag 240\t\t\t\n      JUMPDEST \t\t\t\n      POP \t\t\t\n      POP \t\t\t\n      POP \t\t\t\n      POP \t\t\t\n      JUMP \t\t\t\n    tag 147\t\t\t\n      JUMPDEST \t\t\t\n      PUSH 0\t\t\t\n      PUSH FFFFFFFFFFFFFFFFFFFFFFFFFFFFFFFFFFFFFFFF\t\t\t\n      AND \t\t\t\n      DUP4 \t\t\t\n      PUSH FFFFFFFFFFFFFFFFFFFFFFFFFFFFFFFFFFFFFFFF\t\t\t\n      AND \t\t\t\n      SUB \t\t\t\n      PUSH [tag] 246\t\t\t\n      JUMPI \t\t\t\n      PUSH 0\t\t\t\n      PUSH 40\t\t\t\n      MLOAD \t\t\t\n      PUSH 96C6FD1E00000000000000000000000000000000000000000000000000000000\t\t\t\n      DUP2 \t\t\t\n      MSTORE \t\t\t\n      PUSH 4\t\t\t\n      ADD \t\t\t\n      PUSH [tag] 247\t\t\t\n      SWAP2 \t\t\t\n      SWAP1 \t\t\t\n      PUSH [tag] 84\t\t\t\n      JUMP \t\t\t\n    tag 247\t\t\t\n      JUMPDEST \t\t\t\n      PUSH 40\t\t\t\n      MLOAD \t\t\t\n      DUP1 \t\t\t\n      SWAP2 \t\t\t\n      SUB \t\t\t\n      SWAP1 \t\t\t\n      REVERT \t\t\t\n    tag 246\t\t\t\n      JUMPDEST \t\t\t\n      PUSH 0\t\t\t\n      PUSH FFFFFFFFFFFFFFFFFFFFFFFFFFFFFFFFFFFFFFFF\t\t\t\n      AND \t\t\t\n      DUP3 \t\t\t\n      PUSH FFFFFFFFFFFFFFFFFFFFFFFFFFFFFFFFFFFFFFFF\t\t\t\n      AND \t\t\t\n      SUB \t\t\t\n      PUSH [tag] 248\t\t\t\n      JUMPI \t\t\t\n      PUSH 0\t\t\t\n      PUSH 40\t\t\t\n      MLOAD \t\t\t\n      PUSH EC442F0500000000000000000000000000000000000000000000000000000000\t\t\t\n      DUP2 \t\t\t\n      MSTORE \t\t\t\n      PUSH 4\t\t\t\n      ADD \t\t\t\n      PUSH [tag] 249\t\t\t\n      SWAP2 \t\t\t\n      SWAP1 \t\t\t\n      PUSH [tag] 84\t\t\t\n      JUMP \t\t\t\n    tag 249\t\t\t\n      JUMPDEST \t\t\t\n      PUSH 40\t\t\t\n      MLOAD \t\t\t\n      DUP1 \t\t\t\n      SWAP2 \t\t\t\n      SUB \t\t\t\n      SWAP1 \t\t\t\n      REVERT \t\t\t\n    tag 248\t\t\t\n      JUMPDEST \t\t\t\n      PUSH [tag] 250\t\t\t\n      DUP4 \t\t\t\n      DUP4 \t\t\t\n      DUP4 \t\t\t\n      PUSH [tag] 251\t\t\t\n      JUMP \t\t\t\n    tag 250\t\t\t\n      JUMPDEST \t\t\t\n      POP \t\t\t\n      POP \t\t\t\n      POP \t\t\t\n      JUMP \t\t\t\n    tag 191\t\t\tdress(0), \"Invalid address\");\\...\n      JUMPDEST \t\t\tdress(0), \"Invalid address\");\\...\n      PUSH 0\t\t\tit ReserveWallet\n      PUSH 5\t\t\tated(_\n      PUSH 0\t\t\tated(_\n      SWAP1 \t\t\tated(_\n      SLOAD \t\t\tated(_\n      SWAP1 \t\t\tated(_\n      PUSH 100\t\t\tated(_\n      EXP \t\t\tated(_\n      SWAP1 \t\t\tated(_\n      DIV \t\t\tated(_\n      PUSH FFFFFFFFFFFFFFFFFFFFFFFFFFFFFFFFFFFFFFFF\t\t\tated(_\n      AND \t\t\tated(_\n      SWAP1 \t\t\tit ReserveWalletUpdated(_\n      POP \t\t\tit ReserveWalletUpdated(_\n      DUP2 \t\t\t functio\n      PUSH 5\t\t\t   }\\n\\n\n      PUSH 0\t\t\t   }\\n\\n\n      PUSH 100\t\t\t   }\\n\\n    functio\n      EXP \t\t\t   }\\n\\n    functio\n      DUP2 \t\t\t   }\\n\\n    functio\n      SLOAD \t\t\t   }\\n\\n    functio\n      DUP2 \t\t\t   }\\n\\n    functio\n      PUSH FFFFFFFFFFFFFFFFFFFFFFFFFFFFFFFFFFFFFFFF\t\t\t   }\\n\\n    functio\n      MUL \t\t\t   }\\n\\n    functio\n      NOT \t\t\t   }\\n\\n    functio\n      AND \t\t\t   }\\n\\n    functio\n      SWAP1 \t\t\t   }\\n\\n    functio\n      DUP4 \t\t\t   }\\n\\n    functio\n      PUSH FFFFFFFFFFFFFFFFFFFFFFFFFFFFFFFFFFFFFFFF\t\t\t   }\\n\\n    functio\n      AND \t\t\t   }\\n\\n    functio\n      MUL \t\t\t   }\\n\\n    functio\n      OR \t\t\t   }\\n\\n    functio\n      SWAP1 \t\t\t   }\\n\\n    functio\n      SSTORE \t\t\t   }\\n\\n    functio\n      POP \t\t\t   }\\n\\n    functio\n      DUP2 \t\t\tyOwner {\n      PUSH FFFFFFFFFFFFFFFFFFFFFFFFFFFFFFFFFFFFFFFF\t\t\ttring memory _uri) external on...\n      AND \t\t\ttring memory _uri) external on...\n      DUP2 \t\t\tternal o\n      PUSH FFFFFFFFFFFFFFFFFFFFFFFFFFFFFFFFFFFFFFFF\t\t\ttring memory _uri) external on...\n      AND \t\t\ttring memory _uri) external on...\n      PUSH 8BE0079C531659141344CD1FD0A4F28419497F9722A3DAAFE3B4186F6B6457E0\t\t\ttring memory _uri) external on...\n      PUSH 40\t\t\ttring memory _uri) external on...\n      MLOAD \t\t\ttring memory _uri) external on...\n      PUSH 40\t\t\ttring memory _uri) external on...\n      MLOAD \t\t\ttring memory _uri) external on...\n      DUP1 \t\t\ttring memory _uri) external on...\n      SWAP2 \t\t\ttring memory _uri) external on...\n      SUB \t\t\ttring memory _uri) external on...\n      SWAP1 \t\t\ttring memory _uri) external on...\n      LOG3 \t\t\ttring memory _uri) external on...\n      POP \t\t\t        emit ReserveWalletUpda...\n      POP \t\t\tdress(0), \"Invalid address\");\\...\n      JUMP \t\t\tdress(0), \"Invalid address\");\\...\n    tag 237\t\t\t\n      JUMPDEST \t\t\t\n      PUSH 0\t\t\t\n      PUSH FFFFFFFFFFFFFFFFFFFFFFFFFFFFFFFFFFFFFFFF\t\t\t\n      AND \t\t\t\n      DUP5 \t\t\t\n      PUSH FFFFFFFFFFFFFFFFFFFFFFFFFFFFFFFFFFFFFFFF\t\t\t\n      AND \t\t\t\n      SUB \t\t\t\n      PUSH [tag] 254\t\t\t\n      JUMPI \t\t\t\n      PUSH 0\t\t\t\n      PUSH 40\t\t\t\n      MLOAD \t\t\t\n      PUSH E602DF0500000000000000000000000000000000000000000000000000000000\t\t\t\n      DUP2 \t\t\t\n      MSTORE \t\t\t\n      PUSH 4\t\t\t\n      ADD \t\t\t\n      PUSH [tag] 255\t\t\t\n      SWAP2 \t\t\t\n      SWAP1 \t\t\t\n      PUSH [tag] 84\t\t\t\n      JUMP \t\t\t\n    tag 255\t\t\t\n      JUMPDEST \t\t\t\n      PUSH 40\t\t\t\n      MLOAD \t\t\t\n      DUP1 \t\t\t\n      SWAP2 \t\t\t\n      SUB \t\t\t\n      SWAP1 \t\t\t\n      REVERT \t\t\t\n    tag 254\t\t\t\n      JUMPDEST \t\t\t\n      PUSH 0\t\t\t\n      PUSH FFFFFFFFFFFFFFFFFFFFFFFFFFFFFFFFFFFFFFFF\t\t\t\n      AND \t\t\t\n      DUP4 \t\t\t\n      PUSH FFFFFFFFFFFFFFFFFFFFFFFFFFFFFFFFFFFFFFFF\t\t\t\n      AND \t\t\t\n      SUB \t\t\t\n      PUSH [tag] 256\t\t\t\n      JUMPI \t\t\t\n      PUSH 0\t\t\t\n      PUSH 40\t\t\t\n      MLOAD \t\t\t\n      PUSH 94280D6200000000000000000000000000000000000000000000000000000000\t\t\t\n      DUP2 \t\t\t\n      MSTORE \t\t\t\n      PUSH 4\t\t\t\n      ADD \t\t\t\n      PUSH [tag] 257\t\t\t\n      SWAP2 \t\t\t\n      SWAP1 \t\t\t\n      PUSH [tag] 84\t\t\t\n      JUMP \t\t\t\n    tag 257\t\t\t\n      JUMPDEST \t\t\t\n      PUSH 40\t\t\t\n      MLOAD \t\t\t\n      DUP1 \t\t\t\n      SWAP2 \t\t\t\n      SUB \t\t\t\n      SWAP1 \t\t\t\n      REVERT \t\t\t\n    tag 256\t\t\t\n      JUMPDEST \t\t\t\n      DUP2 \t\t\t\n      PUSH 1\t\t\t\n      PUSH 0\t\t\t\n      DUP7 \t\t\t\n      PUSH FFFFFFFFFFFFFFFFFFFFFFFFFFFFFFFFFFFFFFFF\t\t\t\n      AND \t\t\t\n      PUSH FFFFFFFFFFFFFFFFFFFFFFFFFFFFFFFFFFFFFFFF\t\t\t\n      AND \t\t\t\n      DUP2 \t\t\t\n      MSTORE \t\t\t\n      PUSH 20\t\t\t\n      ADD \t\t\t\n      SWAP1 \t\t\t\n      DUP2 \t\t\t\n      MSTORE \t\t\t\n      PUSH 20\t\t\t\n      ADD \t\t\t\n      PUSH 0\t\t\t\n      KECCAK256 \t\t\t\n      PUSH 0\t\t\t\n      DUP6 \t\t\t\n      PUSH FFFFFFFFFFFFFFFFFFFFFFFFFFFFFFFFFFFFFFFF\t\t\t\n      AND \t\t\t\n      PUSH FFFFFFFFFFFFFFFFFFFFFFFFFFFFFFFFFFFFFFFF\t\t\t\n      AND \t\t\t\n      DUP2 \t\t\t\n      MSTORE \t\t\t\n      PUSH 20\t\t\t\n      ADD \t\t\t\n      SWAP1 \t\t\t\n      DUP2 \t\t\t\n      MSTORE \t\t\t\n      PUSH 20\t\t\t\n      ADD \t\t\t\n      PUSH 0\t\t\t\n      KECCAK256 \t\t\t\n      DUP2 \t\t\t\n      SWAP1 \t\t\t\n      SSTORE \t\t\t\n      POP \t\t\t\n      DUP1 \t\t\t\n      ISZERO \t\t\t\n      PUSH [tag] 258\t\t\t\n      JUMPI \t\t\t\n      DUP3 \t\t\t\n      PUSH FFFFFFFFFFFFFFFFFFFFFFFFFFFFFFFFFFFFFFFF\t\t\t\n      AND \t\t\t\n      DUP5 \t\t\t\n      PUSH FFFFFFFFFFFFFFFFFFFFFFFFFFFFFFFFFFFFFFFF\t\t\t\n      AND \t\t\t\n      PUSH 8C5BE1E5EBEC7D5BD14F71427D1E84F3DD0314C0F7B2291E5B200AC8C7C3B925\t\t\t\n      DUP5 \t\t\t\n      PUSH 40\t\t\t\n      MLOAD \t\t\t\n      PUSH [tag] 259\t\t\t\n      SWAP2 \t\t\t\n      SWAP1 \t\t\t\n      PUSH [tag] 48\t\t\t\n      JUMP \t\t\t\n    tag 259\t\t\t\n      JUMPDEST \t\t\t\n      PUSH 40\t\t\t\n      MLOAD \t\t\t\n      DUP1 \t\t\t\n      SWAP2 \t\t\t\n      SUB \t\t\t\n      SWAP1 \t\t\t\n      LOG3 \t\t\t\n    tag 258\t\t\t\n      JUMPDEST \t\t\t\n      POP \t\t\t\n      POP \t\t\t\n      POP \t\t\t\n      POP \t\t\t\n      JUMP \t\t\t\n    tag 251\t\t\t\n      JUMPDEST \t\t\t\n      PUSH 0\t\t\t\n      PUSH FFFFFFFFFFFFFFFFFFFFFFFFFFFFFFFFFFFFFFFF\t\t\t\n      AND \t\t\t\n      DUP4 \t\t\t\n      PUSH FFFFFFFFFFFFFFFFFFFFFFFFFFFFFFFFFFFFFFFF\t\t\t\n      AND \t\t\t\n      SUB \t\t\t\n      PUSH [tag] 261\t\t\t\n      JUMPI \t\t\t\n      DUP1 \t\t\t\n      PUSH 2\t\t\t\n      PUSH 0\t\t\t\n      DUP3 \t\t\t\n      DUP3 \t\t\t\n      SLOAD \t\t\t\n      PUSH [tag] 262\t\t\t\n      SWAP2 \t\t\t\n      SWAP1 \t\t\t\n      PUSH [tag] 263\t\t\t\n      JUMP \t\t\t\n    tag 262\t\t\t\n      JUMPDEST \t\t\t\n      SWAP3 \t\t\t\n      POP \t\t\t\n      POP \t\t\t\n      DUP2 \t\t\t\n      SWAP1 \t\t\t\n      SSTORE \t\t\t\n      POP \t\t\t\n      PUSH [tag] 264\t\t\t\n      JUMP \t\t\t\n    tag 261\t\t\t\n      JUMPDEST \t\t\t\n      PUSH 0\t\t\t\n      DUP1 \t\t\t\n      PUSH 0\t\t\t\n      DUP6 \t\t\t\n      PUSH FFFFFFFFFFFFFFFFFFFFFFFFFFFFFFFFFFFFFFFF\t\t\t\n      AND \t\t\t\n      PUSH FFFFFFFFFFFFFFFFFFFFFFFFFFFFFFFFFFFFFFFF\t\t\t\n      AND \t\t\t\n      DUP2 \t\t\t\n      MSTORE \t\t\t\n      PUSH 20\t\t\t\n      ADD \t\t\t\n      SWAP1 \t\t\t\n      DUP2 \t\t\t\n      MSTORE \t\t\t\n      PUSH 20\t\t\t\n      ADD \t\t\t\n      PUSH 0\t\t\t\n      KECCAK256 \t\t\t\n      SLOAD \t\t\t\n      SWAP1 \t\t\t\n      POP \t\t\t\n      DUP2 \t\t\t\n      DUP2 \t\t\t\n      LT \t\t\t\n      ISZERO \t\t\t\n      PUSH [tag] 265\t\t\t\n      JUMPI \t\t\t\n      DUP4 \t\t\t\n      DUP2 \t\t\t\n      DUP4 \t\t\t\n      PUSH 40\t\t\t\n      MLOAD \t\t\t\n      PUSH E450D38C00000000000000000000000000000000000000000000000000000000\t\t\t\n      DUP2 \t\t\t\n      MSTORE \t\t\t\n      PUSH 4\t\t\t\n      ADD \t\t\t\n      PUSH [tag] 266\t\t\t\n      SWAP4 \t\t\t\n      SWAP3 \t\t\t\n      SWAP2 \t\t\t\n      SWAP1 \t\t\t\n      PUSH [tag] 243\t\t\t\n      JUMP \t\t\t\n    tag 266\t\t\t\n      JUMPDEST \t\t\t\n      PUSH 40\t\t\t\n      MLOAD \t\t\t\n      DUP1 \t\t\t\n      SWAP2 \t\t\t\n      SUB \t\t\t\n      SWAP1 \t\t\t\n      REVERT \t\t\t\n    tag 265\t\t\t\n      JUMPDEST \t\t\t\n      DUP2 \t\t\t\n      DUP2 \t\t\t\n      SUB \t\t\t\n      PUSH 0\t\t\t\n      DUP1 \t\t\t\n      DUP7 \t\t\t\n      PUSH FFFFFFFFFFFFFFFFFFFFFFFFFFFFFFFFFFFFFFFF\t\t\t\n      AND \t\t\t\n      PUSH FFFFFFFFFFFFFFFFFFFFFFFFFFFFFFFFFFFFFFFF\t\t\t\n      AND \t\t\t\n      DUP2 \t\t\t\n      MSTORE \t\t\t\n      PUSH 20\t\t\t\n      ADD \t\t\t\n      SWAP1 \t\t\t\n      DUP2 \t\t\t\n      MSTORE \t\t\t\n      PUSH 20\t\t\t\n      ADD \t\t\t\n      PUSH 0\t\t\t\n      KECCAK256 \t\t\t\n      DUP2 \t\t\t\n      SWAP1 \t\t\t\n      SSTORE \t\t\t\n      POP \t\t\t\n      POP \t\t\t\n    tag 264\t\t\t\n      JUMPDEST \t\t\t\n      PUSH 0\t\t\t\n      PUSH FFFFFFFFFFFFFFFFFFFFFFFFFFFFFFFFFFFFFFFF\t\t\t\n      AND \t\t\t\n      DUP3 \t\t\t\n      PUSH FFFFFFFFFFFFFFFFFFFFFFFFFFFFFFFFFFFFFFFF\t\t\t\n      AND \t\t\t\n      SUB \t\t\t\n      PUSH [tag] 267\t\t\t\n      JUMPI \t\t\t\n      DUP1 \t\t\t\n      PUSH 2\t\t\t\n      PUSH 0\t\t\t\n      DUP3 \t\t\t\n      DUP3 \t\t\t\n      SLOAD \t\t\t\n      SUB \t\t\t\n      SWAP3 \t\t\t\n      POP \t\t\t\n      POP \t\t\t\n      DUP2 \t\t\t\n      SWAP1 \t\t\t\n      SSTORE \t\t\t\n      POP \t\t\t\n      PUSH [tag] 268\t\t\t\n      JUMP \t\t\t\n    tag 267\t\t\t\n      JUMPDEST \t\t\t\n      DUP1 \t\t\t\n      PUSH 0\t\t\t\n      DUP1 \t\t\t\n      DUP5 \t\t\t\n      PUSH FFFFFFFFFFFFFFFFFFFFFFFFFFFFFFFFFFFFFFFF\t\t\t\n      AND \t\t\t\n      PUSH FFFFFFFFFFFFFFFFFFFFFFFFFFFFFFFFFFFFFFFF\t\t\t\n      AND \t\t\t\n      DUP2 \t\t\t\n      MSTORE \t\t\t\n      PUSH 20\t\t\t\n      ADD \t\t\t\n      SWAP1 \t\t\t\n      DUP2 \t\t\t\n      MSTORE \t\t\t\n      PUSH 20\t\t\t\n      ADD \t\t\t\n      PUSH 0\t\t\t\n      KECCAK256 \t\t\t\n      PUSH 0\t\t\t\n      DUP3 \t\t\t\n      DUP3 \t\t\t\n      SLOAD \t\t\t\n      ADD \t\t\t\n      SWAP3 \t\t\t\n      POP \t\t\t\n      POP \t\t\t\n      DUP2 \t\t\t\n      SWAP1 \t\t\t\n      SSTORE \t\t\t\n      POP \t\t\t\n    tag 268\t\t\t\n      JUMPDEST \t\t\t\n      DUP2 \t\t\t\n      PUSH FFFFFFFFFFFFFFFFFFFFFFFFFFFFFFFFFFFFFFFF\t\t\t\n      AND \t\t\t\n      DUP4 \t\t\t\n      PUSH FFFFFFFFFFFFFFFFFFFFFFFFFFFFFFFFFFFFFFFF\t\t\t\n      AND \t\t\t\n      PUSH DDF252AD1BE2C89B69C2B068FC378DAA952BA7F163C4A11628F55A4DF523B3EF\t\t\t\n      DUP4 \t\t\t\n      PUSH 40\t\t\t\n      MLOAD \t\t\t\n      PUSH [tag] 269\t\t\t\n      SWAP2 \t\t\t\n      SWAP1 \t\t\t\n      PUSH [tag] 48\t\t\t\n      JUMP \t\t\t\n    tag 269\t\t\t\n      JUMPDEST \t\t\t\n      PUSH 40\t\t\t\n      MLOAD \t\t\t\n      DUP1 \t\t\t\n      SWAP2 \t\t\t\n      SUB \t\t\t\n      SWAP1 \t\t\t\n      LOG3 \t\t\t\n      POP \t\t\t\n      POP \t\t\t\n      POP \t\t\t\n      JUMP \t\t\t\n    tag 270\t\t\t-License-Identifier: MIT\\nprag...\n      JUMPDEST \t\t\t-License-Identifier: MIT\\nprag...\n      PUSH 0\t\t\tolidit\n      PUSH 40\t\t\tt \n      MLOAD \t\t\t Credit C\n      SWAP1 \t\t\t\\n/*\\nCarbon Credit C\n      POP \t\t\t\\n/*\\nCarbon Credit C\n      SWAP1 \t\t\t-License-Identifier: MIT\\nprag...\n      JUMP \t\t\t-License-Identifier: MIT\\nprag...\n    tag 271\t\t\tnstitutional ERC20 Token with ...\n      JUMPDEST \t\t\tnstitutional ERC20 Token with ...\n      PUSH 0\t\t\ti\n      DUP1 \t\t\t\"\n      REVERT \t\t\tC20.sol\";\\nim\n    tag 272\t\t\teppelin/contracts/access/Ownab...\n      JUMPDEST \t\t\teppelin/contracts/access/Ownab...\n      PUSH 0\t\t\t=\n      DUP1 \t\t\t=\n      REVERT \t\t\t============\n    tag 273\t\t\t  // TOKEN CONFIG\\n    // ====...\n      JUMPDEST \t\t\t  // TOKEN CONFIG\\n    // ====...\n      PUSH 0\t\t\t*\n      DUP1 \t\t\t \n      REVERT \t\t\t00000 * 10**\n    tag 274\t\t\t=========================\\n   ...\n      JUMPDEST \t\t\t=========================\\n   ...\n      PUSH 0\t\t\ts\n      DUP1 \t\t\t \n      REVERT \t\t\tURI;\\n\\n    st\n    tag 275\t\t\tprojectInfo =\\n        \"Carbon...\n      JUMPDEST \t\t\tprojectInfo =\\n        \"Carbon...\n      PUSH 0\t\t\ts (CCC\n      PUSH 1F\t\t\tvi\n      NOT \t\t\tt envir\n      PUSH 1F\t\t\tre\n      DUP4 \t\t\t to r\n      ADD \t\t\tgned to repres\n      AND \t\t\tdesigned to represent enviro\n      SWAP1 \t\t\ttal asset designed to represen...\n      POP \t\t\ttal asset designed to represen...\n      SWAP2 \t\t\tprojectInfo =\\n        \"Carbon...\n      SWAP1 \t\t\tprojectInfo =\\n        \"Carbon...\n      POP \t\t\tprojectInfo =\\n        \"Carbon...\n      JUMP \t\t\tprojectInfo =\\n        \"Carbon...\n    tag 276\t\t\te through tokenization of carb...\n      JUMPDEST \t\t\te through tokenization of carb...\n      PUSH 4E487B7100000000000000000000000000000000000000000000000000000000\t\t\t supported by documentation, a...\n      PUSH 0\t\t\tt\n      MSTORE \t\t\ted assets, supported by docume...\n      PUSH 41\t\t\t====\n      PUSH 4\t\t\t=\n      MSTORE \t\t\t==============\\n\n      PUSH 24\t\t\t// =\n      PUSH 0\t\t\t \n      REVERT \t\t\tSERVE\\n    // ==\n    tag 277\t\t\t===========\\n\\n    address pub...\n      JUMPDEST \t\t\t===========\\n\\n    address pub...\n      PUSH [tag] 328\t\t\t  // CERTIFICATES (IPFS / L\n      DUP3 \t\t\tS / \n      PUSH [tag] 275\t\t\t  // CERTIFICATES (IPFS / L\n      JUMP \t\t\t  // CERTIFICATES (IPFS / L\n    tag 328\t\t\t  // CERTIFICATES (IPFS / L\n      JUMPDEST \t\t\t  // CERTIFICATES (IPFS / L\n      DUP2 \t\t\t=====\\n\n      ADD \t\t\t=========\\n    // CERTIFICATES...\n      DUP2 \t\t\tnk;\\n  \n      DUP2 \t\t\t   string \n      LT \t\t\t      string link;\\n   \n      PUSH FFFFFFFFFFFFFFFF\t\t\t      string name;\n      DUP3 \t\t\tificate {\\n\n      GT \t\t\tertificate {\\n        string n...\n      OR \t\t\tt Certificate {\\n        strin...\n      ISZERO \t\t\truct Certificate {\\n        st...\n      PUSH [tag] 329\t\t\truct Certificate {\\n        st...\n      JUMPI \t\t\truct Certificate {\\n        st...\n      PUSH [tag] 330\t\t\t uint256 timestamp\n      PUSH [tag] 276\t\t\t uint256 timestamp\n      JUMP \t\t\t uint256 timestamp\n    tag 330\t\t\t uint256 timestamp\n      JUMPDEST \t\t\t uint256 timestamp\n    tag 329\t\t\truct Certificate {\\n        st...\n      JUMPDEST \t\t\truct Certificate {\\n        st...\n      DUP1 \t\t\tiption;\\n  \n      PUSH 40\t\t\tes\n      MSTORE \t\t\ttring description;\\n   \n      POP \t\t\tet;\\n\\n    // ================...\n      POP \t\t\t===========\\n\\n    address pub...\n      POP \t\t\t===========\\n\\n    address pub...\n      JUMP \t\t\t===========\\n\\n    address pub...\n    tag 278\t\t\tificate[] public certificates;...\n      JUMPDEST \t\t\tificate[] public certificates;...\n      PUSH 0\t\t\t  // =\n      PUSH [tag] 332\t\t\t===\\n    // EVENTS\\n  \n      PUSH [tag] 270\t\t\t===\\n    // EVENTS\\n  \n      JUMP \t\t\t===\\n    // EVENTS\\n  \n    tag 332\t\t\t===\\n    // EVENTS\\n  \n      JUMPDEST \t\t\t===\\n    // EVENTS\\n  \n      SWAP1 \t\t\t=============\\n    // EVENTS\\n...\n      POP \t\t\t=============\\n    // EVENTS\\n...\n      PUSH [tag] 333\t\t\t=====================\\n\\n    e...\n      DUP3 \t\t\tvent\n      DUP3 \t\t\t=\\n\\n   \n      PUSH [tag] 277\t\t\t=====================\\n\\n    e...\n      JUMP \t\t\t=====================\\n\\n    e...\n    tag 333\t\t\t=====================\\n\\n    e...\n      JUMPDEST \t\t\t=====================\\n\\n    e...\n      SWAP2 \t\t\tificate[] public certificates;...\n      SWAP1 \t\t\tificate[] public certificates;...\n      POP \t\t\tificate[] public certificates;...\n      JUMP \t\t\tificate[] public certificates;...\n    tag 279\t\t\tdded(\\n        uint256 indexed...\n      JUMPDEST \t\t\tdded(\\n        uint256 indexed...\n      PUSH 0\t\t\t str\n      PUSH FFFFFFFFFFFFFFFF\t\t\twReserveWallet);\\n\\n\n      DUP3 \t\t\tdress \n      GT \t\t\t(address newReserveWallet);\\n\\...\n      ISZERO \t\t\tted(address newReserveWallet);...\n      PUSH [tag] 335\t\t\tted(address newReserveWallet);...\n      JUMPI \t\t\tted(address newReserveWallet);...\n      PUSH [tag] 336\t\t\t// ===============\n      PUSH [tag] 276\t\t\t// ===============\n      JUMP \t\t\t// ===============\n    tag 336\t\t\t// ===============\n      JUMPDEST \t\t\t// ===============\n    tag 335\t\t\tted(address newReserveWallet);...\n      JUMPDEST \t\t\tted(address newReserveWallet);...\n      PUSH [tag] 337\t\t\tNSTRUCTOR\\n    // ============\n      DUP3 \t\t\t======\n      PUSH [tag] 275\t\t\tNSTRUCTOR\\n    // ============\n      JUMP \t\t\tNSTRUCTOR\\n    // ============\n    tag 337\t\t\tNSTRUCTOR\\n    // ============\n      JUMPDEST \t\t\tNSTRUCTOR\\n    // ============\n      SWAP1 \t\t\t   // CONSTRUCTOR\\n    // ====...\n      POP \t\t\t   // CONSTRUCTOR\\n    // ====...\n      PUSH 20\t\t\talle\n      DUP2 \t\t\taste\n      ADD \t\t\tss masterWallet\n      SWAP1 \t\t\t   address masterWallet\n      POP \t\t\t   address masterWallet\n      SWAP2 \t\t\tdded(\\n        uint256 indexed...\n      SWAP1 \t\t\tdded(\\n        uint256 indexed...\n      POP \t\t\tdded(\\n        uint256 indexed...\n      JUMP \t\t\tdded(\\n        uint256 indexed...\n    tag 280\t\t\ting memory _imageURI,\\n       ...\n      JUMPDEST \t\t\ting memory _imageURI,\\n       ...\n      DUP3 \t\t\tCCC\")\\n\n      DUP2 \t\t\ts\",\n      DUP4 \t\t\t Co\n      CALLDATACOPY \t\t\tCarbon Credit Coins\", \"CCC\")\\n...\n      PUSH 0\t\t\t\\n\n      DUP4 \t\t\tet)\\n  \n      DUP4 \t\t\trWa\n      ADD \t\t\tasterWallet)\\n   \n      MSTORE \t\t\tnable(masterWallet)\\n    {\\n \n      POP \t\t\ting memory _imageURI,\\n       ...\n      POP \t\t\ting memory _imageURI,\\n       ...\n      POP \t\t\ting memory _imageURI,\\n       ...\n      JUMP \t\t\ting memory _imageURI,\\n       ...\n    tag 281\t\t\tre(masterWallet != address(0),...\n      JUMPDEST \t\t\tre(masterWallet != address(0),...\n      PUSH 0\t\t\tt != \n      PUSH [tag] 340\t\t\t reserve\");\\n\\n        imageUR...\n      PUSH [tag] 341\t\t\t     imageURI = _imageURI;\\n  ...\n      DUP5 \t\t\tWallet\n      PUSH [tag] 279\t\t\t     imageURI = _imageURI;\\n  ...\n      JUMP \t\t\t     imageURI = _imageURI;\\n  ...\n    tag 341\t\t\t     imageURI = _imageURI;\\n  ...\n      JUMPDEST \t\t\t     imageURI = _imageURI;\\n  ...\n      PUSH [tag] 278\t\t\t reserve\");\\n\\n        imageUR...\n      JUMP \t\t\t reserve\");\\n\\n        imageUR...\n    tag 340\t\t\t reserve\");\\n\\n        imageUR...\n      JUMPDEST \t\t\t reserve\");\\n\\n        imageUR...\n      SWAP1 \t\t\t \"Invalid reserve\");\\n\\n      ...\n      POP \t\t\t \"Invalid reserve\");\\n\\n      ...\n      DUP3 \t\t\t   _mi\n      DUP2 \t\t\t\\n\\n   \n      MSTORE \t\t\tWallet;\\n\\n        _min\n      PUSH 20\t\t\t    \n      DUP2 \t\t\tLY);\\n\n      ADD \t\t\tSUPPLY);\\n\\n      \n      DUP5 \t\t\t   \n      DUP5 \t\t\t======\n      DUP5 \t\t\t===\n      ADD \t\t\t===============\\n\n      GT \t\t\t==================\\n      \n      ISZERO \t\t\t=====================\\n       ...\n      PUSH [tag] 342\t\t\t=====================\\n       ...\n      JUMPI \t\t\t=====================\\n       ...\n      PUSH [tag] 343\t\t\t/ INITIAL DOCUMENTS\\n        /...\n      PUSH [tag] 274\t\t\t/ INITIAL DOCUMENTS\\n        /...\n      JUMP \t\t\t/ INITIAL DOCUMENTS\\n        /...\n    tag 343\t\t\t/ INITIAL DOCUMENTS\\n        /...\n      JUMPDEST \t\t\t/ INITIAL DOCUMENTS\\n        /...\n    tag 342\t\t\t=====================\\n       ...\n      JUMPDEST \t\t\t=====================\\n       ...\n      PUSH [tag] 344\t\t\ticate(\\n            \"Project D...\n      DUP5 \t\t\t      \n      DUP3 \t\t\t,\\n \n      DUP6 \t\t\ttio\n      PUSH [tag] 280\t\t\ticate(\\n            \"Project D...\n      JUMP \t\t\ticate(\\n            \"Project D...\n    tag 344\t\t\ticate(\\n            \"Project D...\n      JUMPDEST \t\t\ticate(\\n            \"Project D...\n      POP \t\t\tddress(0), \"Invalid reserve\");...\n      SWAP4 \t\t\tre(masterWallet != address(0),...\n      SWAP3 \t\t\tre(masterWallet != address(0),...\n      POP \t\t\tre(masterWallet != address(0),...\n      POP \t\t\tre(masterWallet != address(0),...\n      POP \t\t\tre(masterWallet != address(0),...\n      JUMP \t\t\tre(masterWallet != address(0),...\n    tag 282\t\t\tital/\",\\n            block.tim...\n      JUMPDEST \t\t\tital/\",\\n            block.tim...\n      PUSH 0\t\t\tnment\n      DUP3 \t\t\t   \n      PUSH 1F\t\t\t);\\n\\n\n      DUP4 \t\t\t      \n      ADD \t\t\tn\"\\n        ));\\n\\n \n      SLT \t\t\tation\"\\n        ));\\n\\n       \n      PUSH [tag] 346\t\t\tt documentation\"\\n        ));\\...\n      JUMPI \t\t\tt documentation\"\\n        ));\\...\n      PUSH [tag] 347\t\t\ttificates.push(Certificate(\\n ...\n      PUSH [tag] 273\t\t\ttificates.push(Certificate(\\n ...\n      JUMP \t\t\ttificates.push(Certificate(\\n ...\n    tag 347\t\t\ttificates.push(Certificate(\\n ...\n      JUMPDEST \t\t\ttificates.push(Certificate(\\n ...\n    tag 346\t\t\tt documentation\"\\n        ));\\...\n      JUMPDEST \t\t\tt documentation\"\\n        ));\\...\n      DUP2 \t\t\t      \n      CALLDATALOAD \t\t\tline/\",\\n            \n      PUSH [tag] 348\t\t\t           \"Audit reports and ...\n      DUP5 \t\t\tate\n      DUP3 \t\t\tcertif\n      PUSH 20\t\t\t    \n      DUP7 \t\t\t  ));\\n\n      ADD \t\t\t      ));\\n\\n      \n      PUSH [tag] 281\t\t\t           \"Audit reports and ...\n      JUMP \t\t\t           \"Audit reports and ...\n    tag 348\t\t\t           \"Audit reports and ...\n      JUMPDEST \t\t\t           \"Audit reports and ...\n      SWAP2 \t\t\testamp,\\n            \"Audit re...\n      POP \t\t\testamp,\\n            \"Audit re...\n      POP \t\t\tl and asset documentation\"\\n  ...\n      SWAP3 \t\t\tital/\",\\n            block.tim...\n      SWAP2 \t\t\tital/\",\\n            block.tim...\n      POP \t\t\tital/\",\\n            block.tim...\n      POP \t\t\tital/\",\\n            block.tim...\n      JUMP \t\t\tital/\",\\n            block.tim...\n    tag 30\t\t\ticate(\\n            \"Whitepape...\n      JUMPDEST \t\t\ticate(\\n            \"Whitepape...\n      PUSH 0\t\t\tcc.onl\n      PUSH 20\t\t\t  \n      DUP3 \t\t\tamp,\\n    \n      DUP5 \t\t\tck.time\n      SUB \t\t\t block.timestamp,\\n     \n      SLT \t\t\t     block.timestamp,\\n       ...\n      ISZERO \t\t\t        block.timestamp,\\n    ...\n      PUSH [tag] 350\t\t\t        block.timestamp,\\n    ...\n      JUMPI \t\t\t        block.timestamp,\\n    ...\n      PUSH [tag] 351\t\t\tOfficial project whitepaper\"\\n...\n      PUSH [tag] 271\t\t\tOfficial project whitepaper\"\\n...\n      JUMP \t\t\tOfficial project whitepaper\"\\n...\n    tag 351\t\t\tOfficial project whitepaper\"\\n...\n      JUMPDEST \t\t\tOfficial project whitepaper\"\\n...\n    tag 350\t\t\t        block.timestamp,\\n    ...\n      JUMPDEST \t\t\t        block.timestamp,\\n    ...\n      PUSH 0\t\t\to\n      DUP3 \t\t\t\\n    func\n      ADD \t\t\t===\\n\\n    function\n      CALLDATALOAD \t\t\t================\\n\\n    functi...\n      PUSH FFFFFFFFFFFFFFFF\t\t\tallet) external on\n      DUP2 \t\t\tdress \n      GT \t\t\t(address _wallet) external onl\n      ISZERO \t\t\tlet(address _wallet) external ...\n      PUSH [tag] 352\t\t\tlet(address _wallet) external ...\n      JUMPI \t\t\tlet(address _wallet) external ...\n      PUSH [tag] 353\t\t\tner {\\n        require(_wallet...\n      PUSH [tag] 272\t\t\tner {\\n        require(_wallet...\n      JUMP \t\t\tner {\\n        require(_wallet...\n    tag 353\t\t\tner {\\n        require(_wallet...\n      JUMPDEST \t\t\tner {\\n        require(_wallet...\n    tag 352\t\t\tlet(address _wallet) external ...\n      JUMPDEST \t\t\tlet(address _wallet) external ...\n      PUSH [tag] 354\t\t\t emit ReserveWalletUpdated(_wa...\n      DUP5 \t\t\tn setIm\n      DUP3 \t\t\t  func\n      DUP6 \t\t\t;\\n    }\\n\\n\n      ADD \t\t\tlet);\\n    }\\n\\n    funct\n      PUSH [tag] 282\t\t\t emit ReserveWalletUpdated(_wa...\n      JUMP \t\t\t emit ReserveWalletUpdated(_wa...\n    tag 354\t\t\t emit ReserveWalletUpdated(_wa...\n      JUMPDEST \t\t\t emit ReserveWalletUpdated(_wa...\n      SWAP2 \t\t\tt;\\n        emit ReserveWallet...\n      POP \t\t\tt;\\n        emit ReserveWallet...\n      POP \t\t\tIN FUNCTIONS\\n    // =========...\n      SWAP3 \t\t\ticate(\\n            \"Whitepape...\n      SWAP2 \t\t\ticate(\\n            \"Whitepape...\n      POP \t\t\ticate(\\n            \"Whitepape...\n      POP \t\t\ticate(\\n            \"Whitepape...\n      JUMP \t\t\ticate(\\n            \"Whitepape...\n    tag 283\t\t\ti) external onlyOwner {\\n     ...\n      JUMPDEST \t\t\ti) external onlyOwner {\\n     ...\n      PUSH 0\t\t\t }\\n\\n  \n      DUP2 \t\t\t     \n      MLOAD \t\t\tate(\\n       \n      SWAP1 \t\t\tddCertificate(\\n       \n      POP \t\t\tddCertificate(\\n       \n      SWAP2 \t\t\ti) external onlyOwner {\\n     ...\n      SWAP1 \t\t\ti) external onlyOwner {\\n     ...\n      POP \t\t\ti) external onlyOwner {\\n     ...\n      JUMP \t\t\ti) external onlyOwner {\\n     ...\n    tag 284\t\t\ty _name,\\n        string memor...\n      JUMPDEST \t\t\ty _name,\\n        string memor...\n      PUSH 0\t\t\tyOwner {\\n  \n      DUP3 \t\t\t(\\n    \n      DUP3 \t\t\t.pu\n      MSTORE \t\t\tficates.push(\\n     \n      PUSH 20\t\t\tbloc\n      DUP3 \t\t\tink\n      ADD \t\t\t, _link, block\n      SWAP1 \t\t\trtificate(_name, _link, block\n      POP \t\t\trtificate(_name, _link, block\n      SWAP3 \t\t\ty _name,\\n        string memor...\n      SWAP2 \t\t\ty _name,\\n        string memor...\n      POP \t\t\ty _name,\\n        string memor...\n      POP \t\t\ty _name,\\n        string memor...\n      JUMP \t\t\ty _name,\\n        string memor...\n    tag 285\t\t\t_desc)\\n        );\\n\\n        ...\n      JUMPDEST \t\t\t_desc)\\n        );\\n\\n        ...\n      PUSH 0\t\t\t \n    tag 358\t\t\t        _name,\\n            _l...\n      JUMPDEST \t\t\t        _name,\\n            _l...\n      DUP4 \t\t\t\\n     \n      DUP2 \t\t\tm\n      LT \t\t\t_name,\\n      \n      ISZERO \t\t\t        _name,\\n            _l...\n      PUSH [tag] 360\t\t\t        _name,\\n            _l...\n      JUMPI \t\t\t        _name,\\n            _l...\n      DUP1 \t\t\t=\n      DUP3 \t\t\t===\n      ADD \t\t\t===========\n      MLOAD \t\t\t==================\n      DUP2 \t\t\t=\n      DUP5 \t\t\t/ =\n      ADD \t\t\t   // =====\n      MSTORE \t\t\t   }\\n\\n    // ===============...\n      PUSH 20\t\t\t  \n      DUP2 \t\t\t\\n\n      ADD \t\t\tink,\\n     \n      SWAP1 \t\t\t   _link,\\n     \n      POP \t\t\t   _link,\\n     \n      PUSH [tag] 358\t\t\t        _name,\\n            _l...\n      JUMP \t\t\t        _name,\\n            _l...\n    tag 360\t\t\t        _name,\\n            _l...\n      JUMPDEST \t\t\t        _name,\\n            _l...\n      PUSH 0\t\t\t=\n      DUP5 \t\t\t======\n      DUP5 \t\t\t===\n      ADD \t\t\t// =============\n      MSTORE \t\t\tNS\\n    // =================\n      POP \t\t\tcertificates.length - 1,\\n    ...\n      POP \t\t\t_desc)\\n        );\\n\\n        ...\n      POP \t\t\t_desc)\\n        );\\n\\n        ...\n      POP \t\t\t_desc)\\n        );\\n\\n        ...\n      JUMP \t\t\t_desc)\\n        );\\n\\n        ...\n    tag 286\t\t\t  function getCertificatesCoun...\n      JUMPDEST \t\t\t  function getCertificatesCoun...\n      PUSH 0\t\t\tfic\n      PUSH [tag] 362\t\t\tunction getCertificate(uint256...\n      DUP3 \t\t\tdex)\\n\n      PUSH [tag] 283\t\t\tunction getCertificate(uint256...\n      JUMP \t\t\tunction getCertificate(uint256...\n    tag 362\t\t\tunction getCertificate(uint256...\n      JUMPDEST \t\t\tunction getCertificate(uint256...\n      PUSH [tag] 363\t\t\t        view\\n        returns ...\n      DUP2 \t\t\t      \n      DUP6 \t\t\tme,\n      PUSH [tag] 284\t\t\t        view\\n        returns ...\n      JUMP \t\t\t        view\\n        returns ...\n    tag 363\t\t\t        view\\n        returns ...\n      JUMPDEST \t\t\t        view\\n        returns ...\n      SWAP4 \t\t\tternal\\n        view\\n        ...\n      POP \t\t\tternal\\n        view\\n        ...\n      PUSH [tag] 364\t\t\tg memory link,\\n            ui...\n      DUP2 \t\t\tstring\n      DUP6 \t\t\t   \n      PUSH 20\t\t\t    \n      DUP7 \t\t\tstamp\n      ADD \t\t\ttimestamp,\\n     \n      PUSH [tag] 285\t\t\tg memory link,\\n            ui...\n      JUMP \t\t\tg memory link,\\n            ui...\n    tag 364\t\t\tg memory link,\\n            ui...\n      JUMPDEST \t\t\tg memory link,\\n            ui...\n      PUSH [tag] 365\t\t\t  )\\n    {\\n        Certificat...\n      DUP2 \t\t\tificat\n      PUSH [tag] 275\t\t\t  )\\n    {\\n        Certificat...\n      JUMP \t\t\t  )\\n    {\\n        Certificat...\n    tag 365\t\t\t  )\\n    {\\n        Certificat...\n      JUMPDEST \t\t\t  )\\n    {\\n        Certificat...\n      DUP5 \t\t\t   \n      ADD \t\t\ton\\n        )\\n    {\\n        ...\n      SWAP2 \t\t\tscription\\n        )\\n    {\\n ...\n      POP \t\t\tscription\\n        )\\n    {\\n ...\n      POP \t\t\ttes.length;\\n    }\\n\\n    func...\n      SWAP3 \t\t\t  function getCertificatesCoun...\n      SWAP2 \t\t\t  function getCertificatesCoun...\n      POP \t\t\t  function getCertificatesCoun...\n      POP \t\t\t  function getCertificatesCoun...\n      JUMP \t\t\t  function getCertificatesCoun...\n    tag 35\t\t\tertificates[index];\\n        r...\n      JUMPDEST \t\t\tertificates[index];\\n        r...\n      PUSH 0\t\t\t\n      PUSH 20\t\t\t\n      DUP3 \t\t\t\n      ADD \t\t\t\n      SWAP1 \t\t\t\n      POP \t\t\t\n      DUP2 \t\t\t\n      DUP2 \t\t\t\n      SUB \t\t\t\n      PUSH 0\t\t\t\n      DUP4 \t\t\t\n      ADD \t\t\t\n      MSTORE \t\t\t\n      PUSH [tag] 367\t\t\t\n      DUP2 \t\t\t\n      DUP5 \t\t\t\n      PUSH [tag] 286\t\t\t\n      JUMP \t\t\t\n    tag 367\t\t\t\n      JUMPDEST \t\t\t\n      SWAP1 \t\t\t\n      POP \t\t\t\n      SWAP3 \t\t\tertificates[index];\\n        r...\n      SWAP2 \t\t\tertificates[index];\\n        r...\n      POP \t\t\tertificates[index];\\n        r...\n      POP \t\t\tertificates[index];\\n        r...\n      JUMP \t\t\tertificates[index];\\n        r...\n    tag 287\t\t\t\n      JUMPDEST \t\t\t\n      PUSH 0\t\t\t\n      PUSH FFFFFFFFFFFFFFFFFFFFFFFFFFFFFFFFFFFFFFFF\t\t\t\n      DUP3 \t\t\t\n      AND \t\t\t\n      SWAP1 \t\t\t\n      POP \t\t\t\n      SWAP2 \t\t\t\n      SWAP1 \t\t\t\n      POP \t\t\t\n      JUMP \t\t\t\n    tag 288\t\t\t\n      JUMPDEST \t\t\t\n      PUSH 0\t\t\t\n      PUSH [tag] 370\t\t\t\n      DUP3 \t\t\t\n      PUSH [tag] 287\t\t\t\n      JUMP \t\t\t\n    tag 370\t\t\t\n      JUMPDEST \t\t\t\n      SWAP1 \t\t\t\n      POP \t\t\t\n      SWAP2 \t\t\t\n      SWAP1 \t\t\t\n      POP \t\t\t\n      JUMP \t\t\t\n    tag 289\t\t\t\n      JUMPDEST \t\t\t\n      PUSH [tag] 372\t\t\t\n      DUP2 \t\t\t\n      PUSH [tag] 288\t\t\t\n      JUMP \t\t\t\n    tag 372\t\t\t\n      JUMPDEST \t\t\t\n      DUP2 \t\t\t\n      EQ \t\t\t\n      PUSH [tag] 373\t\t\t\n      JUMPI \t\t\t\n      PUSH 0\t\t\t\n      DUP1 \t\t\t\n      REVERT \t\t\t\n    tag 373\t\t\t\n      JUMPDEST \t\t\t\n      POP \t\t\t\n      JUMP \t\t\t\n    tag 290\t\t\t\n      JUMPDEST \t\t\t\n      PUSH 0\t\t\t\n      DUP2 \t\t\t\n      CALLDATALOAD \t\t\t\n      SWAP1 \t\t\t\n      POP \t\t\t\n      PUSH [tag] 375\t\t\t\n      DUP2 \t\t\t\n      PUSH [tag] 289\t\t\t\n      JUMP \t\t\t\n    tag 375\t\t\t\n      JUMPDEST \t\t\t\n      SWAP3 \t\t\t\n      SWAP2 \t\t\t\n      POP \t\t\t\n      POP \t\t\t\n      JUMP \t\t\t\n    tag 291\t\t\t\n      JUMPDEST \t\t\t\n      PUSH 0\t\t\t\n      DUP2 \t\t\t\n      SWAP1 \t\t\t\n      POP \t\t\t\n      SWAP2 \t\t\t\n      SWAP1 \t\t\t\n      POP \t\t\t\n      JUMP \t\t\t\n    tag 292\t\t\t\n      JUMPDEST \t\t\t\n      PUSH [tag] 378\t\t\t\n      DUP2 \t\t\t\n      PUSH [tag] 291\t\t\t\n      JUMP \t\t\t\n    tag 378\t\t\t\n      JUMPDEST \t\t\t\n      DUP2 \t\t\t\n      EQ \t\t\t\n      PUSH [tag] 379\t\t\t\n      JUMPI \t\t\t\n      PUSH 0\t\t\t\n      DUP1 \t\t\t\n      REVERT \t\t\t\n    tag 379\t\t\t\n      JUMPDEST \t\t\t\n      POP \t\t\t\n      JUMP \t\t\t\n    tag 293\t\t\t\n      JUMPDEST \t\t\t\n      PUSH 0\t\t\t\n      DUP2 \t\t\t\n      CALLDATALOAD \t\t\t\n      SWAP1 \t\t\t\n      POP \t\t\t\n      PUSH [tag] 381\t\t\t\n      DUP2 \t\t\t\n      PUSH [tag] 292\t\t\t\n      JUMP \t\t\t\n    tag 381\t\t\t\n      JUMPDEST \t\t\t\n      SWAP3 \t\t\t\n      SWAP2 \t\t\t\n      POP \t\t\t\n      POP \t\t\t\n      JUMP \t\t\t\n    tag 38\t\t\t\n      JUMPDEST \t\t\t\n      PUSH 0\t\t\t\n      DUP1 \t\t\t\n      PUSH 40\t\t\t\n      DUP4 \t\t\t\n      DUP6 \t\t\t\n      SUB \t\t\t\n      SLT \t\t\t\n      ISZERO \t\t\t\n      PUSH [tag] 383\t\t\t\n      JUMPI \t\t\t\n      PUSH [tag] 384\t\t\t\n      PUSH [tag] 271\t\t\t\n      JUMP \t\t\t\n    tag 384\t\t\t\n      JUMPDEST \t\t\t\n    tag 383\t\t\t\n      JUMPDEST \t\t\t\n      PUSH 0\t\t\t\n      PUSH [tag] 385\t\t\t\n      DUP6 \t\t\t\n      DUP3 \t\t\t\n      DUP7 \t\t\t\n      ADD \t\t\t\n      PUSH [tag] 290\t\t\t\n      JUMP \t\t\t\n    tag 385\t\t\t\n      JUMPDEST \t\t\t\n      SWAP3 \t\t\t\n      POP \t\t\t\n      POP \t\t\t\n      PUSH 20\t\t\t\n      PUSH [tag] 386\t\t\t\n      DUP6 \t\t\t\n      DUP3 \t\t\t\n      DUP7 \t\t\t\n      ADD \t\t\t\n      PUSH [tag] 293\t\t\t\n      JUMP \t\t\t\n    tag 386\t\t\t\n      JUMPDEST \t\t\t\n      SWAP2 \t\t\t\n      POP \t\t\t\n      POP \t\t\t\n      SWAP3 \t\t\t\n      POP \t\t\t\n      SWAP3 \t\t\t\n      SWAP1 \t\t\t\n      POP \t\t\t\n      JUMP \t\t\t\n    tag 294\t\t\t\n      JUMPDEST \t\t\t\n      PUSH 0\t\t\t\n      DUP2 \t\t\t\n      ISZERO \t\t\t\n      ISZERO \t\t\t\n      SWAP1 \t\t\t\n      POP \t\t\t\n      SWAP2 \t\t\t\n      SWAP1 \t\t\t\n      POP \t\t\t\n      JUMP \t\t\t\n    tag 295\t\t\t\n      JUMPDEST \t\t\t\n      PUSH [tag] 389\t\t\t\n      DUP2 \t\t\t\n      PUSH [tag] 294\t\t\t\n      JUMP \t\t\t\n    tag 389\t\t\t\n      JUMPDEST \t\t\t\n      DUP3 \t\t\t\n      MSTORE \t\t\t\n      POP \t\t\t\n      POP \t\t\t\n      JUMP \t\t\t\n    tag 41\t\t\t\n      JUMPDEST \t\t\t\n      PUSH 0\t\t\t\n      PUSH 20\t\t\t\n      DUP3 \t\t\t\n      ADD \t\t\t\n      SWAP1 \t\t\t\n      POP \t\t\t\n      PUSH [tag] 391\t\t\t\n      PUSH 0\t\t\t\n      DUP4 \t\t\t\n      ADD \t\t\t\n      DUP5 \t\t\t\n      PUSH [tag] 295\t\t\t\n      JUMP \t\t\t\n    tag 391\t\t\t\n      JUMPDEST \t\t\t\n      SWAP3 \t\t\t\n      SWAP2 \t\t\t\n      POP \t\t\t\n      POP \t\t\t\n      JUMP \t\t\t\n    tag 296\t\t\t\n      JUMPDEST \t\t\t\n      PUSH [tag] 393\t\t\t\n      DUP2 \t\t\t\n      PUSH [tag] 291\t\t\t\n      JUMP \t\t\t\n    tag 393\t\t\t\n      JUMPDEST \t\t\t\n      DUP3 \t\t\t\n      MSTORE \t\t\t\n      POP \t\t\t\n      POP \t\t\t\n      JUMP \t\t\t\n    tag 48\t\t\t\n      JUMPDEST \t\t\t\n      PUSH 0\t\t\t\n      PUSH 20\t\t\t\n      DUP3 \t\t\t\n      ADD \t\t\t\n      SWAP1 \t\t\t\n      POP \t\t\t\n      PUSH [tag] 395\t\t\t\n      PUSH 0\t\t\t\n      DUP4 \t\t\t\n      ADD \t\t\t\n      DUP5 \t\t\t\n      PUSH [tag] 296\t\t\t\n      JUMP \t\t\t\n    tag 395\t\t\t\n      JUMPDEST \t\t\t\n      SWAP3 \t\t\t\n      SWAP2 \t\t\t\n      POP \t\t\t\n      POP \t\t\t\n      JUMP \t\t\t\n    tag 54\t\t\t\n      JUMPDEST \t\t\t\n      PUSH 0\t\t\t\n      DUP1 \t\t\t\n      PUSH 0\t\t\t\n      PUSH 60\t\t\t\n      DUP5 \t\t\t\n      DUP7 \t\t\t\n      SUB \t\t\t\n      SLT \t\t\t\n      ISZERO \t\t\t\n      PUSH [tag] 397\t\t\t\n      JUMPI \t\t\t\n      PUSH [tag] 398\t\t\t\n      PUSH [tag] 271\t\t\t\n      JUMP \t\t\t\n    tag 398\t\t\t\n      JUMPDEST \t\t\t\n    tag 397\t\t\t\n      JUMPDEST \t\t\t\n      PUSH 0\t\t\t\n      PUSH [tag] 399\t\t\t\n      DUP7 \t\t\t\n      DUP3 \t\t\t\n      DUP8 \t\t\t\n      ADD \t\t\t\n      PUSH [tag] 290\t\t\t\n      JUMP \t\t\t\n    tag 399\t\t\t\n      JUMPDEST \t\t\t\n      SWAP4 \t\t\t\n      POP \t\t\t\n      POP \t\t\t\n      PUSH 20\t\t\t\n      PUSH [tag] 400\t\t\t\n      DUP7 \t\t\t\n      DUP3 \t\t\t\n      DUP8 \t\t\t\n      ADD \t\t\t\n      PUSH [tag] 290\t\t\t\n      JUMP \t\t\t\n    tag 400\t\t\t\n      JUMPDEST \t\t\t\n      SWAP3 \t\t\t\n      POP \t\t\t\n      POP \t\t\t\n      PUSH 40\t\t\t\n      PUSH [tag] 401\t\t\t\n      DUP7 \t\t\t\n      DUP3 \t\t\t\n      DUP8 \t\t\t\n      ADD \t\t\t\n      PUSH [tag] 293\t\t\t\n      JUMP \t\t\t\n    tag 401\t\t\t\n      JUMPDEST \t\t\t\n      SWAP2 \t\t\t\n      POP \t\t\t\n      POP \t\t\t\n      SWAP3 \t\t\t\n      POP \t\t\t\n      SWAP3 \t\t\t\n      POP \t\t\t\n      SWAP3 \t\t\t\n      JUMP \t\t\t\n    tag 297\t\t\t\n      JUMPDEST \t\t\t\n      PUSH 0\t\t\t\n      PUSH FF\t\t\t\n      DUP3 \t\t\t\n      AND \t\t\t\n      SWAP1 \t\t\t\n      POP \t\t\t\n      SWAP2 \t\t\t\n      SWAP1 \t\t\t\n      POP \t\t\t\n      JUMP \t\t\t\n    tag 298\t\t\t\n      JUMPDEST \t\t\t\n      PUSH [tag] 404\t\t\t\n      DUP2 \t\t\t\n      PUSH [tag] 297\t\t\t\n      JUMP \t\t\t\n    tag 404\t\t\t\n      JUMPDEST \t\t\t\n      DUP3 \t\t\t\n      MSTORE \t\t\t\n      POP \t\t\t\n      POP \t\t\t\n      JUMP \t\t\t\n    tag 60\t\t\t\n      JUMPDEST \t\t\t\n      PUSH 0\t\t\t\n      PUSH 20\t\t\t\n      DUP3 \t\t\t\n      ADD \t\t\t\n      SWAP1 \t\t\t\n      POP \t\t\t\n      PUSH [tag] 406\t\t\t\n      PUSH 0\t\t\t\n      DUP4 \t\t\t\n      ADD \t\t\t\n      DUP5 \t\t\t\n      PUSH [tag] 298\t\t\t\n      JUMP \t\t\t\n    tag 406\t\t\t\n      JUMPDEST \t\t\t\n      SWAP3 \t\t\t\n      SWAP2 \t\t\t\n      POP \t\t\t\n      POP \t\t\t\n      JUMP \t\t\t\n    tag 66\t\t\t\n      JUMPDEST \t\t\t\n      PUSH 0\t\t\t\n      PUSH 20\t\t\t\n      DUP3 \t\t\t\n      DUP5 \t\t\t\n      SUB \t\t\t\n      SLT \t\t\t\n      ISZERO \t\t\t\n      PUSH [tag] 408\t\t\t\n      JUMPI \t\t\t\n      PUSH [tag] 409\t\t\t\n      PUSH [tag] 271\t\t\t\n      JUMP \t\t\t\n    tag 409\t\t\t\n      JUMPDEST \t\t\t\n    tag 408\t\t\t\n      JUMPDEST \t\t\t\n      PUSH 0\t\t\t\n      PUSH [tag] 410\t\t\t\n      DUP5 \t\t\t\n      DUP3 \t\t\t\n      DUP6 \t\t\t\n      ADD \t\t\t\n      PUSH [tag] 293\t\t\t\n      JUMP \t\t\t\n    tag 410\t\t\t\n      JUMPDEST \t\t\t\n      SWAP2 \t\t\t\n      POP \t\t\t\n      POP \t\t\t\n      SWAP3 \t\t\t\n      SWAP2 \t\t\t\n      POP \t\t\t\n      POP \t\t\t\n      JUMP \t\t\t\n    tag 69\t\t\t\n      JUMPDEST \t\t\t\n      PUSH 0\t\t\t\n      PUSH 80\t\t\t\n      DUP3 \t\t\t\n      ADD \t\t\t\n      SWAP1 \t\t\t\n      POP \t\t\t\n      DUP2 \t\t\t\n      DUP2 \t\t\t\n      SUB \t\t\t\n      PUSH 0\t\t\t\n      DUP4 \t\t\t\n      ADD \t\t\t\n      MSTORE \t\t\t\n      PUSH [tag] 412\t\t\t\n      DUP2 \t\t\t\n      DUP8 \t\t\t\n      PUSH [tag] 286\t\t\t\n      JUMP \t\t\t\n    tag 412\t\t\t\n      JUMPDEST \t\t\t\n      SWAP1 \t\t\t\n      POP \t\t\t\n      DUP2 \t\t\t\n      DUP2 \t\t\t\n      SUB \t\t\t\n      PUSH 20\t\t\t\n      DUP4 \t\t\t\n      ADD \t\t\t\n      MSTORE \t\t\t\n      PUSH [tag] 413\t\t\t\n      DUP2 \t\t\t\n      DUP7 \t\t\t\n      PUSH [tag] 286\t\t\t\n      JUMP \t\t\t\n    tag 413\t\t\t\n      JUMPDEST \t\t\t\n      SWAP1 \t\t\t\n      POP \t\t\t\n      PUSH [tag] 414\t\t\t\n      PUSH 40\t\t\t\n      DUP4 \t\t\t\n      ADD \t\t\t\n      DUP6 \t\t\t\n      PUSH [tag] 296\t\t\t\n      JUMP \t\t\t\n    tag 414\t\t\t\n      JUMPDEST \t\t\t\n      DUP2 \t\t\t\n      DUP2 \t\t\t\n      SUB \t\t\t\n      PUSH 60\t\t\t\n      DUP4 \t\t\t\n      ADD \t\t\t\n      MSTORE \t\t\t\n      PUSH [tag] 415\t\t\t\n      DUP2 \t\t\t\n      DUP5 \t\t\t\n      PUSH [tag] 286\t\t\t\n      JUMP \t\t\t\n    tag 415\t\t\t\n      JUMPDEST \t\t\t\n      SWAP1 \t\t\t\n      POP \t\t\t\n      SWAP6 \t\t\t\n      SWAP5 \t\t\t\n      POP \t\t\t\n      POP \t\t\t\n      POP \t\t\t\n      POP \t\t\t\n      POP \t\t\t\n      JUMP \t\t\t\n    tag 76\t\t\t\n      JUMPDEST \t\t\t\n      PUSH 0\t\t\t\n      PUSH 20\t\t\t\n      DUP3 \t\t\t\n      DUP5 \t\t\t\n      SUB \t\t\t\n      SLT \t\t\t\n      ISZERO \t\t\t\n      PUSH [tag] 417\t\t\t\n      JUMPI \t\t\t\n      PUSH [tag] 418\t\t\t\n      PUSH [tag] 271\t\t\t\n      JUMP \t\t\t\n    tag 418\t\t\t\n      JUMPDEST \t\t\t\n    tag 417\t\t\t\n      JUMPDEST \t\t\t\n      PUSH 0\t\t\t\n      PUSH [tag] 419\t\t\t\n      DUP5 \t\t\t\n      DUP3 \t\t\t\n      DUP6 \t\t\t\n      ADD \t\t\t\n      PUSH [tag] 290\t\t\t\n      JUMP \t\t\t\n    tag 419\t\t\t\n      JUMPDEST \t\t\t\n      SWAP2 \t\t\t\n      POP \t\t\t\n      POP \t\t\t\n      SWAP3 \t\t\t\n      SWAP2 \t\t\t\n      POP \t\t\t\n      POP \t\t\t\n      JUMP \t\t\t\n    tag 299\t\t\t\n      JUMPDEST \t\t\t\n      PUSH [tag] 421\t\t\t\n      DUP2 \t\t\t\n      PUSH [tag] 288\t\t\t\n      JUMP \t\t\t\n    tag 421\t\t\t\n      JUMPDEST \t\t\t\n      DUP3 \t\t\t\n      MSTORE \t\t\t\n      POP \t\t\t\n      POP \t\t\t\n      JUMP \t\t\t\n    tag 84\t\t\t\n      JUMPDEST \t\t\t\n      PUSH 0\t\t\t\n      PUSH 20\t\t\t\n      DUP3 \t\t\t\n      ADD \t\t\t\n      SWAP1 \t\t\t\n      POP \t\t\t\n      PUSH [tag] 423\t\t\t\n      PUSH 0\t\t\t\n      DUP4 \t\t\t\n      ADD \t\t\t\n      DUP5 \t\t\t\n      PUSH [tag] 299\t\t\t\n      JUMP \t\t\t\n    tag 423\t\t\t\n      JUMPDEST \t\t\t\n      SWAP3 \t\t\t\n      SWAP2 \t\t\t\n      POP \t\t\t\n      POP \t\t\t\n      JUMP \t\t\t\n    tag 97\t\t\t\n      JUMPDEST \t\t\t\n      PUSH 0\t\t\t\n      DUP1 \t\t\t\n      PUSH 0\t\t\t\n      PUSH 60\t\t\t\n      DUP5 \t\t\t\n      DUP7 \t\t\t\n      SUB \t\t\t\n      SLT \t\t\t\n      ISZERO \t\t\t\n      PUSH [tag] 425\t\t\t\n      JUMPI \t\t\t\n      PUSH [tag] 426\t\t\t\n      PUSH [tag] 271\t\t\t\n      JUMP \t\t\t\n    tag 426\t\t\t\n      JUMPDEST \t\t\t\n    tag 425\t\t\t\n      JUMPDEST \t\t\t\n      PUSH 0\t\t\t\n      DUP5 \t\t\t\n      ADD \t\t\t\n      CALLDATALOAD \t\t\t\n      PUSH FFFFFFFFFFFFFFFF\t\t\t\n      DUP2 \t\t\t\n      GT \t\t\t\n      ISZERO \t\t\t\n      PUSH [tag] 427\t\t\t\n      JUMPI \t\t\t\n      PUSH [tag] 428\t\t\t\n      PUSH [tag] 272\t\t\t\n      JUMP \t\t\t\n    tag 428\t\t\t\n      JUMPDEST \t\t\t\n    tag 427\t\t\t\n      JUMPDEST \t\t\t\n      PUSH [tag] 429\t\t\t\n      DUP7 \t\t\t\n      DUP3 \t\t\t\n      DUP8 \t\t\t\n      ADD \t\t\t\n      PUSH [tag] 282\t\t\t\n      JUMP \t\t\t\n    tag 429\t\t\t\n      JUMPDEST \t\t\t\n      SWAP4 \t\t\t\n      POP \t\t\t\n      POP \t\t\t\n      PUSH 20\t\t\t\n      DUP5 \t\t\t\n      ADD \t\t\t\n      CALLDATALOAD \t\t\t\n      PUSH FFFFFFFFFFFFFFFF\t\t\t\n      DUP2 \t\t\t\n      GT \t\t\t\n      ISZERO \t\t\t\n      PUSH [tag] 430\t\t\t\n      JUMPI \t\t\t\n      PUSH [tag] 431\t\t\t\n      PUSH [tag] 272\t\t\t\n      JUMP \t\t\t\n    tag 431\t\t\t\n      JUMPDEST \t\t\t\n    tag 430\t\t\t\n      JUMPDEST \t\t\t\n      PUSH [tag] 432\t\t\t\n      DUP7 \t\t\t\n      DUP3 \t\t\t\n      DUP8 \t\t\t\n      ADD \t\t\t\n      PUSH [tag] 282\t\t\t\n      JUMP \t\t\t\n    tag 432\t\t\t\n      JUMPDEST \t\t\t\n      SWAP3 \t\t\t\n      POP \t\t\t\n      POP \t\t\t\n      PUSH 40\t\t\t\n      DUP5 \t\t\t\n      ADD \t\t\t\n      CALLDATALOAD \t\t\t\n      PUSH FFFFFFFFFFFFFFFF\t\t\t\n      DUP2 \t\t\t\n      GT \t\t\t\n      ISZERO \t\t\t\n      PUSH [tag] 433\t\t\t\n      JUMPI \t\t\t\n      PUSH [tag] 434\t\t\t\n      PUSH [tag] 272\t\t\t\n      JUMP \t\t\t\n    tag 434\t\t\t\n      JUMPDEST \t\t\t\n    tag 433\t\t\t\n      JUMPDEST \t\t\t\n      PUSH [tag] 435\t\t\t\n      DUP7 \t\t\t\n      DUP3 \t\t\t\n      DUP8 \t\t\t\n      ADD \t\t\t\n      PUSH [tag] 282\t\t\t\n      JUMP \t\t\t\n    tag 435\t\t\t\n      JUMPDEST \t\t\t\n      SWAP2 \t\t\t\n      POP \t\t\t\n      POP \t\t\t\n      SWAP3 \t\t\t\n      POP \t\t\t\n      SWAP3 \t\t\t\n      POP \t\t\t\n      SWAP3 \t\t\t\n      JUMP \t\t\t\n    tag 104\t\t\t\n      JUMPDEST \t\t\t\n      PUSH 0\t\t\t\n      DUP1 \t\t\t\n      PUSH 40\t\t\t\n      DUP4 \t\t\t\n      DUP6 \t\t\t\n      SUB \t\t\t\n      SLT \t\t\t\n      ISZERO \t\t\t\n      PUSH [tag] 437\t\t\t\n      JUMPI \t\t\t\n      PUSH [tag] 438\t\t\t\n      PUSH [tag] 271\t\t\t\n      JUMP \t\t\t\n    tag 438\t\t\t\n      JUMPDEST \t\t\t\n    tag 437\t\t\t\n      JUMPDEST \t\t\t\n      PUSH 0\t\t\t\n      PUSH [tag] 439\t\t\t\n      DUP6 \t\t\t\n      DUP3 \t\t\t\n      DUP7 \t\t\t\n      ADD \t\t\t\n      PUSH [tag] 290\t\t\t\n      JUMP \t\t\t\n    tag 439\t\t\t\n      JUMPDEST \t\t\t\n      SWAP3 \t\t\t\n      POP \t\t\t\n      POP \t\t\t\n      PUSH 20\t\t\t\n      PUSH [tag] 440\t\t\t\n      DUP6 \t\t\t\n      DUP3 \t\t\t\n      DUP7 \t\t\t\n      ADD \t\t\t\n      PUSH [tag] 290\t\t\t\n      JUMP \t\t\t\n    tag 440\t\t\t\n      JUMPDEST \t\t\t\n      SWAP2 \t\t\t\n      POP \t\t\t\n      POP \t\t\t\n      SWAP3 \t\t\t\n      POP \t\t\t\n      SWAP3 \t\t\t\n      SWAP1 \t\t\t\n      POP \t\t\t\n      JUMP \t\t\t\n    tag 300\t\t\t\n      JUMPDEST \t\t\t\n      PUSH 4E487B7100000000000000000000000000000000000000000000000000000000\t\t\t\n      PUSH 0\t\t\t\n      MSTORE \t\t\t\n      PUSH 22\t\t\t\n      PUSH 4\t\t\t\n      MSTORE \t\t\t\n      PUSH 24\t\t\t\n      PUSH 0\t\t\t\n      REVERT \t\t\t\n    tag 121\t\t\t\n      JUMPDEST \t\t\t\n      PUSH 0\t\t\t\n      PUSH 2\t\t\t\n      DUP3 \t\t\t\n      DIV \t\t\t\n      SWAP1 \t\t\t\n      POP \t\t\t\n      PUSH 1\t\t\t\n      DUP3 \t\t\t\n      AND \t\t\t\n      DUP1 \t\t\t\n      PUSH [tag] 443\t\t\t\n      JUMPI \t\t\t\n      PUSH 7F\t\t\t\n      DUP3 \t\t\t\n      AND \t\t\t\n      SWAP2 \t\t\t\n      POP \t\t\t\n    tag 443\t\t\t\n      JUMPDEST \t\t\t\n      PUSH 20\t\t\t\n      DUP3 \t\t\t\n      LT \t\t\t\n      DUP2 \t\t\t\n      SUB \t\t\t\n      PUSH [tag] 444\t\t\t\n      JUMPI \t\t\t\n      PUSH [tag] 445\t\t\t\n      PUSH [tag] 300\t\t\t\n      JUMP \t\t\t\n    tag 445\t\t\t\n      JUMPDEST \t\t\t\n    tag 444\t\t\t\n      JUMPDEST \t\t\t\n      POP \t\t\t\n      SWAP2 \t\t\t\n      SWAP1 \t\t\t\n      POP \t\t\t\n      JUMP \t\t\t\n    tag 301\t\t\t\n      JUMPDEST \t\t\t\n      PUSH 0\t\t\t\n      DUP2 \t\t\t\n      SWAP1 \t\t\t\n      POP \t\t\t\n      DUP2 \t\t\t\n      PUSH 0\t\t\t\n      MSTORE \t\t\t\n      PUSH 20\t\t\t\n      PUSH 0\t\t\t\n      KECCAK256 \t\t\t\n      SWAP1 \t\t\t\n      POP \t\t\t\n      SWAP2 \t\t\t\n      SWAP1 \t\t\t\n      POP \t\t\t\n      JUMP \t\t\t\n    tag 302\t\t\t\n      JUMPDEST \t\t\t\n      PUSH 0\t\t\t\n      PUSH 20\t\t\t\n      PUSH 1F\t\t\t\n      DUP4 \t\t\t\n      ADD \t\t\t\n      DIV \t\t\t\n      SWAP1 \t\t\t\n      POP \t\t\t\n      SWAP2 \t\t\t\n      SWAP1 \t\t\t\n      POP \t\t\t\n      JUMP \t\t\t\n    tag 303\t\t\t\n      JUMPDEST \t\t\t\n      PUSH 0\t\t\t\n      DUP3 \t\t\t\n      DUP3 \t\t\t\n      SHL \t\t\t\n      SWAP1 \t\t\t\n      POP \t\t\t\n      SWAP3 \t\t\t\n      SWAP2 \t\t\t\n      POP \t\t\t\n      POP \t\t\t\n      JUMP \t\t\t\n    tag 304\t\t\t\n      JUMPDEST \t\t\t\n      PUSH 0\t\t\t\n      PUSH 8\t\t\t\n      DUP4 \t\t\t\n      MUL \t\t\t\n      PUSH [tag] 450\t\t\t\n      PUSH FFFFFFFFFFFFFFFFFFFFFFFFFFFFFFFFFFFFFFFFFFFFFFFFFFFFFFFFFFFFFFFF\t\t\t\n      DUP3 \t\t\t\n      PUSH [tag] 303\t\t\t\n      JUMP \t\t\t\n    tag 450\t\t\t\n      JUMPDEST \t\t\t\n      PUSH [tag] 451\t\t\t\n      DUP7 \t\t\t\n      DUP4 \t\t\t\n      PUSH [tag] 303\t\t\t\n      JUMP \t\t\t\n    tag 451\t\t\t\n      JUMPDEST \t\t\t\n      SWAP6 \t\t\t\n      POP \t\t\t\n      DUP1 \t\t\t\n      NOT \t\t\t\n      DUP5 \t\t\t\n      AND \t\t\t\n      SWAP4 \t\t\t\n      POP \t\t\t\n      DUP1 \t\t\t\n      DUP7 \t\t\t\n      AND \t\t\t\n      DUP5 \t\t\t\n      OR \t\t\t\n      SWAP3 \t\t\t\n      POP \t\t\t\n      POP \t\t\t\n      POP \t\t\t\n      SWAP4 \t\t\t\n      SWAP3 \t\t\t\n      POP \t\t\t\n      POP \t\t\t\n      POP \t\t\t\n      JUMP \t\t\t\n    tag 305\t\t\t\n      JUMPDEST \t\t\t\n      PUSH 0\t\t\t\n      DUP2 \t\t\t\n      SWAP1 \t\t\t\n      POP \t\t\t\n      SWAP2 \t\t\t\n      SWAP1 \t\t\t\n      POP \t\t\t\n      JUMP \t\t\t\n    tag 306\t\t\t\n      JUMPDEST \t\t\t\n      PUSH 0\t\t\t\n      PUSH [tag] 454\t\t\t\n      PUSH [tag] 455\t\t\t\n      PUSH [tag] 456\t\t\t\n      DUP5 \t\t\t\n      PUSH [tag] 291\t\t\t\n      JUMP \t\t\t\n    tag 456\t\t\t\n      JUMPDEST \t\t\t\n      PUSH [tag] 305\t\t\t\n      JUMP \t\t\t\n    tag 455\t\t\t\n      JUMPDEST \t\t\t\n      PUSH [tag] 291\t\t\t\n      JUMP \t\t\t\n    tag 454\t\t\t\n      JUMPDEST \t\t\t\n      SWAP1 \t\t\t\n      POP \t\t\t\n      SWAP2 \t\t\t\n      SWAP1 \t\t\t\n      POP \t\t\t\n      JUMP \t\t\t\n    tag 307\t\t\t\n      JUMPDEST \t\t\t\n      PUSH 0\t\t\t\n      DUP2 \t\t\t\n      SWAP1 \t\t\t\n      POP \t\t\t\n      SWAP2 \t\t\t\n      SWAP1 \t\t\t\n      POP \t\t\t\n      JUMP \t\t\t\n    tag 308\t\t\t\n      JUMPDEST \t\t\t\n      PUSH [tag] 459\t\t\t\n      DUP4 \t\t\t\n      PUSH [tag] 306\t\t\t\n      JUMP \t\t\t\n    tag 459\t\t\t\n      JUMPDEST \t\t\t\n      PUSH [tag] 460\t\t\t\n      PUSH [tag] 461\t\t\t\n      DUP3 \t\t\t\n      PUSH [tag] 307\t\t\t\n      JUMP \t\t\t\n    tag 461\t\t\t\n      JUMPDEST \t\t\t\n      DUP5 \t\t\t\n      DUP5 \t\t\t\n      SLOAD \t\t\t\n      PUSH [tag] 304\t\t\t\n      JUMP \t\t\t\n    tag 460\t\t\t\n      JUMPDEST \t\t\t\n      DUP3 \t\t\t\n      SSTORE \t\t\t\n      POP \t\t\t\n      POP \t\t\t\n      POP \t\t\t\n      POP \t\t\t\n      JUMP \t\t\t\n    tag 309\t\t\t\n      JUMPDEST \t\t\t\n      PUSH 0\t\t\t\n      SWAP1 \t\t\t\n      JUMP \t\t\t\n    tag 310\t\t\t\n      JUMPDEST \t\t\t\n      PUSH [tag] 464\t\t\t\n      PUSH [tag] 309\t\t\t\n      JUMP \t\t\t\n    tag 464\t\t\t\n      JUMPDEST \t\t\t\n      PUSH [tag] 465\t\t\t\n      DUP2 \t\t\t\n      DUP5 \t\t\t\n      DUP5 \t\t\t\n      PUSH [tag] 308\t\t\t\n      JUMP \t\t\t\n    tag 465\t\t\t\n      JUMPDEST \t\t\t\n      POP \t\t\t\n      POP \t\t\t\n      POP \t\t\t\n      JUMP \t\t\t\n    tag 311\t\t\t\n      JUMPDEST \t\t\t\n    tag 467\t\t\t\n      JUMPDEST \t\t\t\n      DUP2 \t\t\t\n      DUP2 \t\t\t\n      LT \t\t\t\n      ISZERO \t\t\t\n      PUSH [tag] 469\t\t\t\n      JUMPI \t\t\t\n      PUSH [tag] 470\t\t\t\n      PUSH 0\t\t\t\n      DUP3 \t\t\t\n      PUSH [tag] 310\t\t\t\n      JUMP \t\t\t\n    tag 470\t\t\t\n      JUMPDEST \t\t\t\n      PUSH 1\t\t\t\n      DUP2 \t\t\t\n      ADD \t\t\t\n      SWAP1 \t\t\t\n      POP \t\t\t\n      PUSH [tag] 467\t\t\t\n      JUMP \t\t\t\n    tag 469\t\t\t\n      JUMPDEST \t\t\t\n      POP \t\t\t\n      POP \t\t\t\n      JUMP \t\t\t\n    tag 312\t\t\t\n      JUMPDEST \t\t\t\n      PUSH 1F\t\t\t\n      DUP3 \t\t\t\n      GT \t\t\t\n      ISZERO \t\t\t\n      PUSH [tag] 472\t\t\t\n      JUMPI \t\t\t\n      PUSH [tag] 473\t\t\t\n      DUP2 \t\t\t\n      PUSH [tag] 301\t\t\t\n      JUMP \t\t\t\n    tag 473\t\t\t\n      JUMPDEST \t\t\t\n      PUSH [tag] 474\t\t\t\n      DUP5 \t\t\t\n      PUSH [tag] 302\t\t\t\n      JUMP \t\t\t\n    tag 474\t\t\t\n      JUMPDEST \t\t\t\n      DUP2 \t\t\t\n      ADD \t\t\t\n      PUSH 20\t\t\t\n      DUP6 \t\t\t\n      LT \t\t\t\n      ISZERO \t\t\t\n      PUSH [tag] 475\t\t\t\n      JUMPI \t\t\t\n      DUP2 \t\t\t\n      SWAP1 \t\t\t\n      POP \t\t\t\n    tag 475\t\t\t\n      JUMPDEST \t\t\t\n      PUSH [tag] 476\t\t\t\n      PUSH [tag] 477\t\t\t\n      DUP6 \t\t\t\n      PUSH [tag] 302\t\t\t\n      JUMP \t\t\t\n    tag 477\t\t\t\n      JUMPDEST \t\t\t\n      DUP4 \t\t\t\n      ADD \t\t\t\n      DUP3 \t\t\t\n      PUSH [tag] 311\t\t\t\n      JUMP \t\t\t\n    tag 476\t\t\t\n      JUMPDEST \t\t\t\n      POP \t\t\t\n      POP \t\t\t\n    tag 472\t\t\t\n      JUMPDEST \t\t\t\n      POP \t\t\t\n      POP \t\t\t\n      POP \t\t\t\n      JUMP \t\t\t\n    tag 313\t\t\t\n      JUMPDEST \t\t\t\n      PUSH 0\t\t\t\n      DUP3 \t\t\t\n      DUP3 \t\t\t\n      SHR \t\t\t\n      SWAP1 \t\t\t\n      POP \t\t\t\n      SWAP3 \t\t\t\n      SWAP2 \t\t\t\n      POP \t\t\t\n      POP \t\t\t\n      JUMP \t\t\t\n    tag 314\t\t\t\n      JUMPDEST \t\t\t\n      PUSH 0\t\t\t\n      PUSH [tag] 480\t\t\t\n      PUSH 0\t\t\t\n      NOT \t\t\t\n      DUP5 \t\t\t\n      PUSH 8\t\t\t\n      MUL \t\t\t\n      PUSH [tag] 313\t\t\t\n      JUMP \t\t\t\n    tag 480\t\t\t\n      JUMPDEST \t\t\t\n      NOT \t\t\t\n      DUP1 \t\t\t\n      DUP4 \t\t\t\n      AND \t\t\t\n      SWAP2 \t\t\t\n      POP \t\t\t\n      POP \t\t\t\n      SWAP3 \t\t\t\n      SWAP2 \t\t\t\n      POP \t\t\t\n      POP \t\t\t\n      JUMP \t\t\t\n    tag 315\t\t\t\n      JUMPDEST \t\t\t\n      PUSH 0\t\t\t\n      PUSH [tag] 482\t\t\t\n      DUP4 \t\t\t\n      DUP4 \t\t\t\n      PUSH [tag] 314\t\t\t\n      JUMP \t\t\t\n    tag 482\t\t\t\n      JUMPDEST \t\t\t\n      SWAP2 \t\t\t\n      POP \t\t\t\n      DUP3 \t\t\t\n      PUSH 2\t\t\t\n      MUL \t\t\t\n      DUP3 \t\t\t\n      OR \t\t\t\n      SWAP1 \t\t\t\n      POP \t\t\t\n      SWAP3 \t\t\t\n      SWAP2 \t\t\t\n      POP \t\t\t\n      POP \t\t\t\n      JUMP \t\t\t\n    tag 118\t\t\t\n      JUMPDEST \t\t\t\n      PUSH [tag] 484\t\t\t\n      DUP3 \t\t\t\n      PUSH [tag] 283\t\t\t\n      JUMP \t\t\t\n    tag 484\t\t\t\n      JUMPDEST \t\t\t\n      PUSH FFFFFFFFFFFFFFFF\t\t\t\n      DUP2 \t\t\t\n      GT \t\t\t\n      ISZERO \t\t\t\n      PUSH [tag] 485\t\t\t\n      JUMPI \t\t\t\n      PUSH [tag] 486\t\t\t\n      PUSH [tag] 276\t\t\t\n      JUMP \t\t\t\n    tag 486\t\t\t\n      JUMPDEST \t\t\t\n    tag 485\t\t\t\n      JUMPDEST \t\t\t\n      PUSH [tag] 487\t\t\t\n      DUP3 \t\t\t\n      SLOAD \t\t\t\n      PUSH [tag] 121\t\t\t\n      JUMP \t\t\t\n    tag 487\t\t\t\n      JUMPDEST \t\t\t\n      PUSH [tag] 488\t\t\t\n      DUP3 \t\t\t\n      DUP3 \t\t\t\n      DUP6 \t\t\t\n      PUSH [tag] 312\t\t\t\n      JUMP \t\t\t\n    tag 488\t\t\t\n      JUMPDEST \t\t\t\n      PUSH 0\t\t\t\n      PUSH 20\t\t\t\n      SWAP1 \t\t\t\n      POP \t\t\t\n      PUSH 1F\t\t\t\n      DUP4 \t\t\t\n      GT \t\t\t\n      PUSH 1\t\t\t\n      DUP2 \t\t\t\n      EQ \t\t\t\n      PUSH [tag] 490\t\t\t\n      JUMPI \t\t\t\n      PUSH 0\t\t\t\n      DUP5 \t\t\t\n      ISZERO \t\t\t\n      PUSH [tag] 491\t\t\t\n      JUMPI \t\t\t\n      DUP3 \t\t\t\n      DUP8 \t\t\t\n      ADD \t\t\t\n      MLOAD \t\t\t\n      SWAP1 \t\t\t\n      POP \t\t\t\n    tag 491\t\t\t\n      JUMPDEST \t\t\t\n      PUSH [tag] 492\t\t\t\n      DUP6 \t\t\t\n      DUP3 \t\t\t\n      PUSH [tag] 315\t\t\t\n      JUMP \t\t\t\n    tag 492\t\t\t\n      JUMPDEST \t\t\t\n      DUP7 \t\t\t\n      SSTORE \t\t\t\n      POP \t\t\t\n      PUSH [tag] 489\t\t\t\n      JUMP \t\t\t\n    tag 490\t\t\t\n      JUMPDEST \t\t\t\n      PUSH 1F\t\t\t\n      NOT \t\t\t\n      DUP5 \t\t\t\n      AND \t\t\t\n      PUSH [tag] 493\t\t\t\n      DUP7 \t\t\t\n      PUSH [tag] 301\t\t\t\n      JUMP \t\t\t\n    tag 493\t\t\t\n      JUMPDEST \t\t\t\n      PUSH 0\t\t\t\n    tag 494\t\t\t\n      JUMPDEST \t\t\t\n      DUP3 \t\t\t\n      DUP2 \t\t\t\n      LT \t\t\t\n      ISZERO \t\t\t\n      PUSH [tag] 496\t\t\t\n      JUMPI \t\t\t\n      DUP5 \t\t\t\n      DUP10 \t\t\t\n      ADD \t\t\t\n      MLOAD \t\t\t\n      DUP3 \t\t\t\n      SSTORE \t\t\t\n      PUSH 1\t\t\t\n      DUP3 \t\t\t\n      ADD \t\t\t\n      SWAP2 \t\t\t\n      POP \t\t\t\n      PUSH 20\t\t\t\n      DUP6 \t\t\t\n      ADD \t\t\t\n      SWAP5 \t\t\t\n      POP \t\t\t\n      PUSH 20\t\t\t\n      DUP2 \t\t\t\n      ADD \t\t\t\n      SWAP1 \t\t\t\n      POP \t\t\t\n      PUSH [tag] 494\t\t\t\n      JUMP \t\t\t\n    tag 496\t\t\t\n      JUMPDEST \t\t\t\n      DUP7 \t\t\t\n      DUP4 \t\t\t\n      LT \t\t\t\n      ISZERO \t\t\t\n      PUSH [tag] 497\t\t\t\n      JUMPI \t\t\t\n      DUP5 \t\t\t\n      DUP10 \t\t\t\n      ADD \t\t\t\n      MLOAD \t\t\t\n      PUSH [tag] 498\t\t\t\n      PUSH 1F\t\t\t\n      DUP10 \t\t\t\n      AND \t\t\t\n      DUP3 \t\t\t\n      PUSH [tag] 314\t\t\t\n      JUMP \t\t\t\n    tag 498\t\t\t\n      JUMPDEST \t\t\t\n      DUP4 \t\t\t\n      SSTORE \t\t\t\n      POP \t\t\t\n    tag 497\t\t\t\n      JUMPDEST \t\t\t\n      PUSH 1\t\t\t\n      PUSH 2\t\t\t\n      DUP9 \t\t\t\n      MUL \t\t\t\n      ADD \t\t\t\n      DUP9 \t\t\t\n      SSTORE \t\t\t\n      POP \t\t\t\n      POP \t\t\t\n      POP \t\t\t\n    tag 489\t\t\t\n      JUMPDEST \t\t\t\n      POP \t\t\t\n      POP \t\t\t\n      POP \t\t\t\n      POP \t\t\t\n      POP \t\t\t\n      POP \t\t\t\n      JUMP \t\t\t\n    tag 152\t\t\t\n      JUMPDEST \t\t\t\n      PUSH 4E487B7100000000000000000000000000000000000000000000000000000000\t\t\t\n      PUSH 0\t\t\t\n      MSTORE \t\t\t\n      PUSH 32\t\t\t\n      PUSH 4\t\t\t\n      MSTORE \t\t\t\n      PUSH 24\t\t\t\n      PUSH 0\t\t\t\n      REVERT \t\t\t\n    tag 316\t\t\t\n      JUMPDEST \t\t\t\n      PUSH 4E487B7100000000000000000000000000000000000000000000000000000000\t\t\t\n      PUSH 0\t\t\t\n      MSTORE \t\t\t\n      PUSH 11\t\t\t\n      PUSH 4\t\t\t\n      MSTORE \t\t\t\n      PUSH 24\t\t\t\n      PUSH 0\t\t\t\n      REVERT \t\t\t\n    tag 211\t\t\t\n      JUMPDEST \t\t\t\n      PUSH 0\t\t\t\n      PUSH [tag] 502\t\t\t\n      DUP3 \t\t\t\n      PUSH [tag] 291\t\t\t\n      JUMP \t\t\t\n    tag 502\t\t\t\n      JUMPDEST \t\t\t\n      SWAP2 \t\t\t\n      POP \t\t\t\n      PUSH [tag] 503\t\t\t\n      DUP4 \t\t\t\n      PUSH [tag] 291\t\t\t\n      JUMP \t\t\t\n    tag 503\t\t\t\n      JUMPDEST \t\t\t\n      SWAP3 \t\t\t\n      POP \t\t\t\n      DUP3 \t\t\t\n      DUP3 \t\t\t\n      SUB \t\t\t\n      SWAP1 \t\t\t\n      POP \t\t\t\n      DUP2 \t\t\t\n      DUP2 \t\t\t\n      GT \t\t\t\n      ISZERO \t\t\t\n      PUSH [tag] 504\t\t\t\n      JUMPI \t\t\t\n      PUSH [tag] 505\t\t\t\n      PUSH [tag] 316\t\t\t\n      JUMP \t\t\t\n    tag 505\t\t\t\n      JUMPDEST \t\t\t\n    tag 504\t\t\t\n      JUMPDEST \t\t\t\n      SWAP3 \t\t\t\n      SWAP2 \t\t\t\n      POP \t\t\t\n      POP \t\t\t\n      JUMP \t\t\t\n    tag 213\t\t\t\n      JUMPDEST \t\t\t\n      PUSH 0\t\t\t\n      PUSH 60\t\t\t\n      DUP3 \t\t\t\n      ADD \t\t\t\n      SWAP1 \t\t\t\n      POP \t\t\t\n      DUP2 \t\t\t\n      DUP2 \t\t\t\n      SUB \t\t\t\n      PUSH 0\t\t\t\n      DUP4 \t\t\t\n      ADD \t\t\t\n      MSTORE \t\t\t\n      PUSH [tag] 507\t\t\t\n      DUP2 \t\t\t\n      DUP7 \t\t\t\n      PUSH [tag] 286\t\t\t\n      JUMP \t\t\t\n    tag 507\t\t\t\n      JUMPDEST \t\t\t\n      SWAP1 \t\t\t\n      POP \t\t\t\n      DUP2 \t\t\t\n      DUP2 \t\t\t\n      SUB \t\t\t\n      PUSH 20\t\t\t\n      DUP4 \t\t\t\n      ADD \t\t\t\n      MSTORE \t\t\t\n      PUSH [tag] 508\t\t\t\n      DUP2 \t\t\t\n      DUP6 \t\t\t\n      PUSH [tag] 286\t\t\t\n      JUMP \t\t\t\n    tag 508\t\t\t\n      JUMPDEST \t\t\t\n      SWAP1 \t\t\t\n      POP \t\t\t\n      DUP2 \t\t\t\n      DUP2 \t\t\t\n      SUB \t\t\t\n      PUSH 40\t\t\t\n      DUP4 \t\t\t\n      ADD \t\t\t\n      MSTORE \t\t\t\n      PUSH [tag] 509\t\t\t\n      DUP2 \t\t\t\n      DUP5 \t\t\t\n      PUSH [tag] 286\t\t\t\n      JUMP \t\t\t\n    tag 509\t\t\t\n      JUMPDEST \t\t\t\n      SWAP1 \t\t\t\n      POP \t\t\t\n      SWAP5 \t\t\t\n      SWAP4 \t\t\t\n      POP \t\t\t\n      POP \t\t\t\n      POP \t\t\t\n      POP \t\t\t\n      JUMP \t\t\t\n    tag 317\t\t\t\n      JUMPDEST \t\t\t\n      PUSH 496E76616C696420616464726573730000000000000000000000000000000000\t\t\t\n      PUSH 0\t\t\t\n      DUP3 \t\t\t\n      ADD \t\t\t\n      MSTORE \t\t\t\n      POP \t\t\t\n      JUMP \t\t\t\n    tag 318\t\t\t\n      JUMPDEST \t\t\t\n      PUSH 0\t\t\t\n      PUSH [tag] 512\t\t\t\n      PUSH F\t\t\t\n      DUP4 \t\t\t\n      PUSH [tag] 284\t\t\t\n      JUMP \t\t\t\n    tag 512\t\t\t\n      JUMPDEST \t\t\t\n      SWAP2 \t\t\t\n      POP \t\t\t\n      PUSH [tag] 513\t\t\t\n      DUP3 \t\t\t\n      PUSH [tag] 317\t\t\t\n      JUMP \t\t\t\n    tag 513\t\t\t\n      JUMPDEST \t\t\t\n      PUSH 20\t\t\t\n      DUP3 \t\t\t\n      ADD \t\t\t\n      SWAP1 \t\t\t\n      POP \t\t\t\n      SWAP2 \t\t\t\n      SWAP1 \t\t\t\n      POP \t\t\t\n      JUMP \t\t\t\n    tag 220\t\t\t\n      JUMPDEST \t\t\t\n      PUSH 0\t\t\t\n      PUSH 20\t\t\t\n      DUP3 \t\t\t\n      ADD \t\t\t\n      SWAP1 \t\t\t\n      POP \t\t\t\n      DUP2 \t\t\t\n      DUP2 \t\t\t\n      SUB \t\t\t\n      PUSH 0\t\t\t\n      DUP4 \t\t\t\n      ADD \t\t\t\n      MSTORE \t\t\t\n      PUSH [tag] 515\t\t\t\n      DUP2 \t\t\t\n      PUSH [tag] 318\t\t\t\n      JUMP \t\t\t\n    tag 515\t\t\t\n      JUMPDEST \t\t\t\n      SWAP1 \t\t\t\n      POP \t\t\t\n      SWAP2 \t\t\t\n      SWAP1 \t\t\t\n      POP \t\t\t\n      JUMP \t\t\t\n    tag 243\t\t\t\n      JUMPDEST \t\t\t\n      PUSH 0\t\t\t\n      PUSH 60\t\t\t\n      DUP3 \t\t\t\n      ADD \t\t\t\n      SWAP1 \t\t\t\n      POP \t\t\t\n      PUSH [tag] 517\t\t\t\n      PUSH 0\t\t\t\n      DUP4 \t\t\t\n      ADD \t\t\t\n      DUP7 \t\t\t\n      PUSH [tag] 299\t\t\t\n      JUMP \t\t\t\n    tag 517\t\t\t\n      JUMPDEST \t\t\t\n      PUSH [tag] 518\t\t\t\n      PUSH 20\t\t\t\n      DUP4 \t\t\t\n      ADD \t\t\t\n      DUP6 \t\t\t\n      PUSH [tag] 296\t\t\t\n      JUMP \t\t\t\n    tag 518\t\t\t\n      JUMPDEST \t\t\t\n      PUSH [tag] 519\t\t\t\n      PUSH 40\t\t\t\n      DUP4 \t\t\t\n      ADD \t\t\t\n      DUP5 \t\t\t\n      PUSH [tag] 296\t\t\t\n      JUMP \t\t\t\n    tag 519\t\t\t\n      JUMPDEST \t\t\t\n      SWAP5 \t\t\t\n      SWAP4 \t\t\t\n      POP \t\t\t\n      POP \t\t\t\n      POP \t\t\t\n      POP \t\t\t\n      JUMP \t\t\t\n    tag 263\t\t\t\n      JUMPDEST \t\t\t\n      PUSH 0\t\t\t\n      PUSH [tag] 521\t\t\t\n      DUP3 \t\t\t\n      PUSH [tag] 291\t\t\t\n      JUMP \t\t\t\n    tag 521\t\t\t\n      JUMPDEST \t\t\t\n      SWAP2 \t\t\t\n      POP \t\t\t\n      PUSH [tag] 522\t\t\t\n      DUP4 \t\t\t\n      PUSH [tag] 291\t\t\t\n      JUMP \t\t\t\n    tag 522\t\t\t\n      JUMPDEST \t\t\t\n      SWAP3 \t\t\t\n      POP \t\t\t\n      DUP3 \t\t\t\n      DUP3 \t\t\t\n      ADD \t\t\t\n      SWAP1 \t\t\t\n      POP \t\t\t\n      DUP1 \t\t\t\n      DUP3 \t\t\t\n      GT \t\t\t\n      ISZERO \t\t\t\n      PUSH [tag] 523\t\t\t\n      JUMPI \t\t\t\n      PUSH [tag] 524\t\t\t\n      PUSH [tag] 316\t\t\t\n      JUMP \t\t\t\n    tag 524\t\t\t\n      JUMPDEST \t\t\t\n    tag 523\t\t\t\n      JUMPDEST \t\t\t\n      SWAP3 \t\t\t\n      SWAP2 \t\t\t\n      POP \t\t\t\n      POP \t\t\t\n      JUMP \t\t\t\n    .data\n  5CBBDB55ACA4552FEEF66A78B71220654669B7FD42B60EF41B38DEEC6BF93FE3:\n    456e7669726f6e6d656e74616c20616e6420617373657420646f63756d656e746174696f6e\n  8C5F82D13E45FD2F12771247B9C65EB53F78E9D62D52383B45BF80805CA6AB4D:\n    436172626f6e2043726564697420436f696e732028434343292069732061206469676974616c2061737365742064657369676e656420746f20726570726573656e7420656e7669726f6e6d656e74616c2076616c7565207468726f75676820746f6b656e697a6174696f6e206f6620636172626f6e2d72656c61746564206173736574732c20737570706f7274656420627920646f63756d656e746174696f6e2c206175646974732c20616e64207472616e73706172656e6379206d656368616e69736d732e\n"
}